{
  "_format": "hh-sol-artifact-1",
  "contractName": "Ticket",
  "sourceName": "contracts/Lock.sol",
  "abi": [
    {
      "inputs": [
        {
          "internalType": "uint256",
          "name": "_creationFeePercentage",
          "type": "uint256"
        },
        {
          "internalType": "uint256",
          "name": "_purchaseFeePercentage",
          "type": "uint256"
        },
        {
          "internalType": "uint256",
          "name": "_resellingFeePercentage",
          "type": "uint256"
        }
      ],
      "stateMutability": "nonpayable",
      "type": "constructor"
    },
    {
      "anonymous": false,
      "inputs": [
        {
          "indexed": true,
          "internalType": "address",
          "name": "owner",
          "type": "address"
        },
        {
          "indexed": true,
          "internalType": "address",
          "name": "approved",
          "type": "address"
        },
        {
          "indexed": true,
          "internalType": "uint256",
          "name": "tokenId",
          "type": "uint256"
        }
      ],
      "name": "Approval",
      "type": "event"
    },
    {
      "anonymous": false,
      "inputs": [
        {
          "indexed": true,
          "internalType": "address",
          "name": "owner",
          "type": "address"
        },
        {
          "indexed": true,
          "internalType": "address",
          "name": "operator",
          "type": "address"
        },
        {
          "indexed": false,
          "internalType": "bool",
          "name": "approved",
          "type": "bool"
        }
      ],
      "name": "ApprovalForAll",
      "type": "event"
    },
    {
      "anonymous": false,
      "inputs": [
        {
          "indexed": false,
          "internalType": "uint256",
          "name": "_fromTokenId",
          "type": "uint256"
        },
        {
          "indexed": false,
          "internalType": "uint256",
          "name": "_toTokenId",
          "type": "uint256"
        }
      ],
      "name": "BatchMetadataUpdate",
      "type": "event"
    },
    {
      "anonymous": false,
      "inputs": [
        {
          "indexed": false,
          "internalType": "uint256",
          "name": "_tokenId",
          "type": "uint256"
        }
      ],
      "name": "MetadataUpdate",
      "type": "event"
    },
    {
      "anonymous": false,
      "inputs": [
        {
          "indexed": true,
          "internalType": "address",
          "name": "previousOwner",
          "type": "address"
        },
        {
          "indexed": true,
          "internalType": "address",
          "name": "newOwner",
          "type": "address"
        }
      ],
      "name": "OwnershipTransferred",
      "type": "event"
    },
    {
      "anonymous": false,
      "inputs": [
        {
          "indexed": true,
          "internalType": "uint256",
          "name": "tokenId",
          "type": "uint256"
        },
        {
          "indexed": false,
          "internalType": "uint256",
          "name": "totalTickets",
          "type": "uint256"
        },
        {
          "indexed": false,
          "internalType": "uint256",
          "name": "ticketPrice",
          "type": "uint256"
        },
        {
          "indexed": false,
          "internalType": "uint256",
          "name": "ticketStartDate",
          "type": "uint256"
        },
        {
          "indexed": false,
          "internalType": "uint256",
          "name": "ticketEndDate",
          "type": "uint256"
        }
      ],
      "name": "TicketCreated",
      "type": "event"
    },
    {
      "anonymous": false,
      "inputs": [
        {
          "indexed": true,
          "internalType": "uint256",
          "name": "tokenId",
          "type": "uint256"
        },
        {
          "indexed": false,
          "internalType": "address",
          "name": "buyer",
          "type": "address"
        },
        {
          "indexed": false,
          "internalType": "uint256",
          "name": "ticketsBought",
          "type": "uint256"
        }
      ],
      "name": "TicketPurchased",
      "type": "event"
    },
    {
      "anonymous": false,
      "inputs": [
        {
          "indexed": true,
          "internalType": "uint256",
          "name": "tokenId",
          "type": "uint256"
        },
        {
          "indexed": false,
          "internalType": "address",
          "name": "reseller",
          "type": "address"
        },
        {
          "indexed": false,
          "internalType": "uint256",
          "name": "ticketsBought",
          "type": "uint256"
        }
      ],
      "name": "TicketResell",
      "type": "event"
    },
    {
      "anonymous": false,
      "inputs": [
        {
          "indexed": true,
          "internalType": "uint256",
          "name": "tokenId",
          "type": "uint256"
        },
        {
          "indexed": false,
          "internalType": "address",
          "name": "reseller",
          "type": "address"
        },
        {
          "indexed": false,
          "internalType": "address",
          "name": "rebuyer",
          "type": "address"
        },
        {
          "indexed": false,
          "internalType": "uint256",
          "name": "ticketsBought",
          "type": "uint256"
        }
      ],
      "name": "TicketResold",
      "type": "event"
    },
    {
      "anonymous": false,
      "inputs": [
        {
          "indexed": true,
          "internalType": "address",
          "name": "from",
          "type": "address"
        },
        {
          "indexed": true,
          "internalType": "address",
          "name": "to",
          "type": "address"
        },
        {
          "indexed": true,
          "internalType": "uint256",
          "name": "tokenId",
          "type": "uint256"
        }
      ],
      "name": "Transfer",
      "type": "event"
    },
    {
      "inputs": [
        {
          "internalType": "address",
          "name": "to",
          "type": "address"
        },
        {
          "internalType": "uint256",
          "name": "tokenId",
          "type": "uint256"
        }
      ],
      "name": "approve",
      "outputs": [],
      "stateMutability": "nonpayable",
      "type": "function"
    },
    {
      "inputs": [
        {
          "internalType": "address",
          "name": "owner",
          "type": "address"
        }
      ],
      "name": "balanceOf",
      "outputs": [
        {
          "internalType": "uint256",
          "name": "",
          "type": "uint256"
        }
      ],
      "stateMutability": "view",
      "type": "function"
    },
    {
      "inputs": [
        {
          "internalType": "string",
          "name": "tokenURI",
          "type": "string"
        },
        {
          "internalType": "uint256",
          "name": "_totalTickets",
          "type": "uint256"
        },
        {
          "internalType": "uint256",
          "name": "_ticketPrice",
          "type": "uint256"
        },
        {
          "internalType": "uint256",
          "name": "_ticketEndDate",
          "type": "uint256"
        }
      ],
      "name": "createTicket",
      "outputs": [],
      "stateMutability": "payable",
      "type": "function"
    },
    {
      "inputs": [],
      "name": "creationFeePercentage",
      "outputs": [
        {
          "internalType": "uint256",
          "name": "",
          "type": "uint256"
        }
      ],
      "stateMutability": "view",
      "type": "function"
    },
    {
      "inputs": [
        {
          "internalType": "uint256",
          "name": "tokenId",
          "type": "uint256"
        }
      ],
      "name": "getApproved",
      "outputs": [
        {
          "internalType": "address",
          "name": "",
          "type": "address"
        }
      ],
      "stateMutability": "view",
      "type": "function"
    },
    {
      "inputs": [],
      "name": "getCreationFeePercentage",
      "outputs": [
        {
          "internalType": "uint256",
          "name": "",
          "type": "uint256"
        }
      ],
      "stateMutability": "view",
      "type": "function"
    },
    {
      "inputs": [],
      "name": "getPurchaseFeePercentage",
      "outputs": [
        {
          "internalType": "uint256",
          "name": "",
          "type": "uint256"
        }
      ],
      "stateMutability": "view",
      "type": "function"
    },
    {
      "inputs": [
        {
          "internalType": "uint256",
          "name": "tokenID",
          "type": "uint256"
        }
      ],
      "name": "getPurchaseInfo",
      "outputs": [
        {
          "components": [
            {
              "internalType": "uint256",
              "name": "ticketsBought",
              "type": "uint256"
            },
            {
              "internalType": "uint256",
              "name": "ticketsToResell",
              "type": "uint256"
            },
            {
              "internalType": "uint256",
              "name": "totalPrice",
              "type": "uint256"
            },
            {
              "internalType": "uint256",
              "name": "ticketId",
              "type": "uint256"
            },
            {
              "internalType": "uint256",
              "name": "purchaseId",
              "type": "uint256"
            },
            {
              "internalType": "uint256",
              "name": "purchaseTimestamp",
              "type": "uint256"
            },
            {
              "internalType": "address",
              "name": "buyer",
              "type": "address"
            }
          ],
          "internalType": "struct Ticket.PurchaseInfo[]",
          "name": "",
          "type": "tuple[]"
        }
      ],
      "stateMutability": "view",
      "type": "function"
    },
    {
      "inputs": [
        {
          "internalType": "uint256",
          "name": "tokenID",
          "type": "uint256"
        }
      ],
      "name": "getTicketInfo",
      "outputs": [
        {
          "components": [
            {
              "internalType": "uint256",
              "name": "tokenId",
              "type": "uint256"
            },
            {
              "internalType": "uint256",
              "name": "totalTickets",
              "type": "uint256"
            },
            {
              "internalType": "uint256",
              "name": "ticketsSold",
              "type": "uint256"
            },
            {
              "internalType": "uint256",
              "name": "ticketPrice",
              "type": "uint256"
            },
            {
              "internalType": "uint256",
              "name": "ticketStartDate",
              "type": "uint256"
            },
            {
              "internalType": "uint256",
              "name": "ticketEndDate",
              "type": "uint256"
            },
            {
              "internalType": "uint256",
              "name": "ticketHoldDate",
              "type": "uint256"
            },
            {
              "internalType": "address",
              "name": "creator",
              "type": "address"
            },
            {
              "internalType": "bool",
              "name": "ticketSold",
              "type": "bool"
            },
            {
              "internalType": "bool",
              "name": "isResellable",
              "type": "bool"
            }
          ],
          "internalType": "struct Ticket.TicketInfo",
          "name": "",
          "type": "tuple"
        }
      ],
      "stateMutability": "view",
      "type": "function"
    },
    {
      "inputs": [
        {
          "internalType": "address",
          "name": "user",
          "type": "address"
        }
      ],
      "name": "getUserTickets",
      "outputs": [
        {
          "internalType": "uint256[]",
          "name": "",
          "type": "uint256[]"
        }
      ],
      "stateMutability": "view",
      "type": "function"
    },
    {
      "inputs": [
        {
          "internalType": "address",
          "name": "owner",
          "type": "address"
        },
        {
          "internalType": "address",
          "name": "operator",
          "type": "address"
        }
      ],
      "name": "isApprovedForAll",
      "outputs": [
        {
          "internalType": "bool",
          "name": "",
          "type": "bool"
        }
      ],
      "stateMutability": "view",
      "type": "function"
    },
    {
      "inputs": [],
      "name": "name",
      "outputs": [
        {
          "internalType": "string",
          "name": "",
          "type": "string"
        }
      ],
      "stateMutability": "view",
      "type": "function"
    },
    {
      "inputs": [],
      "name": "owner",
      "outputs": [
        {
          "internalType": "address",
          "name": "",
          "type": "address"
        }
      ],
      "stateMutability": "view",
      "type": "function"
    },
    {
      "inputs": [
        {
          "internalType": "uint256",
          "name": "tokenId",
          "type": "uint256"
        }
      ],
      "name": "ownerOf",
      "outputs": [
        {
          "internalType": "address",
          "name": "",
          "type": "address"
        }
      ],
      "stateMutability": "view",
      "type": "function"
    },
    {
      "inputs": [],
      "name": "purchaseFeePercentage",
      "outputs": [
        {
          "internalType": "uint256",
          "name": "",
          "type": "uint256"
        }
      ],
      "stateMutability": "view",
      "type": "function"
    },
    {
      "inputs": [
        {
          "internalType": "uint256",
          "name": "tokenID",
          "type": "uint256"
        },
        {
          "internalType": "uint256",
          "name": "ticketsToBuy",
          "type": "uint256"
        }
      ],
      "name": "purchaseTicket",
      "outputs": [],
      "stateMutability": "payable",
      "type": "function"
    },
    {
      "inputs": [
        {
          "internalType": "uint256",
          "name": "tokenId",
          "type": "uint256"
        },
        {
          "internalType": "uint256",
          "name": "buyticketId",
          "type": "uint256"
        }
      ],
      "name": "reBuyTicket",
      "outputs": [],
      "stateMutability": "payable",
      "type": "function"
    },
    {
      "inputs": [],
      "name": "renounceOwnership",
      "outputs": [],
      "stateMutability": "nonpayable",
      "type": "function"
    },
    {
      "inputs": [
        {
          "internalType": "uint256",
          "name": "tokenId",
          "type": "uint256"
        },
        {
          "internalType": "uint256",
          "name": "ticketsToSell",
          "type": "uint256"
        }
      ],
      "name": "resellTicket",
      "outputs": [],
      "stateMutability": "nonpayable",
      "type": "function"
    },
    {
      "inputs": [],
      "name": "resellingFeePercentage",
      "outputs": [
        {
          "internalType": "uint256",
          "name": "",
          "type": "uint256"
        }
      ],
      "stateMutability": "view",
      "type": "function"
    },
    {
      "inputs": [
        {
          "internalType": "address",
          "name": "from",
          "type": "address"
        },
        {
          "internalType": "address",
          "name": "to",
          "type": "address"
        },
        {
          "internalType": "uint256",
          "name": "tokenId",
          "type": "uint256"
        }
      ],
      "name": "safeTransferFrom",
      "outputs": [],
      "stateMutability": "nonpayable",
      "type": "function"
    },
    {
      "inputs": [
        {
          "internalType": "address",
          "name": "from",
          "type": "address"
        },
        {
          "internalType": "address",
          "name": "to",
          "type": "address"
        },
        {
          "internalType": "uint256",
          "name": "tokenId",
          "type": "uint256"
        },
        {
          "internalType": "bytes",
          "name": "data",
          "type": "bytes"
        }
      ],
      "name": "safeTransferFrom",
      "outputs": [],
      "stateMutability": "nonpayable",
      "type": "function"
    },
    {
      "inputs": [
        {
          "internalType": "address",
          "name": "operator",
          "type": "address"
        },
        {
          "internalType": "bool",
          "name": "approved",
          "type": "bool"
        }
      ],
      "name": "setApprovalForAll",
      "outputs": [],
      "stateMutability": "nonpayable",
      "type": "function"
    },
    {
      "inputs": [
        {
          "internalType": "bytes4",
          "name": "interfaceId",
          "type": "bytes4"
        }
      ],
      "name": "supportsInterface",
      "outputs": [
        {
          "internalType": "bool",
          "name": "",
          "type": "bool"
        }
      ],
      "stateMutability": "view",
      "type": "function"
    },
    {
      "inputs": [],
      "name": "symbol",
      "outputs": [
        {
          "internalType": "string",
          "name": "",
          "type": "string"
        }
      ],
      "stateMutability": "view",
      "type": "function"
    },
    {
      "inputs": [
        {
          "internalType": "uint256",
          "name": "",
          "type": "uint256"
        },
        {
          "internalType": "uint256",
          "name": "",
          "type": "uint256"
        }
      ],
      "name": "ticketPurchases",
      "outputs": [
        {
          "internalType": "uint256",
          "name": "ticketsBought",
          "type": "uint256"
        },
        {
          "internalType": "uint256",
          "name": "ticketsToResell",
          "type": "uint256"
        },
        {
          "internalType": "uint256",
          "name": "totalPrice",
          "type": "uint256"
        },
        {
          "internalType": "uint256",
          "name": "ticketId",
          "type": "uint256"
        },
        {
          "internalType": "uint256",
          "name": "purchaseId",
          "type": "uint256"
        },
        {
          "internalType": "uint256",
          "name": "purchaseTimestamp",
          "type": "uint256"
        },
        {
          "internalType": "address",
          "name": "buyer",
          "type": "address"
        }
      ],
      "stateMutability": "view",
      "type": "function"
    },
    {
      "inputs": [
        {
          "internalType": "uint256",
          "name": "",
          "type": "uint256"
        }
      ],
      "name": "tickets",
      "outputs": [
        {
          "internalType": "uint256",
          "name": "tokenId",
          "type": "uint256"
        },
        {
          "internalType": "uint256",
          "name": "totalTickets",
          "type": "uint256"
        },
        {
          "internalType": "uint256",
          "name": "ticketsSold",
          "type": "uint256"
        },
        {
          "internalType": "uint256",
          "name": "ticketPrice",
          "type": "uint256"
        },
        {
          "internalType": "uint256",
          "name": "ticketStartDate",
          "type": "uint256"
        },
        {
          "internalType": "uint256",
          "name": "ticketEndDate",
          "type": "uint256"
        },
        {
          "internalType": "uint256",
          "name": "ticketHoldDate",
          "type": "uint256"
        },
        {
          "internalType": "address",
          "name": "creator",
          "type": "address"
        },
        {
          "internalType": "bool",
          "name": "ticketSold",
          "type": "bool"
        },
        {
          "internalType": "bool",
          "name": "isResellable",
          "type": "bool"
        }
      ],
      "stateMutability": "view",
      "type": "function"
    },
    {
      "inputs": [
        {
          "internalType": "uint256",
          "name": "tokenId",
          "type": "uint256"
        }
      ],
      "name": "tokenURI",
      "outputs": [
        {
          "internalType": "string",
          "name": "",
          "type": "string"
        }
      ],
      "stateMutability": "view",
      "type": "function"
    },
    {
      "inputs": [
        {
          "internalType": "address",
          "name": "from",
          "type": "address"
        },
        {
          "internalType": "address",
          "name": "to",
          "type": "address"
        },
        {
          "internalType": "uint256",
          "name": "tokenId",
          "type": "uint256"
        }
      ],
      "name": "transferFrom",
      "outputs": [],
      "stateMutability": "nonpayable",
      "type": "function"
    },
    {
      "inputs": [
        {
          "internalType": "address",
          "name": "newOwner",
          "type": "address"
        }
      ],
      "name": "transferOwnership",
      "outputs": [],
      "stateMutability": "nonpayable",
      "type": "function"
    },
    {
      "inputs": [
        {
          "internalType": "uint256",
          "name": "_creationFeePercentage",
          "type": "uint256"
        }
      ],
      "name": "updateCreationFeePercentage",
      "outputs": [],
      "stateMutability": "nonpayable",
      "type": "function"
    },
    {
      "inputs": [
        {
          "internalType": "uint256",
          "name": "_purchaseFeePercentage",
          "type": "uint256"
        }
      ],
      "name": "updatePurchaseFeePercentage",
      "outputs": [],
      "stateMutability": "nonpayable",
      "type": "function"
    },
    {
      "inputs": [
        {
          "internalType": "address",
          "name": "",
          "type": "address"
        },
        {
          "internalType": "uint256",
          "name": "",
          "type": "uint256"
        }
      ],
      "name": "userTickets",
      "outputs": [
        {
          "internalType": "uint256",
          "name": "",
          "type": "uint256"
        }
      ],
      "stateMutability": "view",
      "type": "function"
    }
  ],
  "bytecode": "0x60806040523480156200001157600080fd5b50604051620057e4380380620057e4833981810160405281019062000037919062000215565b6040518060400160405280600681526020017f5469636b657400000000000000000000000000000000000000000000000000008152506040518060400160405280600681526020017f5449434b455400000000000000000000000000000000000000000000000000008152508160009081620000b49190620004e1565b508060019081620000c69190620004e1565b505050620000e9620000dd6200010760201b60201c565b6200010f60201b60201c565b8260098190555081600a8190555080600b81905550505050620005c8565b600033905090565b6000600760009054906101000a900473ffffffffffffffffffffffffffffffffffffffff16905081600760006101000a81548173ffffffffffffffffffffffffffffffffffffffff021916908373ffffffffffffffffffffffffffffffffffffffff1602179055508173ffffffffffffffffffffffffffffffffffffffff168173ffffffffffffffffffffffffffffffffffffffff167f8be0079c531659141344cd1fd0a4f28419497f9722a3daafe3b4186f6b6457e060405160405180910390a35050565b600080fd5b6000819050919050565b620001ef81620001da565b8114620001fb57600080fd5b50565b6000815190506200020f81620001e4565b92915050565b600080600060608486031215620002315762000230620001d5565b5b60006200024186828701620001fe565b93505060206200025486828701620001fe565b92505060406200026786828701620001fe565b9150509250925092565b600081519050919050565b7f4e487b7100000000000000000000000000000000000000000000000000000000600052604160045260246000fd5b7f4e487b7100000000000000000000000000000000000000000000000000000000600052602260045260246000fd5b60006002820490506001821680620002f357607f821691505b602082108103620003095762000308620002ab565b5b50919050565b60008190508160005260206000209050919050565b60006020601f8301049050919050565b600082821b905092915050565b600060088302620003737fffffffffffffffffffffffffffffffffffffffffffffffffffffffffffffffff8262000334565b6200037f868362000334565b95508019841693508086168417925050509392505050565b6000819050919050565b6000620003c2620003bc620003b684620001da565b62000397565b620001da565b9050919050565b6000819050919050565b620003de83620003a1565b620003f6620003ed82620003c9565b84845462000341565b825550505050565b600090565b6200040d620003fe565b6200041a818484620003d3565b505050565b5b8181101562000442576200043660008262000403565b60018101905062000420565b5050565b601f82111562000491576200045b816200030f565b620004668462000324565b8101602085101562000476578190505b6200048e620004858562000324565b8301826200041f565b50505b505050565b600082821c905092915050565b6000620004b66000198460080262000496565b1980831691505092915050565b6000620004d18383620004a3565b9150826002028217905092915050565b620004ec8262000271565b67ffffffffffffffff8111156200050857620005076200027c565b5b620005148254620002da565b6200052182828562000446565b600060209050601f83116001811462000559576000841562000544578287015190505b620005508582620004c3565b865550620005c0565b601f19841662000569866200030f565b60005b8281101562000593578489015182556001820191506020850194506020810190506200056c565b86831015620005b35784890151620005af601f891682620004a3565b8355505b6001600288020188555050505b505050505050565b61520c80620005d86000396000f3fe6080604052600436106101ee5760003560e01c8063715018a61161010d578063b88d4fde116100a0578063d615d1211161006f578063d615d12114610728578063d91043f214610744578063e985e9c51461076f578063f2fde38b146107ac578063ff99a063146107d5576101ee565b8063b88d4fde14610669578063bdbbb0cb14610692578063c87b56dd146106ae578063cf260baf146106eb576101ee565b8063a22cb465116100dc578063a22cb465146105a9578063a4646ba7146105d2578063b57b0de714610615578063b5e1a3c01461063e576101ee565b8063715018a6146105115780638412153f146105285780638da5cb5b1461055357806395d89b411461057e576101ee565b8063348e99131161018557806350b447121161015457806350b4471214610414578063588750491461045a5780636352211e1461049757806370a08231146104d4576101ee565b8063348e99131461036c5780633df8cd721461039557806342842e0e146103c0578063461c3e21146103e9576101ee565b8063095ea7b3116101c1578063095ea7b3146102d557806323b872dd146102fe57806329520cae146103275780632decc62b14610350576101ee565b806301ffc9a7146101f35780630484a22f1461023057806306fdde031461026d578063081812fc14610298575b600080fd5b3480156101ff57600080fd5b5061021a600480360381019061021591906133bf565b610812565b6040516102279190613407565b60405180910390f35b34801561023c57600080fd5b5061025760048036038101906102529190613480565b610873565b6040516102649190613575565b60405180910390f35b34801561027957600080fd5b5061028261090a565b60405161028f9190613627565b60405180910390f35b3480156102a457600080fd5b506102bf60048036038101906102ba9190613675565b61099c565b6040516102cc91906136b1565b60405180910390f35b3480156102e157600080fd5b506102fc60048036038101906102f791906136cc565b6109e2565b005b34801561030a57600080fd5b506103256004803603810190610320919061370c565b610af9565b005b34801561033357600080fd5b5061034e60048036038101906103499190613675565b610b59565b005b61036a600480360381019061036591906137c4565b610b6b565b005b34801561037857600080fd5b50610393600480360381019061038e919061384c565b610ed0565b005b3480156103a157600080fd5b506103aa6112dc565b6040516103b7919061389b565b60405180910390f35b3480156103cc57600080fd5b506103e760048036038101906103e2919061370c565b6112e2565b005b3480156103f557600080fd5b506103fe611302565b60405161040b919061389b565b60405180910390f35b34801561042057600080fd5b5061043b60048036038101906104369190613675565b61130c565b6040516104519a999897969594939291906138b6565b60405180910390f35b34801561046657600080fd5b50610481600480360381019061047c9190613675565b61139a565b60405161048e9190613a9e565b60405180910390f35b3480156104a357600080fd5b506104be60048036038101906104b99190613675565b61149e565b6040516104cb91906136b1565b60405180910390f35b3480156104e057600080fd5b506104fb60048036038101906104f69190613480565b611524565b604051610508919061389b565b60405180910390f35b34801561051d57600080fd5b506105266115db565b005b34801561053457600080fd5b5061053d6115ef565b60405161054a919061389b565b60405180910390f35b34801561055f57600080fd5b506105686115f5565b60405161057591906136b1565b60405180910390f35b34801561058a57600080fd5b5061059361161f565b6040516105a09190613627565b60405180910390f35b3480156105b557600080fd5b506105d060048036038101906105cb9190613aec565b6116b1565b005b3480156105de57600080fd5b506105f960048036038101906105f4919061384c565b6116c7565b60405161060c9796959493929190613b2c565b60405180910390f35b34801561062157600080fd5b5061063c60048036038101906106379190613675565b611746565b005b34801561064a57600080fd5b50610653611758565b604051610660919061389b565b60405180910390f35b34801561067557600080fd5b50610690600480360381019061068b9190613ccb565b611762565b005b6106ac60048036038101906106a7919061384c565b6117c4565b005b3480156106ba57600080fd5b506106d560048036038101906106d09190613675565b611c0f565b6040516106e29190613627565b60405180910390f35b3480156106f757600080fd5b50610712600480360381019061070d91906136cc565b611d21565b60405161071f919061389b565b60405180910390f35b610742600480360381019061073d919061384c565b611d52565b005b34801561075057600080fd5b50610759611fa5565b604051610766919061389b565b60405180910390f35b34801561077b57600080fd5b5061079660048036038101906107919190613d4e565b611fab565b6040516107a39190613407565b60405180910390f35b3480156107b857600080fd5b506107d360048036038101906107ce9190613480565b61203f565b005b3480156107e157600080fd5b506107fc60048036038101906107f79190613675565b6120c2565b6040516108099190613e69565b60405180910390f35b6000634906490660e01b7bffffffffffffffffffffffffffffffffffffffffffffffffffffffff1916827bffffffffffffffffffffffffffffffffffffffffffffffffffffffff1916148061086c575061086b826121c2565b5b9050919050565b6060600d60008373ffffffffffffffffffffffffffffffffffffffff1673ffffffffffffffffffffffffffffffffffffffff1681526020019081526020016000208054806020026020016040519081016040528092919081815260200182805480156108fe57602002820191906000526020600020905b8154815260200190600101908083116108ea575b50505050509050919050565b60606000805461091990613eb4565b80601f016020809104026020016040519081016040528092919081815260200182805461094590613eb4565b80156109925780601f1061096757610100808354040283529160200191610992565b820191906000526020600020905b81548152906001019060200180831161097557829003601f168201915b5050505050905090565b60006109a7826122a4565b6004600083815260200190815260200160002060009054906101000a900473ffffffffffffffffffffffffffffffffffffffff169050919050565b60006109ed8261149e565b90508073ffffffffffffffffffffffffffffffffffffffff168373ffffffffffffffffffffffffffffffffffffffff1603610a5d576040517f08c379a0000000000000000000000000000000000000000000000000000000008152600401610a5490613f57565b60405180910390fd5b8073ffffffffffffffffffffffffffffffffffffffff16610a7c6122ef565b73ffffffffffffffffffffffffffffffffffffffff161480610aab5750610aaa81610aa56122ef565b611fab565b5b610aea576040517f08c379a0000000000000000000000000000000000000000000000000000000008152600401610ae190613fe9565b60405180910390fd5b610af483836122f7565b505050565b610b0a610b046122ef565b826123b0565b610b49576040517f08c379a0000000000000000000000000000000000000000000000000000000008152600401610b409061407b565b60405180910390fd5b610b54838383612445565b505050565b610b6161273e565b80600a8190555050565b60008311610bae576040517f08c379a0000000000000000000000000000000000000000000000000000000008152600401610ba59061410d565b60405180910390fd5b60008211610bf1576040517f08c379a0000000000000000000000000000000000000000000000000000000008152600401610be89061419f565b60405180910390fd5b428111610c33576040517f08c379a0000000000000000000000000000000000000000000000000000000008152600401610c2a90614231565b60405180910390fd5b6000610c3f60086127bc565b9050610c4b60086127ca565b610c5533826127e0565b610ca38187878080601f016020809104026020016040519081016040528093929190818152602001838380828437600081840152601f19601f820116905080830192505050505050506127fe565b600042905060405180610140016040528083815260200186815260200160008152602001858152602001828152602001848152602001600081526020013373ffffffffffffffffffffffffffffffffffffffff16815260200160001515815260200160001515815250600c6000848152602001908152602001600020600082015181600001556020820151816001015560408201518160020155606082015181600301556080820151816004015560a0820151816005015560c0820151816006015560e08201518160070160006101000a81548173ffffffffffffffffffffffffffffffffffffffff021916908373ffffffffffffffffffffffffffffffffffffffff1602179055506101008201518160070160146101000a81548160ff0219169083151502179055506101208201518160070160156101000a81548160ff02191690831515021790555090505060006009549050803414610e3a576040517f08c379a0000000000000000000000000000000000000000000000000000000008152600401610e319061429d565b60405180910390fd5b610e426115f5565b73ffffffffffffffffffffffffffffffffffffffff166108fc829081150290604051600060405180830381858888f19350505050158015610e87573d6000803e3d6000fd5b50827feea3bb912a3441ad5433c22840a518110f72b0e83e07c3c86a790f04cb4ee99487878588604051610ebe94939291906142bd565b60405180910390a25050505050505050565b6000600c6000848152602001908152602001600020905060008211610f2a576040517f08c379a0000000000000000000000000000000000000000000000000000000008152600401610f219061434e565b60405180910390fd5b8060020154821115610f71576040517f08c379a0000000000000000000000000000000000000000000000000000000008152600401610f68906143ba565b60405180910390fd5b806005015481600601541015610fbc576040517f08c379a0000000000000000000000000000000000000000000000000000000008152600401610fb390614426565b60405180910390fd5b60008060005b600e6000878152602001908152602001600020805490508110156110ff573373ffffffffffffffffffffffffffffffffffffffff16600e6000888152602001908152602001600020828154811061101c5761101b614446565b5b906000526020600020906007020160060160009054906101000a900473ffffffffffffffffffffffffffffffffffffffff1673ffffffffffffffffffffffffffffffffffffffff16036110f257600e6000878152602001908152602001600020818154811061108e5761108d614446565b5b906000526020600020906007020160000154836110ab91906144a4565b9250600e600087815260200190815260200160002081815481106110d2576110d1614446565b5b906000526020600020906007020160010154826110ef91906144a4565b91505b8080600101915050610fc2565b5083821015611143576040517f08c379a000000000000000000000000000000000000000000000000000000000815260040161113a90614524565b60405180910390fd5b81848261115091906144a4565b1115611191576040517f08c379a0000000000000000000000000000000000000000000000000000000008152600401611188906145b6565b60405180910390fd5b60005b600e60008781526020019081526020016000208054905081101561129a573373ffffffffffffffffffffffffffffffffffffffff16600e600088815260200190815260200160002082815481106111ee576111ed614446565b5b906000526020600020906007020160060160009054906101000a900473ffffffffffffffffffffffffffffffffffffffff1673ffffffffffffffffffffffffffffffffffffffff160361128d5784600e6000888152602001908152602001600020828154811061126157611260614446565b5b9060005260206000209060070201600101600082825461128191906144a4565b9250508190555061129a565b8080600101915050611194565b50847ff5faf79426a1fb4bc0362d335bf6e794d532c7c33fed7cdf921a59bc3b6dbffe33866040516112cd9291906145d6565b60405180910390a25050505050565b600a5481565b6112fd83838360405180602001604052806000815250611762565b505050565b6000600a54905090565b600c6020528060005260406000206000915090508060000154908060010154908060020154908060030154908060040154908060050154908060060154908060070160009054906101000a900473ffffffffffffffffffffffffffffffffffffffff16908060070160149054906101000a900460ff16908060070160159054906101000a900460ff1690508a565b6060600e6000838152602001908152602001600020805480602002602001604051908101604052809291908181526020016000905b8282101561149357838290600052602060002090600702016040518060e00160405290816000820154815260200160018201548152602001600282015481526020016003820154815260200160048201548152602001600582015481526020016006820160009054906101000a900473ffffffffffffffffffffffffffffffffffffffff1673ffffffffffffffffffffffffffffffffffffffff1673ffffffffffffffffffffffffffffffffffffffff1681525050815260200190600101906113cf565b505050509050919050565b6000806114aa836128a2565b9050600073ffffffffffffffffffffffffffffffffffffffff168173ffffffffffffffffffffffffffffffffffffffff160361151b576040517f08c379a00000000000000000000000000000000000000000000000000000000081526004016115129061464b565b60405180910390fd5b80915050919050565b60008073ffffffffffffffffffffffffffffffffffffffff168273ffffffffffffffffffffffffffffffffffffffff1603611594576040517f08c379a000000000000000000000000000000000000000000000000000000000815260040161158b906146dd565b60405180910390fd5b600360008373ffffffffffffffffffffffffffffffffffffffff1673ffffffffffffffffffffffffffffffffffffffff168152602001908152602001600020549050919050565b6115e361273e565b6115ed60006128df565b565b600b5481565b6000600760009054906101000a900473ffffffffffffffffffffffffffffffffffffffff16905090565b60606001805461162e90613eb4565b80601f016020809104026020016040519081016040528092919081815260200182805461165a90613eb4565b80156116a75780601f1061167c576101008083540402835291602001916116a7565b820191906000526020600020905b81548152906001019060200180831161168a57829003601f168201915b5050505050905090565b6116c36116bc6122ef565b83836129a5565b5050565b600e60205281600052604060002081815481106116e357600080fd5b9060005260206000209060070201600091509150508060000154908060010154908060020154908060030154908060040154908060050154908060060160009054906101000a900473ffffffffffffffffffffffffffffffffffffffff16905087565b61174e61273e565b8060098190555050565b6000600954905090565b61177361176d6122ef565b836123b0565b6117b2576040517f08c379a00000000000000000000000000000000000000000000000000000000081526004016117a99061407b565b60405180910390fd5b6117be84848484612b11565b50505050565b6000600c600084815260200190815260200160002090508060070160149054906101000a900460ff161561182d576040517f08c379a000000000000000000000000000000000000000000000000000000000815260040161182490614749565b60405180910390fd5b6003821061183a57600080fd5b60008211801561185d5750806002015481600101546118599190614769565b8211155b61189c576040517f08c379a00000000000000000000000000000000000000000000000000000000081526004016118939061434e565b60405180910390fd5b60008282600301546118ae919061479d565b90506000600a549050600081836118c591906144a4565b9050803414611909576040517f08c379a00000000000000000000000000000000000000000000000000000000081526004016119009061482b565b60405180910390fd5b8360070160009054906101000a900473ffffffffffffffffffffffffffffffffffffffff1673ffffffffffffffffffffffffffffffffffffffff166108fc849081150290604051600060405180830381858888f19350505050158015611973573d6000803e3d6000fd5b5061197c6115f5565b73ffffffffffffffffffffffffffffffffffffffff166108fc839081150290604051600060405180830381858888f193505050501580156119c1573d6000803e3d6000fd5b5060005b85811015611bd95760006119d960086127bc565b90506119e560086127ca565b6119ef33826127e0565b611a01816119fc8a611c0f565b6127fe565b600d60003373ffffffffffffffffffffffffffffffffffffffff1673ffffffffffffffffffffffffffffffffffffffff168152602001908152602001600020819080600181540180825580915050600190039060005260206000200160009091909190915055600e60008281526020019081526020016000206040518060e001604052806001815260200160018152602001886003015481526020018a81526020018381526020014281526020013373ffffffffffffffffffffffffffffffffffffffff168152509080600181540180825580915050600190039060005260206000209060070201600090919091909150600082015181600001556020820151816001015560408201518160020155606082015181600301556080820151816004015560a0820151816005015560c08201518160060160006101000a81548173ffffffffffffffffffffffffffffffffffffffff021916908373ffffffffffffffffffffffffffffffffffffffff1602179055505050856002016000815480929190611b8c9061484b565b9190505550807fdbaaf4c87ce30816c961a81d110622a3227ede77953d4383d514ff88ab2e0fd33389604051611bc39291906145d6565b60405180910390a25080806001019150506119c5565b508360010154846002015403611c075760018460070160146101000a81548160ff0219169083151502179055505b505050505050565b6060611c1a826122a4565b6000600660008481526020019081526020016000208054611c3a90613eb4565b80601f0160208091040260200160405190810160405280929190818152602001828054611c6690613eb4565b8015611cb35780601f10611c8857610100808354040283529160200191611cb3565b820191906000526020600020905b815481529060010190602001808311611c9657829003601f168201915b505050505090506000611cc4612b6d565b90506000815103611cd9578192505050611d1c565b600082511115611d0e578082604051602001611cf69291906148cf565b60405160208183030381529060405292505050611d1c565b611d1784612b84565b925050505b919050565b600d6020528160005260406000208181548110611d3d57600080fd5b90600052602060002001600091509150505481565b6001600c6000848152602001908152602001600020600201541015611dac576040517f08c379a0000000000000000000000000000000000000000000000000000000008152600401611da390614965565b60405180910390fd5b6000600b54600c600085815260200190815260200160002060030154611dd2919061479d565b600c600085815260200190815260200160002060030154611df391906144a4565b90503373ffffffffffffffffffffffffffffffffffffffff166108fc829081150290604051600060405180830381858888f19350505050158015611e3b573d6000803e3d6000fd5b5060005b600e600085815260200190815260200160002080549050811015611f9f5782600e60008681526020019081526020016000208281548110611e8357611e82614446565b5b90600052602060002090600702016003015403611f9257611efb600e60008681526020019081526020016000208281548110611ec257611ec1614446565b5b906000526020600020906007020160060160009054906101000a900473ffffffffffffffffffffffffffffffffffffffff163385612445565b837fd59a36d8310ffb140214be490baf3fe8961f859a17199ec1bf9015c8b7340011600e60008781526020019081526020016000208381548110611f4257611f41614446565b5b906000526020600020906007020160060160009054906101000a900473ffffffffffffffffffffffffffffffffffffffff163386604051611f8593929190614985565b60405180910390a2611f9f565b8080600101915050611e3f565b50505050565b60095481565b6000600560008473ffffffffffffffffffffffffffffffffffffffff1673ffffffffffffffffffffffffffffffffffffffff16815260200190815260200160002060008373ffffffffffffffffffffffffffffffffffffffff1673ffffffffffffffffffffffffffffffffffffffff16815260200190815260200160002060009054906101000a900460ff16905092915050565b61204761273e565b600073ffffffffffffffffffffffffffffffffffffffff168173ffffffffffffffffffffffffffffffffffffffff16036120b6576040517f08c379a00000000000000000000000000000000000000000000000000000000081526004016120ad90614a2e565b60405180910390fd5b6120bf816128df565b50565b6120ca6132e6565b600c600083815260200190815260200160002060405180610140016040529081600082015481526020016001820154815260200160028201548152602001600382015481526020016004820154815260200160058201548152602001600682015481526020016007820160009054906101000a900473ffffffffffffffffffffffffffffffffffffffff1673ffffffffffffffffffffffffffffffffffffffff1673ffffffffffffffffffffffffffffffffffffffff1681526020016007820160149054906101000a900460ff161515151581526020016007820160159054906101000a900460ff1615151515815250509050919050565b60007f80ac58cd000000000000000000000000000000000000000000000000000000007bffffffffffffffffffffffffffffffffffffffffffffffffffffffff1916827bffffffffffffffffffffffffffffffffffffffffffffffffffffffff1916148061228d57507f5b5e139f000000000000000000000000000000000000000000000000000000007bffffffffffffffffffffffffffffffffffffffffffffffffffffffff1916827bffffffffffffffffffffffffffffffffffffffffffffffffffffffff1916145b8061229d575061229c82612bec565b5b9050919050565b6122ad81612c56565b6122ec576040517f08c379a00000000000000000000000000000000000000000000000000000000081526004016122e39061464b565b60405180910390fd5b50565b600033905090565b816004600083815260200190815260200160002060006101000a81548173ffffffffffffffffffffffffffffffffffffffff021916908373ffffffffffffffffffffffffffffffffffffffff160217905550808273ffffffffffffffffffffffffffffffffffffffff1661236a8361149e565b73ffffffffffffffffffffffffffffffffffffffff167f8c5be1e5ebec7d5bd14f71427d1e84f3dd0314c0f7b2291e5b200ac8c7c3b92560405160405180910390a45050565b6000806123bc8361149e565b90508073ffffffffffffffffffffffffffffffffffffffff168473ffffffffffffffffffffffffffffffffffffffff1614806123fe57506123fd8185611fab565b5b8061243c57508373ffffffffffffffffffffffffffffffffffffffff166124248461099c565b73ffffffffffffffffffffffffffffffffffffffff16145b91505092915050565b8273ffffffffffffffffffffffffffffffffffffffff166124658261149e565b73ffffffffffffffffffffffffffffffffffffffff16146124bb576040517f08c379a00000000000000000000000000000000000000000000000000000000081526004016124b290614ac0565b60405180910390fd5b600073ffffffffffffffffffffffffffffffffffffffff168273ffffffffffffffffffffffffffffffffffffffff160361252a576040517f08c379a000000000000000000000000000000000000000000000000000000000815260040161252190614b52565b60405180910390fd5b6125378383836001612c97565b8273ffffffffffffffffffffffffffffffffffffffff166125578261149e565b73ffffffffffffffffffffffffffffffffffffffff16146125ad576040517f08c379a00000000000000000000000000000000000000000000000000000000081526004016125a490614ac0565b60405180910390fd5b6004600082815260200190815260200160002060006101000a81549073ffffffffffffffffffffffffffffffffffffffff02191690556001600360008573ffffffffffffffffffffffffffffffffffffffff1673ffffffffffffffffffffffffffffffffffffffff168152602001908152602001600020600082825403925050819055506001600360008473ffffffffffffffffffffffffffffffffffffffff1673ffffffffffffffffffffffffffffffffffffffff16815260200190815260200160002060008282540192505081905550816002600083815260200190815260200160002060006101000a81548173ffffffffffffffffffffffffffffffffffffffff021916908373ffffffffffffffffffffffffffffffffffffffff160217905550808273ffffffffffffffffffffffffffffffffffffffff168473ffffffffffffffffffffffffffffffffffffffff167fddf252ad1be2c89b69c2b068fc378daa952ba7f163c4a11628f55a4df523b3ef60405160405180910390a46127398383836001612c9d565b505050565b6127466122ef565b73ffffffffffffffffffffffffffffffffffffffff166127646115f5565b73ffffffffffffffffffffffffffffffffffffffff16146127ba576040517f08c379a00000000000000000000000000000000000000000000000000000000081526004016127b190614bbe565b60405180910390fd5b565b600081600001549050919050565b6001816000016000828254019250508190555050565b6127fa828260405180602001604052806000815250612ca3565b5050565b61280782612c56565b612846576040517f08c379a000000000000000000000000000000000000000000000000000000000815260040161283d90614c50565b60405180910390fd5b806006600084815260200190815260200160002090816128669190614e1c565b507ff8e1a15aba9398e019f0b49df1a4fde98ee17ae345cb5f6b5e2c27f5033e8ce782604051612896919061389b565b60405180910390a15050565b60006002600083815260200190815260200160002060009054906101000a900473ffffffffffffffffffffffffffffffffffffffff169050919050565b6000600760009054906101000a900473ffffffffffffffffffffffffffffffffffffffff16905081600760006101000a81548173ffffffffffffffffffffffffffffffffffffffff021916908373ffffffffffffffffffffffffffffffffffffffff1602179055508173ffffffffffffffffffffffffffffffffffffffff168173ffffffffffffffffffffffffffffffffffffffff167f8be0079c531659141344cd1fd0a4f28419497f9722a3daafe3b4186f6b6457e060405160405180910390a35050565b8173ffffffffffffffffffffffffffffffffffffffff168373ffffffffffffffffffffffffffffffffffffffff1603612a13576040517f08c379a0000000000000000000000000000000000000000000000000000000008152600401612a0a90614f3a565b60405180910390fd5b80600560008573ffffffffffffffffffffffffffffffffffffffff1673ffffffffffffffffffffffffffffffffffffffff16815260200190815260200160002060008473ffffffffffffffffffffffffffffffffffffffff1673ffffffffffffffffffffffffffffffffffffffff16815260200190815260200160002060006101000a81548160ff0219169083151502179055508173ffffffffffffffffffffffffffffffffffffffff168373ffffffffffffffffffffffffffffffffffffffff167f17307eab39ab6107e8899845ad3d59bd9653f200f220920489ca2b5937696c3183604051612b049190613407565b60405180910390a3505050565b612b1c848484612445565b612b2884848484612cfe565b612b67576040517f08c379a0000000000000000000000000000000000000000000000000000000008152600401612b5e90614fcc565b60405180910390fd5b50505050565b606060405180602001604052806000815250905090565b6060612b8f826122a4565b6000612b99612b6d565b90506000815111612bb95760405180602001604052806000815250612be4565b80612bc384612e85565b604051602001612bd49291906148cf565b6040516020818303038152906040525b915050919050565b60007f01ffc9a7000000000000000000000000000000000000000000000000000000007bffffffffffffffffffffffffffffffffffffffffffffffffffffffff1916827bffffffffffffffffffffffffffffffffffffffffffffffffffffffff1916149050919050565b60008073ffffffffffffffffffffffffffffffffffffffff16612c78836128a2565b73ffffffffffffffffffffffffffffffffffffffff1614159050919050565b50505050565b50505050565b612cad8383612f53565b612cba6000848484612cfe565b612cf9576040517f08c379a0000000000000000000000000000000000000000000000000000000008152600401612cf090614fcc565b60405180910390fd5b505050565b6000612d1f8473ffffffffffffffffffffffffffffffffffffffff16613170565b15612e78578373ffffffffffffffffffffffffffffffffffffffff1663150b7a02612d486122ef565b8786866040518563ffffffff1660e01b8152600401612d6a9493929190615041565b6020604051808303816000875af1925050508015612da657506040513d601f19601f82011682018060405250810190612da391906150a2565b60015b612e28573d8060008114612dd6576040519150601f19603f3d011682016040523d82523d6000602084013e612ddb565b606091505b506000815103612e20576040517f08c379a0000000000000000000000000000000000000000000000000000000008152600401612e1790614fcc565b60405180910390fd5b805181602001fd5b63150b7a0260e01b7bffffffffffffffffffffffffffffffffffffffffffffffffffffffff1916817bffffffffffffffffffffffffffffffffffffffffffffffffffffffff191614915050612e7d565b600190505b949350505050565b606060006001612e9484613193565b01905060008167ffffffffffffffff811115612eb357612eb2613ba0565b5b6040519080825280601f01601f191660200182016040528015612ee55781602001600182028036833780820191505090505b509050600082602001820190505b600115612f48578080600190039150507f3031323334353637383961626364656600000000000000000000000000000000600a86061a8153600a8581612f3c57612f3b6150cf565b5b04945060008503612ef3575b819350505050919050565b600073ffffffffffffffffffffffffffffffffffffffff168273ffffffffffffffffffffffffffffffffffffffff1603612fc2576040517f08c379a0000000000000000000000000000000000000000000000000000000008152600401612fb99061514a565b60405180910390fd5b612fcb81612c56565b1561300b576040517f08c379a0000000000000000000000000000000000000000000000000000000008152600401613002906151b6565b60405180910390fd5b613019600083836001612c97565b61302281612c56565b15613062576040517f08c379a0000000000000000000000000000000000000000000000000000000008152600401613059906151b6565b60405180910390fd5b6001600360008473ffffffffffffffffffffffffffffffffffffffff1673ffffffffffffffffffffffffffffffffffffffff16815260200190815260200160002060008282540192505081905550816002600083815260200190815260200160002060006101000a81548173ffffffffffffffffffffffffffffffffffffffff021916908373ffffffffffffffffffffffffffffffffffffffff160217905550808273ffffffffffffffffffffffffffffffffffffffff16600073ffffffffffffffffffffffffffffffffffffffff167fddf252ad1be2c89b69c2b068fc378daa952ba7f163c4a11628f55a4df523b3ef60405160405180910390a461316c600083836001612c9d565b5050565b6000808273ffffffffffffffffffffffffffffffffffffffff163b119050919050565b600080600090507a184f03e93ff9f4daa797ed6e38ed64bf6a1f01000000000000000083106131f1577a184f03e93ff9f4daa797ed6e38ed64bf6a1f01000000000000000083816131e7576131e66150cf565b5b0492506040810190505b6d04ee2d6d415b85acef8100000000831061322e576d04ee2d6d415b85acef81000000008381613224576132236150cf565b5b0492506020810190505b662386f26fc10000831061325d57662386f26fc100008381613253576132526150cf565b5b0492506010810190505b6305f5e1008310613286576305f5e100838161327c5761327b6150cf565b5b0492506008810190505b61271083106132ab5761271083816132a1576132a06150cf565b5b0492506004810190505b606483106132ce57606483816132c4576132c36150cf565b5b0492506002810190505b600a83106132dd576001810190505b80915050919050565b60405180610140016040528060008152602001600081526020016000815260200160008152602001600081526020016000815260200160008152602001600073ffffffffffffffffffffffffffffffffffffffff1681526020016000151581526020016000151581525090565b6000604051905090565b600080fd5b600080fd5b60007fffffffff0000000000000000000000000000000000000000000000000000000082169050919050565b61339c81613367565b81146133a757600080fd5b50565b6000813590506133b981613393565b92915050565b6000602082840312156133d5576133d461335d565b5b60006133e3848285016133aa565b91505092915050565b60008115159050919050565b613401816133ec565b82525050565b600060208201905061341c60008301846133f8565b92915050565b600073ffffffffffffffffffffffffffffffffffffffff82169050919050565b600061344d82613422565b9050919050565b61345d81613442565b811461346857600080fd5b50565b60008135905061347a81613454565b92915050565b6000602082840312156134965761349561335d565b5b60006134a48482850161346b565b91505092915050565b600081519050919050565b600082825260208201905092915050565b6000819050602082019050919050565b6000819050919050565b6134ec816134d9565b82525050565b60006134fe83836134e3565b60208301905092915050565b6000602082019050919050565b6000613522826134ad565b61352c81856134b8565b9350613537836134c9565b8060005b8381101561356857815161354f88826134f2565b975061355a8361350a565b92505060018101905061353b565b5085935050505092915050565b6000602082019050818103600083015261358f8184613517565b905092915050565b600081519050919050565b600082825260208201905092915050565b60005b838110156135d15780820151818401526020810190506135b6565b60008484015250505050565b6000601f19601f8301169050919050565b60006135f982613597565b61360381856135a2565b93506136138185602086016135b3565b61361c816135dd565b840191505092915050565b6000602082019050818103600083015261364181846135ee565b905092915050565b613652816134d9565b811461365d57600080fd5b50565b60008135905061366f81613649565b92915050565b60006020828403121561368b5761368a61335d565b5b600061369984828501613660565b91505092915050565b6136ab81613442565b82525050565b60006020820190506136c660008301846136a2565b92915050565b600080604083850312156136e3576136e261335d565b5b60006136f18582860161346b565b925050602061370285828601613660565b9150509250929050565b6000806000606084860312156137255761372461335d565b5b60006137338682870161346b565b93505060206137448682870161346b565b925050604061375586828701613660565b9150509250925092565b600080fd5b600080fd5b600080fd5b60008083601f8401126137845761378361375f565b5b8235905067ffffffffffffffff8111156137a1576137a0613764565b5b6020830191508360018202830111156137bd576137bc613769565b5b9250929050565b6000806000806000608086880312156137e0576137df61335d565b5b600086013567ffffffffffffffff8111156137fe576137fd613362565b5b61380a8882890161376e565b9550955050602061381d88828901613660565b935050604061382e88828901613660565b925050606061383f88828901613660565b9150509295509295909350565b600080604083850312156138635761386261335d565b5b600061387185828601613660565b925050602061388285828601613660565b9150509250929050565b613895816134d9565b82525050565b60006020820190506138b0600083018461388c565b92915050565b6000610140820190506138cc600083018d61388c565b6138d9602083018c61388c565b6138e6604083018b61388c565b6138f3606083018a61388c565b613900608083018961388c565b61390d60a083018861388c565b61391a60c083018761388c565b61392760e08301866136a2565b6139356101008301856133f8565b6139436101208301846133f8565b9b9a5050505050505050505050565b600081519050919050565b600082825260208201905092915050565b6000819050602082019050919050565b61398781613442565b82525050565b60e0820160008201516139a360008501826134e3565b5060208201516139b660208501826134e3565b5060408201516139c960408501826134e3565b5060608201516139dc60608501826134e3565b5060808201516139ef60808501826134e3565b5060a0820151613a0260a08501826134e3565b5060c0820151613a1560c085018261397e565b50505050565b6000613a27838361398d565b60e08301905092915050565b6000602082019050919050565b6000613a4b82613952565b613a55818561395d565b9350613a608361396e565b8060005b83811015613a91578151613a788882613a1b565b9750613a8383613a33565b925050600181019050613a64565b5085935050505092915050565b60006020820190508181036000830152613ab88184613a40565b905092915050565b613ac9816133ec565b8114613ad457600080fd5b50565b600081359050613ae681613ac0565b92915050565b60008060408385031215613b0357613b0261335d565b5b6000613b118582860161346b565b9250506020613b2285828601613ad7565b9150509250929050565b600060e082019050613b41600083018a61388c565b613b4e602083018961388c565b613b5b604083018861388c565b613b68606083018761388c565b613b75608083018661388c565b613b8260a083018561388c565b613b8f60c08301846136a2565b98975050505050505050565b600080fd5b7f4e487b7100000000000000000000000000000000000000000000000000000000600052604160045260246000fd5b613bd8826135dd565b810181811067ffffffffffffffff82111715613bf757613bf6613ba0565b5b80604052505050565b6000613c0a613353565b9050613c168282613bcf565b919050565b600067ffffffffffffffff821115613c3657613c35613ba0565b5b613c3f826135dd565b9050602081019050919050565b82818337600083830152505050565b6000613c6e613c6984613c1b565b613c00565b905082815260208101848484011115613c8a57613c89613b9b565b5b613c95848285613c4c565b509392505050565b600082601f830112613cb257613cb161375f565b5b8135613cc2848260208601613c5b565b91505092915050565b60008060008060808587031215613ce557613ce461335d565b5b6000613cf38782880161346b565b9450506020613d048782880161346b565b9350506040613d1587828801613660565b925050606085013567ffffffffffffffff811115613d3657613d35613362565b5b613d4287828801613c9d565b91505092959194509250565b60008060408385031215613d6557613d6461335d565b5b6000613d738582860161346b565b9250506020613d848582860161346b565b9150509250929050565b613d97816133ec565b82525050565b61014082016000820151613db460008501826134e3565b506020820151613dc760208501826134e3565b506040820151613dda60408501826134e3565b506060820151613ded60608501826134e3565b506080820151613e0060808501826134e3565b5060a0820151613e1360a08501826134e3565b5060c0820151613e2660c08501826134e3565b5060e0820151613e3960e085018261397e565b50610100820151613e4e610100850182613d8e565b50610120820151613e63610120850182613d8e565b50505050565b600061014082019050613e7f6000830184613d9d565b92915050565b7f4e487b7100000000000000000000000000000000000000000000000000000000600052602260045260246000fd5b60006002820490506001821680613ecc57607f821691505b602082108103613edf57613ede613e85565b5b50919050565b7f4552433732313a20617070726f76616c20746f2063757272656e74206f776e6560008201527f7200000000000000000000000000000000000000000000000000000000000000602082015250565b6000613f416021836135a2565b9150613f4c82613ee5565b604082019050919050565b60006020820190508181036000830152613f7081613f34565b9050919050565b7f4552433732313a20617070726f76652063616c6c6572206973206e6f7420746f60008201527f6b656e206f776e6572206f7220617070726f76656420666f7220616c6c000000602082015250565b6000613fd3603d836135a2565b9150613fde82613f77565b604082019050919050565b6000602082019050818103600083015261400281613fc6565b9050919050565b7f4552433732313a2063616c6c6572206973206e6f7420746f6b656e206f776e6560008201527f72206f7220617070726f76656400000000000000000000000000000000000000602082015250565b6000614065602d836135a2565b915061407082614009565b604082019050919050565b6000602082019050818103600083015261409481614058565b9050919050565b7f546f74616c207469636b657473206d757374206265206772656174657220746860008201527f616e203000000000000000000000000000000000000000000000000000000000602082015250565b60006140f76024836135a2565b91506141028261409b565b604082019050919050565b60006020820190508181036000830152614126816140ea565b9050919050565b7f5469636b6574207072696365206d75737420626520677265617465722074686160008201527f6e20300000000000000000000000000000000000000000000000000000000000602082015250565b60006141896023836135a2565b91506141948261412d565b604082019050919050565b600060208201905081810360008301526141b88161417c565b9050919050565b7f5469636b657420656e642064617465206d75737420626520696e20746865206660008201527f7574757265000000000000000000000000000000000000000000000000000000602082015250565b600061421b6025836135a2565b9150614226826141bf565b604082019050919050565b6000602082019050818103600083015261424a8161420e565b9050919050565b7f496e636f7272656374206372656174696f6e206665652073656e740000000000600082015250565b6000614287601b836135a2565b915061429282614251565b602082019050919050565b600060208201905081810360008301526142b68161427a565b9050919050565b60006080820190506142d2600083018761388c565b6142df602083018661388c565b6142ec604083018561388c565b6142f9606083018461388c565b95945050505050565b7f496e76616c6964206e756d626572206f66207469636b65747300000000000000600082015250565b60006143386019836135a2565b915061434382614302565b602082019050919050565b600060208201905081810360008301526143678161432b565b9050919050565b7f4e6f7420656e6f756768207469636b65747320736f6c64000000000000000000600082015250565b60006143a46017836135a2565b91506143af8261436e565b602082019050919050565b600060208201905081810360008301526143d381614397565b9050919050565b7f5469636b65742063616e6e6f74206265207265736f6c64207965740000000000600082015250565b6000614410601b836135a2565b915061441b826143da565b602082019050919050565b6000602082019050818103600083015261443f81614403565b9050919050565b7f4e487b7100000000000000000000000000000000000000000000000000000000600052603260045260246000fd5b7f4e487b7100000000000000000000000000000000000000000000000000000000600052601160045260246000fd5b60006144af826134d9565b91506144ba836134d9565b92508282019050808211156144d2576144d1614475565b5b92915050565b7f4e6f7420656e6f756768207469636b657473206f776e65640000000000000000600082015250565b600061450e6018836135a2565b9150614519826144d8565b602082019050919050565b6000602082019050818103600083015261453d81614501565b9050919050565b7f43616e6e6f7420726573656c6c206d6f7265207469636b657473207468616e2060008201527f6f776e6564000000000000000000000000000000000000000000000000000000602082015250565b60006145a06025836135a2565b91506145ab82614544565b604082019050919050565b600060208201905081810360008301526145cf81614593565b9050919050565b60006040820190506145eb60008301856136a2565b6145f8602083018461388c565b9392505050565b7f4552433732313a20696e76616c696420746f6b656e2049440000000000000000600082015250565b60006146356018836135a2565b9150614640826145ff565b602082019050919050565b6000602082019050818103600083015261466481614628565b9050919050565b7f4552433732313a2061646472657373207a65726f206973206e6f74206120766160008201527f6c6964206f776e65720000000000000000000000000000000000000000000000602082015250565b60006146c76029836135a2565b91506146d28261466b565b604082019050919050565b600060208201905081810360008301526146f6816146ba565b9050919050565b7f5469636b65742068617320616c7265616479206265656e20736f6c6400000000600082015250565b6000614733601c836135a2565b915061473e826146fd565b602082019050919050565b6000602082019050818103600083015261476281614726565b9050919050565b6000614774826134d9565b915061477f836134d9565b925082820390508181111561479757614796614475565b5b92915050565b60006147a8826134d9565b91506147b3836134d9565b92508282026147c1816134d9565b915082820484148315176147d8576147d7614475565b5b5092915050565b7f496e636f727265637420616d6f756e742073656e740000000000000000000000600082015250565b60006148156015836135a2565b9150614820826147df565b602082019050919050565b6000602082019050818103600083015261484481614808565b9050919050565b6000614856826134d9565b91507fffffffffffffffffffffffffffffffffffffffffffffffffffffffffffffffff820361488857614887614475565b5b600182019050919050565b600081905092915050565b60006148a982613597565b6148b38185614893565b93506148c38185602086016135b3565b80840191505092915050565b60006148db828561489e565b91506148e7828461489e565b91508190509392505050565b7f4e6f7420656e6f756768207469636b65747320617661696c61626c6520666f7260008201527f20726573616c6500000000000000000000000000000000000000000000000000602082015250565b600061494f6027836135a2565b915061495a826148f3565b604082019050919050565b6000602082019050818103600083015261497e81614942565b9050919050565b600060608201905061499a60008301866136a2565b6149a760208301856136a2565b6149b4604083018461388c565b949350505050565b7f4f776e61626c653a206e6577206f776e657220697320746865207a65726f206160008201527f6464726573730000000000000000000000000000000000000000000000000000602082015250565b6000614a186026836135a2565b9150614a23826149bc565b604082019050919050565b60006020820190508181036000830152614a4781614a0b565b9050919050565b7f4552433732313a207472616e736665722066726f6d20696e636f72726563742060008201527f6f776e6572000000000000000000000000000000000000000000000000000000602082015250565b6000614aaa6025836135a2565b9150614ab582614a4e565b604082019050919050565b60006020820190508181036000830152614ad981614a9d565b9050919050565b7f4552433732313a207472616e7366657220746f20746865207a65726f2061646460008201527f7265737300000000000000000000000000000000000000000000000000000000602082015250565b6000614b3c6024836135a2565b9150614b4782614ae0565b604082019050919050565b60006020820190508181036000830152614b6b81614b2f565b9050919050565b7f4f776e61626c653a2063616c6c6572206973206e6f7420746865206f776e6572600082015250565b6000614ba86020836135a2565b9150614bb382614b72565b602082019050919050565b60006020820190508181036000830152614bd781614b9b565b9050919050565b7f45524337323155524953746f726167653a2055524920736574206f66206e6f6e60008201527f6578697374656e7420746f6b656e000000000000000000000000000000000000602082015250565b6000614c3a602e836135a2565b9150614c4582614bde565b604082019050919050565b60006020820190508181036000830152614c6981614c2d565b9050919050565b60008190508160005260206000209050919050565b60006020601f8301049050919050565b600082821b905092915050565b600060088302614cd27fffffffffffffffffffffffffffffffffffffffffffffffffffffffffffffffff82614c95565b614cdc8683614c95565b95508019841693508086168417925050509392505050565b6000819050919050565b6000614d19614d14614d0f846134d9565b614cf4565b6134d9565b9050919050565b6000819050919050565b614d3383614cfe565b614d47614d3f82614d20565b848454614ca2565b825550505050565b600090565b614d5c614d4f565b614d67818484614d2a565b505050565b5b81811015614d8b57614d80600082614d54565b600181019050614d6d565b5050565b601f821115614dd057614da181614c70565b614daa84614c85565b81016020851015614db9578190505b614dcd614dc585614c85565b830182614d6c565b50505b505050565b600082821c905092915050565b6000614df360001984600802614dd5565b1980831691505092915050565b6000614e0c8383614de2565b9150826002028217905092915050565b614e2582613597565b67ffffffffffffffff811115614e3e57614e3d613ba0565b5b614e488254613eb4565b614e53828285614d8f565b600060209050601f831160018114614e865760008415614e74578287015190505b614e7e8582614e00565b865550614ee6565b601f198416614e9486614c70565b60005b82811015614ebc57848901518255600182019150602085019450602081019050614e97565b86831015614ed95784890151614ed5601f891682614de2565b8355505b6001600288020188555050505b505050505050565b7f4552433732313a20617070726f766520746f2063616c6c657200000000000000600082015250565b6000614f246019836135a2565b9150614f2f82614eee565b602082019050919050565b60006020820190508181036000830152614f5381614f17565b9050919050565b7f4552433732313a207472616e7366657220746f206e6f6e20455243373231526560008201527f63656976657220696d706c656d656e7465720000000000000000000000000000602082015250565b6000614fb66032836135a2565b9150614fc182614f5a565b604082019050919050565b60006020820190508181036000830152614fe581614fa9565b9050919050565b600081519050919050565b600082825260208201905092915050565b600061501382614fec565b61501d8185614ff7565b935061502d8185602086016135b3565b615036816135dd565b840191505092915050565b600060808201905061505660008301876136a2565b61506360208301866136a2565b615070604083018561388c565b81810360608301526150828184615008565b905095945050505050565b60008151905061509c81613393565b92915050565b6000602082840312156150b8576150b761335d565b5b60006150c68482850161508d565b91505092915050565b7f4e487b7100000000000000000000000000000000000000000000000000000000600052601260045260246000fd5b7f4552433732313a206d696e7420746f20746865207a65726f2061646472657373600082015250565b60006151346020836135a2565b915061513f826150fe565b602082019050919050565b6000602082019050818103600083015261516381615127565b9050919050565b7f4552433732313a20746f6b656e20616c7265616479206d696e74656400000000600082015250565b60006151a0601c836135a2565b91506151ab8261516a565b602082019050919050565b600060208201905081810360008301526151cf81615193565b905091905056fea264697066735822122045dd7200031b61fc36fb2ae84a255b92c91e3697d796381005349f82070abf8364736f6c63430008180033",
  "linkReferences": {},
  "deployedLinkReferences": {}
}