{
  "_format": "hh-sol-artifact-1",
  "contractName": "Ticket",
  "sourceName": "contracts/Lock.sol",
  "abi": [
    {
      "inputs": [
        {
          "internalType": "uint256",
          "name": "_creationFeePercentage",
          "type": "uint256"
        },
        {
          "internalType": "uint256",
          "name": "_purchaseFeePercentage",
          "type": "uint256"
        },
        {
          "internalType": "uint256",
          "name": "_resellingFeePercentage",
          "type": "uint256"
        }
      ],
      "stateMutability": "nonpayable",
      "type": "constructor"
    },
    {
      "anonymous": false,
      "inputs": [
        {
          "indexed": true,
          "internalType": "address",
          "name": "owner",
          "type": "address"
        },
        {
          "indexed": true,
          "internalType": "address",
          "name": "approved",
          "type": "address"
        },
        {
          "indexed": true,
          "internalType": "uint256",
          "name": "tokenId",
          "type": "uint256"
        }
      ],
      "name": "Approval",
      "type": "event"
    },
    {
      "anonymous": false,
      "inputs": [
        {
          "indexed": true,
          "internalType": "address",
          "name": "owner",
          "type": "address"
        },
        {
          "indexed": true,
          "internalType": "address",
          "name": "operator",
          "type": "address"
        },
        {
          "indexed": false,
          "internalType": "bool",
          "name": "approved",
          "type": "bool"
        }
      ],
      "name": "ApprovalForAll",
      "type": "event"
    },
    {
      "anonymous": false,
      "inputs": [
        {
          "indexed": false,
          "internalType": "uint256",
          "name": "_fromTokenId",
          "type": "uint256"
        },
        {
          "indexed": false,
          "internalType": "uint256",
          "name": "_toTokenId",
          "type": "uint256"
        }
      ],
      "name": "BatchMetadataUpdate",
      "type": "event"
    },
    {
      "anonymous": false,
      "inputs": [
        {
          "indexed": false,
          "internalType": "uint256",
          "name": "_tokenId",
          "type": "uint256"
        }
      ],
      "name": "MetadataUpdate",
      "type": "event"
    },
    {
      "anonymous": false,
      "inputs": [
        {
          "indexed": true,
          "internalType": "address",
          "name": "previousOwner",
          "type": "address"
        },
        {
          "indexed": true,
          "internalType": "address",
          "name": "newOwner",
          "type": "address"
        }
      ],
      "name": "OwnershipTransferred",
      "type": "event"
    },
    {
      "anonymous": false,
      "inputs": [
        {
          "indexed": true,
          "internalType": "uint256",
          "name": "tokenId",
          "type": "uint256"
        },
        {
          "indexed": false,
          "internalType": "uint256",
          "name": "totalTickets",
          "type": "uint256"
        },
        {
          "indexed": false,
          "internalType": "uint256",
          "name": "ticketPrice",
          "type": "uint256"
        },
        {
          "indexed": false,
          "internalType": "uint256",
          "name": "ticketStartDate",
          "type": "uint256"
        },
        {
          "indexed": false,
          "internalType": "uint256",
          "name": "ticketEndDate",
          "type": "uint256"
        }
      ],
      "name": "TicketCreated",
      "type": "event"
    },
    {
      "anonymous": false,
      "inputs": [
        {
          "indexed": true,
          "internalType": "uint256",
          "name": "tokenId",
          "type": "uint256"
        },
        {
          "indexed": false,
          "internalType": "address",
          "name": "buyer",
          "type": "address"
        },
        {
          "indexed": false,
          "internalType": "uint256",
          "name": "ticketsBought",
          "type": "uint256"
        }
      ],
      "name": "TicketPurchased",
      "type": "event"
    },
    {
      "anonymous": false,
      "inputs": [
        {
          "indexed": true,
          "internalType": "uint256",
          "name": "tokenId",
          "type": "uint256"
        },
        {
          "indexed": false,
          "internalType": "address",
          "name": "reseller",
          "type": "address"
        },
        {
          "indexed": false,
          "internalType": "uint256",
          "name": "ticketsBought",
          "type": "uint256"
        }
      ],
      "name": "TicketResell",
      "type": "event"
    },
    {
      "anonymous": false,
      "inputs": [
        {
          "indexed": true,
          "internalType": "uint256",
          "name": "tokenId",
          "type": "uint256"
        },
        {
          "indexed": false,
          "internalType": "address",
          "name": "reseller",
          "type": "address"
        },
        {
          "indexed": false,
          "internalType": "address",
          "name": "rebuyer",
          "type": "address"
        },
        {
          "indexed": false,
          "internalType": "uint256",
          "name": "ticketsBought",
          "type": "uint256"
        }
      ],
      "name": "TicketResold",
      "type": "event"
    },
    {
      "anonymous": false,
      "inputs": [
        {
          "indexed": true,
          "internalType": "address",
          "name": "from",
          "type": "address"
        },
        {
          "indexed": true,
          "internalType": "address",
          "name": "to",
          "type": "address"
        },
        {
          "indexed": true,
          "internalType": "uint256",
          "name": "tokenId",
          "type": "uint256"
        }
      ],
      "name": "Transfer",
      "type": "event"
    },
    {
      "inputs": [
        {
          "internalType": "address",
          "name": "to",
          "type": "address"
        },
        {
          "internalType": "uint256",
          "name": "tokenId",
          "type": "uint256"
        }
      ],
      "name": "approve",
      "outputs": [],
      "stateMutability": "nonpayable",
      "type": "function"
    },
    {
      "inputs": [
        {
          "internalType": "address",
          "name": "owner",
          "type": "address"
        }
      ],
      "name": "balanceOf",
      "outputs": [
        {
          "internalType": "uint256",
          "name": "",
          "type": "uint256"
        }
      ],
      "stateMutability": "view",
      "type": "function"
    },
    {
      "inputs": [
        {
          "internalType": "uint256",
          "name": "tokenID",
          "type": "uint256"
        }
      ],
      "name": "burn",
      "outputs": [],
      "stateMutability": "nonpayable",
      "type": "function"
    },
    {
      "inputs": [
        {
          "internalType": "string",
          "name": "tokenURI",
          "type": "string"
        },
        {
          "internalType": "uint256",
          "name": "_totalTickets",
          "type": "uint256"
        },
        {
          "internalType": "uint256",
          "name": "_ticketPrice",
          "type": "uint256"
        },
        {
          "internalType": "uint256",
          "name": "_ticketEndDate",
          "type": "uint256"
        }
      ],
      "name": "createTicket",
      "outputs": [],
      "stateMutability": "payable",
      "type": "function"
    },
    {
      "inputs": [],
      "name": "creationFeePercentage",
      "outputs": [
        {
          "internalType": "uint256",
          "name": "",
          "type": "uint256"
        }
      ],
      "stateMutability": "view",
      "type": "function"
    },
    {
      "inputs": [],
      "name": "getAllTickets",
      "outputs": [
        {
          "components": [
            {
              "internalType": "uint256",
              "name": "tokenId",
              "type": "uint256"
            },
            {
              "internalType": "uint256",
              "name": "totalTickets",
              "type": "uint256"
            },
            {
              "internalType": "uint256",
              "name": "ticketsSold",
              "type": "uint256"
            },
            {
              "internalType": "uint256",
              "name": "ticketPrice",
              "type": "uint256"
            },
            {
              "internalType": "uint256",
              "name": "ticketStartDate",
              "type": "uint256"
            },
            {
              "internalType": "uint256",
              "name": "ticketEndDate",
              "type": "uint256"
            },
            {
              "internalType": "uint256",
              "name": "ticketHoldDate",
              "type": "uint256"
            },
            {
              "internalType": "address",
              "name": "creator",
              "type": "address"
            },
            {
              "internalType": "bool",
              "name": "ticketSold",
              "type": "bool"
            },
            {
              "internalType": "bool",
              "name": "isResellable",
              "type": "bool"
            },
            {
              "internalType": "uint256",
              "name": "eventId",
              "type": "uint256"
            }
          ],
          "internalType": "struct Ticket.TicketInfo[]",
          "name": "",
          "type": "tuple[]"
        }
      ],
      "stateMutability": "view",
      "type": "function"
    },
    {
      "inputs": [
        {
          "internalType": "uint256",
          "name": "tokenId",
          "type": "uint256"
        }
      ],
      "name": "getApproved",
      "outputs": [
        {
          "internalType": "address",
          "name": "",
          "type": "address"
        }
      ],
      "stateMutability": "view",
      "type": "function"
    },
    {
      "inputs": [],
      "name": "getCreationFeePercentage",
      "outputs": [
        {
          "internalType": "uint256",
          "name": "",
          "type": "uint256"
        }
      ],
      "stateMutability": "view",
      "type": "function"
    },
    {
      "inputs": [],
      "name": "getPurchaseFeePercentage",
      "outputs": [
        {
          "internalType": "uint256",
          "name": "",
          "type": "uint256"
        }
      ],
      "stateMutability": "view",
      "type": "function"
    },
    {
      "inputs": [
        {
          "internalType": "uint256",
          "name": "tokenID",
          "type": "uint256"
        }
      ],
      "name": "getPurchaseInfo",
      "outputs": [
        {
          "components": [
            {
              "internalType": "uint256",
              "name": "ticketsBought",
              "type": "uint256"
            },
            {
              "internalType": "uint256",
              "name": "ticketsToResell",
              "type": "uint256"
            },
            {
              "internalType": "uint256",
              "name": "totalPrice",
              "type": "uint256"
            },
            {
              "internalType": "uint256",
              "name": "ticketId",
              "type": "uint256"
            },
            {
              "internalType": "uint256",
              "name": "purchaseId",
              "type": "uint256"
            },
            {
              "internalType": "uint256",
              "name": "purchaseTimestamp",
              "type": "uint256"
            },
            {
              "internalType": "address",
              "name": "buyer",
              "type": "address"
            }
          ],
          "internalType": "struct Ticket.PurchaseInfo[]",
          "name": "",
          "type": "tuple[]"
        }
      ],
      "stateMutability": "view",
      "type": "function"
    },
    {
      "inputs": [
        {
          "internalType": "uint256",
          "name": "tokenID",
          "type": "uint256"
        }
      ],
      "name": "getTicketInfo",
      "outputs": [
        {
          "components": [
            {
              "internalType": "uint256",
              "name": "tokenId",
              "type": "uint256"
            },
            {
              "internalType": "uint256",
              "name": "totalTickets",
              "type": "uint256"
            },
            {
              "internalType": "uint256",
              "name": "ticketsSold",
              "type": "uint256"
            },
            {
              "internalType": "uint256",
              "name": "ticketPrice",
              "type": "uint256"
            },
            {
              "internalType": "uint256",
              "name": "ticketStartDate",
              "type": "uint256"
            },
            {
              "internalType": "uint256",
              "name": "ticketEndDate",
              "type": "uint256"
            },
            {
              "internalType": "uint256",
              "name": "ticketHoldDate",
              "type": "uint256"
            },
            {
              "internalType": "address",
              "name": "creator",
              "type": "address"
            },
            {
              "internalType": "bool",
              "name": "ticketSold",
              "type": "bool"
            },
            {
              "internalType": "bool",
              "name": "isResellable",
              "type": "bool"
            },
            {
              "internalType": "uint256",
              "name": "eventId",
              "type": "uint256"
            }
          ],
          "internalType": "struct Ticket.TicketInfo",
          "name": "",
          "type": "tuple"
        }
      ],
      "stateMutability": "view",
      "type": "function"
    },
    {
      "inputs": [
        {
          "internalType": "address",
          "name": "user",
          "type": "address"
        }
      ],
      "name": "getUserTickets",
      "outputs": [
        {
          "internalType": "uint256[]",
          "name": "",
          "type": "uint256[]"
        }
      ],
      "stateMutability": "view",
      "type": "function"
    },
    {
      "inputs": [
        {
          "internalType": "address",
          "name": "owner",
          "type": "address"
        },
        {
          "internalType": "address",
          "name": "operator",
          "type": "address"
        }
      ],
      "name": "isApprovedForAll",
      "outputs": [
        {
          "internalType": "bool",
          "name": "",
          "type": "bool"
        }
      ],
      "stateMutability": "view",
      "type": "function"
    },
    {
      "inputs": [],
      "name": "name",
      "outputs": [
        {
          "internalType": "string",
          "name": "",
          "type": "string"
        }
      ],
      "stateMutability": "view",
      "type": "function"
    },
    {
      "inputs": [],
      "name": "owner",
      "outputs": [
        {
          "internalType": "address",
          "name": "",
          "type": "address"
        }
      ],
      "stateMutability": "view",
      "type": "function"
    },
    {
      "inputs": [
        {
          "internalType": "uint256",
          "name": "tokenId",
          "type": "uint256"
        }
      ],
      "name": "ownerOf",
      "outputs": [
        {
          "internalType": "address",
          "name": "",
          "type": "address"
        }
      ],
      "stateMutability": "view",
      "type": "function"
    },
    {
      "inputs": [],
      "name": "purchaseFeePercentage",
      "outputs": [
        {
          "internalType": "uint256",
          "name": "",
          "type": "uint256"
        }
      ],
      "stateMutability": "view",
      "type": "function"
    },
    {
      "inputs": [
        {
          "internalType": "uint256",
          "name": "tokenID",
          "type": "uint256"
        },
        {
          "internalType": "uint256",
          "name": "ticketsToBuy",
          "type": "uint256"
        }
      ],
      "name": "purchaseTicket",
      "outputs": [],
      "stateMutability": "payable",
      "type": "function"
    },
    {
      "inputs": [
        {
          "internalType": "uint256",
          "name": "tokenId",
          "type": "uint256"
        },
        {
          "internalType": "uint256",
          "name": "buyticketId",
          "type": "uint256"
        }
      ],
      "name": "reBuyTicket",
      "outputs": [],
      "stateMutability": "payable",
      "type": "function"
    },
    {
      "inputs": [],
      "name": "renounceOwnership",
      "outputs": [],
      "stateMutability": "nonpayable",
      "type": "function"
    },
    {
      "inputs": [
        {
          "internalType": "uint256",
          "name": "tokenId",
          "type": "uint256"
        },
        {
          "internalType": "uint256",
          "name": "ticketsToSell",
          "type": "uint256"
        }
      ],
      "name": "resellTicket",
      "outputs": [],
      "stateMutability": "nonpayable",
      "type": "function"
    },
    {
      "inputs": [],
      "name": "resellingFeePercentage",
      "outputs": [
        {
          "internalType": "uint256",
          "name": "",
          "type": "uint256"
        }
      ],
      "stateMutability": "view",
      "type": "function"
    },
    {
      "inputs": [
        {
          "internalType": "address",
          "name": "from",
          "type": "address"
        },
        {
          "internalType": "address",
          "name": "to",
          "type": "address"
        },
        {
          "internalType": "uint256",
          "name": "tokenId",
          "type": "uint256"
        }
      ],
      "name": "safeTransferFrom",
      "outputs": [],
      "stateMutability": "nonpayable",
      "type": "function"
    },
    {
      "inputs": [
        {
          "internalType": "address",
          "name": "from",
          "type": "address"
        },
        {
          "internalType": "address",
          "name": "to",
          "type": "address"
        },
        {
          "internalType": "uint256",
          "name": "tokenId",
          "type": "uint256"
        },
        {
          "internalType": "bytes",
          "name": "data",
          "type": "bytes"
        }
      ],
      "name": "safeTransferFrom",
      "outputs": [],
      "stateMutability": "nonpayable",
      "type": "function"
    },
    {
      "inputs": [
        {
          "internalType": "address",
          "name": "operator",
          "type": "address"
        },
        {
          "internalType": "bool",
          "name": "approved",
          "type": "bool"
        }
      ],
      "name": "setApprovalForAll",
      "outputs": [],
      "stateMutability": "nonpayable",
      "type": "function"
    },
    {
      "inputs": [
        {
          "internalType": "bytes4",
          "name": "interfaceId",
          "type": "bytes4"
        }
      ],
      "name": "supportsInterface",
      "outputs": [
        {
          "internalType": "bool",
          "name": "",
          "type": "bool"
        }
      ],
      "stateMutability": "view",
      "type": "function"
    },
    {
      "inputs": [],
      "name": "symbol",
      "outputs": [
        {
          "internalType": "string",
          "name": "",
          "type": "string"
        }
      ],
      "stateMutability": "view",
      "type": "function"
    },
    {
      "inputs": [
        {
          "internalType": "uint256",
          "name": "",
          "type": "uint256"
        },
        {
          "internalType": "uint256",
          "name": "",
          "type": "uint256"
        }
      ],
      "name": "ticketPurchases",
      "outputs": [
        {
          "internalType": "uint256",
          "name": "ticketsBought",
          "type": "uint256"
        },
        {
          "internalType": "uint256",
          "name": "ticketsToResell",
          "type": "uint256"
        },
        {
          "internalType": "uint256",
          "name": "totalPrice",
          "type": "uint256"
        },
        {
          "internalType": "uint256",
          "name": "ticketId",
          "type": "uint256"
        },
        {
          "internalType": "uint256",
          "name": "purchaseId",
          "type": "uint256"
        },
        {
          "internalType": "uint256",
          "name": "purchaseTimestamp",
          "type": "uint256"
        },
        {
          "internalType": "address",
          "name": "buyer",
          "type": "address"
        }
      ],
      "stateMutability": "view",
      "type": "function"
    },
    {
      "inputs": [
        {
          "internalType": "uint256",
          "name": "",
          "type": "uint256"
        }
      ],
      "name": "tickets",
      "outputs": [
        {
          "internalType": "uint256",
          "name": "tokenId",
          "type": "uint256"
        },
        {
          "internalType": "uint256",
          "name": "totalTickets",
          "type": "uint256"
        },
        {
          "internalType": "uint256",
          "name": "ticketsSold",
          "type": "uint256"
        },
        {
          "internalType": "uint256",
          "name": "ticketPrice",
          "type": "uint256"
        },
        {
          "internalType": "uint256",
          "name": "ticketStartDate",
          "type": "uint256"
        },
        {
          "internalType": "uint256",
          "name": "ticketEndDate",
          "type": "uint256"
        },
        {
          "internalType": "uint256",
          "name": "ticketHoldDate",
          "type": "uint256"
        },
        {
          "internalType": "address",
          "name": "creator",
          "type": "address"
        },
        {
          "internalType": "bool",
          "name": "ticketSold",
          "type": "bool"
        },
        {
          "internalType": "bool",
          "name": "isResellable",
          "type": "bool"
        },
        {
          "internalType": "uint256",
          "name": "eventId",
          "type": "uint256"
        }
      ],
      "stateMutability": "view",
      "type": "function"
    },
    {
      "inputs": [
        {
          "internalType": "uint256",
          "name": "tokenId",
          "type": "uint256"
        }
      ],
      "name": "tokenURI",
      "outputs": [
        {
          "internalType": "string",
          "name": "",
          "type": "string"
        }
      ],
      "stateMutability": "view",
      "type": "function"
    },
    {
      "inputs": [
        {
          "internalType": "address",
          "name": "from",
          "type": "address"
        },
        {
          "internalType": "address",
          "name": "to",
          "type": "address"
        },
        {
          "internalType": "uint256",
          "name": "tokenId",
          "type": "uint256"
        }
      ],
      "name": "transferFrom",
      "outputs": [],
      "stateMutability": "nonpayable",
      "type": "function"
    },
    {
      "inputs": [
        {
          "internalType": "address",
          "name": "newOwner",
          "type": "address"
        }
      ],
      "name": "transferOwnership",
      "outputs": [],
      "stateMutability": "nonpayable",
      "type": "function"
    },
    {
      "inputs": [
        {
          "internalType": "uint256",
          "name": "_creationFeePercentage",
          "type": "uint256"
        }
      ],
      "name": "updateCreationFeePercentage",
      "outputs": [],
      "stateMutability": "nonpayable",
      "type": "function"
    },
    {
      "inputs": [
        {
          "internalType": "uint256",
          "name": "_purchaseFeePercentage",
          "type": "uint256"
        }
      ],
      "name": "updatePurchaseFeePercentage",
      "outputs": [],
      "stateMutability": "nonpayable",
      "type": "function"
    },
    {
      "inputs": [
        {
          "internalType": "address",
          "name": "",
          "type": "address"
        },
        {
          "internalType": "uint256",
          "name": "",
          "type": "uint256"
        }
      ],
      "name": "userTickets",
      "outputs": [
        {
          "internalType": "uint256",
          "name": "",
          "type": "uint256"
        }
      ],
      "stateMutability": "view",
      "type": "function"
    }
  ],
  "bytecode": "0x60806040523480156200001157600080fd5b5060405162005d6d38038062005d6d833981810160405281019062000037919062000215565b6040518060400160405280600681526020017f5469636b657400000000000000000000000000000000000000000000000000008152506040518060400160405280600681526020017f5449434b455400000000000000000000000000000000000000000000000000008152508160009081620000b49190620004e1565b508060019081620000c69190620004e1565b505050620000e9620000dd6200010760201b60201c565b6200010f60201b60201c565b82600b8190555081600c8190555080600d81905550505050620005c8565b600033905090565b6000600760009054906101000a900473ffffffffffffffffffffffffffffffffffffffff16905081600760006101000a81548173ffffffffffffffffffffffffffffffffffffffff021916908373ffffffffffffffffffffffffffffffffffffffff1602179055508173ffffffffffffffffffffffffffffffffffffffff168173ffffffffffffffffffffffffffffffffffffffff167f8be0079c531659141344cd1fd0a4f28419497f9722a3daafe3b4186f6b6457e060405160405180910390a35050565b600080fd5b6000819050919050565b620001ef81620001da565b8114620001fb57600080fd5b50565b6000815190506200020f81620001e4565b92915050565b600080600060608486031215620002315762000230620001d5565b5b60006200024186828701620001fe565b93505060206200025486828701620001fe565b92505060406200026786828701620001fe565b9150509250925092565b600081519050919050565b7f4e487b7100000000000000000000000000000000000000000000000000000000600052604160045260246000fd5b7f4e487b7100000000000000000000000000000000000000000000000000000000600052602260045260246000fd5b60006002820490506001821680620002f357607f821691505b602082108103620003095762000308620002ab565b5b50919050565b60008190508160005260206000209050919050565b60006020601f8301049050919050565b600082821b905092915050565b600060088302620003737fffffffffffffffffffffffffffffffffffffffffffffffffffffffffffffffff8262000334565b6200037f868362000334565b95508019841693508086168417925050509392505050565b6000819050919050565b6000620003c2620003bc620003b684620001da565b62000397565b620001da565b9050919050565b6000819050919050565b620003de83620003a1565b620003f6620003ed82620003c9565b84845462000341565b825550505050565b600090565b6200040d620003fe565b6200041a818484620003d3565b505050565b5b8181101562000442576200043660008262000403565b60018101905062000420565b5050565b601f82111562000491576200045b816200030f565b620004668462000324565b8101602085101562000476578190505b6200048e620004858562000324565b8301826200041f565b50505b505050565b600082821c905092915050565b6000620004b66000198460080262000496565b1980831691505092915050565b6000620004d18383620004a3565b9150826002028217905092915050565b620004ec8262000271565b67ffffffffffffffff8111156200050857620005076200027c565b5b620005148254620002da565b6200052182828562000446565b600060209050601f83116001811462000559576000841562000544578287015190505b620005508582620004c3565b865550620005c0565b601f19841662000569866200030f565b60005b8281101562000593578489015182556001820191506020850194506020810190506200056c565b86831015620005b35784890151620005af601f891682620004a3565b8355505b6001600288020188555050505b505050505050565b61579580620005d86000396000f3fe6080604052600436106102045760003560e01c806370a0823111610118578063b88d4fde116100a0578063d615d1211161006f578063d615d12114610793578063d91043f2146107af578063e985e9c5146107da578063f2fde38b14610817578063ff99a0631461084057610204565b8063b88d4fde146106d4578063bdbbb0cb146106fd578063c87b56dd14610719578063cf260baf1461075657610204565b806395d89b41116100e757806395d89b41146105e9578063a22cb46514610614578063a4646ba71461063d578063b57b0de714610680578063b5e1a3c0146106a957610204565b806370a082311461053f578063715018a61461057c5780638412153f146105935780638da5cb5b146105be57610204565b80632decc62b1161019b57806342966c681161016a57806342966c681461042a578063461c3e211461045357806350b447121461047e57806358875049146104c55780636352211e1461050257610204565b80632decc62b14610391578063348e9913146103ad5780633df8cd72146103d657806342842e0e1461040157610204565b8063081812fc116101d7578063081812fc146102d9578063095ea7b31461031657806323b872dd1461033f57806329520cae1461036857610204565b806301ffc9a71461020957806303e96fe3146102465780630484a22f1461027157806306fdde03146102ae575b600080fd5b34801561021557600080fd5b50610230600480360381019061022b91906137dd565b61087d565b60405161023d9190613825565b60405180910390f35b34801561025257600080fd5b5061025b6108de565b6040516102689190613a3a565b60405180910390f35b34801561027d57600080fd5b5061029860048036038101906102939190613a88565b610a80565b6040516102a59190613b64565b60405180910390f35b3480156102ba57600080fd5b506102c3610b17565b6040516102d09190613c16565b60405180910390f35b3480156102e557600080fd5b5061030060048036038101906102fb9190613c64565b610ba9565b60405161030d9190613ca0565b60405180910390f35b34801561032257600080fd5b5061033d60048036038101906103389190613cbb565b610bef565b005b34801561034b57600080fd5b5061036660048036038101906103619190613cfb565b610d06565b005b34801561037457600080fd5b5061038f600480360381019061038a9190613c64565b610d66565b005b6103ab60048036038101906103a69190613db3565b610d78565b005b3480156103b957600080fd5b506103d460048036038101906103cf9190613e3b565b6110c5565b005b3480156103e257600080fd5b506103eb6114d1565b6040516103f89190613e8a565b60405180910390f35b34801561040d57600080fd5b5061042860048036038101906104239190613cfb565b6114d7565b005b34801561043657600080fd5b50610451600480360381019061044c9190613c64565b6114f7565b005b34801561045f57600080fd5b5061046861150b565b6040516104759190613e8a565b60405180910390f35b34801561048a57600080fd5b506104a560048036038101906104a09190613c64565b611515565b6040516104bc9b9a99989796959493929190613ea5565b60405180910390f35b3480156104d157600080fd5b506104ec60048036038101906104e79190613c64565b6115a9565b6040516104f9919061408d565b60405180910390f35b34801561050e57600080fd5b5061052960048036038101906105249190613c64565b6116ad565b6040516105369190613ca0565b60405180910390f35b34801561054b57600080fd5b5061056660048036038101906105619190613a88565b611733565b6040516105739190613e8a565b60405180910390f35b34801561058857600080fd5b506105916117ea565b005b34801561059f57600080fd5b506105a86117fe565b6040516105b59190613e8a565b60405180910390f35b3480156105ca57600080fd5b506105d3611804565b6040516105e09190613ca0565b60405180910390f35b3480156105f557600080fd5b506105fe61182e565b60405161060b9190613c16565b60405180910390f35b34801561062057600080fd5b5061063b600480360381019061063691906140db565b6118c0565b005b34801561064957600080fd5b50610664600480360381019061065f9190613e3b565b6118d6565b604051610677979695949392919061411b565b60405180910390f35b34801561068c57600080fd5b506106a760048036038101906106a29190613c64565b611955565b005b3480156106b557600080fd5b506106be611967565b6040516106cb9190613e8a565b60405180910390f35b3480156106e057600080fd5b506106fb60048036038101906106f691906142ba565b611971565b005b61071760048036038101906107129190613e3b565b6119d3565b005b34801561072557600080fd5b50610740600480360381019061073b9190613c64565b611e1e565b60405161074d9190613c16565b60405180910390f35b34801561076257600080fd5b5061077d60048036038101906107789190613cbb565b611f30565b60405161078a9190613e8a565b60405180910390f35b6107ad60048036038101906107a89190613e3b565b611f61565b005b3480156107bb57600080fd5b506107c46121b4565b6040516107d19190613e8a565b60405180910390f35b3480156107e657600080fd5b5061080160048036038101906107fc919061433d565b6121ba565b60405161080e9190613825565b60405180910390f35b34801561082357600080fd5b5061083e60048036038101906108399190613a88565b61224e565b005b34801561084c57600080fd5b5061086760048036038101906108629190613c64565b6122d1565b604051610874919061445e565b60405180910390f35b6000634906490660e01b7bffffffffffffffffffffffffffffffffffffffffffffffffffffffff1916827bffffffffffffffffffffffffffffffffffffffffffffffffffffffff191614806108d757506108d6826123db565b5b9050919050565b606060006108ec60086124bd565b905060008167ffffffffffffffff81111561090a5761090961418f565b5b60405190808252806020026020018201604052801561094357816020015b6109306136a0565b8152602001906001900390816109285790505b50905060005b82811015610a7757600e600082815260200190815260200160002060405180610160016040529081600082015481526020016001820154815260200160028201548152602001600382015481526020016004820154815260200160058201548152602001600682015481526020016007820160009054906101000a900473ffffffffffffffffffffffffffffffffffffffff1673ffffffffffffffffffffffffffffffffffffffff1673ffffffffffffffffffffffffffffffffffffffff1681526020016007820160149054906101000a900460ff161515151581526020016007820160159054906101000a900460ff16151515158152602001600882015481525050828281518110610a5f57610a5e61447a565b5b60200260200101819052508080600101915050610949565b50809250505090565b6060600f60008373ffffffffffffffffffffffffffffffffffffffff1673ffffffffffffffffffffffffffffffffffffffff168152602001908152602001600020805480602002602001604051908101604052809291908181526020018280548015610b0b57602002820191906000526020600020905b815481526020019060010190808311610af7575b50505050509050919050565b606060008054610b26906144d8565b80601f0160208091040260200160405190810160405280929190818152602001828054610b52906144d8565b8015610b9f5780601f10610b7457610100808354040283529160200191610b9f565b820191906000526020600020905b815481529060010190602001808311610b8257829003601f168201915b5050505050905090565b6000610bb4826124cb565b6004600083815260200190815260200160002060009054906101000a900473ffffffffffffffffffffffffffffffffffffffff169050919050565b6000610bfa826116ad565b90508073ffffffffffffffffffffffffffffffffffffffff168373ffffffffffffffffffffffffffffffffffffffff1603610c6a576040517f08c379a0000000000000000000000000000000000000000000000000000000008152600401610c619061457b565b60405180910390fd5b8073ffffffffffffffffffffffffffffffffffffffff16610c89612516565b73ffffffffffffffffffffffffffffffffffffffff161480610cb85750610cb781610cb2612516565b6121ba565b5b610cf7576040517f08c379a0000000000000000000000000000000000000000000000000000000008152600401610cee9061460d565b60405180910390fd5b610d01838361251e565b505050565b610d17610d11612516565b826125d7565b610d56576040517f08c379a0000000000000000000000000000000000000000000000000000000008152600401610d4d9061469f565b60405180910390fd5b610d6183838361266c565b505050565b610d6e612965565b80600c8190555050565b60008311610dbb576040517f08c379a0000000000000000000000000000000000000000000000000000000008152600401610db290614731565b60405180910390fd5b60008211610dfe576040517f08c379a0000000000000000000000000000000000000000000000000000000008152600401610df5906147c3565b60405180910390fd5b428111610e40576040517f08c379a0000000000000000000000000000000000000000000000000000000008152600401610e3790614855565b60405180910390fd5b6000610e4c60086124bd565b9050610e5860086129e3565b6000610e64600a6124bd565b9050610e70600a6129e3565b610e7a33836129f9565b610ec88288888080601f016020809104026020016040519081016040528093929190818152602001838380828437600081840152601f19601f82011690508083019250505050505050612a17565b600042905060405180610160016040528084815260200187815260200160008152602001868152602001828152602001858152602001600081526020013373ffffffffffffffffffffffffffffffffffffffff16815260200160001515815260200160001515815260200183815250600e6000858152602001908152602001600020600082015181600001556020820151816001015560408201518160020155606082015181600301556080820151816004015560a0820151816005015560c0820151816006015560e08201518160070160006101000a81548173ffffffffffffffffffffffffffffffffffffffff021916908373ffffffffffffffffffffffffffffffffffffffff1602179055506101008201518160070160146101000a81548160ff0219169083151502179055506101208201518160070160156101000a81548160ff02191690831515021790555061014082015181600801559050506000600b549050611036611804565b73ffffffffffffffffffffffffffffffffffffffff166108fc829081150290604051600060405180830381858888f1935050505015801561107b573d6000803e3d6000fd5b50837feea3bb912a3441ad5433c22840a518110f72b0e83e07c3c86a790f04cb4ee994888885896040516110b29493929190614875565b60405180910390a2505050505050505050565b6000600e600084815260200190815260200160002090506000821161111f576040517f08c379a000000000000000000000000000000000000000000000000000000000815260040161111690614906565b60405180910390fd5b8060020154821115611166576040517f08c379a000000000000000000000000000000000000000000000000000000000815260040161115d90614972565b60405180910390fd5b8060050154816006015410156111b1576040517f08c379a00000000000000000000000000000000000000000000000000000000081526004016111a8906149de565b60405180910390fd5b60008060005b60106000878152602001908152602001600020805490508110156112f4573373ffffffffffffffffffffffffffffffffffffffff166010600088815260200190815260200160002082815481106112115761121061447a565b5b906000526020600020906007020160060160009054906101000a900473ffffffffffffffffffffffffffffffffffffffff1673ffffffffffffffffffffffffffffffffffffffff16036112e7576010600087815260200190815260200160002081815481106112835761128261447a565b5b906000526020600020906007020160000154836112a09190614a2d565b92506010600087815260200190815260200160002081815481106112c7576112c661447a565b5b906000526020600020906007020160010154826112e49190614a2d565b91505b80806001019150506111b7565b5083821015611338576040517f08c379a000000000000000000000000000000000000000000000000000000000815260040161132f90614aad565b60405180910390fd5b8184826113459190614a2d565b1115611386576040517f08c379a000000000000000000000000000000000000000000000000000000000815260040161137d90614b3f565b60405180910390fd5b60005b601060008781526020019081526020016000208054905081101561148f573373ffffffffffffffffffffffffffffffffffffffff166010600088815260200190815260200160002082815481106113e3576113e261447a565b5b906000526020600020906007020160060160009054906101000a900473ffffffffffffffffffffffffffffffffffffffff1673ffffffffffffffffffffffffffffffffffffffff160361148257846010600088815260200190815260200160002082815481106114565761145561447a565b5b906000526020600020906007020160010160008282546114769190614a2d565b9250508190555061148f565b8080600101915050611389565b50847ff5faf79426a1fb4bc0362d335bf6e794d532c7c33fed7cdf921a59bc3b6dbffe33866040516114c2929190614b5f565b60405180910390a25050505050565b600c5481565b6114f283838360405180602001604052806000815250611971565b505050565b6114ff612965565b61150881612abb565b50565b6000600c54905090565b600e6020528060005260406000206000915090508060000154908060010154908060020154908060030154908060040154908060050154908060060154908060070160009054906101000a900473ffffffffffffffffffffffffffffffffffffffff16908060070160149054906101000a900460ff16908060070160159054906101000a900460ff1690806008015490508b565b606060106000838152602001908152602001600020805480602002602001604051908101604052809291908181526020016000905b828210156116a257838290600052602060002090600702016040518060e00160405290816000820154815260200160018201548152602001600282015481526020016003820154815260200160048201548152602001600582015481526020016006820160009054906101000a900473ffffffffffffffffffffffffffffffffffffffff1673ffffffffffffffffffffffffffffffffffffffff1673ffffffffffffffffffffffffffffffffffffffff1681525050815260200190600101906115de565b505050509050919050565b6000806116b983612b0e565b9050600073ffffffffffffffffffffffffffffffffffffffff168173ffffffffffffffffffffffffffffffffffffffff160361172a576040517f08c379a000000000000000000000000000000000000000000000000000000000815260040161172190614bd4565b60405180910390fd5b80915050919050565b60008073ffffffffffffffffffffffffffffffffffffffff168273ffffffffffffffffffffffffffffffffffffffff16036117a3576040517f08c379a000000000000000000000000000000000000000000000000000000000815260040161179a90614c66565b60405180910390fd5b600360008373ffffffffffffffffffffffffffffffffffffffff1673ffffffffffffffffffffffffffffffffffffffff168152602001908152602001600020549050919050565b6117f2612965565b6117fc6000612b4b565b565b600d5481565b6000600760009054906101000a900473ffffffffffffffffffffffffffffffffffffffff16905090565b60606001805461183d906144d8565b80601f0160208091040260200160405190810160405280929190818152602001828054611869906144d8565b80156118b65780601f1061188b576101008083540402835291602001916118b6565b820191906000526020600020905b81548152906001019060200180831161189957829003601f168201915b5050505050905090565b6118d26118cb612516565b8383612c11565b5050565b601060205281600052604060002081815481106118f257600080fd5b9060005260206000209060070201600091509150508060000154908060010154908060020154908060030154908060040154908060050154908060060160009054906101000a900473ffffffffffffffffffffffffffffffffffffffff16905087565b61195d612965565b80600b8190555050565b6000600b54905090565b61198261197c612516565b836125d7565b6119c1576040517f08c379a00000000000000000000000000000000000000000000000000000000081526004016119b89061469f565b60405180910390fd5b6119cd84848484612d7d565b50505050565b6000600e600084815260200190815260200160002090508060070160149054906101000a900460ff1615611a3c576040517f08c379a0000000000000000000000000000000000000000000000000000000008152600401611a3390614cd2565b60405180910390fd5b60038210611a4957600080fd5b600082118015611a6c575080600201548160010154611a689190614cf2565b8211155b611aab576040517f08c379a0000000000000000000000000000000000000000000000000000000008152600401611aa290614906565b60405180910390fd5b6000828260030154611abd9190614d26565b90506000600c54905060008183611ad49190614a2d565b9050803414611b18576040517f08c379a0000000000000000000000000000000000000000000000000000000008152600401611b0f90614db4565b60405180910390fd5b8360070160009054906101000a900473ffffffffffffffffffffffffffffffffffffffff1673ffffffffffffffffffffffffffffffffffffffff166108fc849081150290604051600060405180830381858888f19350505050158015611b82573d6000803e3d6000fd5b50611b8b611804565b73ffffffffffffffffffffffffffffffffffffffff166108fc839081150290604051600060405180830381858888f19350505050158015611bd0573d6000803e3d6000fd5b5060005b85811015611de8576000611be860096124bd565b9050611bf460096129e3565b611bfe33826129f9565b611c1081611c0b8a611e1e565b612a17565b600f60003373ffffffffffffffffffffffffffffffffffffffff1673ffffffffffffffffffffffffffffffffffffffff168152602001908152602001600020819080600181540180825580915050600190039060005260206000200160009091909190915055601060008281526020019081526020016000206040518060e001604052806001815260200160018152602001886003015481526020018381526020018381526020014281526020013373ffffffffffffffffffffffffffffffffffffffff168152509080600181540180825580915050600190039060005260206000209060070201600090919091909150600082015181600001556020820151816001015560408201518160020155606082015181600301556080820151816004015560a0820151816005015560c08201518160060160006101000a81548173ffffffffffffffffffffffffffffffffffffffff021916908373ffffffffffffffffffffffffffffffffffffffff1602179055505050856002016000815480929190611d9b90614dd4565b9190505550807fdbaaf4c87ce30816c961a81d110622a3227ede77953d4383d514ff88ab2e0fd33389604051611dd2929190614b5f565b60405180910390a2508080600101915050611bd4565b508360010154846002015403611e165760018460070160146101000a81548160ff0219169083151502179055505b505050505050565b6060611e29826124cb565b6000600660008481526020019081526020016000208054611e49906144d8565b80601f0160208091040260200160405190810160405280929190818152602001828054611e75906144d8565b8015611ec25780601f10611e9757610100808354040283529160200191611ec2565b820191906000526020600020905b815481529060010190602001808311611ea557829003601f168201915b505050505090506000611ed3612dd9565b90506000815103611ee8578192505050611f2b565b600082511115611f1d578082604051602001611f05929190614e58565b60405160208183030381529060405292505050611f2b565b611f2684612df0565b925050505b919050565b600f6020528160005260406000208181548110611f4c57600080fd5b90600052602060002001600091509150505481565b6001600e6000848152602001908152602001600020600201541015611fbb576040517f08c379a0000000000000000000000000000000000000000000000000000000008152600401611fb290614eee565b60405180910390fd5b6000600d54600e600085815260200190815260200160002060030154611fe19190614d26565b600e6000858152602001908152602001600020600301546120029190614a2d565b90503373ffffffffffffffffffffffffffffffffffffffff166108fc829081150290604051600060405180830381858888f1935050505015801561204a573d6000803e3d6000fd5b5060005b60106000858152602001908152602001600020805490508110156121ae57826010600086815260200190815260200160002082815481106120925761209161447a565b5b906000526020600020906007020160030154036121a15761210a6010600086815260200190815260200160002082815481106120d1576120d061447a565b5b906000526020600020906007020160060160009054906101000a900473ffffffffffffffffffffffffffffffffffffffff16338561266c565b837fd59a36d8310ffb140214be490baf3fe8961f859a17199ec1bf9015c8b73400116010600087815260200190815260200160002083815481106121515761215061447a565b5b906000526020600020906007020160060160009054906101000a900473ffffffffffffffffffffffffffffffffffffffff16338660405161219493929190614f0e565b60405180910390a26121ae565b808060010191505061204e565b50505050565b600b5481565b6000600560008473ffffffffffffffffffffffffffffffffffffffff1673ffffffffffffffffffffffffffffffffffffffff16815260200190815260200160002060008373ffffffffffffffffffffffffffffffffffffffff1673ffffffffffffffffffffffffffffffffffffffff16815260200190815260200160002060009054906101000a900460ff16905092915050565b612256612965565b600073ffffffffffffffffffffffffffffffffffffffff168173ffffffffffffffffffffffffffffffffffffffff16036122c5576040517f08c379a00000000000000000000000000000000000000000000000000000000081526004016122bc90614fb7565b60405180910390fd5b6122ce81612b4b565b50565b6122d96136a0565b600e600083815260200190815260200160002060405180610160016040529081600082015481526020016001820154815260200160028201548152602001600382015481526020016004820154815260200160058201548152602001600682015481526020016007820160009054906101000a900473ffffffffffffffffffffffffffffffffffffffff1673ffffffffffffffffffffffffffffffffffffffff1673ffffffffffffffffffffffffffffffffffffffff1681526020016007820160149054906101000a900460ff161515151581526020016007820160159054906101000a900460ff161515151581526020016008820154815250509050919050565b60007f80ac58cd000000000000000000000000000000000000000000000000000000007bffffffffffffffffffffffffffffffffffffffffffffffffffffffff1916827bffffffffffffffffffffffffffffffffffffffffffffffffffffffff191614806124a657507f5b5e139f000000000000000000000000000000000000000000000000000000007bffffffffffffffffffffffffffffffffffffffffffffffffffffffff1916827bffffffffffffffffffffffffffffffffffffffffffffffffffffffff1916145b806124b657506124b582612e58565b5b9050919050565b600081600001549050919050565b6124d481612ec2565b612513576040517f08c379a000000000000000000000000000000000000000000000000000000000815260040161250a90614bd4565b60405180910390fd5b50565b600033905090565b816004600083815260200190815260200160002060006101000a81548173ffffffffffffffffffffffffffffffffffffffff021916908373ffffffffffffffffffffffffffffffffffffffff160217905550808273ffffffffffffffffffffffffffffffffffffffff16612591836116ad565b73ffffffffffffffffffffffffffffffffffffffff167f8c5be1e5ebec7d5bd14f71427d1e84f3dd0314c0f7b2291e5b200ac8c7c3b92560405160405180910390a45050565b6000806125e3836116ad565b90508073ffffffffffffffffffffffffffffffffffffffff168473ffffffffffffffffffffffffffffffffffffffff161480612625575061262481856121ba565b5b8061266357508373ffffffffffffffffffffffffffffffffffffffff1661264b84610ba9565b73ffffffffffffffffffffffffffffffffffffffff16145b91505092915050565b8273ffffffffffffffffffffffffffffffffffffffff1661268c826116ad565b73ffffffffffffffffffffffffffffffffffffffff16146126e2576040517f08c379a00000000000000000000000000000000000000000000000000000000081526004016126d990615049565b60405180910390fd5b600073ffffffffffffffffffffffffffffffffffffffff168273ffffffffffffffffffffffffffffffffffffffff1603612751576040517f08c379a0000000000000000000000000000000000000000000000000000000008152600401612748906150db565b60405180910390fd5b61275e8383836001612f03565b8273ffffffffffffffffffffffffffffffffffffffff1661277e826116ad565b73ffffffffffffffffffffffffffffffffffffffff16146127d4576040517f08c379a00000000000000000000000000000000000000000000000000000000081526004016127cb90615049565b60405180910390fd5b6004600082815260200190815260200160002060006101000a81549073ffffffffffffffffffffffffffffffffffffffff02191690556001600360008573ffffffffffffffffffffffffffffffffffffffff1673ffffffffffffffffffffffffffffffffffffffff168152602001908152602001600020600082825403925050819055506001600360008473ffffffffffffffffffffffffffffffffffffffff1673ffffffffffffffffffffffffffffffffffffffff16815260200190815260200160002060008282540192505081905550816002600083815260200190815260200160002060006101000a81548173ffffffffffffffffffffffffffffffffffffffff021916908373ffffffffffffffffffffffffffffffffffffffff160217905550808273ffffffffffffffffffffffffffffffffffffffff168473ffffffffffffffffffffffffffffffffffffffff167fddf252ad1be2c89b69c2b068fc378daa952ba7f163c4a11628f55a4df523b3ef60405160405180910390a46129608383836001612f09565b505050565b61296d612516565b73ffffffffffffffffffffffffffffffffffffffff1661298b611804565b73ffffffffffffffffffffffffffffffffffffffff16146129e1576040517f08c379a00000000000000000000000000000000000000000000000000000000081526004016129d890615147565b60405180910390fd5b565b6001816000016000828254019250508190555050565b612a13828260405180602001604052806000815250612f0f565b5050565b612a2082612ec2565b612a5f576040517f08c379a0000000000000000000000000000000000000000000000000000000008152600401612a56906151d9565b60405180910390fd5b80600660008481526020019081526020016000209081612a7f91906153a5565b507ff8e1a15aba9398e019f0b49df1a4fde98ee17ae345cb5f6b5e2c27f5033e8ce782604051612aaf9190613e8a565b60405180910390a15050565b612ac481612f6a565b6000600660008381526020019081526020016000208054612ae4906144d8565b905014612b0b57600660008281526020019081526020016000206000612b0a9190613714565b5b50565b60006002600083815260200190815260200160002060009054906101000a900473ffffffffffffffffffffffffffffffffffffffff169050919050565b6000600760009054906101000a900473ffffffffffffffffffffffffffffffffffffffff16905081600760006101000a81548173ffffffffffffffffffffffffffffffffffffffff021916908373ffffffffffffffffffffffffffffffffffffffff1602179055508173ffffffffffffffffffffffffffffffffffffffff168173ffffffffffffffffffffffffffffffffffffffff167f8be0079c531659141344cd1fd0a4f28419497f9722a3daafe3b4186f6b6457e060405160405180910390a35050565b8173ffffffffffffffffffffffffffffffffffffffff168373ffffffffffffffffffffffffffffffffffffffff1603612c7f576040517f08c379a0000000000000000000000000000000000000000000000000000000008152600401612c76906154c3565b60405180910390fd5b80600560008573ffffffffffffffffffffffffffffffffffffffff1673ffffffffffffffffffffffffffffffffffffffff16815260200190815260200160002060008473ffffffffffffffffffffffffffffffffffffffff1673ffffffffffffffffffffffffffffffffffffffff16815260200190815260200160002060006101000a81548160ff0219169083151502179055508173ffffffffffffffffffffffffffffffffffffffff168373ffffffffffffffffffffffffffffffffffffffff167f17307eab39ab6107e8899845ad3d59bd9653f200f220920489ca2b5937696c3183604051612d709190613825565b60405180910390a3505050565b612d8884848461266c565b612d94848484846130b8565b612dd3576040517f08c379a0000000000000000000000000000000000000000000000000000000008152600401612dca90615555565b60405180910390fd5b50505050565b606060405180602001604052806000815250905090565b6060612dfb826124cb565b6000612e05612dd9565b90506000815111612e255760405180602001604052806000815250612e50565b80612e2f8461323f565b604051602001612e40929190614e58565b6040516020818303038152906040525b915050919050565b60007f01ffc9a7000000000000000000000000000000000000000000000000000000007bffffffffffffffffffffffffffffffffffffffffffffffffffffffff1916827bffffffffffffffffffffffffffffffffffffffffffffffffffffffff1916149050919050565b60008073ffffffffffffffffffffffffffffffffffffffff16612ee483612b0e565b73ffffffffffffffffffffffffffffffffffffffff1614159050919050565b50505050565b50505050565b612f19838361330d565b612f2660008484846130b8565b612f65576040517f08c379a0000000000000000000000000000000000000000000000000000000008152600401612f5c90615555565b60405180910390fd5b505050565b6000612f75826116ad565b9050612f85816000846001612f03565b612f8e826116ad565b90506004600083815260200190815260200160002060006101000a81549073ffffffffffffffffffffffffffffffffffffffff02191690556001600360008373ffffffffffffffffffffffffffffffffffffffff1673ffffffffffffffffffffffffffffffffffffffff168152602001908152602001600020600082825403925050819055506002600083815260200190815260200160002060006101000a81549073ffffffffffffffffffffffffffffffffffffffff021916905581600073ffffffffffffffffffffffffffffffffffffffff168273ffffffffffffffffffffffffffffffffffffffff167fddf252ad1be2c89b69c2b068fc378daa952ba7f163c4a11628f55a4df523b3ef60405160405180910390a46130b4816000846001612f09565b5050565b60006130d98473ffffffffffffffffffffffffffffffffffffffff1661352a565b15613232578373ffffffffffffffffffffffffffffffffffffffff1663150b7a02613102612516565b8786866040518563ffffffff1660e01b815260040161312494939291906155ca565b6020604051808303816000875af192505050801561316057506040513d601f19601f8201168201806040525081019061315d919061562b565b60015b6131e2573d8060008114613190576040519150601f19603f3d011682016040523d82523d6000602084013e613195565b606091505b5060008151036131da576040517f08c379a00000000000000000000000000000000000000000000000000000000081526004016131d190615555565b60405180910390fd5b805181602001fd5b63150b7a0260e01b7bffffffffffffffffffffffffffffffffffffffffffffffffffffffff1916817bffffffffffffffffffffffffffffffffffffffffffffffffffffffff191614915050613237565b600190505b949350505050565b60606000600161324e8461354d565b01905060008167ffffffffffffffff81111561326d5761326c61418f565b5b6040519080825280601f01601f19166020018201604052801561329f5781602001600182028036833780820191505090505b509050600082602001820190505b600115613302578080600190039150507f3031323334353637383961626364656600000000000000000000000000000000600a86061a8153600a85816132f6576132f5615658565b5b049450600085036132ad575b819350505050919050565b600073ffffffffffffffffffffffffffffffffffffffff168273ffffffffffffffffffffffffffffffffffffffff160361337c576040517f08c379a0000000000000000000000000000000000000000000000000000000008152600401613373906156d3565b60405180910390fd5b61338581612ec2565b156133c5576040517f08c379a00000000000000000000000000000000000000000000000000000000081526004016133bc9061573f565b60405180910390fd5b6133d3600083836001612f03565b6133dc81612ec2565b1561341c576040517f08c379a00000000000000000000000000000000000000000000000000000000081526004016134139061573f565b60405180910390fd5b6001600360008473ffffffffffffffffffffffffffffffffffffffff1673ffffffffffffffffffffffffffffffffffffffff16815260200190815260200160002060008282540192505081905550816002600083815260200190815260200160002060006101000a81548173ffffffffffffffffffffffffffffffffffffffff021916908373ffffffffffffffffffffffffffffffffffffffff160217905550808273ffffffffffffffffffffffffffffffffffffffff16600073ffffffffffffffffffffffffffffffffffffffff167fddf252ad1be2c89b69c2b068fc378daa952ba7f163c4a11628f55a4df523b3ef60405160405180910390a4613526600083836001612f09565b5050565b6000808273ffffffffffffffffffffffffffffffffffffffff163b119050919050565b600080600090507a184f03e93ff9f4daa797ed6e38ed64bf6a1f01000000000000000083106135ab577a184f03e93ff9f4daa797ed6e38ed64bf6a1f01000000000000000083816135a1576135a0615658565b5b0492506040810190505b6d04ee2d6d415b85acef810000000083106135e8576d04ee2d6d415b85acef810000000083816135de576135dd615658565b5b0492506020810190505b662386f26fc10000831061361757662386f26fc10000838161360d5761360c615658565b5b0492506010810190505b6305f5e1008310613640576305f5e100838161363657613635615658565b5b0492506008810190505b612710831061366557612710838161365b5761365a615658565b5b0492506004810190505b60648310613688576064838161367e5761367d615658565b5b0492506002810190505b600a8310613697576001810190505b80915050919050565b60405180610160016040528060008152602001600081526020016000815260200160008152602001600081526020016000815260200160008152602001600073ffffffffffffffffffffffffffffffffffffffff168152602001600015158152602001600015158152602001600081525090565b508054613720906144d8565b6000825580601f106137325750613751565b601f0160209004906000526020600020908101906137509190613754565b5b50565b5b8082111561376d576000816000905550600101613755565b5090565b6000604051905090565b600080fd5b600080fd5b60007fffffffff0000000000000000000000000000000000000000000000000000000082169050919050565b6137ba81613785565b81146137c557600080fd5b50565b6000813590506137d7816137b1565b92915050565b6000602082840312156137f3576137f261377b565b5b6000613801848285016137c8565b91505092915050565b60008115159050919050565b61381f8161380a565b82525050565b600060208201905061383a6000830184613816565b92915050565b600081519050919050565b600082825260208201905092915050565b6000819050602082019050919050565b6000819050919050565b61387f8161386c565b82525050565b600073ffffffffffffffffffffffffffffffffffffffff82169050919050565b60006138b082613885565b9050919050565b6138c0816138a5565b82525050565b6138cf8161380a565b82525050565b610160820160008201516138ec6000850182613876565b5060208201516138ff6020850182613876565b5060408201516139126040850182613876565b5060608201516139256060850182613876565b5060808201516139386080850182613876565b5060a082015161394b60a0850182613876565b5060c082015161395e60c0850182613876565b5060e082015161397160e08501826138b7565b506101008201516139866101008501826138c6565b5061012082015161399b6101208501826138c6565b506101408201516139b0610140850182613876565b50505050565b60006139c283836138d5565b6101608301905092915050565b6000602082019050919050565b60006139e782613840565b6139f1818561384b565b93506139fc8361385c565b8060005b83811015613a2d578151613a1488826139b6565b9750613a1f836139cf565b925050600181019050613a00565b5085935050505092915050565b60006020820190508181036000830152613a5481846139dc565b905092915050565b613a65816138a5565b8114613a7057600080fd5b50565b600081359050613a8281613a5c565b92915050565b600060208284031215613a9e57613a9d61377b565b5b6000613aac84828501613a73565b91505092915050565b600081519050919050565b600082825260208201905092915050565b6000819050602082019050919050565b6000613aed8383613876565b60208301905092915050565b6000602082019050919050565b6000613b1182613ab5565b613b1b8185613ac0565b9350613b2683613ad1565b8060005b83811015613b57578151613b3e8882613ae1565b9750613b4983613af9565b925050600181019050613b2a565b5085935050505092915050565b60006020820190508181036000830152613b7e8184613b06565b905092915050565b600081519050919050565b600082825260208201905092915050565b60005b83811015613bc0578082015181840152602081019050613ba5565b60008484015250505050565b6000601f19601f8301169050919050565b6000613be882613b86565b613bf28185613b91565b9350613c02818560208601613ba2565b613c0b81613bcc565b840191505092915050565b60006020820190508181036000830152613c308184613bdd565b905092915050565b613c418161386c565b8114613c4c57600080fd5b50565b600081359050613c5e81613c38565b92915050565b600060208284031215613c7a57613c7961377b565b5b6000613c8884828501613c4f565b91505092915050565b613c9a816138a5565b82525050565b6000602082019050613cb56000830184613c91565b92915050565b60008060408385031215613cd257613cd161377b565b5b6000613ce085828601613a73565b9250506020613cf185828601613c4f565b9150509250929050565b600080600060608486031215613d1457613d1361377b565b5b6000613d2286828701613a73565b9350506020613d3386828701613a73565b9250506040613d4486828701613c4f565b9150509250925092565b600080fd5b600080fd5b600080fd5b60008083601f840112613d7357613d72613d4e565b5b8235905067ffffffffffffffff811115613d9057613d8f613d53565b5b602083019150836001820283011115613dac57613dab613d58565b5b9250929050565b600080600080600060808688031215613dcf57613dce61377b565b5b600086013567ffffffffffffffff811115613ded57613dec613780565b5b613df988828901613d5d565b95509550506020613e0c88828901613c4f565b9350506040613e1d88828901613c4f565b9250506060613e2e88828901613c4f565b9150509295509295909350565b60008060408385031215613e5257613e5161377b565b5b6000613e6085828601613c4f565b9250506020613e7185828601613c4f565b9150509250929050565b613e848161386c565b82525050565b6000602082019050613e9f6000830184613e7b565b92915050565b600061016082019050613ebb600083018e613e7b565b613ec8602083018d613e7b565b613ed5604083018c613e7b565b613ee2606083018b613e7b565b613eef608083018a613e7b565b613efc60a0830189613e7b565b613f0960c0830188613e7b565b613f1660e0830187613c91565b613f24610100830186613816565b613f32610120830185613816565b613f40610140830184613e7b565b9c9b505050505050505050505050565b600081519050919050565b600082825260208201905092915050565b6000819050602082019050919050565b60e082016000820151613f926000850182613876565b506020820151613fa56020850182613876565b506040820151613fb86040850182613876565b506060820151613fcb6060850182613876565b506080820151613fde6080850182613876565b5060a0820151613ff160a0850182613876565b5060c082015161400460c08501826138b7565b50505050565b60006140168383613f7c565b60e08301905092915050565b6000602082019050919050565b600061403a82613f50565b6140448185613f5b565b935061404f83613f6c565b8060005b83811015614080578151614067888261400a565b975061407283614022565b925050600181019050614053565b5085935050505092915050565b600060208201905081810360008301526140a7818461402f565b905092915050565b6140b88161380a565b81146140c357600080fd5b50565b6000813590506140d5816140af565b92915050565b600080604083850312156140f2576140f161377b565b5b600061410085828601613a73565b9250506020614111858286016140c6565b9150509250929050565b600060e082019050614130600083018a613e7b565b61413d6020830189613e7b565b61414a6040830188613e7b565b6141576060830187613e7b565b6141646080830186613e7b565b61417160a0830185613e7b565b61417e60c0830184613c91565b98975050505050505050565b600080fd5b7f4e487b7100000000000000000000000000000000000000000000000000000000600052604160045260246000fd5b6141c782613bcc565b810181811067ffffffffffffffff821117156141e6576141e561418f565b5b80604052505050565b60006141f9613771565b905061420582826141be565b919050565b600067ffffffffffffffff8211156142255761422461418f565b5b61422e82613bcc565b9050602081019050919050565b82818337600083830152505050565b600061425d6142588461420a565b6141ef565b9050828152602081018484840111156142795761427861418a565b5b61428484828561423b565b509392505050565b600082601f8301126142a1576142a0613d4e565b5b81356142b184826020860161424a565b91505092915050565b600080600080608085870312156142d4576142d361377b565b5b60006142e287828801613a73565b94505060206142f387828801613a73565b935050604061430487828801613c4f565b925050606085013567ffffffffffffffff81111561432557614324613780565b5b6143318782880161428c565b91505092959194509250565b600080604083850312156143545761435361377b565b5b600061436285828601613a73565b925050602061437385828601613a73565b9150509250929050565b610160820160008201516143946000850182613876565b5060208201516143a76020850182613876565b5060408201516143ba6040850182613876565b5060608201516143cd6060850182613876565b5060808201516143e06080850182613876565b5060a08201516143f360a0850182613876565b5060c082015161440660c0850182613876565b5060e082015161441960e08501826138b7565b5061010082015161442e6101008501826138c6565b506101208201516144436101208501826138c6565b50610140820151614458610140850182613876565b50505050565b600061016082019050614474600083018461437d565b92915050565b7f4e487b7100000000000000000000000000000000000000000000000000000000600052603260045260246000fd5b7f4e487b7100000000000000000000000000000000000000000000000000000000600052602260045260246000fd5b600060028204905060018216806144f057607f821691505b602082108103614503576145026144a9565b5b50919050565b7f4552433732313a20617070726f76616c20746f2063757272656e74206f776e6560008201527f7200000000000000000000000000000000000000000000000000000000000000602082015250565b6000614565602183613b91565b915061457082614509565b604082019050919050565b6000602082019050818103600083015261459481614558565b9050919050565b7f4552433732313a20617070726f76652063616c6c6572206973206e6f7420746f60008201527f6b656e206f776e6572206f7220617070726f76656420666f7220616c6c000000602082015250565b60006145f7603d83613b91565b91506146028261459b565b604082019050919050565b60006020820190508181036000830152614626816145ea565b9050919050565b7f4552433732313a2063616c6c6572206973206e6f7420746f6b656e206f776e6560008201527f72206f7220617070726f76656400000000000000000000000000000000000000602082015250565b6000614689602d83613b91565b91506146948261462d565b604082019050919050565b600060208201905081810360008301526146b88161467c565b9050919050565b7f546f74616c207469636b657473206d757374206265206772656174657220746860008201527f616e203000000000000000000000000000000000000000000000000000000000602082015250565b600061471b602483613b91565b9150614726826146bf565b604082019050919050565b6000602082019050818103600083015261474a8161470e565b9050919050565b7f5469636b6574207072696365206d75737420626520677265617465722074686160008201527f6e20300000000000000000000000000000000000000000000000000000000000602082015250565b60006147ad602383613b91565b91506147b882614751565b604082019050919050565b600060208201905081810360008301526147dc816147a0565b9050919050565b7f5469636b657420656e642064617465206d75737420626520696e20746865206660008201527f7574757265000000000000000000000000000000000000000000000000000000602082015250565b600061483f602583613b91565b915061484a826147e3565b604082019050919050565b6000602082019050818103600083015261486e81614832565b9050919050565b600060808201905061488a6000830187613e7b565b6148976020830186613e7b565b6148a46040830185613e7b565b6148b16060830184613e7b565b95945050505050565b7f496e76616c6964206e756d626572206f66207469636b65747300000000000000600082015250565b60006148f0601983613b91565b91506148fb826148ba565b602082019050919050565b6000602082019050818103600083015261491f816148e3565b9050919050565b7f4e6f7420656e6f756768207469636b65747320736f6c64000000000000000000600082015250565b600061495c601783613b91565b915061496782614926565b602082019050919050565b6000602082019050818103600083015261498b8161494f565b9050919050565b7f5469636b65742063616e6e6f74206265207265736f6c64207965740000000000600082015250565b60006149c8601b83613b91565b91506149d382614992565b602082019050919050565b600060208201905081810360008301526149f7816149bb565b9050919050565b7f4e487b7100000000000000000000000000000000000000000000000000000000600052601160045260246000fd5b6000614a388261386c565b9150614a438361386c565b9250828201905080821115614a5b57614a5a6149fe565b5b92915050565b7f4e6f7420656e6f756768207469636b657473206f776e65640000000000000000600082015250565b6000614a97601883613b91565b9150614aa282614a61565b602082019050919050565b60006020820190508181036000830152614ac681614a8a565b9050919050565b7f43616e6e6f7420726573656c6c206d6f7265207469636b657473207468616e2060008201527f6f776e6564000000000000000000000000000000000000000000000000000000602082015250565b6000614b29602583613b91565b9150614b3482614acd565b604082019050919050565b60006020820190508181036000830152614b5881614b1c565b9050919050565b6000604082019050614b746000830185613c91565b614b816020830184613e7b565b9392505050565b7f4552433732313a20696e76616c696420746f6b656e2049440000000000000000600082015250565b6000614bbe601883613b91565b9150614bc982614b88565b602082019050919050565b60006020820190508181036000830152614bed81614bb1565b9050919050565b7f4552433732313a2061646472657373207a65726f206973206e6f74206120766160008201527f6c6964206f776e65720000000000000000000000000000000000000000000000602082015250565b6000614c50602983613b91565b9150614c5b82614bf4565b604082019050919050565b60006020820190508181036000830152614c7f81614c43565b9050919050565b7f5469636b65742068617320616c7265616479206265656e20736f6c6400000000600082015250565b6000614cbc601c83613b91565b9150614cc782614c86565b602082019050919050565b60006020820190508181036000830152614ceb81614caf565b9050919050565b6000614cfd8261386c565b9150614d088361386c565b9250828203905081811115614d2057614d1f6149fe565b5b92915050565b6000614d318261386c565b9150614d3c8361386c565b9250828202614d4a8161386c565b91508282048414831517614d6157614d606149fe565b5b5092915050565b7f496e636f727265637420616d6f756e742073656e740000000000000000000000600082015250565b6000614d9e601583613b91565b9150614da982614d68565b602082019050919050565b60006020820190508181036000830152614dcd81614d91565b9050919050565b6000614ddf8261386c565b91507fffffffffffffffffffffffffffffffffffffffffffffffffffffffffffffffff8203614e1157614e106149fe565b5b600182019050919050565b600081905092915050565b6000614e3282613b86565b614e3c8185614e1c565b9350614e4c818560208601613ba2565b80840191505092915050565b6000614e648285614e27565b9150614e708284614e27565b91508190509392505050565b7f4e6f7420656e6f756768207469636b65747320617661696c61626c6520666f7260008201527f20726573616c6500000000000000000000000000000000000000000000000000602082015250565b6000614ed8602783613b91565b9150614ee382614e7c565b604082019050919050565b60006020820190508181036000830152614f0781614ecb565b9050919050565b6000606082019050614f236000830186613c91565b614f306020830185613c91565b614f3d6040830184613e7b565b949350505050565b7f4f776e61626c653a206e6577206f776e657220697320746865207a65726f206160008201527f6464726573730000000000000000000000000000000000000000000000000000602082015250565b6000614fa1602683613b91565b9150614fac82614f45565b604082019050919050565b60006020820190508181036000830152614fd081614f94565b9050919050565b7f4552433732313a207472616e736665722066726f6d20696e636f72726563742060008201527f6f776e6572000000000000000000000000000000000000000000000000000000602082015250565b6000615033602583613b91565b915061503e82614fd7565b604082019050919050565b6000602082019050818103600083015261506281615026565b9050919050565b7f4552433732313a207472616e7366657220746f20746865207a65726f2061646460008201527f7265737300000000000000000000000000000000000000000000000000000000602082015250565b60006150c5602483613b91565b91506150d082615069565b604082019050919050565b600060208201905081810360008301526150f4816150b8565b9050919050565b7f4f776e61626c653a2063616c6c6572206973206e6f7420746865206f776e6572600082015250565b6000615131602083613b91565b915061513c826150fb565b602082019050919050565b6000602082019050818103600083015261516081615124565b9050919050565b7f45524337323155524953746f726167653a2055524920736574206f66206e6f6e60008201527f6578697374656e7420746f6b656e000000000000000000000000000000000000602082015250565b60006151c3602e83613b91565b91506151ce82615167565b604082019050919050565b600060208201905081810360008301526151f2816151b6565b9050919050565b60008190508160005260206000209050919050565b60006020601f8301049050919050565b600082821b905092915050565b60006008830261525b7fffffffffffffffffffffffffffffffffffffffffffffffffffffffffffffffff8261521e565b615265868361521e565b95508019841693508086168417925050509392505050565b6000819050919050565b60006152a261529d6152988461386c565b61527d565b61386c565b9050919050565b6000819050919050565b6152bc83615287565b6152d06152c8826152a9565b84845461522b565b825550505050565b600090565b6152e56152d8565b6152f08184846152b3565b505050565b5b81811015615314576153096000826152dd565b6001810190506152f6565b5050565b601f8211156153595761532a816151f9565b6153338461520e565b81016020851015615342578190505b61535661534e8561520e565b8301826152f5565b50505b505050565b600082821c905092915050565b600061537c6000198460080261535e565b1980831691505092915050565b6000615395838361536b565b9150826002028217905092915050565b6153ae82613b86565b67ffffffffffffffff8111156153c7576153c661418f565b5b6153d182546144d8565b6153dc828285615318565b600060209050601f83116001811461540f57600084156153fd578287015190505b6154078582615389565b86555061546f565b601f19841661541d866151f9565b60005b8281101561544557848901518255600182019150602085019450602081019050615420565b86831015615462578489015161545e601f89168261536b565b8355505b6001600288020188555050505b505050505050565b7f4552433732313a20617070726f766520746f2063616c6c657200000000000000600082015250565b60006154ad601983613b91565b91506154b882615477565b602082019050919050565b600060208201905081810360008301526154dc816154a0565b9050919050565b7f4552433732313a207472616e7366657220746f206e6f6e20455243373231526560008201527f63656976657220696d706c656d656e7465720000000000000000000000000000602082015250565b600061553f603283613b91565b915061554a826154e3565b604082019050919050565b6000602082019050818103600083015261556e81615532565b9050919050565b600081519050919050565b600082825260208201905092915050565b600061559c82615575565b6155a68185615580565b93506155b6818560208601613ba2565b6155bf81613bcc565b840191505092915050565b60006080820190506155df6000830187613c91565b6155ec6020830186613c91565b6155f96040830185613e7b565b818103606083015261560b8184615591565b905095945050505050565b600081519050615625816137b1565b92915050565b6000602082840312156156415761564061377b565b5b600061564f84828501615616565b91505092915050565b7f4e487b7100000000000000000000000000000000000000000000000000000000600052601260045260246000fd5b7f4552433732313a206d696e7420746f20746865207a65726f2061646472657373600082015250565b60006156bd602083613b91565b91506156c882615687565b602082019050919050565b600060208201905081810360008301526156ec816156b0565b9050919050565b7f4552433732313a20746f6b656e20616c7265616479206d696e74656400000000600082015250565b6000615729601c83613b91565b9150615734826156f3565b602082019050919050565b600060208201905081810360008301526157588161571c565b905091905056fea2646970667358221220fdb885428d40af4eada52d087b0fe9257300fdd42ebd2ca37b015cc72ab2bd1264736f6c63430008180033",
  "linkReferences": {},
  "deployedLinkReferences": {}
}