{
  "_format": "hh-sol-artifact-1",
  "contractName": "Ticket",
  "sourceName": "contracts/Lock.sol",
  "abi": [
    {
      "inputs": [
        {
          "internalType": "uint256",
          "name": "_creationFeePercentage",
          "type": "uint256"
        },
        {
          "internalType": "uint256",
          "name": "_purchaseFeePercentage",
          "type": "uint256"
        },
        {
          "internalType": "uint256",
          "name": "_resellingFeePercentage",
          "type": "uint256"
        }
      ],
      "stateMutability": "nonpayable",
      "type": "constructor"
    },
    {
      "anonymous": false,
      "inputs": [
        {
          "indexed": true,
          "internalType": "address",
          "name": "owner",
          "type": "address"
        },
        {
          "indexed": true,
          "internalType": "address",
          "name": "approved",
          "type": "address"
        },
        {
          "indexed": true,
          "internalType": "uint256",
          "name": "tokenId",
          "type": "uint256"
        }
      ],
      "name": "Approval",
      "type": "event"
    },
    {
      "anonymous": false,
      "inputs": [
        {
          "indexed": true,
          "internalType": "address",
          "name": "owner",
          "type": "address"
        },
        {
          "indexed": true,
          "internalType": "address",
          "name": "operator",
          "type": "address"
        },
        {
          "indexed": false,
          "internalType": "bool",
          "name": "approved",
          "type": "bool"
        }
      ],
      "name": "ApprovalForAll",
      "type": "event"
    },
    {
      "anonymous": false,
      "inputs": [
        {
          "indexed": false,
          "internalType": "uint256",
          "name": "_fromTokenId",
          "type": "uint256"
        },
        {
          "indexed": false,
          "internalType": "uint256",
          "name": "_toTokenId",
          "type": "uint256"
        }
      ],
      "name": "BatchMetadataUpdate",
      "type": "event"
    },
    {
      "anonymous": false,
      "inputs": [
        {
          "indexed": false,
          "internalType": "uint256",
          "name": "_tokenId",
          "type": "uint256"
        }
      ],
      "name": "MetadataUpdate",
      "type": "event"
    },
    {
      "anonymous": false,
      "inputs": [
        {
          "indexed": true,
          "internalType": "address",
          "name": "previousOwner",
          "type": "address"
        },
        {
          "indexed": true,
          "internalType": "address",
          "name": "newOwner",
          "type": "address"
        }
      ],
      "name": "OwnershipTransferred",
      "type": "event"
    },
    {
      "anonymous": false,
      "inputs": [
        {
          "indexed": true,
          "internalType": "uint256",
          "name": "tokenId",
          "type": "uint256"
        },
        {
          "indexed": false,
          "internalType": "uint256",
          "name": "totalTickets",
          "type": "uint256"
        },
        {
          "indexed": false,
          "internalType": "uint256",
          "name": "ticketPrice",
          "type": "uint256"
        },
        {
          "indexed": false,
          "internalType": "uint256",
          "name": "ticketStartDate",
          "type": "uint256"
        },
        {
          "indexed": false,
          "internalType": "uint256",
          "name": "ticketEndDate",
          "type": "uint256"
        }
      ],
      "name": "TicketCreated",
      "type": "event"
    },
    {
      "anonymous": false,
      "inputs": [
        {
          "indexed": true,
          "internalType": "uint256",
          "name": "tokenId",
          "type": "uint256"
        },
        {
          "indexed": false,
          "internalType": "address",
          "name": "buyer",
          "type": "address"
        },
        {
          "indexed": false,
          "internalType": "uint256",
          "name": "ticketsBought",
          "type": "uint256"
        }
      ],
      "name": "TicketPurchased",
      "type": "event"
    },
    {
      "anonymous": false,
      "inputs": [
        {
          "indexed": true,
          "internalType": "uint256",
          "name": "tokenId",
          "type": "uint256"
        },
        {
          "indexed": false,
          "internalType": "address",
          "name": "reseller",
          "type": "address"
        },
        {
          "indexed": false,
          "internalType": "uint256",
          "name": "ticketsBought",
          "type": "uint256"
        }
      ],
      "name": "TicketResell",
      "type": "event"
    },
    {
      "anonymous": false,
      "inputs": [
        {
          "indexed": true,
          "internalType": "uint256",
          "name": "tokenId",
          "type": "uint256"
        },
        {
          "indexed": false,
          "internalType": "address",
          "name": "reseller",
          "type": "address"
        },
        {
          "indexed": false,
          "internalType": "address",
          "name": "rebuyer",
          "type": "address"
        },
        {
          "indexed": false,
          "internalType": "uint256",
          "name": "ticketsBought",
          "type": "uint256"
        }
      ],
      "name": "TicketResold",
      "type": "event"
    },
    {
      "anonymous": false,
      "inputs": [
        {
          "indexed": true,
          "internalType": "address",
          "name": "from",
          "type": "address"
        },
        {
          "indexed": true,
          "internalType": "address",
          "name": "to",
          "type": "address"
        },
        {
          "indexed": true,
          "internalType": "uint256",
          "name": "tokenId",
          "type": "uint256"
        }
      ],
      "name": "Transfer",
      "type": "event"
    },
    {
      "inputs": [
        {
          "internalType": "address",
          "name": "to",
          "type": "address"
        },
        {
          "internalType": "uint256",
          "name": "tokenId",
          "type": "uint256"
        }
      ],
      "name": "approve",
      "outputs": [],
      "stateMutability": "nonpayable",
      "type": "function"
    },
    {
      "inputs": [
        {
          "internalType": "address",
          "name": "owner",
          "type": "address"
        }
      ],
      "name": "balanceOf",
      "outputs": [
        {
          "internalType": "uint256",
          "name": "",
          "type": "uint256"
        }
      ],
      "stateMutability": "view",
      "type": "function"
    },
    {
      "inputs": [
        {
          "internalType": "string",
          "name": "tokenURI",
          "type": "string"
        },
        {
          "internalType": "uint256",
          "name": "_totalTickets",
          "type": "uint256"
        },
        {
          "internalType": "uint256",
          "name": "_ticketPrice",
          "type": "uint256"
        },
        {
          "internalType": "uint256",
          "name": "_ticketEndDate",
          "type": "uint256"
        }
      ],
      "name": "createTicket",
      "outputs": [],
      "stateMutability": "payable",
      "type": "function"
    },
    {
      "inputs": [],
      "name": "creationFeePercentage",
      "outputs": [
        {
          "internalType": "uint256",
          "name": "",
          "type": "uint256"
        }
      ],
      "stateMutability": "view",
      "type": "function"
    },
    {
      "inputs": [],
      "name": "getAllTickets",
      "outputs": [
        {
          "components": [
            {
              "internalType": "uint256",
              "name": "tokenId",
              "type": "uint256"
            },
            {
              "internalType": "uint256",
              "name": "totalTickets",
              "type": "uint256"
            },
            {
              "internalType": "uint256",
              "name": "ticketsSold",
              "type": "uint256"
            },
            {
              "internalType": "uint256",
              "name": "ticketPrice",
              "type": "uint256"
            },
            {
              "internalType": "uint256",
              "name": "ticketStartDate",
              "type": "uint256"
            },
            {
              "internalType": "uint256",
              "name": "ticketEndDate",
              "type": "uint256"
            },
            {
              "internalType": "uint256",
              "name": "ticketHoldDate",
              "type": "uint256"
            },
            {
              "internalType": "address",
              "name": "creator",
              "type": "address"
            },
            {
              "internalType": "bool",
              "name": "ticketSold",
              "type": "bool"
            },
            {
              "internalType": "bool",
              "name": "isResellable",
              "type": "bool"
            }
          ],
          "internalType": "struct Ticket.TicketInfo[]",
          "name": "",
          "type": "tuple[]"
        }
      ],
      "stateMutability": "view",
      "type": "function"
    },
    {
      "inputs": [
        {
          "internalType": "uint256",
          "name": "tokenId",
          "type": "uint256"
        }
      ],
      "name": "getApproved",
      "outputs": [
        {
          "internalType": "address",
          "name": "",
          "type": "address"
        }
      ],
      "stateMutability": "view",
      "type": "function"
    },
    {
      "inputs": [],
      "name": "getCreationFeePercentage",
      "outputs": [
        {
          "internalType": "uint256",
          "name": "",
          "type": "uint256"
        }
      ],
      "stateMutability": "view",
      "type": "function"
    },
    {
      "inputs": [],
      "name": "getPurchaseFeePercentage",
      "outputs": [
        {
          "internalType": "uint256",
          "name": "",
          "type": "uint256"
        }
      ],
      "stateMutability": "view",
      "type": "function"
    },
    {
      "inputs": [
        {
          "internalType": "uint256",
          "name": "tokenID",
          "type": "uint256"
        }
      ],
      "name": "getPurchaseInfo",
      "outputs": [
        {
          "components": [
            {
              "internalType": "uint256",
              "name": "ticketsBought",
              "type": "uint256"
            },
            {
              "internalType": "uint256",
              "name": "ticketsToResell",
              "type": "uint256"
            },
            {
              "internalType": "uint256",
              "name": "totalPrice",
              "type": "uint256"
            },
            {
              "internalType": "uint256",
              "name": "ticketId",
              "type": "uint256"
            },
            {
              "internalType": "uint256",
              "name": "purchaseId",
              "type": "uint256"
            },
            {
              "internalType": "uint256",
              "name": "purchaseTimestamp",
              "type": "uint256"
            },
            {
              "internalType": "address",
              "name": "buyer",
              "type": "address"
            }
          ],
          "internalType": "struct Ticket.PurchaseInfo[]",
          "name": "",
          "type": "tuple[]"
        }
      ],
      "stateMutability": "view",
      "type": "function"
    },
    {
      "inputs": [
        {
          "internalType": "uint256",
          "name": "tokenID",
          "type": "uint256"
        }
      ],
      "name": "getTicketInfo",
      "outputs": [
        {
          "components": [
            {
              "internalType": "uint256",
              "name": "tokenId",
              "type": "uint256"
            },
            {
              "internalType": "uint256",
              "name": "totalTickets",
              "type": "uint256"
            },
            {
              "internalType": "uint256",
              "name": "ticketsSold",
              "type": "uint256"
            },
            {
              "internalType": "uint256",
              "name": "ticketPrice",
              "type": "uint256"
            },
            {
              "internalType": "uint256",
              "name": "ticketStartDate",
              "type": "uint256"
            },
            {
              "internalType": "uint256",
              "name": "ticketEndDate",
              "type": "uint256"
            },
            {
              "internalType": "uint256",
              "name": "ticketHoldDate",
              "type": "uint256"
            },
            {
              "internalType": "address",
              "name": "creator",
              "type": "address"
            },
            {
              "internalType": "bool",
              "name": "ticketSold",
              "type": "bool"
            },
            {
              "internalType": "bool",
              "name": "isResellable",
              "type": "bool"
            }
          ],
          "internalType": "struct Ticket.TicketInfo",
          "name": "",
          "type": "tuple"
        }
      ],
      "stateMutability": "view",
      "type": "function"
    },
    {
      "inputs": [
        {
          "internalType": "address",
          "name": "user",
          "type": "address"
        }
      ],
      "name": "getUserTickets",
      "outputs": [
        {
          "internalType": "uint256[]",
          "name": "",
          "type": "uint256[]"
        }
      ],
      "stateMutability": "view",
      "type": "function"
    },
    {
      "inputs": [
        {
          "internalType": "address",
          "name": "owner",
          "type": "address"
        },
        {
          "internalType": "address",
          "name": "operator",
          "type": "address"
        }
      ],
      "name": "isApprovedForAll",
      "outputs": [
        {
          "internalType": "bool",
          "name": "",
          "type": "bool"
        }
      ],
      "stateMutability": "view",
      "type": "function"
    },
    {
      "inputs": [],
      "name": "name",
      "outputs": [
        {
          "internalType": "string",
          "name": "",
          "type": "string"
        }
      ],
      "stateMutability": "view",
      "type": "function"
    },
    {
      "inputs": [],
      "name": "owner",
      "outputs": [
        {
          "internalType": "address",
          "name": "",
          "type": "address"
        }
      ],
      "stateMutability": "view",
      "type": "function"
    },
    {
      "inputs": [
        {
          "internalType": "uint256",
          "name": "tokenId",
          "type": "uint256"
        }
      ],
      "name": "ownerOf",
      "outputs": [
        {
          "internalType": "address",
          "name": "",
          "type": "address"
        }
      ],
      "stateMutability": "view",
      "type": "function"
    },
    {
      "inputs": [],
      "name": "purchaseFeePercentage",
      "outputs": [
        {
          "internalType": "uint256",
          "name": "",
          "type": "uint256"
        }
      ],
      "stateMutability": "view",
      "type": "function"
    },
    {
      "inputs": [
        {
          "internalType": "uint256",
          "name": "tokenID",
          "type": "uint256"
        },
        {
          "internalType": "uint256",
          "name": "ticketsToBuy",
          "type": "uint256"
        }
      ],
      "name": "purchaseTicket",
      "outputs": [],
      "stateMutability": "payable",
      "type": "function"
    },
    {
      "inputs": [
        {
          "internalType": "uint256",
          "name": "tokenId",
          "type": "uint256"
        },
        {
          "internalType": "uint256",
          "name": "buyticketId",
          "type": "uint256"
        }
      ],
      "name": "reBuyTicket",
      "outputs": [],
      "stateMutability": "payable",
      "type": "function"
    },
    {
      "inputs": [],
      "name": "renounceOwnership",
      "outputs": [],
      "stateMutability": "nonpayable",
      "type": "function"
    },
    {
      "inputs": [
        {
          "internalType": "uint256",
          "name": "tokenId",
          "type": "uint256"
        },
        {
          "internalType": "uint256",
          "name": "ticketsToSell",
          "type": "uint256"
        }
      ],
      "name": "resellTicket",
      "outputs": [],
      "stateMutability": "nonpayable",
      "type": "function"
    },
    {
      "inputs": [],
      "name": "resellingFeePercentage",
      "outputs": [
        {
          "internalType": "uint256",
          "name": "",
          "type": "uint256"
        }
      ],
      "stateMutability": "view",
      "type": "function"
    },
    {
      "inputs": [
        {
          "internalType": "address",
          "name": "from",
          "type": "address"
        },
        {
          "internalType": "address",
          "name": "to",
          "type": "address"
        },
        {
          "internalType": "uint256",
          "name": "tokenId",
          "type": "uint256"
        }
      ],
      "name": "safeTransferFrom",
      "outputs": [],
      "stateMutability": "nonpayable",
      "type": "function"
    },
    {
      "inputs": [
        {
          "internalType": "address",
          "name": "from",
          "type": "address"
        },
        {
          "internalType": "address",
          "name": "to",
          "type": "address"
        },
        {
          "internalType": "uint256",
          "name": "tokenId",
          "type": "uint256"
        },
        {
          "internalType": "bytes",
          "name": "data",
          "type": "bytes"
        }
      ],
      "name": "safeTransferFrom",
      "outputs": [],
      "stateMutability": "nonpayable",
      "type": "function"
    },
    {
      "inputs": [
        {
          "internalType": "address",
          "name": "operator",
          "type": "address"
        },
        {
          "internalType": "bool",
          "name": "approved",
          "type": "bool"
        }
      ],
      "name": "setApprovalForAll",
      "outputs": [],
      "stateMutability": "nonpayable",
      "type": "function"
    },
    {
      "inputs": [
        {
          "internalType": "bytes4",
          "name": "interfaceId",
          "type": "bytes4"
        }
      ],
      "name": "supportsInterface",
      "outputs": [
        {
          "internalType": "bool",
          "name": "",
          "type": "bool"
        }
      ],
      "stateMutability": "view",
      "type": "function"
    },
    {
      "inputs": [],
      "name": "symbol",
      "outputs": [
        {
          "internalType": "string",
          "name": "",
          "type": "string"
        }
      ],
      "stateMutability": "view",
      "type": "function"
    },
    {
      "inputs": [
        {
          "internalType": "uint256",
          "name": "",
          "type": "uint256"
        },
        {
          "internalType": "uint256",
          "name": "",
          "type": "uint256"
        }
      ],
      "name": "ticketPurchases",
      "outputs": [
        {
          "internalType": "uint256",
          "name": "ticketsBought",
          "type": "uint256"
        },
        {
          "internalType": "uint256",
          "name": "ticketsToResell",
          "type": "uint256"
        },
        {
          "internalType": "uint256",
          "name": "totalPrice",
          "type": "uint256"
        },
        {
          "internalType": "uint256",
          "name": "ticketId",
          "type": "uint256"
        },
        {
          "internalType": "uint256",
          "name": "purchaseId",
          "type": "uint256"
        },
        {
          "internalType": "uint256",
          "name": "purchaseTimestamp",
          "type": "uint256"
        },
        {
          "internalType": "address",
          "name": "buyer",
          "type": "address"
        }
      ],
      "stateMutability": "view",
      "type": "function"
    },
    {
      "inputs": [
        {
          "internalType": "uint256",
          "name": "",
          "type": "uint256"
        }
      ],
      "name": "tickets",
      "outputs": [
        {
          "internalType": "uint256",
          "name": "tokenId",
          "type": "uint256"
        },
        {
          "internalType": "uint256",
          "name": "totalTickets",
          "type": "uint256"
        },
        {
          "internalType": "uint256",
          "name": "ticketsSold",
          "type": "uint256"
        },
        {
          "internalType": "uint256",
          "name": "ticketPrice",
          "type": "uint256"
        },
        {
          "internalType": "uint256",
          "name": "ticketStartDate",
          "type": "uint256"
        },
        {
          "internalType": "uint256",
          "name": "ticketEndDate",
          "type": "uint256"
        },
        {
          "internalType": "uint256",
          "name": "ticketHoldDate",
          "type": "uint256"
        },
        {
          "internalType": "address",
          "name": "creator",
          "type": "address"
        },
        {
          "internalType": "bool",
          "name": "ticketSold",
          "type": "bool"
        },
        {
          "internalType": "bool",
          "name": "isResellable",
          "type": "bool"
        }
      ],
      "stateMutability": "view",
      "type": "function"
    },
    {
      "inputs": [
        {
          "internalType": "uint256",
          "name": "tokenId",
          "type": "uint256"
        }
      ],
      "name": "tokenURI",
      "outputs": [
        {
          "internalType": "string",
          "name": "",
          "type": "string"
        }
      ],
      "stateMutability": "view",
      "type": "function"
    },
    {
      "inputs": [
        {
          "internalType": "address",
          "name": "from",
          "type": "address"
        },
        {
          "internalType": "address",
          "name": "to",
          "type": "address"
        },
        {
          "internalType": "uint256",
          "name": "tokenId",
          "type": "uint256"
        }
      ],
      "name": "transferFrom",
      "outputs": [],
      "stateMutability": "nonpayable",
      "type": "function"
    },
    {
      "inputs": [
        {
          "internalType": "address",
          "name": "newOwner",
          "type": "address"
        }
      ],
      "name": "transferOwnership",
      "outputs": [],
      "stateMutability": "nonpayable",
      "type": "function"
    },
    {
      "inputs": [
        {
          "internalType": "uint256",
          "name": "_creationFeePercentage",
          "type": "uint256"
        }
      ],
      "name": "updateCreationFeePercentage",
      "outputs": [],
      "stateMutability": "nonpayable",
      "type": "function"
    },
    {
      "inputs": [
        {
          "internalType": "uint256",
          "name": "_purchaseFeePercentage",
          "type": "uint256"
        }
      ],
      "name": "updatePurchaseFeePercentage",
      "outputs": [],
      "stateMutability": "nonpayable",
      "type": "function"
    },
    {
      "inputs": [
        {
          "internalType": "address",
          "name": "",
          "type": "address"
        },
        {
          "internalType": "uint256",
          "name": "",
          "type": "uint256"
        }
      ],
      "name": "userTickets",
      "outputs": [
        {
          "internalType": "uint256",
          "name": "",
          "type": "uint256"
        }
      ],
      "stateMutability": "view",
      "type": "function"
    }
  ],
  "bytecode": "0x60806040523480156200001157600080fd5b5060405162005a9838038062005a98833981810160405281019062000037919062000215565b6040518060400160405280600681526020017f5469636b657400000000000000000000000000000000000000000000000000008152506040518060400160405280600681526020017f5449434b455400000000000000000000000000000000000000000000000000008152508160009081620000b49190620004e1565b508060019081620000c69190620004e1565b505050620000e9620000dd6200010760201b60201c565b6200010f60201b60201c565b8260098190555081600a8190555080600b81905550505050620005c8565b600033905090565b6000600760009054906101000a900473ffffffffffffffffffffffffffffffffffffffff16905081600760006101000a81548173ffffffffffffffffffffffffffffffffffffffff021916908373ffffffffffffffffffffffffffffffffffffffff1602179055508173ffffffffffffffffffffffffffffffffffffffff168173ffffffffffffffffffffffffffffffffffffffff167f8be0079c531659141344cd1fd0a4f28419497f9722a3daafe3b4186f6b6457e060405160405180910390a35050565b600080fd5b6000819050919050565b620001ef81620001da565b8114620001fb57600080fd5b50565b6000815190506200020f81620001e4565b92915050565b600080600060608486031215620002315762000230620001d5565b5b60006200024186828701620001fe565b93505060206200025486828701620001fe565b92505060406200026786828701620001fe565b9150509250925092565b600081519050919050565b7f4e487b7100000000000000000000000000000000000000000000000000000000600052604160045260246000fd5b7f4e487b7100000000000000000000000000000000000000000000000000000000600052602260045260246000fd5b60006002820490506001821680620002f357607f821691505b602082108103620003095762000308620002ab565b5b50919050565b60008190508160005260206000209050919050565b60006020601f8301049050919050565b600082821b905092915050565b600060088302620003737fffffffffffffffffffffffffffffffffffffffffffffffffffffffffffffffff8262000334565b6200037f868362000334565b95508019841693508086168417925050509392505050565b6000819050919050565b6000620003c2620003bc620003b684620001da565b62000397565b620001da565b9050919050565b6000819050919050565b620003de83620003a1565b620003f6620003ed82620003c9565b84845462000341565b825550505050565b600090565b6200040d620003fe565b6200041a818484620003d3565b505050565b5b8181101562000442576200043660008262000403565b60018101905062000420565b5050565b601f82111562000491576200045b816200030f565b620004668462000324565b8101602085101562000476578190505b6200048e620004858562000324565b8301826200041f565b50505b505050565b600082821c905092915050565b6000620004b66000198460080262000496565b1980831691505092915050565b6000620004d18383620004a3565b9150826002028217905092915050565b620004ec8262000271565b67ffffffffffffffff8111156200050857620005076200027c565b5b620005148254620002da565b6200052182828562000446565b600060209050601f83116001811462000559576000841562000544578287015190505b620005508582620004c3565b865550620005c0565b601f19841662000569866200030f565b60005b8281101562000593578489015182556001820191506020850194506020810190506200056c565b86831015620005b35784890151620005af601f891682620004a3565b8355505b6001600288020188555050505b505050505050565b6154c080620005d86000396000f3fe6080604052600436106101f95760003560e01c8063715018a61161010d578063b88d4fde116100a0578063d615d1211161006f578063d615d1211461075e578063d91043f21461077a578063e985e9c5146107a5578063f2fde38b146107e2578063ff99a0631461080b576101f9565b8063b88d4fde1461069f578063bdbbb0cb146106c8578063c87b56dd146106e4578063cf260baf14610721576101f9565b8063a22cb465116100dc578063a22cb465146105df578063a4646ba714610608578063b57b0de71461064b578063b5e1a3c014610674576101f9565b8063715018a6146105475780638412153f1461055e5780638da5cb5b1461058957806395d89b41146105b4576101f9565b80632decc62b11610190578063461c3e211161015f578063461c3e211461041f57806350b447121461044a57806358875049146104905780636352211e146104cd57806370a082311461050a576101f9565b80632decc62b14610386578063348e9913146103a25780633df8cd72146103cb57806342842e0e146103f6576101f9565b8063081812fc116101cc578063081812fc146102ce578063095ea7b31461030b57806323b872dd1461033457806329520cae1461035d576101f9565b806301ffc9a7146101fe57806303e96fe31461023b5780630484a22f1461026657806306fdde03146102a3575b600080fd5b34801561020a57600080fd5b5061022560048036038101906102209190613541565b610848565b6040516102329190613589565b60405180910390f35b34801561024757600080fd5b506102506108a9565b60405161025d9190613789565b60405180910390f35b34801561027257600080fd5b5061028d600480360381019061028891906137d7565b610a41565b60405161029a91906138b3565b60405180910390f35b3480156102af57600080fd5b506102b8610ad8565b6040516102c59190613965565b60405180910390f35b3480156102da57600080fd5b506102f560048036038101906102f091906139b3565b610b6a565b60405161030291906139ef565b60405180910390f35b34801561031757600080fd5b50610332600480360381019061032d9190613a0a565b610bb0565b005b34801561034057600080fd5b5061035b60048036038101906103569190613a4a565b610cc7565b005b34801561036957600080fd5b50610384600480360381019061037f91906139b3565b610d27565b005b6103a0600480360381019061039b9190613b02565b610d39565b005b3480156103ae57600080fd5b506103c960048036038101906103c49190613b8a565b61105c565b005b3480156103d757600080fd5b506103e0611468565b6040516103ed9190613bd9565b60405180910390f35b34801561040257600080fd5b5061041d60048036038101906104189190613a4a565b61146e565b005b34801561042b57600080fd5b5061043461148e565b6040516104419190613bd9565b60405180910390f35b34801561045657600080fd5b50610471600480360381019061046c91906139b3565b611498565b6040516104879a99989796959493929190613bf4565b60405180910390f35b34801561049c57600080fd5b506104b760048036038101906104b291906139b3565b611526565b6040516104c49190613dcd565b60405180910390f35b3480156104d957600080fd5b506104f460048036038101906104ef91906139b3565b61162a565b60405161050191906139ef565b60405180910390f35b34801561051657600080fd5b50610531600480360381019061052c91906137d7565b6116b0565b60405161053e9190613bd9565b60405180910390f35b34801561055357600080fd5b5061055c611767565b005b34801561056a57600080fd5b5061057361177b565b6040516105809190613bd9565b60405180910390f35b34801561059557600080fd5b5061059e611781565b6040516105ab91906139ef565b60405180910390f35b3480156105c057600080fd5b506105c96117ab565b6040516105d69190613965565b60405180910390f35b3480156105eb57600080fd5b5061060660048036038101906106019190613e1b565b61183d565b005b34801561061457600080fd5b5061062f600480360381019061062a9190613b8a565b611853565b6040516106429796959493929190613e5b565b60405180910390f35b34801561065757600080fd5b50610672600480360381019061066d91906139b3565b6118d2565b005b34801561068057600080fd5b506106896118e4565b6040516106969190613bd9565b60405180910390f35b3480156106ab57600080fd5b506106c660048036038101906106c19190613ffa565b6118ee565b005b6106e260048036038101906106dd9190613b8a565b611950565b005b3480156106f057600080fd5b5061070b600480360381019061070691906139b3565b611d91565b6040516107189190613965565b60405180910390f35b34801561072d57600080fd5b5061074860048036038101906107439190613a0a565b611ea3565b6040516107559190613bd9565b60405180910390f35b61077860048036038101906107739190613b8a565b611ed4565b005b34801561078657600080fd5b5061078f612127565b60405161079c9190613bd9565b60405180910390f35b3480156107b157600080fd5b506107cc60048036038101906107c7919061407d565b61212d565b6040516107d99190613589565b60405180910390f35b3480156107ee57600080fd5b50610809600480360381019061080491906137d7565b6121c1565b005b34801561081757600080fd5b50610832600480360381019061082d91906139b3565b612244565b60405161083f9190614189565b60405180910390f35b6000634906490660e01b7bffffffffffffffffffffffffffffffffffffffffffffffffffffffff1916827bffffffffffffffffffffffffffffffffffffffffffffffffffffffff191614806108a257506108a182612344565b5b9050919050565b606060006108b76008612426565b905060008167ffffffffffffffff8111156108d5576108d4613ecf565b5b60405190808252806020026020018201604052801561090e57816020015b6108fb613468565b8152602001906001900390816108f35790505b50905060005b82811015610a3857600c600082815260200190815260200160002060405180610140016040529081600082015481526020016001820154815260200160028201548152602001600382015481526020016004820154815260200160058201548152602001600682015481526020016007820160009054906101000a900473ffffffffffffffffffffffffffffffffffffffff1673ffffffffffffffffffffffffffffffffffffffff1673ffffffffffffffffffffffffffffffffffffffff1681526020016007820160149054906101000a900460ff161515151581526020016007820160159054906101000a900460ff161515151581525050828281518110610a2057610a1f6141a5565b5b60200260200101819052508080600101915050610914565b50809250505090565b6060600d60008373ffffffffffffffffffffffffffffffffffffffff1673ffffffffffffffffffffffffffffffffffffffff168152602001908152602001600020805480602002602001604051908101604052809291908181526020018280548015610acc57602002820191906000526020600020905b815481526020019060010190808311610ab8575b50505050509050919050565b606060008054610ae790614203565b80601f0160208091040260200160405190810160405280929190818152602001828054610b1390614203565b8015610b605780601f10610b3557610100808354040283529160200191610b60565b820191906000526020600020905b815481529060010190602001808311610b4357829003601f168201915b5050505050905090565b6000610b7582612434565b6004600083815260200190815260200160002060009054906101000a900473ffffffffffffffffffffffffffffffffffffffff169050919050565b6000610bbb8261162a565b90508073ffffffffffffffffffffffffffffffffffffffff168373ffffffffffffffffffffffffffffffffffffffff1603610c2b576040517f08c379a0000000000000000000000000000000000000000000000000000000008152600401610c22906142a6565b60405180910390fd5b8073ffffffffffffffffffffffffffffffffffffffff16610c4a61247f565b73ffffffffffffffffffffffffffffffffffffffff161480610c795750610c7881610c7361247f565b61212d565b5b610cb8576040517f08c379a0000000000000000000000000000000000000000000000000000000008152600401610caf90614338565b60405180910390fd5b610cc28383612487565b505050565b610cd8610cd261247f565b82612540565b610d17576040517f08c379a0000000000000000000000000000000000000000000000000000000008152600401610d0e906143ca565b60405180910390fd5b610d228383836125d5565b505050565b610d2f6128ce565b80600a8190555050565b60008311610d7c576040517f08c379a0000000000000000000000000000000000000000000000000000000008152600401610d739061445c565b60405180910390fd5b60008211610dbf576040517f08c379a0000000000000000000000000000000000000000000000000000000008152600401610db6906144ee565b60405180910390fd5b428111610e01576040517f08c379a0000000000000000000000000000000000000000000000000000000008152600401610df890614580565b60405180910390fd5b6000610e0d6008612426565b9050610e19600861294c565b610e233382612962565b610e718187878080601f016020809104026020016040519081016040528093929190818152602001838380828437600081840152601f19601f82011690508083019250505050505050612980565b600042905060405180610140016040528083815260200186815260200160008152602001858152602001828152602001848152602001600081526020013373ffffffffffffffffffffffffffffffffffffffff16815260200160001515815260200160001515815250600c6000848152602001908152602001600020600082015181600001556020820151816001015560408201518160020155606082015181600301556080820151816004015560a0820151816005015560c0820151816006015560e08201518160070160006101000a81548173ffffffffffffffffffffffffffffffffffffffff021916908373ffffffffffffffffffffffffffffffffffffffff1602179055506101008201518160070160146101000a81548160ff0219169083151502179055506101208201518160070160156101000a81548160ff02191690831515021790555090505060006009549050610fce611781565b73ffffffffffffffffffffffffffffffffffffffff166108fc829081150290604051600060405180830381858888f19350505050158015611013573d6000803e3d6000fd5b50827feea3bb912a3441ad5433c22840a518110f72b0e83e07c3c86a790f04cb4ee9948787858860405161104a94939291906145a0565b60405180910390a25050505050505050565b6000600c60008481526020019081526020016000209050600082116110b6576040517f08c379a00000000000000000000000000000000000000000000000000000000081526004016110ad90614631565b60405180910390fd5b80600201548211156110fd576040517f08c379a00000000000000000000000000000000000000000000000000000000081526004016110f49061469d565b60405180910390fd5b806005015481600601541015611148576040517f08c379a000000000000000000000000000000000000000000000000000000000815260040161113f90614709565b60405180910390fd5b60008060005b600e60008781526020019081526020016000208054905081101561128b573373ffffffffffffffffffffffffffffffffffffffff16600e600088815260200190815260200160002082815481106111a8576111a76141a5565b5b906000526020600020906007020160060160009054906101000a900473ffffffffffffffffffffffffffffffffffffffff1673ffffffffffffffffffffffffffffffffffffffff160361127e57600e6000878152602001908152602001600020818154811061121a576112196141a5565b5b906000526020600020906007020160000154836112379190614758565b9250600e6000878152602001908152602001600020818154811061125e5761125d6141a5565b5b9060005260206000209060070201600101548261127b9190614758565b91505b808060010191505061114e565b50838210156112cf576040517f08c379a00000000000000000000000000000000000000000000000000000000081526004016112c6906147d8565b60405180910390fd5b8184826112dc9190614758565b111561131d576040517f08c379a00000000000000000000000000000000000000000000000000000000081526004016113149061486a565b60405180910390fd5b60005b600e600087815260200190815260200160002080549050811015611426573373ffffffffffffffffffffffffffffffffffffffff16600e6000888152602001908152602001600020828154811061137a576113796141a5565b5b906000526020600020906007020160060160009054906101000a900473ffffffffffffffffffffffffffffffffffffffff1673ffffffffffffffffffffffffffffffffffffffff16036114195784600e600088815260200190815260200160002082815481106113ed576113ec6141a5565b5b9060005260206000209060070201600101600082825461140d9190614758565b92505081905550611426565b8080600101915050611320565b50847ff5faf79426a1fb4bc0362d335bf6e794d532c7c33fed7cdf921a59bc3b6dbffe338660405161145992919061488a565b60405180910390a25050505050565b600a5481565b611489838383604051806020016040528060008152506118ee565b505050565b6000600a54905090565b600c6020528060005260406000206000915090508060000154908060010154908060020154908060030154908060040154908060050154908060060154908060070160009054906101000a900473ffffffffffffffffffffffffffffffffffffffff16908060070160149054906101000a900460ff16908060070160159054906101000a900460ff1690508a565b6060600e6000838152602001908152602001600020805480602002602001604051908101604052809291908181526020016000905b8282101561161f57838290600052602060002090600702016040518060e00160405290816000820154815260200160018201548152602001600282015481526020016003820154815260200160048201548152602001600582015481526020016006820160009054906101000a900473ffffffffffffffffffffffffffffffffffffffff1673ffffffffffffffffffffffffffffffffffffffff1673ffffffffffffffffffffffffffffffffffffffff16815250508152602001906001019061155b565b505050509050919050565b60008061163683612a24565b9050600073ffffffffffffffffffffffffffffffffffffffff168173ffffffffffffffffffffffffffffffffffffffff16036116a7576040517f08c379a000000000000000000000000000000000000000000000000000000000815260040161169e906148ff565b60405180910390fd5b80915050919050565b60008073ffffffffffffffffffffffffffffffffffffffff168273ffffffffffffffffffffffffffffffffffffffff1603611720576040517f08c379a000000000000000000000000000000000000000000000000000000000815260040161171790614991565b60405180910390fd5b600360008373ffffffffffffffffffffffffffffffffffffffff1673ffffffffffffffffffffffffffffffffffffffff168152602001908152602001600020549050919050565b61176f6128ce565b6117796000612a61565b565b600b5481565b6000600760009054906101000a900473ffffffffffffffffffffffffffffffffffffffff16905090565b6060600180546117ba90614203565b80601f01602080910402602001604051908101604052809291908181526020018280546117e690614203565b80156118335780601f1061180857610100808354040283529160200191611833565b820191906000526020600020905b81548152906001019060200180831161181657829003601f168201915b5050505050905090565b61184f61184861247f565b8383612b27565b5050565b600e602052816000526040600020818154811061186f57600080fd5b9060005260206000209060070201600091509150508060000154908060010154908060020154908060030154908060040154908060050154908060060160009054906101000a900473ffffffffffffffffffffffffffffffffffffffff16905087565b6118da6128ce565b8060098190555050565b6000600954905090565b6118ff6118f961247f565b83612540565b61193e576040517f08c379a0000000000000000000000000000000000000000000000000000000008152600401611935906143ca565b60405180910390fd5b61194a84848484612c93565b50505050565b6000600c600084815260200190815260200160002090508060070160149054906101000a900460ff16156119b9576040517f08c379a00000000000000000000000000000000000000000000000000000000081526004016119b0906149fd565b60405180910390fd5b600382106119c657600080fd5b6000821180156119e95750806002015481600101546119e59190614a1d565b8211155b611a28576040517f08c379a0000000000000000000000000000000000000000000000000000000008152600401611a1f90614631565b60405180910390fd5b6000828260030154611a3a9190614a51565b90506000600a54905060008183611a519190614758565b9050803414611a95576040517f08c379a0000000000000000000000000000000000000000000000000000000008152600401611a8c90614adf565b60405180910390fd5b8360070160009054906101000a900473ffffffffffffffffffffffffffffffffffffffff1673ffffffffffffffffffffffffffffffffffffffff166108fc849081150290604051600060405180830381858888f19350505050158015611aff573d6000803e3d6000fd5b50611b08611781565b73ffffffffffffffffffffffffffffffffffffffff166108fc839081150290604051600060405180830381858888f19350505050158015611b4d573d6000803e3d6000fd5b5060005b85811015611d5b576000611b656008612426565b9050611b713382612962565b611b8381611b7e8a611d91565b612980565b600d60003373ffffffffffffffffffffffffffffffffffffffff1673ffffffffffffffffffffffffffffffffffffffff168152602001908152602001600020819080600181540180825580915050600190039060005260206000200160009091909190915055600e60008281526020019081526020016000206040518060e001604052806001815260200160018152602001886003015481526020018a81526020018381526020014281526020013373ffffffffffffffffffffffffffffffffffffffff168152509080600181540180825580915050600190039060005260206000209060070201600090919091909150600082015181600001556020820151816001015560408201518160020155606082015181600301556080820151816004015560a0820151816005015560c08201518160060160006101000a81548173ffffffffffffffffffffffffffffffffffffffff021916908373ffffffffffffffffffffffffffffffffffffffff1602179055505050856002016000815480929190611d0e90614aff565b9190505550807fdbaaf4c87ce30816c961a81d110622a3227ede77953d4383d514ff88ab2e0fd33389604051611d4592919061488a565b60405180910390a2508080600101915050611b51565b508360010154846002015403611d895760018460070160146101000a81548160ff0219169083151502179055505b505050505050565b6060611d9c82612434565b6000600660008481526020019081526020016000208054611dbc90614203565b80601f0160208091040260200160405190810160405280929190818152602001828054611de890614203565b8015611e355780601f10611e0a57610100808354040283529160200191611e35565b820191906000526020600020905b815481529060010190602001808311611e1857829003601f168201915b505050505090506000611e46612cef565b90506000815103611e5b578192505050611e9e565b600082511115611e90578082604051602001611e78929190614b83565b60405160208183030381529060405292505050611e9e565b611e9984612d06565b925050505b919050565b600d6020528160005260406000208181548110611ebf57600080fd5b90600052602060002001600091509150505481565b6001600c6000848152602001908152602001600020600201541015611f2e576040517f08c379a0000000000000000000000000000000000000000000000000000000008152600401611f2590614c19565b60405180910390fd5b6000600b54600c600085815260200190815260200160002060030154611f549190614a51565b600c600085815260200190815260200160002060030154611f759190614758565b90503373ffffffffffffffffffffffffffffffffffffffff166108fc829081150290604051600060405180830381858888f19350505050158015611fbd573d6000803e3d6000fd5b5060005b600e6000858152602001908152602001600020805490508110156121215782600e60008681526020019081526020016000208281548110612005576120046141a5565b5b906000526020600020906007020160030154036121145761207d600e60008681526020019081526020016000208281548110612044576120436141a5565b5b906000526020600020906007020160060160009054906101000a900473ffffffffffffffffffffffffffffffffffffffff1633856125d5565b837fd59a36d8310ffb140214be490baf3fe8961f859a17199ec1bf9015c8b7340011600e600087815260200190815260200160002083815481106120c4576120c36141a5565b5b906000526020600020906007020160060160009054906101000a900473ffffffffffffffffffffffffffffffffffffffff16338660405161210793929190614c39565b60405180910390a2612121565b8080600101915050611fc1565b50505050565b60095481565b6000600560008473ffffffffffffffffffffffffffffffffffffffff1673ffffffffffffffffffffffffffffffffffffffff16815260200190815260200160002060008373ffffffffffffffffffffffffffffffffffffffff1673ffffffffffffffffffffffffffffffffffffffff16815260200190815260200160002060009054906101000a900460ff16905092915050565b6121c96128ce565b600073ffffffffffffffffffffffffffffffffffffffff168173ffffffffffffffffffffffffffffffffffffffff1603612238576040517f08c379a000000000000000000000000000000000000000000000000000000000815260040161222f90614ce2565b60405180910390fd5b61224181612a61565b50565b61224c613468565b600c600083815260200190815260200160002060405180610140016040529081600082015481526020016001820154815260200160028201548152602001600382015481526020016004820154815260200160058201548152602001600682015481526020016007820160009054906101000a900473ffffffffffffffffffffffffffffffffffffffff1673ffffffffffffffffffffffffffffffffffffffff1673ffffffffffffffffffffffffffffffffffffffff1681526020016007820160149054906101000a900460ff161515151581526020016007820160159054906101000a900460ff1615151515815250509050919050565b60007f80ac58cd000000000000000000000000000000000000000000000000000000007bffffffffffffffffffffffffffffffffffffffffffffffffffffffff1916827bffffffffffffffffffffffffffffffffffffffffffffffffffffffff1916148061240f57507f5b5e139f000000000000000000000000000000000000000000000000000000007bffffffffffffffffffffffffffffffffffffffffffffffffffffffff1916827bffffffffffffffffffffffffffffffffffffffffffffffffffffffff1916145b8061241f575061241e82612d6e565b5b9050919050565b600081600001549050919050565b61243d81612dd8565b61247c576040517f08c379a0000000000000000000000000000000000000000000000000000000008152600401612473906148ff565b60405180910390fd5b50565b600033905090565b816004600083815260200190815260200160002060006101000a81548173ffffffffffffffffffffffffffffffffffffffff021916908373ffffffffffffffffffffffffffffffffffffffff160217905550808273ffffffffffffffffffffffffffffffffffffffff166124fa8361162a565b73ffffffffffffffffffffffffffffffffffffffff167f8c5be1e5ebec7d5bd14f71427d1e84f3dd0314c0f7b2291e5b200ac8c7c3b92560405160405180910390a45050565b60008061254c8361162a565b90508073ffffffffffffffffffffffffffffffffffffffff168473ffffffffffffffffffffffffffffffffffffffff16148061258e575061258d818561212d565b5b806125cc57508373ffffffffffffffffffffffffffffffffffffffff166125b484610b6a565b73ffffffffffffffffffffffffffffffffffffffff16145b91505092915050565b8273ffffffffffffffffffffffffffffffffffffffff166125f58261162a565b73ffffffffffffffffffffffffffffffffffffffff161461264b576040517f08c379a000000000000000000000000000000000000000000000000000000000815260040161264290614d74565b60405180910390fd5b600073ffffffffffffffffffffffffffffffffffffffff168273ffffffffffffffffffffffffffffffffffffffff16036126ba576040517f08c379a00000000000000000000000000000000000000000000000000000000081526004016126b190614e06565b60405180910390fd5b6126c78383836001612e19565b8273ffffffffffffffffffffffffffffffffffffffff166126e78261162a565b73ffffffffffffffffffffffffffffffffffffffff161461273d576040517f08c379a000000000000000000000000000000000000000000000000000000000815260040161273490614d74565b60405180910390fd5b6004600082815260200190815260200160002060006101000a81549073ffffffffffffffffffffffffffffffffffffffff02191690556001600360008573ffffffffffffffffffffffffffffffffffffffff1673ffffffffffffffffffffffffffffffffffffffff168152602001908152602001600020600082825403925050819055506001600360008473ffffffffffffffffffffffffffffffffffffffff1673ffffffffffffffffffffffffffffffffffffffff16815260200190815260200160002060008282540192505081905550816002600083815260200190815260200160002060006101000a81548173ffffffffffffffffffffffffffffffffffffffff021916908373ffffffffffffffffffffffffffffffffffffffff160217905550808273ffffffffffffffffffffffffffffffffffffffff168473ffffffffffffffffffffffffffffffffffffffff167fddf252ad1be2c89b69c2b068fc378daa952ba7f163c4a11628f55a4df523b3ef60405160405180910390a46128c98383836001612e1f565b505050565b6128d661247f565b73ffffffffffffffffffffffffffffffffffffffff166128f4611781565b73ffffffffffffffffffffffffffffffffffffffff161461294a576040517f08c379a000000000000000000000000000000000000000000000000000000000815260040161294190614e72565b60405180910390fd5b565b6001816000016000828254019250508190555050565b61297c828260405180602001604052806000815250612e25565b5050565b61298982612dd8565b6129c8576040517f08c379a00000000000000000000000000000000000000000000000000000000081526004016129bf90614f04565b60405180910390fd5b806006600084815260200190815260200160002090816129e891906150d0565b507ff8e1a15aba9398e019f0b49df1a4fde98ee17ae345cb5f6b5e2c27f5033e8ce782604051612a189190613bd9565b60405180910390a15050565b60006002600083815260200190815260200160002060009054906101000a900473ffffffffffffffffffffffffffffffffffffffff169050919050565b6000600760009054906101000a900473ffffffffffffffffffffffffffffffffffffffff16905081600760006101000a81548173ffffffffffffffffffffffffffffffffffffffff021916908373ffffffffffffffffffffffffffffffffffffffff1602179055508173ffffffffffffffffffffffffffffffffffffffff168173ffffffffffffffffffffffffffffffffffffffff167f8be0079c531659141344cd1fd0a4f28419497f9722a3daafe3b4186f6b6457e060405160405180910390a35050565b8173ffffffffffffffffffffffffffffffffffffffff168373ffffffffffffffffffffffffffffffffffffffff1603612b95576040517f08c379a0000000000000000000000000000000000000000000000000000000008152600401612b8c906151ee565b60405180910390fd5b80600560008573ffffffffffffffffffffffffffffffffffffffff1673ffffffffffffffffffffffffffffffffffffffff16815260200190815260200160002060008473ffffffffffffffffffffffffffffffffffffffff1673ffffffffffffffffffffffffffffffffffffffff16815260200190815260200160002060006101000a81548160ff0219169083151502179055508173ffffffffffffffffffffffffffffffffffffffff168373ffffffffffffffffffffffffffffffffffffffff167f17307eab39ab6107e8899845ad3d59bd9653f200f220920489ca2b5937696c3183604051612c869190613589565b60405180910390a3505050565b612c9e8484846125d5565b612caa84848484612e80565b612ce9576040517f08c379a0000000000000000000000000000000000000000000000000000000008152600401612ce090615280565b60405180910390fd5b50505050565b606060405180602001604052806000815250905090565b6060612d1182612434565b6000612d1b612cef565b90506000815111612d3b5760405180602001604052806000815250612d66565b80612d4584613007565b604051602001612d56929190614b83565b6040516020818303038152906040525b915050919050565b60007f01ffc9a7000000000000000000000000000000000000000000000000000000007bffffffffffffffffffffffffffffffffffffffffffffffffffffffff1916827bffffffffffffffffffffffffffffffffffffffffffffffffffffffff1916149050919050565b60008073ffffffffffffffffffffffffffffffffffffffff16612dfa83612a24565b73ffffffffffffffffffffffffffffffffffffffff1614159050919050565b50505050565b50505050565b612e2f83836130d5565b612e3c6000848484612e80565b612e7b576040517f08c379a0000000000000000000000000000000000000000000000000000000008152600401612e7290615280565b60405180910390fd5b505050565b6000612ea18473ffffffffffffffffffffffffffffffffffffffff166132f2565b15612ffa578373ffffffffffffffffffffffffffffffffffffffff1663150b7a02612eca61247f565b8786866040518563ffffffff1660e01b8152600401612eec94939291906152f5565b6020604051808303816000875af1925050508015612f2857506040513d601f19601f82011682018060405250810190612f259190615356565b60015b612faa573d8060008114612f58576040519150601f19603f3d011682016040523d82523d6000602084013e612f5d565b606091505b506000815103612fa2576040517f08c379a0000000000000000000000000000000000000000000000000000000008152600401612f9990615280565b60405180910390fd5b805181602001fd5b63150b7a0260e01b7bffffffffffffffffffffffffffffffffffffffffffffffffffffffff1916817bffffffffffffffffffffffffffffffffffffffffffffffffffffffff191614915050612fff565b600190505b949350505050565b60606000600161301684613315565b01905060008167ffffffffffffffff81111561303557613034613ecf565b5b6040519080825280601f01601f1916602001820160405280156130675781602001600182028036833780820191505090505b509050600082602001820190505b6001156130ca578080600190039150507f3031323334353637383961626364656600000000000000000000000000000000600a86061a8153600a85816130be576130bd615383565b5b04945060008503613075575b819350505050919050565b600073ffffffffffffffffffffffffffffffffffffffff168273ffffffffffffffffffffffffffffffffffffffff1603613144576040517f08c379a000000000000000000000000000000000000000000000000000000000815260040161313b906153fe565b60405180910390fd5b61314d81612dd8565b1561318d576040517f08c379a00000000000000000000000000000000000000000000000000000000081526004016131849061546a565b60405180910390fd5b61319b600083836001612e19565b6131a481612dd8565b156131e4576040517f08c379a00000000000000000000000000000000000000000000000000000000081526004016131db9061546a565b60405180910390fd5b6001600360008473ffffffffffffffffffffffffffffffffffffffff1673ffffffffffffffffffffffffffffffffffffffff16815260200190815260200160002060008282540192505081905550816002600083815260200190815260200160002060006101000a81548173ffffffffffffffffffffffffffffffffffffffff021916908373ffffffffffffffffffffffffffffffffffffffff160217905550808273ffffffffffffffffffffffffffffffffffffffff16600073ffffffffffffffffffffffffffffffffffffffff167fddf252ad1be2c89b69c2b068fc378daa952ba7f163c4a11628f55a4df523b3ef60405160405180910390a46132ee600083836001612e1f565b5050565b6000808273ffffffffffffffffffffffffffffffffffffffff163b119050919050565b600080600090507a184f03e93ff9f4daa797ed6e38ed64bf6a1f0100000000000000008310613373577a184f03e93ff9f4daa797ed6e38ed64bf6a1f010000000000000000838161336957613368615383565b5b0492506040810190505b6d04ee2d6d415b85acef810000000083106133b0576d04ee2d6d415b85acef810000000083816133a6576133a5615383565b5b0492506020810190505b662386f26fc1000083106133df57662386f26fc1000083816133d5576133d4615383565b5b0492506010810190505b6305f5e1008310613408576305f5e10083816133fe576133fd615383565b5b0492506008810190505b612710831061342d57612710838161342357613422615383565b5b0492506004810190505b60648310613450576064838161344657613445615383565b5b0492506002810190505b600a831061345f576001810190505b80915050919050565b60405180610140016040528060008152602001600081526020016000815260200160008152602001600081526020016000815260200160008152602001600073ffffffffffffffffffffffffffffffffffffffff1681526020016000151581526020016000151581525090565b6000604051905090565b600080fd5b600080fd5b60007fffffffff0000000000000000000000000000000000000000000000000000000082169050919050565b61351e816134e9565b811461352957600080fd5b50565b60008135905061353b81613515565b92915050565b600060208284031215613557576135566134df565b5b60006135658482850161352c565b91505092915050565b60008115159050919050565b6135838161356e565b82525050565b600060208201905061359e600083018461357a565b92915050565b600081519050919050565b600082825260208201905092915050565b6000819050602082019050919050565b6000819050919050565b6135e3816135d0565b82525050565b600073ffffffffffffffffffffffffffffffffffffffff82169050919050565b6000613614826135e9565b9050919050565b61362481613609565b82525050565b6136338161356e565b82525050565b6101408201600082015161365060008501826135da565b50602082015161366360208501826135da565b50604082015161367660408501826135da565b50606082015161368960608501826135da565b50608082015161369c60808501826135da565b5060a08201516136af60a08501826135da565b5060c08201516136c260c08501826135da565b5060e08201516136d560e085018261361b565b506101008201516136ea61010085018261362a565b506101208201516136ff61012085018261362a565b50505050565b60006137118383613639565b6101408301905092915050565b6000602082019050919050565b6000613736826135a4565b61374081856135af565b935061374b836135c0565b8060005b8381101561377c5781516137638882613705565b975061376e8361371e565b92505060018101905061374f565b5085935050505092915050565b600060208201905081810360008301526137a3818461372b565b905092915050565b6137b481613609565b81146137bf57600080fd5b50565b6000813590506137d1816137ab565b92915050565b6000602082840312156137ed576137ec6134df565b5b60006137fb848285016137c2565b91505092915050565b600081519050919050565b600082825260208201905092915050565b6000819050602082019050919050565b600061383c83836135da565b60208301905092915050565b6000602082019050919050565b600061386082613804565b61386a818561380f565b935061387583613820565b8060005b838110156138a657815161388d8882613830565b975061389883613848565b925050600181019050613879565b5085935050505092915050565b600060208201905081810360008301526138cd8184613855565b905092915050565b600081519050919050565b600082825260208201905092915050565b60005b8381101561390f5780820151818401526020810190506138f4565b60008484015250505050565b6000601f19601f8301169050919050565b6000613937826138d5565b61394181856138e0565b93506139518185602086016138f1565b61395a8161391b565b840191505092915050565b6000602082019050818103600083015261397f818461392c565b905092915050565b613990816135d0565b811461399b57600080fd5b50565b6000813590506139ad81613987565b92915050565b6000602082840312156139c9576139c86134df565b5b60006139d78482850161399e565b91505092915050565b6139e981613609565b82525050565b6000602082019050613a0460008301846139e0565b92915050565b60008060408385031215613a2157613a206134df565b5b6000613a2f858286016137c2565b9250506020613a408582860161399e565b9150509250929050565b600080600060608486031215613a6357613a626134df565b5b6000613a71868287016137c2565b9350506020613a82868287016137c2565b9250506040613a938682870161399e565b9150509250925092565b600080fd5b600080fd5b600080fd5b60008083601f840112613ac257613ac1613a9d565b5b8235905067ffffffffffffffff811115613adf57613ade613aa2565b5b602083019150836001820283011115613afb57613afa613aa7565b5b9250929050565b600080600080600060808688031215613b1e57613b1d6134df565b5b600086013567ffffffffffffffff811115613b3c57613b3b6134e4565b5b613b4888828901613aac565b95509550506020613b5b8882890161399e565b9350506040613b6c8882890161399e565b9250506060613b7d8882890161399e565b9150509295509295909350565b60008060408385031215613ba157613ba06134df565b5b6000613baf8582860161399e565b9250506020613bc08582860161399e565b9150509250929050565b613bd3816135d0565b82525050565b6000602082019050613bee6000830184613bca565b92915050565b600061014082019050613c0a600083018d613bca565b613c17602083018c613bca565b613c24604083018b613bca565b613c31606083018a613bca565b613c3e6080830189613bca565b613c4b60a0830188613bca565b613c5860c0830187613bca565b613c6560e08301866139e0565b613c7361010083018561357a565b613c8161012083018461357a565b9b9a5050505050505050505050565b600081519050919050565b600082825260208201905092915050565b6000819050602082019050919050565b60e082016000820151613cd260008501826135da565b506020820151613ce560208501826135da565b506040820151613cf860408501826135da565b506060820151613d0b60608501826135da565b506080820151613d1e60808501826135da565b5060a0820151613d3160a08501826135da565b5060c0820151613d4460c085018261361b565b50505050565b6000613d568383613cbc565b60e08301905092915050565b6000602082019050919050565b6000613d7a82613c90565b613d848185613c9b565b9350613d8f83613cac565b8060005b83811015613dc0578151613da78882613d4a565b9750613db283613d62565b925050600181019050613d93565b5085935050505092915050565b60006020820190508181036000830152613de78184613d6f565b905092915050565b613df88161356e565b8114613e0357600080fd5b50565b600081359050613e1581613def565b92915050565b60008060408385031215613e3257613e316134df565b5b6000613e40858286016137c2565b9250506020613e5185828601613e06565b9150509250929050565b600060e082019050613e70600083018a613bca565b613e7d6020830189613bca565b613e8a6040830188613bca565b613e976060830187613bca565b613ea46080830186613bca565b613eb160a0830185613bca565b613ebe60c08301846139e0565b98975050505050505050565b600080fd5b7f4e487b7100000000000000000000000000000000000000000000000000000000600052604160045260246000fd5b613f078261391b565b810181811067ffffffffffffffff82111715613f2657613f25613ecf565b5b80604052505050565b6000613f396134d5565b9050613f458282613efe565b919050565b600067ffffffffffffffff821115613f6557613f64613ecf565b5b613f6e8261391b565b9050602081019050919050565b82818337600083830152505050565b6000613f9d613f9884613f4a565b613f2f565b905082815260208101848484011115613fb957613fb8613eca565b5b613fc4848285613f7b565b509392505050565b600082601f830112613fe157613fe0613a9d565b5b8135613ff1848260208601613f8a565b91505092915050565b60008060008060808587031215614014576140136134df565b5b6000614022878288016137c2565b9450506020614033878288016137c2565b93505060406140448782880161399e565b925050606085013567ffffffffffffffff811115614065576140646134e4565b5b61407187828801613fcc565b91505092959194509250565b60008060408385031215614094576140936134df565b5b60006140a2858286016137c2565b92505060206140b3858286016137c2565b9150509250929050565b610140820160008201516140d460008501826135da565b5060208201516140e760208501826135da565b5060408201516140fa60408501826135da565b50606082015161410d60608501826135da565b50608082015161412060808501826135da565b5060a082015161413360a08501826135da565b5060c082015161414660c08501826135da565b5060e082015161415960e085018261361b565b5061010082015161416e61010085018261362a565b5061012082015161418361012085018261362a565b50505050565b60006101408201905061419f60008301846140bd565b92915050565b7f4e487b7100000000000000000000000000000000000000000000000000000000600052603260045260246000fd5b7f4e487b7100000000000000000000000000000000000000000000000000000000600052602260045260246000fd5b6000600282049050600182168061421b57607f821691505b60208210810361422e5761422d6141d4565b5b50919050565b7f4552433732313a20617070726f76616c20746f2063757272656e74206f776e6560008201527f7200000000000000000000000000000000000000000000000000000000000000602082015250565b60006142906021836138e0565b915061429b82614234565b604082019050919050565b600060208201905081810360008301526142bf81614283565b9050919050565b7f4552433732313a20617070726f76652063616c6c6572206973206e6f7420746f60008201527f6b656e206f776e6572206f7220617070726f76656420666f7220616c6c000000602082015250565b6000614322603d836138e0565b915061432d826142c6565b604082019050919050565b6000602082019050818103600083015261435181614315565b9050919050565b7f4552433732313a2063616c6c6572206973206e6f7420746f6b656e206f776e6560008201527f72206f7220617070726f76656400000000000000000000000000000000000000602082015250565b60006143b4602d836138e0565b91506143bf82614358565b604082019050919050565b600060208201905081810360008301526143e3816143a7565b9050919050565b7f546f74616c207469636b657473206d757374206265206772656174657220746860008201527f616e203000000000000000000000000000000000000000000000000000000000602082015250565b60006144466024836138e0565b9150614451826143ea565b604082019050919050565b6000602082019050818103600083015261447581614439565b9050919050565b7f5469636b6574207072696365206d75737420626520677265617465722074686160008201527f6e20300000000000000000000000000000000000000000000000000000000000602082015250565b60006144d86023836138e0565b91506144e38261447c565b604082019050919050565b60006020820190508181036000830152614507816144cb565b9050919050565b7f5469636b657420656e642064617465206d75737420626520696e20746865206660008201527f7574757265000000000000000000000000000000000000000000000000000000602082015250565b600061456a6025836138e0565b91506145758261450e565b604082019050919050565b600060208201905081810360008301526145998161455d565b9050919050565b60006080820190506145b56000830187613bca565b6145c26020830186613bca565b6145cf6040830185613bca565b6145dc6060830184613bca565b95945050505050565b7f496e76616c6964206e756d626572206f66207469636b65747300000000000000600082015250565b600061461b6019836138e0565b9150614626826145e5565b602082019050919050565b6000602082019050818103600083015261464a8161460e565b9050919050565b7f4e6f7420656e6f756768207469636b65747320736f6c64000000000000000000600082015250565b60006146876017836138e0565b915061469282614651565b602082019050919050565b600060208201905081810360008301526146b68161467a565b9050919050565b7f5469636b65742063616e6e6f74206265207265736f6c64207965740000000000600082015250565b60006146f3601b836138e0565b91506146fe826146bd565b602082019050919050565b60006020820190508181036000830152614722816146e6565b9050919050565b7f4e487b7100000000000000000000000000000000000000000000000000000000600052601160045260246000fd5b6000614763826135d0565b915061476e836135d0565b925082820190508082111561478657614785614729565b5b92915050565b7f4e6f7420656e6f756768207469636b657473206f776e65640000000000000000600082015250565b60006147c26018836138e0565b91506147cd8261478c565b602082019050919050565b600060208201905081810360008301526147f1816147b5565b9050919050565b7f43616e6e6f7420726573656c6c206d6f7265207469636b657473207468616e2060008201527f6f776e6564000000000000000000000000000000000000000000000000000000602082015250565b60006148546025836138e0565b915061485f826147f8565b604082019050919050565b6000602082019050818103600083015261488381614847565b9050919050565b600060408201905061489f60008301856139e0565b6148ac6020830184613bca565b9392505050565b7f4552433732313a20696e76616c696420746f6b656e2049440000000000000000600082015250565b60006148e96018836138e0565b91506148f4826148b3565b602082019050919050565b60006020820190508181036000830152614918816148dc565b9050919050565b7f4552433732313a2061646472657373207a65726f206973206e6f74206120766160008201527f6c6964206f776e65720000000000000000000000000000000000000000000000602082015250565b600061497b6029836138e0565b91506149868261491f565b604082019050919050565b600060208201905081810360008301526149aa8161496e565b9050919050565b7f5469636b65742068617320616c7265616479206265656e20736f6c6400000000600082015250565b60006149e7601c836138e0565b91506149f2826149b1565b602082019050919050565b60006020820190508181036000830152614a16816149da565b9050919050565b6000614a28826135d0565b9150614a33836135d0565b9250828203905081811115614a4b57614a4a614729565b5b92915050565b6000614a5c826135d0565b9150614a67836135d0565b9250828202614a75816135d0565b91508282048414831517614a8c57614a8b614729565b5b5092915050565b7f496e636f727265637420616d6f756e742073656e740000000000000000000000600082015250565b6000614ac96015836138e0565b9150614ad482614a93565b602082019050919050565b60006020820190508181036000830152614af881614abc565b9050919050565b6000614b0a826135d0565b91507fffffffffffffffffffffffffffffffffffffffffffffffffffffffffffffffff8203614b3c57614b3b614729565b5b600182019050919050565b600081905092915050565b6000614b5d826138d5565b614b678185614b47565b9350614b778185602086016138f1565b80840191505092915050565b6000614b8f8285614b52565b9150614b9b8284614b52565b91508190509392505050565b7f4e6f7420656e6f756768207469636b65747320617661696c61626c6520666f7260008201527f20726573616c6500000000000000000000000000000000000000000000000000602082015250565b6000614c036027836138e0565b9150614c0e82614ba7565b604082019050919050565b60006020820190508181036000830152614c3281614bf6565b9050919050565b6000606082019050614c4e60008301866139e0565b614c5b60208301856139e0565b614c686040830184613bca565b949350505050565b7f4f776e61626c653a206e6577206f776e657220697320746865207a65726f206160008201527f6464726573730000000000000000000000000000000000000000000000000000602082015250565b6000614ccc6026836138e0565b9150614cd782614c70565b604082019050919050565b60006020820190508181036000830152614cfb81614cbf565b9050919050565b7f4552433732313a207472616e736665722066726f6d20696e636f72726563742060008201527f6f776e6572000000000000000000000000000000000000000000000000000000602082015250565b6000614d5e6025836138e0565b9150614d6982614d02565b604082019050919050565b60006020820190508181036000830152614d8d81614d51565b9050919050565b7f4552433732313a207472616e7366657220746f20746865207a65726f2061646460008201527f7265737300000000000000000000000000000000000000000000000000000000602082015250565b6000614df06024836138e0565b9150614dfb82614d94565b604082019050919050565b60006020820190508181036000830152614e1f81614de3565b9050919050565b7f4f776e61626c653a2063616c6c6572206973206e6f7420746865206f776e6572600082015250565b6000614e5c6020836138e0565b9150614e6782614e26565b602082019050919050565b60006020820190508181036000830152614e8b81614e4f565b9050919050565b7f45524337323155524953746f726167653a2055524920736574206f66206e6f6e60008201527f6578697374656e7420746f6b656e000000000000000000000000000000000000602082015250565b6000614eee602e836138e0565b9150614ef982614e92565b604082019050919050565b60006020820190508181036000830152614f1d81614ee1565b9050919050565b60008190508160005260206000209050919050565b60006020601f8301049050919050565b600082821b905092915050565b600060088302614f867fffffffffffffffffffffffffffffffffffffffffffffffffffffffffffffffff82614f49565b614f908683614f49565b95508019841693508086168417925050509392505050565b6000819050919050565b6000614fcd614fc8614fc3846135d0565b614fa8565b6135d0565b9050919050565b6000819050919050565b614fe783614fb2565b614ffb614ff382614fd4565b848454614f56565b825550505050565b600090565b615010615003565b61501b818484614fde565b505050565b5b8181101561503f57615034600082615008565b600181019050615021565b5050565b601f8211156150845761505581614f24565b61505e84614f39565b8101602085101561506d578190505b61508161507985614f39565b830182615020565b50505b505050565b600082821c905092915050565b60006150a760001984600802615089565b1980831691505092915050565b60006150c08383615096565b9150826002028217905092915050565b6150d9826138d5565b67ffffffffffffffff8111156150f2576150f1613ecf565b5b6150fc8254614203565b615107828285615043565b600060209050601f83116001811461513a5760008415615128578287015190505b61513285826150b4565b86555061519a565b601f19841661514886614f24565b60005b828110156151705784890151825560018201915060208501945060208101905061514b565b8683101561518d5784890151615189601f891682615096565b8355505b6001600288020188555050505b505050505050565b7f4552433732313a20617070726f766520746f2063616c6c657200000000000000600082015250565b60006151d86019836138e0565b91506151e3826151a2565b602082019050919050565b60006020820190508181036000830152615207816151cb565b9050919050565b7f4552433732313a207472616e7366657220746f206e6f6e20455243373231526560008201527f63656976657220696d706c656d656e7465720000000000000000000000000000602082015250565b600061526a6032836138e0565b91506152758261520e565b604082019050919050565b600060208201905081810360008301526152998161525d565b9050919050565b600081519050919050565b600082825260208201905092915050565b60006152c7826152a0565b6152d181856152ab565b93506152e18185602086016138f1565b6152ea8161391b565b840191505092915050565b600060808201905061530a60008301876139e0565b61531760208301866139e0565b6153246040830185613bca565b818103606083015261533681846152bc565b905095945050505050565b60008151905061535081613515565b92915050565b60006020828403121561536c5761536b6134df565b5b600061537a84828501615341565b91505092915050565b7f4e487b7100000000000000000000000000000000000000000000000000000000600052601260045260246000fd5b7f4552433732313a206d696e7420746f20746865207a65726f2061646472657373600082015250565b60006153e86020836138e0565b91506153f3826153b2565b602082019050919050565b60006020820190508181036000830152615417816153db565b9050919050565b7f4552433732313a20746f6b656e20616c7265616479206d696e74656400000000600082015250565b6000615454601c836138e0565b915061545f8261541e565b602082019050919050565b6000602082019050818103600083015261548381615447565b905091905056fea2646970667358221220b29f1d961a8ff5b87b4c26f583a411236b0e47dce8b1b6126b8ed633a9fb4d6064736f6c63430008180033",
  "linkReferences": {},
  "deployedLinkReferences": {}
}