{
  "_format": "hh-sol-artifact-1",
  "contractName": "Ticket",
  "sourceName": "contracts/Lock.sol",
  "abi": [
    {
      "inputs": [
        {
          "internalType": "uint256",
          "name": "_creationFeePercentage",
          "type": "uint256"
        },
        {
          "internalType": "uint256",
          "name": "_purchaseFeePercentage",
          "type": "uint256"
        },
        {
          "internalType": "uint256",
          "name": "_resellingFeePercentage",
          "type": "uint256"
        }
      ],
      "stateMutability": "nonpayable",
      "type": "constructor"
    },
    {
      "anonymous": false,
      "inputs": [
        {
          "indexed": true,
          "internalType": "address",
          "name": "owner",
          "type": "address"
        },
        {
          "indexed": true,
          "internalType": "address",
          "name": "approved",
          "type": "address"
        },
        {
          "indexed": true,
          "internalType": "uint256",
          "name": "tokenId",
          "type": "uint256"
        }
      ],
      "name": "Approval",
      "type": "event"
    },
    {
      "anonymous": false,
      "inputs": [
        {
          "indexed": true,
          "internalType": "address",
          "name": "owner",
          "type": "address"
        },
        {
          "indexed": true,
          "internalType": "address",
          "name": "operator",
          "type": "address"
        },
        {
          "indexed": false,
          "internalType": "bool",
          "name": "approved",
          "type": "bool"
        }
      ],
      "name": "ApprovalForAll",
      "type": "event"
    },
    {
      "anonymous": false,
      "inputs": [
        {
          "indexed": false,
          "internalType": "uint256",
          "name": "_fromTokenId",
          "type": "uint256"
        },
        {
          "indexed": false,
          "internalType": "uint256",
          "name": "_toTokenId",
          "type": "uint256"
        }
      ],
      "name": "BatchMetadataUpdate",
      "type": "event"
    },
    {
      "anonymous": false,
      "inputs": [
        {
          "indexed": false,
          "internalType": "uint256",
          "name": "_tokenId",
          "type": "uint256"
        }
      ],
      "name": "MetadataUpdate",
      "type": "event"
    },
    {
      "anonymous": false,
      "inputs": [
        {
          "indexed": true,
          "internalType": "address",
          "name": "previousOwner",
          "type": "address"
        },
        {
          "indexed": true,
          "internalType": "address",
          "name": "newOwner",
          "type": "address"
        }
      ],
      "name": "OwnershipTransferred",
      "type": "event"
    },
    {
      "anonymous": false,
      "inputs": [
        {
          "indexed": true,
          "internalType": "uint256",
          "name": "tokenId",
          "type": "uint256"
        },
        {
          "indexed": false,
          "internalType": "uint256",
          "name": "totalTickets",
          "type": "uint256"
        },
        {
          "indexed": false,
          "internalType": "uint256",
          "name": "ticketPrice",
          "type": "uint256"
        },
        {
          "indexed": false,
          "internalType": "uint256",
          "name": "ticketStartDate",
          "type": "uint256"
        },
        {
          "indexed": false,
          "internalType": "uint256",
          "name": "ticketEndDate",
          "type": "uint256"
        }
      ],
      "name": "TicketCreated",
      "type": "event"
    },
    {
      "anonymous": false,
      "inputs": [
        {
          "indexed": true,
          "internalType": "uint256",
          "name": "tokenId",
          "type": "uint256"
        },
        {
          "indexed": false,
          "internalType": "address",
          "name": "buyer",
          "type": "address"
        },
        {
          "indexed": false,
          "internalType": "uint256",
          "name": "ticketsBought",
          "type": "uint256"
        }
      ],
      "name": "TicketPurchased",
      "type": "event"
    },
    {
      "anonymous": false,
      "inputs": [
        {
          "indexed": true,
          "internalType": "uint256",
          "name": "tokenId",
          "type": "uint256"
        },
        {
          "indexed": false,
          "internalType": "address",
          "name": "reseller",
          "type": "address"
        },
        {
          "indexed": false,
          "internalType": "uint256",
          "name": "ticketsBought",
          "type": "uint256"
        }
      ],
      "name": "TicketResell",
      "type": "event"
    },
    {
      "anonymous": false,
      "inputs": [
        {
          "indexed": true,
          "internalType": "uint256",
          "name": "tokenId",
          "type": "uint256"
        },
        {
          "indexed": false,
          "internalType": "address",
          "name": "reseller",
          "type": "address"
        },
        {
          "indexed": false,
          "internalType": "address",
          "name": "rebuyer",
          "type": "address"
        },
        {
          "indexed": false,
          "internalType": "uint256",
          "name": "ticketsBought",
          "type": "uint256"
        }
      ],
      "name": "TicketResold",
      "type": "event"
    },
    {
      "anonymous": false,
      "inputs": [
        {
          "indexed": true,
          "internalType": "address",
          "name": "from",
          "type": "address"
        },
        {
          "indexed": true,
          "internalType": "address",
          "name": "to",
          "type": "address"
        },
        {
          "indexed": true,
          "internalType": "uint256",
          "name": "tokenId",
          "type": "uint256"
        }
      ],
      "name": "Transfer",
      "type": "event"
    },
    {
      "inputs": [
        {
          "internalType": "address",
          "name": "to",
          "type": "address"
        },
        {
          "internalType": "uint256",
          "name": "tokenId",
          "type": "uint256"
        }
      ],
      "name": "approve",
      "outputs": [],
      "stateMutability": "nonpayable",
      "type": "function"
    },
    {
      "inputs": [
        {
          "internalType": "address",
          "name": "owner",
          "type": "address"
        }
      ],
      "name": "balanceOf",
      "outputs": [
        {
          "internalType": "uint256",
          "name": "",
          "type": "uint256"
        }
      ],
      "stateMutability": "view",
      "type": "function"
    },
    {
      "inputs": [
        {
          "internalType": "string",
          "name": "tokenURI",
          "type": "string"
        },
        {
          "internalType": "uint256",
          "name": "_totalTickets",
          "type": "uint256"
        },
        {
          "internalType": "uint256",
          "name": "_ticketPrice",
          "type": "uint256"
        },
        {
          "internalType": "uint256",
          "name": "_ticketEndDate",
          "type": "uint256"
        }
      ],
      "name": "createTicket",
      "outputs": [],
      "stateMutability": "payable",
      "type": "function"
    },
    {
      "inputs": [],
      "name": "creationFeePercentage",
      "outputs": [
        {
          "internalType": "uint256",
          "name": "",
          "type": "uint256"
        }
      ],
      "stateMutability": "view",
      "type": "function"
    },
    {
      "inputs": [],
      "name": "getAllTickets",
      "outputs": [
        {
          "components": [
            {
              "internalType": "uint256",
              "name": "tokenId",
              "type": "uint256"
            },
            {
              "internalType": "uint256",
              "name": "totalTickets",
              "type": "uint256"
            },
            {
              "internalType": "uint256",
              "name": "ticketsSold",
              "type": "uint256"
            },
            {
              "internalType": "uint256",
              "name": "ticketPrice",
              "type": "uint256"
            },
            {
              "internalType": "uint256",
              "name": "ticketStartDate",
              "type": "uint256"
            },
            {
              "internalType": "uint256",
              "name": "ticketEndDate",
              "type": "uint256"
            },
            {
              "internalType": "uint256",
              "name": "ticketHoldDate",
              "type": "uint256"
            },
            {
              "internalType": "address",
              "name": "creator",
              "type": "address"
            },
            {
              "internalType": "bool",
              "name": "ticketSold",
              "type": "bool"
            },
            {
              "internalType": "bool",
              "name": "isResellable",
              "type": "bool"
            }
          ],
          "internalType": "struct Ticket.TicketInfo[]",
          "name": "",
          "type": "tuple[]"
        }
      ],
      "stateMutability": "view",
      "type": "function"
    },
    {
      "inputs": [
        {
          "internalType": "uint256",
          "name": "tokenId",
          "type": "uint256"
        }
      ],
      "name": "getApproved",
      "outputs": [
        {
          "internalType": "address",
          "name": "",
          "type": "address"
        }
      ],
      "stateMutability": "view",
      "type": "function"
    },
    {
      "inputs": [],
      "name": "getCreationFeePercentage",
      "outputs": [
        {
          "internalType": "uint256",
          "name": "",
          "type": "uint256"
        }
      ],
      "stateMutability": "view",
      "type": "function"
    },
    {
      "inputs": [],
      "name": "getPurchaseFeePercentage",
      "outputs": [
        {
          "internalType": "uint256",
          "name": "",
          "type": "uint256"
        }
      ],
      "stateMutability": "view",
      "type": "function"
    },
    {
      "inputs": [
        {
          "internalType": "uint256",
          "name": "tokenID",
          "type": "uint256"
        }
      ],
      "name": "getPurchaseInfo",
      "outputs": [
        {
          "components": [
            {
              "internalType": "uint256",
              "name": "ticketsBought",
              "type": "uint256"
            },
            {
              "internalType": "uint256",
              "name": "ticketsToResell",
              "type": "uint256"
            },
            {
              "internalType": "uint256",
              "name": "totalPrice",
              "type": "uint256"
            },
            {
              "internalType": "uint256",
              "name": "ticketId",
              "type": "uint256"
            },
            {
              "internalType": "uint256",
              "name": "purchaseId",
              "type": "uint256"
            },
            {
              "internalType": "uint256",
              "name": "purchaseTimestamp",
              "type": "uint256"
            },
            {
              "internalType": "address",
              "name": "buyer",
              "type": "address"
            }
          ],
          "internalType": "struct Ticket.PurchaseInfo[]",
          "name": "",
          "type": "tuple[]"
        }
      ],
      "stateMutability": "view",
      "type": "function"
    },
    {
      "inputs": [
        {
          "internalType": "uint256",
          "name": "tokenID",
          "type": "uint256"
        }
      ],
      "name": "getTicketInfo",
      "outputs": [
        {
          "components": [
            {
              "internalType": "uint256",
              "name": "tokenId",
              "type": "uint256"
            },
            {
              "internalType": "uint256",
              "name": "totalTickets",
              "type": "uint256"
            },
            {
              "internalType": "uint256",
              "name": "ticketsSold",
              "type": "uint256"
            },
            {
              "internalType": "uint256",
              "name": "ticketPrice",
              "type": "uint256"
            },
            {
              "internalType": "uint256",
              "name": "ticketStartDate",
              "type": "uint256"
            },
            {
              "internalType": "uint256",
              "name": "ticketEndDate",
              "type": "uint256"
            },
            {
              "internalType": "uint256",
              "name": "ticketHoldDate",
              "type": "uint256"
            },
            {
              "internalType": "address",
              "name": "creator",
              "type": "address"
            },
            {
              "internalType": "bool",
              "name": "ticketSold",
              "type": "bool"
            },
            {
              "internalType": "bool",
              "name": "isResellable",
              "type": "bool"
            }
          ],
          "internalType": "struct Ticket.TicketInfo",
          "name": "",
          "type": "tuple"
        }
      ],
      "stateMutability": "view",
      "type": "function"
    },
    {
      "inputs": [
        {
          "internalType": "address",
          "name": "user",
          "type": "address"
        }
      ],
      "name": "getUserTickets",
      "outputs": [
        {
          "internalType": "uint256[]",
          "name": "",
          "type": "uint256[]"
        }
      ],
      "stateMutability": "view",
      "type": "function"
    },
    {
      "inputs": [
        {
          "internalType": "address",
          "name": "owner",
          "type": "address"
        },
        {
          "internalType": "address",
          "name": "operator",
          "type": "address"
        }
      ],
      "name": "isApprovedForAll",
      "outputs": [
        {
          "internalType": "bool",
          "name": "",
          "type": "bool"
        }
      ],
      "stateMutability": "view",
      "type": "function"
    },
    {
      "inputs": [],
      "name": "name",
      "outputs": [
        {
          "internalType": "string",
          "name": "",
          "type": "string"
        }
      ],
      "stateMutability": "view",
      "type": "function"
    },
    {
      "inputs": [],
      "name": "owner",
      "outputs": [
        {
          "internalType": "address",
          "name": "",
          "type": "address"
        }
      ],
      "stateMutability": "view",
      "type": "function"
    },
    {
      "inputs": [
        {
          "internalType": "uint256",
          "name": "tokenId",
          "type": "uint256"
        }
      ],
      "name": "ownerOf",
      "outputs": [
        {
          "internalType": "address",
          "name": "",
          "type": "address"
        }
      ],
      "stateMutability": "view",
      "type": "function"
    },
    {
      "inputs": [],
      "name": "purchaseFeePercentage",
      "outputs": [
        {
          "internalType": "uint256",
          "name": "",
          "type": "uint256"
        }
      ],
      "stateMutability": "view",
      "type": "function"
    },
    {
      "inputs": [
        {
          "internalType": "uint256",
          "name": "tokenID",
          "type": "uint256"
        },
        {
          "internalType": "uint256",
          "name": "ticketsToBuy",
          "type": "uint256"
        }
      ],
      "name": "purchaseTicket",
      "outputs": [],
      "stateMutability": "payable",
      "type": "function"
    },
    {
      "inputs": [
        {
          "internalType": "uint256",
          "name": "tokenId",
          "type": "uint256"
        },
        {
          "internalType": "uint256",
          "name": "buyticketId",
          "type": "uint256"
        }
      ],
      "name": "reBuyTicket",
      "outputs": [],
      "stateMutability": "payable",
      "type": "function"
    },
    {
      "inputs": [],
      "name": "renounceOwnership",
      "outputs": [],
      "stateMutability": "nonpayable",
      "type": "function"
    },
    {
      "inputs": [
        {
          "internalType": "uint256",
          "name": "tokenId",
          "type": "uint256"
        },
        {
          "internalType": "uint256",
          "name": "ticketsToSell",
          "type": "uint256"
        }
      ],
      "name": "resellTicket",
      "outputs": [],
      "stateMutability": "nonpayable",
      "type": "function"
    },
    {
      "inputs": [],
      "name": "resellingFeePercentage",
      "outputs": [
        {
          "internalType": "uint256",
          "name": "",
          "type": "uint256"
        }
      ],
      "stateMutability": "view",
      "type": "function"
    },
    {
      "inputs": [
        {
          "internalType": "address",
          "name": "from",
          "type": "address"
        },
        {
          "internalType": "address",
          "name": "to",
          "type": "address"
        },
        {
          "internalType": "uint256",
          "name": "tokenId",
          "type": "uint256"
        }
      ],
      "name": "safeTransferFrom",
      "outputs": [],
      "stateMutability": "nonpayable",
      "type": "function"
    },
    {
      "inputs": [
        {
          "internalType": "address",
          "name": "from",
          "type": "address"
        },
        {
          "internalType": "address",
          "name": "to",
          "type": "address"
        },
        {
          "internalType": "uint256",
          "name": "tokenId",
          "type": "uint256"
        },
        {
          "internalType": "bytes",
          "name": "data",
          "type": "bytes"
        }
      ],
      "name": "safeTransferFrom",
      "outputs": [],
      "stateMutability": "nonpayable",
      "type": "function"
    },
    {
      "inputs": [
        {
          "internalType": "address",
          "name": "operator",
          "type": "address"
        },
        {
          "internalType": "bool",
          "name": "approved",
          "type": "bool"
        }
      ],
      "name": "setApprovalForAll",
      "outputs": [],
      "stateMutability": "nonpayable",
      "type": "function"
    },
    {
      "inputs": [
        {
          "internalType": "bytes4",
          "name": "interfaceId",
          "type": "bytes4"
        }
      ],
      "name": "supportsInterface",
      "outputs": [
        {
          "internalType": "bool",
          "name": "",
          "type": "bool"
        }
      ],
      "stateMutability": "view",
      "type": "function"
    },
    {
      "inputs": [],
      "name": "symbol",
      "outputs": [
        {
          "internalType": "string",
          "name": "",
          "type": "string"
        }
      ],
      "stateMutability": "view",
      "type": "function"
    },
    {
      "inputs": [
        {
          "internalType": "uint256",
          "name": "",
          "type": "uint256"
        },
        {
          "internalType": "uint256",
          "name": "",
          "type": "uint256"
        }
      ],
      "name": "ticketPurchases",
      "outputs": [
        {
          "internalType": "uint256",
          "name": "ticketsBought",
          "type": "uint256"
        },
        {
          "internalType": "uint256",
          "name": "ticketsToResell",
          "type": "uint256"
        },
        {
          "internalType": "uint256",
          "name": "totalPrice",
          "type": "uint256"
        },
        {
          "internalType": "uint256",
          "name": "ticketId",
          "type": "uint256"
        },
        {
          "internalType": "uint256",
          "name": "purchaseId",
          "type": "uint256"
        },
        {
          "internalType": "uint256",
          "name": "purchaseTimestamp",
          "type": "uint256"
        },
        {
          "internalType": "address",
          "name": "buyer",
          "type": "address"
        }
      ],
      "stateMutability": "view",
      "type": "function"
    },
    {
      "inputs": [
        {
          "internalType": "uint256",
          "name": "",
          "type": "uint256"
        }
      ],
      "name": "tickets",
      "outputs": [
        {
          "internalType": "uint256",
          "name": "tokenId",
          "type": "uint256"
        },
        {
          "internalType": "uint256",
          "name": "totalTickets",
          "type": "uint256"
        },
        {
          "internalType": "uint256",
          "name": "ticketsSold",
          "type": "uint256"
        },
        {
          "internalType": "uint256",
          "name": "ticketPrice",
          "type": "uint256"
        },
        {
          "internalType": "uint256",
          "name": "ticketStartDate",
          "type": "uint256"
        },
        {
          "internalType": "uint256",
          "name": "ticketEndDate",
          "type": "uint256"
        },
        {
          "internalType": "uint256",
          "name": "ticketHoldDate",
          "type": "uint256"
        },
        {
          "internalType": "address",
          "name": "creator",
          "type": "address"
        },
        {
          "internalType": "bool",
          "name": "ticketSold",
          "type": "bool"
        },
        {
          "internalType": "bool",
          "name": "isResellable",
          "type": "bool"
        }
      ],
      "stateMutability": "view",
      "type": "function"
    },
    {
      "inputs": [
        {
          "internalType": "uint256",
          "name": "tokenId",
          "type": "uint256"
        }
      ],
      "name": "tokenURI",
      "outputs": [
        {
          "internalType": "string",
          "name": "",
          "type": "string"
        }
      ],
      "stateMutability": "view",
      "type": "function"
    },
    {
      "inputs": [
        {
          "internalType": "address",
          "name": "from",
          "type": "address"
        },
        {
          "internalType": "address",
          "name": "to",
          "type": "address"
        },
        {
          "internalType": "uint256",
          "name": "tokenId",
          "type": "uint256"
        }
      ],
      "name": "transferFrom",
      "outputs": [],
      "stateMutability": "nonpayable",
      "type": "function"
    },
    {
      "inputs": [
        {
          "internalType": "address",
          "name": "newOwner",
          "type": "address"
        }
      ],
      "name": "transferOwnership",
      "outputs": [],
      "stateMutability": "nonpayable",
      "type": "function"
    },
    {
      "inputs": [
        {
          "internalType": "uint256",
          "name": "_creationFeePercentage",
          "type": "uint256"
        }
      ],
      "name": "updateCreationFeePercentage",
      "outputs": [],
      "stateMutability": "nonpayable",
      "type": "function"
    },
    {
      "inputs": [
        {
          "internalType": "uint256",
          "name": "_purchaseFeePercentage",
          "type": "uint256"
        }
      ],
      "name": "updatePurchaseFeePercentage",
      "outputs": [],
      "stateMutability": "nonpayable",
      "type": "function"
    },
    {
      "inputs": [
        {
          "internalType": "address",
          "name": "",
          "type": "address"
        },
        {
          "internalType": "uint256",
          "name": "",
          "type": "uint256"
        }
      ],
      "name": "userTickets",
      "outputs": [
        {
          "internalType": "uint256",
          "name": "",
          "type": "uint256"
        }
      ],
      "stateMutability": "view",
      "type": "function"
    }
  ],
  "bytecode": "0x60806040523480156200001157600080fd5b5060405162005aa238038062005aa2833981810160405281019062000037919062000215565b6040518060400160405280600681526020017f5469636b657400000000000000000000000000000000000000000000000000008152506040518060400160405280600681526020017f5449434b455400000000000000000000000000000000000000000000000000008152508160009081620000b49190620004e1565b508060019081620000c69190620004e1565b505050620000e9620000dd6200010760201b60201c565b6200010f60201b60201c565b8260098190555081600a8190555080600b81905550505050620005c8565b600033905090565b6000600760009054906101000a900473ffffffffffffffffffffffffffffffffffffffff16905081600760006101000a81548173ffffffffffffffffffffffffffffffffffffffff021916908373ffffffffffffffffffffffffffffffffffffffff1602179055508173ffffffffffffffffffffffffffffffffffffffff168173ffffffffffffffffffffffffffffffffffffffff167f8be0079c531659141344cd1fd0a4f28419497f9722a3daafe3b4186f6b6457e060405160405180910390a35050565b600080fd5b6000819050919050565b620001ef81620001da565b8114620001fb57600080fd5b50565b6000815190506200020f81620001e4565b92915050565b600080600060608486031215620002315762000230620001d5565b5b60006200024186828701620001fe565b93505060206200025486828701620001fe565b92505060406200026786828701620001fe565b9150509250925092565b600081519050919050565b7f4e487b7100000000000000000000000000000000000000000000000000000000600052604160045260246000fd5b7f4e487b7100000000000000000000000000000000000000000000000000000000600052602260045260246000fd5b60006002820490506001821680620002f357607f821691505b602082108103620003095762000308620002ab565b5b50919050565b60008190508160005260206000209050919050565b60006020601f8301049050919050565b600082821b905092915050565b600060088302620003737fffffffffffffffffffffffffffffffffffffffffffffffffffffffffffffffff8262000334565b6200037f868362000334565b95508019841693508086168417925050509392505050565b6000819050919050565b6000620003c2620003bc620003b684620001da565b62000397565b620001da565b9050919050565b6000819050919050565b620003de83620003a1565b620003f6620003ed82620003c9565b84845462000341565b825550505050565b600090565b6200040d620003fe565b6200041a818484620003d3565b505050565b5b8181101562000442576200043660008262000403565b60018101905062000420565b5050565b601f82111562000491576200045b816200030f565b620004668462000324565b8101602085101562000476578190505b6200048e620004858562000324565b8301826200041f565b50505b505050565b600082821c905092915050565b6000620004b66000198460080262000496565b1980831691505092915050565b6000620004d18383620004a3565b9150826002028217905092915050565b620004ec8262000271565b67ffffffffffffffff8111156200050857620005076200027c565b5b620005148254620002da565b6200052182828562000446565b600060209050601f83116001811462000559576000841562000544578287015190505b620005508582620004c3565b865550620005c0565b601f19841662000569866200030f565b60005b8281101562000593578489015182556001820191506020850194506020810190506200056c565b86831015620005b35784890151620005af601f891682620004a3565b8355505b6001600288020188555050505b505050505050565b6154ca80620005d86000396000f3fe6080604052600436106101f95760003560e01c8063715018a61161010d578063b88d4fde116100a0578063d615d1211161006f578063d615d1211461075e578063d91043f21461077a578063e985e9c5146107a5578063f2fde38b146107e2578063ff99a0631461080b576101f9565b8063b88d4fde1461069f578063bdbbb0cb146106c8578063c87b56dd146106e4578063cf260baf14610721576101f9565b8063a22cb465116100dc578063a22cb465146105df578063a4646ba714610608578063b57b0de71461064b578063b5e1a3c014610674576101f9565b8063715018a6146105475780638412153f1461055e5780638da5cb5b1461058957806395d89b41146105b4576101f9565b80632decc62b11610190578063461c3e211161015f578063461c3e211461041f57806350b447121461044a57806358875049146104905780636352211e146104cd57806370a082311461050a576101f9565b80632decc62b14610386578063348e9913146103a25780633df8cd72146103cb57806342842e0e146103f6576101f9565b8063081812fc116101cc578063081812fc146102ce578063095ea7b31461030b57806323b872dd1461033457806329520cae1461035d576101f9565b806301ffc9a7146101fe57806303e96fe31461023b5780630484a22f1461026657806306fdde03146102a3575b600080fd5b34801561020a57600080fd5b506102256004803603810190610220919061354b565b610848565b6040516102329190613593565b60405180910390f35b34801561024757600080fd5b506102506108a9565b60405161025d9190613793565b60405180910390f35b34801561027257600080fd5b5061028d600480360381019061028891906137e1565b610a41565b60405161029a91906138bd565b60405180910390f35b3480156102af57600080fd5b506102b8610ad8565b6040516102c5919061396f565b60405180910390f35b3480156102da57600080fd5b506102f560048036038101906102f091906139bd565b610b6a565b60405161030291906139f9565b60405180910390f35b34801561031757600080fd5b50610332600480360381019061032d9190613a14565b610bb0565b005b34801561034057600080fd5b5061035b60048036038101906103569190613a54565b610cc7565b005b34801561036957600080fd5b50610384600480360381019061037f91906139bd565b610d27565b005b6103a0600480360381019061039b9190613b0c565b610d39565b005b3480156103ae57600080fd5b506103c960048036038101906103c49190613b94565b61105c565b005b3480156103d757600080fd5b506103e0611468565b6040516103ed9190613be3565b60405180910390f35b34801561040257600080fd5b5061041d60048036038101906104189190613a54565b61146e565b005b34801561042b57600080fd5b5061043461148e565b6040516104419190613be3565b60405180910390f35b34801561045657600080fd5b50610471600480360381019061046c91906139bd565b611498565b6040516104879a99989796959493929190613bfe565b60405180910390f35b34801561049c57600080fd5b506104b760048036038101906104b291906139bd565b611526565b6040516104c49190613dd7565b60405180910390f35b3480156104d957600080fd5b506104f460048036038101906104ef91906139bd565b61162a565b60405161050191906139f9565b60405180910390f35b34801561051657600080fd5b50610531600480360381019061052c91906137e1565b6116b0565b60405161053e9190613be3565b60405180910390f35b34801561055357600080fd5b5061055c611767565b005b34801561056a57600080fd5b5061057361177b565b6040516105809190613be3565b60405180910390f35b34801561059557600080fd5b5061059e611781565b6040516105ab91906139f9565b60405180910390f35b3480156105c057600080fd5b506105c96117ab565b6040516105d6919061396f565b60405180910390f35b3480156105eb57600080fd5b5061060660048036038101906106019190613e25565b61183d565b005b34801561061457600080fd5b5061062f600480360381019061062a9190613b94565b611853565b6040516106429796959493929190613e65565b60405180910390f35b34801561065757600080fd5b50610672600480360381019061066d91906139bd565b6118d2565b005b34801561068057600080fd5b506106896118e4565b6040516106969190613be3565b60405180910390f35b3480156106ab57600080fd5b506106c660048036038101906106c19190614004565b6118ee565b005b6106e260048036038101906106dd9190613b94565b611950565b005b3480156106f057600080fd5b5061070b600480360381019061070691906139bd565b611d9b565b604051610718919061396f565b60405180910390f35b34801561072d57600080fd5b5061074860048036038101906107439190613a14565b611ead565b6040516107559190613be3565b60405180910390f35b61077860048036038101906107739190613b94565b611ede565b005b34801561078657600080fd5b5061078f612131565b60405161079c9190613be3565b60405180910390f35b3480156107b157600080fd5b506107cc60048036038101906107c79190614087565b612137565b6040516107d99190613593565b60405180910390f35b3480156107ee57600080fd5b50610809600480360381019061080491906137e1565b6121cb565b005b34801561081757600080fd5b50610832600480360381019061082d91906139bd565b61224e565b60405161083f9190614193565b60405180910390f35b6000634906490660e01b7bffffffffffffffffffffffffffffffffffffffffffffffffffffffff1916827bffffffffffffffffffffffffffffffffffffffffffffffffffffffff191614806108a257506108a18261234e565b5b9050919050565b606060006108b76008612430565b905060008167ffffffffffffffff8111156108d5576108d4613ed9565b5b60405190808252806020026020018201604052801561090e57816020015b6108fb613472565b8152602001906001900390816108f35790505b50905060005b82811015610a3857600c600082815260200190815260200160002060405180610140016040529081600082015481526020016001820154815260200160028201548152602001600382015481526020016004820154815260200160058201548152602001600682015481526020016007820160009054906101000a900473ffffffffffffffffffffffffffffffffffffffff1673ffffffffffffffffffffffffffffffffffffffff1673ffffffffffffffffffffffffffffffffffffffff1681526020016007820160149054906101000a900460ff161515151581526020016007820160159054906101000a900460ff161515151581525050828281518110610a2057610a1f6141af565b5b60200260200101819052508080600101915050610914565b50809250505090565b6060600d60008373ffffffffffffffffffffffffffffffffffffffff1673ffffffffffffffffffffffffffffffffffffffff168152602001908152602001600020805480602002602001604051908101604052809291908181526020018280548015610acc57602002820191906000526020600020905b815481526020019060010190808311610ab8575b50505050509050919050565b606060008054610ae79061420d565b80601f0160208091040260200160405190810160405280929190818152602001828054610b139061420d565b8015610b605780601f10610b3557610100808354040283529160200191610b60565b820191906000526020600020905b815481529060010190602001808311610b4357829003601f168201915b5050505050905090565b6000610b758261243e565b6004600083815260200190815260200160002060009054906101000a900473ffffffffffffffffffffffffffffffffffffffff169050919050565b6000610bbb8261162a565b90508073ffffffffffffffffffffffffffffffffffffffff168373ffffffffffffffffffffffffffffffffffffffff1603610c2b576040517f08c379a0000000000000000000000000000000000000000000000000000000008152600401610c22906142b0565b60405180910390fd5b8073ffffffffffffffffffffffffffffffffffffffff16610c4a612489565b73ffffffffffffffffffffffffffffffffffffffff161480610c795750610c7881610c73612489565b612137565b5b610cb8576040517f08c379a0000000000000000000000000000000000000000000000000000000008152600401610caf90614342565b60405180910390fd5b610cc28383612491565b505050565b610cd8610cd2612489565b8261254a565b610d17576040517f08c379a0000000000000000000000000000000000000000000000000000000008152600401610d0e906143d4565b60405180910390fd5b610d228383836125df565b505050565b610d2f6128d8565b80600a8190555050565b60008311610d7c576040517f08c379a0000000000000000000000000000000000000000000000000000000008152600401610d7390614466565b60405180910390fd5b60008211610dbf576040517f08c379a0000000000000000000000000000000000000000000000000000000008152600401610db6906144f8565b60405180910390fd5b428111610e01576040517f08c379a0000000000000000000000000000000000000000000000000000000008152600401610df89061458a565b60405180910390fd5b6000610e0d6008612430565b9050610e196008612956565b610e23338261296c565b610e718187878080601f016020809104026020016040519081016040528093929190818152602001838380828437600081840152601f19601f8201169050808301925050505050505061298a565b600042905060405180610140016040528083815260200186815260200160008152602001858152602001828152602001848152602001600081526020013373ffffffffffffffffffffffffffffffffffffffff16815260200160001515815260200160001515815250600c6000848152602001908152602001600020600082015181600001556020820151816001015560408201518160020155606082015181600301556080820151816004015560a0820151816005015560c0820151816006015560e08201518160070160006101000a81548173ffffffffffffffffffffffffffffffffffffffff021916908373ffffffffffffffffffffffffffffffffffffffff1602179055506101008201518160070160146101000a81548160ff0219169083151502179055506101208201518160070160156101000a81548160ff02191690831515021790555090505060006009549050610fce611781565b73ffffffffffffffffffffffffffffffffffffffff166108fc829081150290604051600060405180830381858888f19350505050158015611013573d6000803e3d6000fd5b50827feea3bb912a3441ad5433c22840a518110f72b0e83e07c3c86a790f04cb4ee9948787858860405161104a94939291906145aa565b60405180910390a25050505050505050565b6000600c60008481526020019081526020016000209050600082116110b6576040517f08c379a00000000000000000000000000000000000000000000000000000000081526004016110ad9061463b565b60405180910390fd5b80600201548211156110fd576040517f08c379a00000000000000000000000000000000000000000000000000000000081526004016110f4906146a7565b60405180910390fd5b806005015481600601541015611148576040517f08c379a000000000000000000000000000000000000000000000000000000000815260040161113f90614713565b60405180910390fd5b60008060005b600e60008781526020019081526020016000208054905081101561128b573373ffffffffffffffffffffffffffffffffffffffff16600e600088815260200190815260200160002082815481106111a8576111a76141af565b5b906000526020600020906007020160060160009054906101000a900473ffffffffffffffffffffffffffffffffffffffff1673ffffffffffffffffffffffffffffffffffffffff160361127e57600e6000878152602001908152602001600020818154811061121a576112196141af565b5b906000526020600020906007020160000154836112379190614762565b9250600e6000878152602001908152602001600020818154811061125e5761125d6141af565b5b9060005260206000209060070201600101548261127b9190614762565b91505b808060010191505061114e565b50838210156112cf576040517f08c379a00000000000000000000000000000000000000000000000000000000081526004016112c6906147e2565b60405180910390fd5b8184826112dc9190614762565b111561131d576040517f08c379a000000000000000000000000000000000000000000000000000000000815260040161131490614874565b60405180910390fd5b60005b600e600087815260200190815260200160002080549050811015611426573373ffffffffffffffffffffffffffffffffffffffff16600e6000888152602001908152602001600020828154811061137a576113796141af565b5b906000526020600020906007020160060160009054906101000a900473ffffffffffffffffffffffffffffffffffffffff1673ffffffffffffffffffffffffffffffffffffffff16036114195784600e600088815260200190815260200160002082815481106113ed576113ec6141af565b5b9060005260206000209060070201600101600082825461140d9190614762565b92505081905550611426565b8080600101915050611320565b50847ff5faf79426a1fb4bc0362d335bf6e794d532c7c33fed7cdf921a59bc3b6dbffe3386604051611459929190614894565b60405180910390a25050505050565b600a5481565b611489838383604051806020016040528060008152506118ee565b505050565b6000600a54905090565b600c6020528060005260406000206000915090508060000154908060010154908060020154908060030154908060040154908060050154908060060154908060070160009054906101000a900473ffffffffffffffffffffffffffffffffffffffff16908060070160149054906101000a900460ff16908060070160159054906101000a900460ff1690508a565b6060600e6000838152602001908152602001600020805480602002602001604051908101604052809291908181526020016000905b8282101561161f57838290600052602060002090600702016040518060e00160405290816000820154815260200160018201548152602001600282015481526020016003820154815260200160048201548152602001600582015481526020016006820160009054906101000a900473ffffffffffffffffffffffffffffffffffffffff1673ffffffffffffffffffffffffffffffffffffffff1673ffffffffffffffffffffffffffffffffffffffff16815250508152602001906001019061155b565b505050509050919050565b60008061163683612a2e565b9050600073ffffffffffffffffffffffffffffffffffffffff168173ffffffffffffffffffffffffffffffffffffffff16036116a7576040517f08c379a000000000000000000000000000000000000000000000000000000000815260040161169e90614909565b60405180910390fd5b80915050919050565b60008073ffffffffffffffffffffffffffffffffffffffff168273ffffffffffffffffffffffffffffffffffffffff1603611720576040517f08c379a00000000000000000000000000000000000000000000000000000000081526004016117179061499b565b60405180910390fd5b600360008373ffffffffffffffffffffffffffffffffffffffff1673ffffffffffffffffffffffffffffffffffffffff168152602001908152602001600020549050919050565b61176f6128d8565b6117796000612a6b565b565b600b5481565b6000600760009054906101000a900473ffffffffffffffffffffffffffffffffffffffff16905090565b6060600180546117ba9061420d565b80601f01602080910402602001604051908101604052809291908181526020018280546117e69061420d565b80156118335780601f1061180857610100808354040283529160200191611833565b820191906000526020600020905b81548152906001019060200180831161181657829003601f168201915b5050505050905090565b61184f611848612489565b8383612b31565b5050565b600e602052816000526040600020818154811061186f57600080fd5b9060005260206000209060070201600091509150508060000154908060010154908060020154908060030154908060040154908060050154908060060160009054906101000a900473ffffffffffffffffffffffffffffffffffffffff16905087565b6118da6128d8565b8060098190555050565b6000600954905090565b6118ff6118f9612489565b8361254a565b61193e576040517f08c379a0000000000000000000000000000000000000000000000000000000008152600401611935906143d4565b60405180910390fd5b61194a84848484612c9d565b50505050565b6000600c600084815260200190815260200160002090508060070160149054906101000a900460ff16156119b9576040517f08c379a00000000000000000000000000000000000000000000000000000000081526004016119b090614a07565b60405180910390fd5b600382106119c657600080fd5b6000821180156119e95750806002015481600101546119e59190614a27565b8211155b611a28576040517f08c379a0000000000000000000000000000000000000000000000000000000008152600401611a1f9061463b565b60405180910390fd5b6000828260030154611a3a9190614a5b565b90506000600a54905060008183611a519190614762565b9050803414611a95576040517f08c379a0000000000000000000000000000000000000000000000000000000008152600401611a8c90614ae9565b60405180910390fd5b8360070160009054906101000a900473ffffffffffffffffffffffffffffffffffffffff1673ffffffffffffffffffffffffffffffffffffffff166108fc849081150290604051600060405180830381858888f19350505050158015611aff573d6000803e3d6000fd5b50611b08611781565b73ffffffffffffffffffffffffffffffffffffffff166108fc839081150290604051600060405180830381858888f19350505050158015611b4d573d6000803e3d6000fd5b5060005b85811015611d65576000611b656008612430565b9050611b716008612956565b611b7b338261296c565b611b8d81611b888a611d9b565b61298a565b600d60003373ffffffffffffffffffffffffffffffffffffffff1673ffffffffffffffffffffffffffffffffffffffff168152602001908152602001600020819080600181540180825580915050600190039060005260206000200160009091909190915055600e60008281526020019081526020016000206040518060e001604052806001815260200160018152602001886003015481526020018a81526020018381526020014281526020013373ffffffffffffffffffffffffffffffffffffffff168152509080600181540180825580915050600190039060005260206000209060070201600090919091909150600082015181600001556020820151816001015560408201518160020155606082015181600301556080820151816004015560a0820151816005015560c08201518160060160006101000a81548173ffffffffffffffffffffffffffffffffffffffff021916908373ffffffffffffffffffffffffffffffffffffffff1602179055505050856002016000815480929190611d1890614b09565b9190505550807fdbaaf4c87ce30816c961a81d110622a3227ede77953d4383d514ff88ab2e0fd33389604051611d4f929190614894565b60405180910390a2508080600101915050611b51565b508360010154846002015403611d935760018460070160146101000a81548160ff0219169083151502179055505b505050505050565b6060611da68261243e565b6000600660008481526020019081526020016000208054611dc69061420d565b80601f0160208091040260200160405190810160405280929190818152602001828054611df29061420d565b8015611e3f5780601f10611e1457610100808354040283529160200191611e3f565b820191906000526020600020905b815481529060010190602001808311611e2257829003601f168201915b505050505090506000611e50612cf9565b90506000815103611e65578192505050611ea8565b600082511115611e9a578082604051602001611e82929190614b8d565b60405160208183030381529060405292505050611ea8565b611ea384612d10565b925050505b919050565b600d6020528160005260406000208181548110611ec957600080fd5b90600052602060002001600091509150505481565b6001600c6000848152602001908152602001600020600201541015611f38576040517f08c379a0000000000000000000000000000000000000000000000000000000008152600401611f2f90614c23565b60405180910390fd5b6000600b54600c600085815260200190815260200160002060030154611f5e9190614a5b565b600c600085815260200190815260200160002060030154611f7f9190614762565b90503373ffffffffffffffffffffffffffffffffffffffff166108fc829081150290604051600060405180830381858888f19350505050158015611fc7573d6000803e3d6000fd5b5060005b600e60008581526020019081526020016000208054905081101561212b5782600e6000868152602001908152602001600020828154811061200f5761200e6141af565b5b9060005260206000209060070201600301540361211e57612087600e6000868152602001908152602001600020828154811061204e5761204d6141af565b5b906000526020600020906007020160060160009054906101000a900473ffffffffffffffffffffffffffffffffffffffff1633856125df565b837fd59a36d8310ffb140214be490baf3fe8961f859a17199ec1bf9015c8b7340011600e600087815260200190815260200160002083815481106120ce576120cd6141af565b5b906000526020600020906007020160060160009054906101000a900473ffffffffffffffffffffffffffffffffffffffff16338660405161211193929190614c43565b60405180910390a261212b565b8080600101915050611fcb565b50505050565b60095481565b6000600560008473ffffffffffffffffffffffffffffffffffffffff1673ffffffffffffffffffffffffffffffffffffffff16815260200190815260200160002060008373ffffffffffffffffffffffffffffffffffffffff1673ffffffffffffffffffffffffffffffffffffffff16815260200190815260200160002060009054906101000a900460ff16905092915050565b6121d36128d8565b600073ffffffffffffffffffffffffffffffffffffffff168173ffffffffffffffffffffffffffffffffffffffff1603612242576040517f08c379a000000000000000000000000000000000000000000000000000000000815260040161223990614cec565b60405180910390fd5b61224b81612a6b565b50565b612256613472565b600c600083815260200190815260200160002060405180610140016040529081600082015481526020016001820154815260200160028201548152602001600382015481526020016004820154815260200160058201548152602001600682015481526020016007820160009054906101000a900473ffffffffffffffffffffffffffffffffffffffff1673ffffffffffffffffffffffffffffffffffffffff1673ffffffffffffffffffffffffffffffffffffffff1681526020016007820160149054906101000a900460ff161515151581526020016007820160159054906101000a900460ff1615151515815250509050919050565b60007f80ac58cd000000000000000000000000000000000000000000000000000000007bffffffffffffffffffffffffffffffffffffffffffffffffffffffff1916827bffffffffffffffffffffffffffffffffffffffffffffffffffffffff1916148061241957507f5b5e139f000000000000000000000000000000000000000000000000000000007bffffffffffffffffffffffffffffffffffffffffffffffffffffffff1916827bffffffffffffffffffffffffffffffffffffffffffffffffffffffff1916145b80612429575061242882612d78565b5b9050919050565b600081600001549050919050565b61244781612de2565b612486576040517f08c379a000000000000000000000000000000000000000000000000000000000815260040161247d90614909565b60405180910390fd5b50565b600033905090565b816004600083815260200190815260200160002060006101000a81548173ffffffffffffffffffffffffffffffffffffffff021916908373ffffffffffffffffffffffffffffffffffffffff160217905550808273ffffffffffffffffffffffffffffffffffffffff166125048361162a565b73ffffffffffffffffffffffffffffffffffffffff167f8c5be1e5ebec7d5bd14f71427d1e84f3dd0314c0f7b2291e5b200ac8c7c3b92560405160405180910390a45050565b6000806125568361162a565b90508073ffffffffffffffffffffffffffffffffffffffff168473ffffffffffffffffffffffffffffffffffffffff16148061259857506125978185612137565b5b806125d657508373ffffffffffffffffffffffffffffffffffffffff166125be84610b6a565b73ffffffffffffffffffffffffffffffffffffffff16145b91505092915050565b8273ffffffffffffffffffffffffffffffffffffffff166125ff8261162a565b73ffffffffffffffffffffffffffffffffffffffff1614612655576040517f08c379a000000000000000000000000000000000000000000000000000000000815260040161264c90614d7e565b60405180910390fd5b600073ffffffffffffffffffffffffffffffffffffffff168273ffffffffffffffffffffffffffffffffffffffff16036126c4576040517f08c379a00000000000000000000000000000000000000000000000000000000081526004016126bb90614e10565b60405180910390fd5b6126d18383836001612e23565b8273ffffffffffffffffffffffffffffffffffffffff166126f18261162a565b73ffffffffffffffffffffffffffffffffffffffff1614612747576040517f08c379a000000000000000000000000000000000000000000000000000000000815260040161273e90614d7e565b60405180910390fd5b6004600082815260200190815260200160002060006101000a81549073ffffffffffffffffffffffffffffffffffffffff02191690556001600360008573ffffffffffffffffffffffffffffffffffffffff1673ffffffffffffffffffffffffffffffffffffffff168152602001908152602001600020600082825403925050819055506001600360008473ffffffffffffffffffffffffffffffffffffffff1673ffffffffffffffffffffffffffffffffffffffff16815260200190815260200160002060008282540192505081905550816002600083815260200190815260200160002060006101000a81548173ffffffffffffffffffffffffffffffffffffffff021916908373ffffffffffffffffffffffffffffffffffffffff160217905550808273ffffffffffffffffffffffffffffffffffffffff168473ffffffffffffffffffffffffffffffffffffffff167fddf252ad1be2c89b69c2b068fc378daa952ba7f163c4a11628f55a4df523b3ef60405160405180910390a46128d38383836001612e29565b505050565b6128e0612489565b73ffffffffffffffffffffffffffffffffffffffff166128fe611781565b73ffffffffffffffffffffffffffffffffffffffff1614612954576040517f08c379a000000000000000000000000000000000000000000000000000000000815260040161294b90614e7c565b60405180910390fd5b565b6001816000016000828254019250508190555050565b612986828260405180602001604052806000815250612e2f565b5050565b61299382612de2565b6129d2576040517f08c379a00000000000000000000000000000000000000000000000000000000081526004016129c990614f0e565b60405180910390fd5b806006600084815260200190815260200160002090816129f291906150da565b507ff8e1a15aba9398e019f0b49df1a4fde98ee17ae345cb5f6b5e2c27f5033e8ce782604051612a229190613be3565b60405180910390a15050565b60006002600083815260200190815260200160002060009054906101000a900473ffffffffffffffffffffffffffffffffffffffff169050919050565b6000600760009054906101000a900473ffffffffffffffffffffffffffffffffffffffff16905081600760006101000a81548173ffffffffffffffffffffffffffffffffffffffff021916908373ffffffffffffffffffffffffffffffffffffffff1602179055508173ffffffffffffffffffffffffffffffffffffffff168173ffffffffffffffffffffffffffffffffffffffff167f8be0079c531659141344cd1fd0a4f28419497f9722a3daafe3b4186f6b6457e060405160405180910390a35050565b8173ffffffffffffffffffffffffffffffffffffffff168373ffffffffffffffffffffffffffffffffffffffff1603612b9f576040517f08c379a0000000000000000000000000000000000000000000000000000000008152600401612b96906151f8565b60405180910390fd5b80600560008573ffffffffffffffffffffffffffffffffffffffff1673ffffffffffffffffffffffffffffffffffffffff16815260200190815260200160002060008473ffffffffffffffffffffffffffffffffffffffff1673ffffffffffffffffffffffffffffffffffffffff16815260200190815260200160002060006101000a81548160ff0219169083151502179055508173ffffffffffffffffffffffffffffffffffffffff168373ffffffffffffffffffffffffffffffffffffffff167f17307eab39ab6107e8899845ad3d59bd9653f200f220920489ca2b5937696c3183604051612c909190613593565b60405180910390a3505050565b612ca88484846125df565b612cb484848484612e8a565b612cf3576040517f08c379a0000000000000000000000000000000000000000000000000000000008152600401612cea9061528a565b60405180910390fd5b50505050565b606060405180602001604052806000815250905090565b6060612d1b8261243e565b6000612d25612cf9565b90506000815111612d455760405180602001604052806000815250612d70565b80612d4f84613011565b604051602001612d60929190614b8d565b6040516020818303038152906040525b915050919050565b60007f01ffc9a7000000000000000000000000000000000000000000000000000000007bffffffffffffffffffffffffffffffffffffffffffffffffffffffff1916827bffffffffffffffffffffffffffffffffffffffffffffffffffffffff1916149050919050565b60008073ffffffffffffffffffffffffffffffffffffffff16612e0483612a2e565b73ffffffffffffffffffffffffffffffffffffffff1614159050919050565b50505050565b50505050565b612e3983836130df565b612e466000848484612e8a565b612e85576040517f08c379a0000000000000000000000000000000000000000000000000000000008152600401612e7c9061528a565b60405180910390fd5b505050565b6000612eab8473ffffffffffffffffffffffffffffffffffffffff166132fc565b15613004578373ffffffffffffffffffffffffffffffffffffffff1663150b7a02612ed4612489565b8786866040518563ffffffff1660e01b8152600401612ef694939291906152ff565b6020604051808303816000875af1925050508015612f3257506040513d601f19601f82011682018060405250810190612f2f9190615360565b60015b612fb4573d8060008114612f62576040519150601f19603f3d011682016040523d82523d6000602084013e612f67565b606091505b506000815103612fac576040517f08c379a0000000000000000000000000000000000000000000000000000000008152600401612fa39061528a565b60405180910390fd5b805181602001fd5b63150b7a0260e01b7bffffffffffffffffffffffffffffffffffffffffffffffffffffffff1916817bffffffffffffffffffffffffffffffffffffffffffffffffffffffff191614915050613009565b600190505b949350505050565b6060600060016130208461331f565b01905060008167ffffffffffffffff81111561303f5761303e613ed9565b5b6040519080825280601f01601f1916602001820160405280156130715781602001600182028036833780820191505090505b509050600082602001820190505b6001156130d4578080600190039150507f3031323334353637383961626364656600000000000000000000000000000000600a86061a8153600a85816130c8576130c761538d565b5b0494506000850361307f575b819350505050919050565b600073ffffffffffffffffffffffffffffffffffffffff168273ffffffffffffffffffffffffffffffffffffffff160361314e576040517f08c379a000000000000000000000000000000000000000000000000000000000815260040161314590615408565b60405180910390fd5b61315781612de2565b15613197576040517f08c379a000000000000000000000000000000000000000000000000000000000815260040161318e90615474565b60405180910390fd5b6131a5600083836001612e23565b6131ae81612de2565b156131ee576040517f08c379a00000000000000000000000000000000000000000000000000000000081526004016131e590615474565b60405180910390fd5b6001600360008473ffffffffffffffffffffffffffffffffffffffff1673ffffffffffffffffffffffffffffffffffffffff16815260200190815260200160002060008282540192505081905550816002600083815260200190815260200160002060006101000a81548173ffffffffffffffffffffffffffffffffffffffff021916908373ffffffffffffffffffffffffffffffffffffffff160217905550808273ffffffffffffffffffffffffffffffffffffffff16600073ffffffffffffffffffffffffffffffffffffffff167fddf252ad1be2c89b69c2b068fc378daa952ba7f163c4a11628f55a4df523b3ef60405160405180910390a46132f8600083836001612e29565b5050565b6000808273ffffffffffffffffffffffffffffffffffffffff163b119050919050565b600080600090507a184f03e93ff9f4daa797ed6e38ed64bf6a1f010000000000000000831061337d577a184f03e93ff9f4daa797ed6e38ed64bf6a1f01000000000000000083816133735761337261538d565b5b0492506040810190505b6d04ee2d6d415b85acef810000000083106133ba576d04ee2d6d415b85acef810000000083816133b0576133af61538d565b5b0492506020810190505b662386f26fc1000083106133e957662386f26fc1000083816133df576133de61538d565b5b0492506010810190505b6305f5e1008310613412576305f5e10083816134085761340761538d565b5b0492506008810190505b612710831061343757612710838161342d5761342c61538d565b5b0492506004810190505b6064831061345a57606483816134505761344f61538d565b5b0492506002810190505b600a8310613469576001810190505b80915050919050565b60405180610140016040528060008152602001600081526020016000815260200160008152602001600081526020016000815260200160008152602001600073ffffffffffffffffffffffffffffffffffffffff1681526020016000151581526020016000151581525090565b6000604051905090565b600080fd5b600080fd5b60007fffffffff0000000000000000000000000000000000000000000000000000000082169050919050565b613528816134f3565b811461353357600080fd5b50565b6000813590506135458161351f565b92915050565b600060208284031215613561576135606134e9565b5b600061356f84828501613536565b91505092915050565b60008115159050919050565b61358d81613578565b82525050565b60006020820190506135a86000830184613584565b92915050565b600081519050919050565b600082825260208201905092915050565b6000819050602082019050919050565b6000819050919050565b6135ed816135da565b82525050565b600073ffffffffffffffffffffffffffffffffffffffff82169050919050565b600061361e826135f3565b9050919050565b61362e81613613565b82525050565b61363d81613578565b82525050565b6101408201600082015161365a60008501826135e4565b50602082015161366d60208501826135e4565b50604082015161368060408501826135e4565b50606082015161369360608501826135e4565b5060808201516136a660808501826135e4565b5060a08201516136b960a08501826135e4565b5060c08201516136cc60c08501826135e4565b5060e08201516136df60e0850182613625565b506101008201516136f4610100850182613634565b50610120820151613709610120850182613634565b50505050565b600061371b8383613643565b6101408301905092915050565b6000602082019050919050565b6000613740826135ae565b61374a81856135b9565b9350613755836135ca565b8060005b8381101561378657815161376d888261370f565b975061377883613728565b925050600181019050613759565b5085935050505092915050565b600060208201905081810360008301526137ad8184613735565b905092915050565b6137be81613613565b81146137c957600080fd5b50565b6000813590506137db816137b5565b92915050565b6000602082840312156137f7576137f66134e9565b5b6000613805848285016137cc565b91505092915050565b600081519050919050565b600082825260208201905092915050565b6000819050602082019050919050565b600061384683836135e4565b60208301905092915050565b6000602082019050919050565b600061386a8261380e565b6138748185613819565b935061387f8361382a565b8060005b838110156138b0578151613897888261383a565b97506138a283613852565b925050600181019050613883565b5085935050505092915050565b600060208201905081810360008301526138d7818461385f565b905092915050565b600081519050919050565b600082825260208201905092915050565b60005b838110156139195780820151818401526020810190506138fe565b60008484015250505050565b6000601f19601f8301169050919050565b6000613941826138df565b61394b81856138ea565b935061395b8185602086016138fb565b61396481613925565b840191505092915050565b600060208201905081810360008301526139898184613936565b905092915050565b61399a816135da565b81146139a557600080fd5b50565b6000813590506139b781613991565b92915050565b6000602082840312156139d3576139d26134e9565b5b60006139e1848285016139a8565b91505092915050565b6139f381613613565b82525050565b6000602082019050613a0e60008301846139ea565b92915050565b60008060408385031215613a2b57613a2a6134e9565b5b6000613a39858286016137cc565b9250506020613a4a858286016139a8565b9150509250929050565b600080600060608486031215613a6d57613a6c6134e9565b5b6000613a7b868287016137cc565b9350506020613a8c868287016137cc565b9250506040613a9d868287016139a8565b9150509250925092565b600080fd5b600080fd5b600080fd5b60008083601f840112613acc57613acb613aa7565b5b8235905067ffffffffffffffff811115613ae957613ae8613aac565b5b602083019150836001820283011115613b0557613b04613ab1565b5b9250929050565b600080600080600060808688031215613b2857613b276134e9565b5b600086013567ffffffffffffffff811115613b4657613b456134ee565b5b613b5288828901613ab6565b95509550506020613b65888289016139a8565b9350506040613b76888289016139a8565b9250506060613b87888289016139a8565b9150509295509295909350565b60008060408385031215613bab57613baa6134e9565b5b6000613bb9858286016139a8565b9250506020613bca858286016139a8565b9150509250929050565b613bdd816135da565b82525050565b6000602082019050613bf86000830184613bd4565b92915050565b600061014082019050613c14600083018d613bd4565b613c21602083018c613bd4565b613c2e604083018b613bd4565b613c3b606083018a613bd4565b613c486080830189613bd4565b613c5560a0830188613bd4565b613c6260c0830187613bd4565b613c6f60e08301866139ea565b613c7d610100830185613584565b613c8b610120830184613584565b9b9a5050505050505050505050565b600081519050919050565b600082825260208201905092915050565b6000819050602082019050919050565b60e082016000820151613cdc60008501826135e4565b506020820151613cef60208501826135e4565b506040820151613d0260408501826135e4565b506060820151613d1560608501826135e4565b506080820151613d2860808501826135e4565b5060a0820151613d3b60a08501826135e4565b5060c0820151613d4e60c0850182613625565b50505050565b6000613d608383613cc6565b60e08301905092915050565b6000602082019050919050565b6000613d8482613c9a565b613d8e8185613ca5565b9350613d9983613cb6565b8060005b83811015613dca578151613db18882613d54565b9750613dbc83613d6c565b925050600181019050613d9d565b5085935050505092915050565b60006020820190508181036000830152613df18184613d79565b905092915050565b613e0281613578565b8114613e0d57600080fd5b50565b600081359050613e1f81613df9565b92915050565b60008060408385031215613e3c57613e3b6134e9565b5b6000613e4a858286016137cc565b9250506020613e5b85828601613e10565b9150509250929050565b600060e082019050613e7a600083018a613bd4565b613e876020830189613bd4565b613e946040830188613bd4565b613ea16060830187613bd4565b613eae6080830186613bd4565b613ebb60a0830185613bd4565b613ec860c08301846139ea565b98975050505050505050565b600080fd5b7f4e487b7100000000000000000000000000000000000000000000000000000000600052604160045260246000fd5b613f1182613925565b810181811067ffffffffffffffff82111715613f3057613f2f613ed9565b5b80604052505050565b6000613f436134df565b9050613f4f8282613f08565b919050565b600067ffffffffffffffff821115613f6f57613f6e613ed9565b5b613f7882613925565b9050602081019050919050565b82818337600083830152505050565b6000613fa7613fa284613f54565b613f39565b905082815260208101848484011115613fc357613fc2613ed4565b5b613fce848285613f85565b509392505050565b600082601f830112613feb57613fea613aa7565b5b8135613ffb848260208601613f94565b91505092915050565b6000806000806080858703121561401e5761401d6134e9565b5b600061402c878288016137cc565b945050602061403d878288016137cc565b935050604061404e878288016139a8565b925050606085013567ffffffffffffffff81111561406f5761406e6134ee565b5b61407b87828801613fd6565b91505092959194509250565b6000806040838503121561409e5761409d6134e9565b5b60006140ac858286016137cc565b92505060206140bd858286016137cc565b9150509250929050565b610140820160008201516140de60008501826135e4565b5060208201516140f160208501826135e4565b50604082015161410460408501826135e4565b50606082015161411760608501826135e4565b50608082015161412a60808501826135e4565b5060a082015161413d60a08501826135e4565b5060c082015161415060c08501826135e4565b5060e082015161416360e0850182613625565b50610100820151614178610100850182613634565b5061012082015161418d610120850182613634565b50505050565b6000610140820190506141a960008301846140c7565b92915050565b7f4e487b7100000000000000000000000000000000000000000000000000000000600052603260045260246000fd5b7f4e487b7100000000000000000000000000000000000000000000000000000000600052602260045260246000fd5b6000600282049050600182168061422557607f821691505b602082108103614238576142376141de565b5b50919050565b7f4552433732313a20617070726f76616c20746f2063757272656e74206f776e6560008201527f7200000000000000000000000000000000000000000000000000000000000000602082015250565b600061429a6021836138ea565b91506142a58261423e565b604082019050919050565b600060208201905081810360008301526142c98161428d565b9050919050565b7f4552433732313a20617070726f76652063616c6c6572206973206e6f7420746f60008201527f6b656e206f776e6572206f7220617070726f76656420666f7220616c6c000000602082015250565b600061432c603d836138ea565b9150614337826142d0565b604082019050919050565b6000602082019050818103600083015261435b8161431f565b9050919050565b7f4552433732313a2063616c6c6572206973206e6f7420746f6b656e206f776e6560008201527f72206f7220617070726f76656400000000000000000000000000000000000000602082015250565b60006143be602d836138ea565b91506143c982614362565b604082019050919050565b600060208201905081810360008301526143ed816143b1565b9050919050565b7f546f74616c207469636b657473206d757374206265206772656174657220746860008201527f616e203000000000000000000000000000000000000000000000000000000000602082015250565b60006144506024836138ea565b915061445b826143f4565b604082019050919050565b6000602082019050818103600083015261447f81614443565b9050919050565b7f5469636b6574207072696365206d75737420626520677265617465722074686160008201527f6e20300000000000000000000000000000000000000000000000000000000000602082015250565b60006144e26023836138ea565b91506144ed82614486565b604082019050919050565b60006020820190508181036000830152614511816144d5565b9050919050565b7f5469636b657420656e642064617465206d75737420626520696e20746865206660008201527f7574757265000000000000000000000000000000000000000000000000000000602082015250565b60006145746025836138ea565b915061457f82614518565b604082019050919050565b600060208201905081810360008301526145a381614567565b9050919050565b60006080820190506145bf6000830187613bd4565b6145cc6020830186613bd4565b6145d96040830185613bd4565b6145e66060830184613bd4565b95945050505050565b7f496e76616c6964206e756d626572206f66207469636b65747300000000000000600082015250565b60006146256019836138ea565b9150614630826145ef565b602082019050919050565b6000602082019050818103600083015261465481614618565b9050919050565b7f4e6f7420656e6f756768207469636b65747320736f6c64000000000000000000600082015250565b60006146916017836138ea565b915061469c8261465b565b602082019050919050565b600060208201905081810360008301526146c081614684565b9050919050565b7f5469636b65742063616e6e6f74206265207265736f6c64207965740000000000600082015250565b60006146fd601b836138ea565b9150614708826146c7565b602082019050919050565b6000602082019050818103600083015261472c816146f0565b9050919050565b7f4e487b7100000000000000000000000000000000000000000000000000000000600052601160045260246000fd5b600061476d826135da565b9150614778836135da565b92508282019050808211156147905761478f614733565b5b92915050565b7f4e6f7420656e6f756768207469636b657473206f776e65640000000000000000600082015250565b60006147cc6018836138ea565b91506147d782614796565b602082019050919050565b600060208201905081810360008301526147fb816147bf565b9050919050565b7f43616e6e6f7420726573656c6c206d6f7265207469636b657473207468616e2060008201527f6f776e6564000000000000000000000000000000000000000000000000000000602082015250565b600061485e6025836138ea565b915061486982614802565b604082019050919050565b6000602082019050818103600083015261488d81614851565b9050919050565b60006040820190506148a960008301856139ea565b6148b66020830184613bd4565b9392505050565b7f4552433732313a20696e76616c696420746f6b656e2049440000000000000000600082015250565b60006148f36018836138ea565b91506148fe826148bd565b602082019050919050565b60006020820190508181036000830152614922816148e6565b9050919050565b7f4552433732313a2061646472657373207a65726f206973206e6f74206120766160008201527f6c6964206f776e65720000000000000000000000000000000000000000000000602082015250565b60006149856029836138ea565b915061499082614929565b604082019050919050565b600060208201905081810360008301526149b481614978565b9050919050565b7f5469636b65742068617320616c7265616479206265656e20736f6c6400000000600082015250565b60006149f1601c836138ea565b91506149fc826149bb565b602082019050919050565b60006020820190508181036000830152614a20816149e4565b9050919050565b6000614a32826135da565b9150614a3d836135da565b9250828203905081811115614a5557614a54614733565b5b92915050565b6000614a66826135da565b9150614a71836135da565b9250828202614a7f816135da565b91508282048414831517614a9657614a95614733565b5b5092915050565b7f496e636f727265637420616d6f756e742073656e740000000000000000000000600082015250565b6000614ad36015836138ea565b9150614ade82614a9d565b602082019050919050565b60006020820190508181036000830152614b0281614ac6565b9050919050565b6000614b14826135da565b91507fffffffffffffffffffffffffffffffffffffffffffffffffffffffffffffffff8203614b4657614b45614733565b5b600182019050919050565b600081905092915050565b6000614b67826138df565b614b718185614b51565b9350614b818185602086016138fb565b80840191505092915050565b6000614b998285614b5c565b9150614ba58284614b5c565b91508190509392505050565b7f4e6f7420656e6f756768207469636b65747320617661696c61626c6520666f7260008201527f20726573616c6500000000000000000000000000000000000000000000000000602082015250565b6000614c0d6027836138ea565b9150614c1882614bb1565b604082019050919050565b60006020820190508181036000830152614c3c81614c00565b9050919050565b6000606082019050614c5860008301866139ea565b614c6560208301856139ea565b614c726040830184613bd4565b949350505050565b7f4f776e61626c653a206e6577206f776e657220697320746865207a65726f206160008201527f6464726573730000000000000000000000000000000000000000000000000000602082015250565b6000614cd66026836138ea565b9150614ce182614c7a565b604082019050919050565b60006020820190508181036000830152614d0581614cc9565b9050919050565b7f4552433732313a207472616e736665722066726f6d20696e636f72726563742060008201527f6f776e6572000000000000000000000000000000000000000000000000000000602082015250565b6000614d686025836138ea565b9150614d7382614d0c565b604082019050919050565b60006020820190508181036000830152614d9781614d5b565b9050919050565b7f4552433732313a207472616e7366657220746f20746865207a65726f2061646460008201527f7265737300000000000000000000000000000000000000000000000000000000602082015250565b6000614dfa6024836138ea565b9150614e0582614d9e565b604082019050919050565b60006020820190508181036000830152614e2981614ded565b9050919050565b7f4f776e61626c653a2063616c6c6572206973206e6f7420746865206f776e6572600082015250565b6000614e666020836138ea565b9150614e7182614e30565b602082019050919050565b60006020820190508181036000830152614e9581614e59565b9050919050565b7f45524337323155524953746f726167653a2055524920736574206f66206e6f6e60008201527f6578697374656e7420746f6b656e000000000000000000000000000000000000602082015250565b6000614ef8602e836138ea565b9150614f0382614e9c565b604082019050919050565b60006020820190508181036000830152614f2781614eeb565b9050919050565b60008190508160005260206000209050919050565b60006020601f8301049050919050565b600082821b905092915050565b600060088302614f907fffffffffffffffffffffffffffffffffffffffffffffffffffffffffffffffff82614f53565b614f9a8683614f53565b95508019841693508086168417925050509392505050565b6000819050919050565b6000614fd7614fd2614fcd846135da565b614fb2565b6135da565b9050919050565b6000819050919050565b614ff183614fbc565b615005614ffd82614fde565b848454614f60565b825550505050565b600090565b61501a61500d565b615025818484614fe8565b505050565b5b818110156150495761503e600082615012565b60018101905061502b565b5050565b601f82111561508e5761505f81614f2e565b61506884614f43565b81016020851015615077578190505b61508b61508385614f43565b83018261502a565b50505b505050565b600082821c905092915050565b60006150b160001984600802615093565b1980831691505092915050565b60006150ca83836150a0565b9150826002028217905092915050565b6150e3826138df565b67ffffffffffffffff8111156150fc576150fb613ed9565b5b615106825461420d565b61511182828561504d565b600060209050601f8311600181146151445760008415615132578287015190505b61513c85826150be565b8655506151a4565b601f19841661515286614f2e565b60005b8281101561517a57848901518255600182019150602085019450602081019050615155565b868310156151975784890151615193601f8916826150a0565b8355505b6001600288020188555050505b505050505050565b7f4552433732313a20617070726f766520746f2063616c6c657200000000000000600082015250565b60006151e26019836138ea565b91506151ed826151ac565b602082019050919050565b60006020820190508181036000830152615211816151d5565b9050919050565b7f4552433732313a207472616e7366657220746f206e6f6e20455243373231526560008201527f63656976657220696d706c656d656e7465720000000000000000000000000000602082015250565b60006152746032836138ea565b915061527f82615218565b604082019050919050565b600060208201905081810360008301526152a381615267565b9050919050565b600081519050919050565b600082825260208201905092915050565b60006152d1826152aa565b6152db81856152b5565b93506152eb8185602086016138fb565b6152f481613925565b840191505092915050565b600060808201905061531460008301876139ea565b61532160208301866139ea565b61532e6040830185613bd4565b818103606083015261534081846152c6565b905095945050505050565b60008151905061535a8161351f565b92915050565b600060208284031215615376576153756134e9565b5b60006153848482850161534b565b91505092915050565b7f4e487b7100000000000000000000000000000000000000000000000000000000600052601260045260246000fd5b7f4552433732313a206d696e7420746f20746865207a65726f2061646472657373600082015250565b60006153f26020836138ea565b91506153fd826153bc565b602082019050919050565b60006020820190508181036000830152615421816153e5565b9050919050565b7f4552433732313a20746f6b656e20616c7265616479206d696e74656400000000600082015250565b600061545e601c836138ea565b915061546982615428565b602082019050919050565b6000602082019050818103600083015261548d81615451565b905091905056fea2646970667358221220d3f314afb51b08987ae15f7d1bad00189260c1833dd38b92f5f7768abd92ef6264736f6c63430008180033",
  "linkReferences": {},
  "deployedLinkReferences": {}
}