{
  "_format": "hh-sol-artifact-1",
  "contractName": "Ticket",
  "sourceName": "contracts/Lock.sol",
  "abi": [
    {
      "inputs": [
        {
          "internalType": "uint256",
          "name": "_creationFeePercentage",
          "type": "uint256"
        },
        {
          "internalType": "uint256",
          "name": "_purchaseFeePercentage",
          "type": "uint256"
        },
        {
          "internalType": "uint256",
          "name": "_resellingFeePercentage",
          "type": "uint256"
        }
      ],
      "stateMutability": "nonpayable",
      "type": "constructor"
    },
    {
      "anonymous": false,
      "inputs": [
        {
          "indexed": true,
          "internalType": "address",
          "name": "owner",
          "type": "address"
        },
        {
          "indexed": true,
          "internalType": "address",
          "name": "approved",
          "type": "address"
        },
        {
          "indexed": true,
          "internalType": "uint256",
          "name": "tokenId",
          "type": "uint256"
        }
      ],
      "name": "Approval",
      "type": "event"
    },
    {
      "anonymous": false,
      "inputs": [
        {
          "indexed": true,
          "internalType": "address",
          "name": "owner",
          "type": "address"
        },
        {
          "indexed": true,
          "internalType": "address",
          "name": "operator",
          "type": "address"
        },
        {
          "indexed": false,
          "internalType": "bool",
          "name": "approved",
          "type": "bool"
        }
      ],
      "name": "ApprovalForAll",
      "type": "event"
    },
    {
      "anonymous": false,
      "inputs": [
        {
          "indexed": false,
          "internalType": "uint256",
          "name": "_fromTokenId",
          "type": "uint256"
        },
        {
          "indexed": false,
          "internalType": "uint256",
          "name": "_toTokenId",
          "type": "uint256"
        }
      ],
      "name": "BatchMetadataUpdate",
      "type": "event"
    },
    {
      "anonymous": false,
      "inputs": [
        {
          "indexed": false,
          "internalType": "uint256",
          "name": "_tokenId",
          "type": "uint256"
        }
      ],
      "name": "MetadataUpdate",
      "type": "event"
    },
    {
      "anonymous": false,
      "inputs": [
        {
          "indexed": true,
          "internalType": "address",
          "name": "previousOwner",
          "type": "address"
        },
        {
          "indexed": true,
          "internalType": "address",
          "name": "newOwner",
          "type": "address"
        }
      ],
      "name": "OwnershipTransferred",
      "type": "event"
    },
    {
      "anonymous": false,
      "inputs": [
        {
          "indexed": true,
          "internalType": "uint256",
          "name": "tokenId",
          "type": "uint256"
        },
        {
          "indexed": false,
          "internalType": "uint256",
          "name": "totalTickets",
          "type": "uint256"
        },
        {
          "indexed": false,
          "internalType": "uint256",
          "name": "ticketPrice",
          "type": "uint256"
        },
        {
          "indexed": false,
          "internalType": "uint256",
          "name": "ticketStartDate",
          "type": "uint256"
        },
        {
          "indexed": false,
          "internalType": "uint256",
          "name": "ticketEndDate",
          "type": "uint256"
        }
      ],
      "name": "TicketCreated",
      "type": "event"
    },
    {
      "anonymous": false,
      "inputs": [
        {
          "indexed": true,
          "internalType": "uint256",
          "name": "tokenId",
          "type": "uint256"
        },
        {
          "indexed": false,
          "internalType": "address",
          "name": "buyer",
          "type": "address"
        },
        {
          "indexed": false,
          "internalType": "uint256",
          "name": "ticketsBought",
          "type": "uint256"
        }
      ],
      "name": "TicketPurchased",
      "type": "event"
    },
    {
      "anonymous": false,
      "inputs": [
        {
          "indexed": true,
          "internalType": "uint256",
          "name": "tokenId",
          "type": "uint256"
        },
        {
          "indexed": false,
          "internalType": "address",
          "name": "reseller",
          "type": "address"
        },
        {
          "indexed": false,
          "internalType": "uint256",
          "name": "ticketsBought",
          "type": "uint256"
        }
      ],
      "name": "TicketResell",
      "type": "event"
    },
    {
      "anonymous": false,
      "inputs": [
        {
          "indexed": true,
          "internalType": "uint256",
          "name": "tokenId",
          "type": "uint256"
        },
        {
          "indexed": false,
          "internalType": "address",
          "name": "reseller",
          "type": "address"
        },
        {
          "indexed": false,
          "internalType": "address",
          "name": "rebuyer",
          "type": "address"
        },
        {
          "indexed": false,
          "internalType": "uint256",
          "name": "ticketsBought",
          "type": "uint256"
        }
      ],
      "name": "TicketResold",
      "type": "event"
    },
    {
      "anonymous": false,
      "inputs": [
        {
          "indexed": true,
          "internalType": "address",
          "name": "from",
          "type": "address"
        },
        {
          "indexed": true,
          "internalType": "address",
          "name": "to",
          "type": "address"
        },
        {
          "indexed": true,
          "internalType": "uint256",
          "name": "tokenId",
          "type": "uint256"
        }
      ],
      "name": "Transfer",
      "type": "event"
    },
    {
      "inputs": [
        {
          "internalType": "address",
          "name": "to",
          "type": "address"
        },
        {
          "internalType": "uint256",
          "name": "tokenId",
          "type": "uint256"
        }
      ],
      "name": "approve",
      "outputs": [],
      "stateMutability": "nonpayable",
      "type": "function"
    },
    {
      "inputs": [
        {
          "internalType": "address",
          "name": "owner",
          "type": "address"
        }
      ],
      "name": "balanceOf",
      "outputs": [
        {
          "internalType": "uint256",
          "name": "",
          "type": "uint256"
        }
      ],
      "stateMutability": "view",
      "type": "function"
    },
    {
      "inputs": [
        {
          "internalType": "string",
          "name": "tokenURI",
          "type": "string"
        },
        {
          "internalType": "uint256",
          "name": "_totalTickets",
          "type": "uint256"
        },
        {
          "internalType": "uint256",
          "name": "_ticketPrice",
          "type": "uint256"
        },
        {
          "internalType": "uint256",
          "name": "_ticketEndDate",
          "type": "uint256"
        }
      ],
      "name": "createTicket",
      "outputs": [],
      "stateMutability": "payable",
      "type": "function"
    },
    {
      "inputs": [],
      "name": "creationFeePercentage",
      "outputs": [
        {
          "internalType": "uint256",
          "name": "",
          "type": "uint256"
        }
      ],
      "stateMutability": "view",
      "type": "function"
    },
    {
      "inputs": [
        {
          "internalType": "uint256",
          "name": "tokenId",
          "type": "uint256"
        }
      ],
      "name": "getApproved",
      "outputs": [
        {
          "internalType": "address",
          "name": "",
          "type": "address"
        }
      ],
      "stateMutability": "view",
      "type": "function"
    },
    {
      "inputs": [],
      "name": "getCreationFeePercentage",
      "outputs": [
        {
          "internalType": "uint256",
          "name": "",
          "type": "uint256"
        }
      ],
      "stateMutability": "view",
      "type": "function"
    },
    {
      "inputs": [],
      "name": "getPurchaseFeePercentage",
      "outputs": [
        {
          "internalType": "uint256",
          "name": "",
          "type": "uint256"
        }
      ],
      "stateMutability": "view",
      "type": "function"
    },
    {
      "inputs": [
        {
          "internalType": "uint256",
          "name": "tokenID",
          "type": "uint256"
        }
      ],
      "name": "getPurchaseInfo",
      "outputs": [
        {
          "components": [
            {
              "internalType": "uint256",
              "name": "ticketsBought",
              "type": "uint256"
            },
            {
              "internalType": "uint256",
              "name": "ticketsToResell",
              "type": "uint256"
            },
            {
              "internalType": "uint256",
              "name": "totalPrice",
              "type": "uint256"
            },
            {
              "internalType": "uint256",
              "name": "ticketId",
              "type": "uint256"
            },
            {
              "internalType": "uint256",
              "name": "purchaseId",
              "type": "uint256"
            },
            {
              "internalType": "uint256",
              "name": "purchaseTimestamp",
              "type": "uint256"
            },
            {
              "internalType": "address",
              "name": "buyer",
              "type": "address"
            }
          ],
          "internalType": "struct Ticket.PurchaseInfo[]",
          "name": "",
          "type": "tuple[]"
        }
      ],
      "stateMutability": "view",
      "type": "function"
    },
    {
      "inputs": [
        {
          "internalType": "uint256",
          "name": "tokenID",
          "type": "uint256"
        }
      ],
      "name": "getTicketInfo",
      "outputs": [
        {
          "components": [
            {
              "internalType": "uint256",
              "name": "tokenId",
              "type": "uint256"
            },
            {
              "internalType": "uint256",
              "name": "totalTickets",
              "type": "uint256"
            },
            {
              "internalType": "uint256",
              "name": "ticketsSold",
              "type": "uint256"
            },
            {
              "internalType": "uint256",
              "name": "ticketPrice",
              "type": "uint256"
            },
            {
              "internalType": "uint256",
              "name": "ticketStartDate",
              "type": "uint256"
            },
            {
              "internalType": "uint256",
              "name": "ticketEndDate",
              "type": "uint256"
            },
            {
              "internalType": "uint256",
              "name": "ticketHoldDate",
              "type": "uint256"
            },
            {
              "internalType": "address",
              "name": "creator",
              "type": "address"
            },
            {
              "internalType": "bool",
              "name": "ticketSold",
              "type": "bool"
            },
            {
              "internalType": "bool",
              "name": "isResellable",
              "type": "bool"
            }
          ],
          "internalType": "struct Ticket.TicketInfo",
          "name": "",
          "type": "tuple"
        }
      ],
      "stateMutability": "view",
      "type": "function"
    },
    {
      "inputs": [
        {
          "internalType": "address",
          "name": "user",
          "type": "address"
        }
      ],
      "name": "getUserTickets",
      "outputs": [
        {
          "internalType": "uint256[]",
          "name": "",
          "type": "uint256[]"
        }
      ],
      "stateMutability": "view",
      "type": "function"
    },
    {
      "inputs": [
        {
          "internalType": "address",
          "name": "owner",
          "type": "address"
        },
        {
          "internalType": "address",
          "name": "operator",
          "type": "address"
        }
      ],
      "name": "isApprovedForAll",
      "outputs": [
        {
          "internalType": "bool",
          "name": "",
          "type": "bool"
        }
      ],
      "stateMutability": "view",
      "type": "function"
    },
    {
      "inputs": [],
      "name": "name",
      "outputs": [
        {
          "internalType": "string",
          "name": "",
          "type": "string"
        }
      ],
      "stateMutability": "view",
      "type": "function"
    },
    {
      "inputs": [],
      "name": "owner",
      "outputs": [
        {
          "internalType": "address",
          "name": "",
          "type": "address"
        }
      ],
      "stateMutability": "view",
      "type": "function"
    },
    {
      "inputs": [
        {
          "internalType": "uint256",
          "name": "tokenId",
          "type": "uint256"
        }
      ],
      "name": "ownerOf",
      "outputs": [
        {
          "internalType": "address",
          "name": "",
          "type": "address"
        }
      ],
      "stateMutability": "view",
      "type": "function"
    },
    {
      "inputs": [],
      "name": "purchaseFeePercentage",
      "outputs": [
        {
          "internalType": "uint256",
          "name": "",
          "type": "uint256"
        }
      ],
      "stateMutability": "view",
      "type": "function"
    },
    {
      "inputs": [
        {
          "internalType": "uint256",
          "name": "tokenID",
          "type": "uint256"
        },
        {
          "internalType": "uint256",
          "name": "ticketsToBuy",
          "type": "uint256"
        }
      ],
      "name": "purchaseTicket",
      "outputs": [],
      "stateMutability": "payable",
      "type": "function"
    },
    {
      "inputs": [
        {
          "internalType": "uint256",
          "name": "tokenId",
          "type": "uint256"
        },
        {
          "internalType": "uint256",
          "name": "buyticketId",
          "type": "uint256"
        }
      ],
      "name": "reBuyTicket",
      "outputs": [],
      "stateMutability": "payable",
      "type": "function"
    },
    {
      "inputs": [],
      "name": "renounceOwnership",
      "outputs": [],
      "stateMutability": "nonpayable",
      "type": "function"
    },
    {
      "inputs": [
        {
          "internalType": "uint256",
          "name": "tokenId",
          "type": "uint256"
        },
        {
          "internalType": "uint256",
          "name": "ticketsToSell",
          "type": "uint256"
        }
      ],
      "name": "resellTicket",
      "outputs": [],
      "stateMutability": "nonpayable",
      "type": "function"
    },
    {
      "inputs": [],
      "name": "resellingFeePercentage",
      "outputs": [
        {
          "internalType": "uint256",
          "name": "",
          "type": "uint256"
        }
      ],
      "stateMutability": "view",
      "type": "function"
    },
    {
      "inputs": [
        {
          "internalType": "address",
          "name": "from",
          "type": "address"
        },
        {
          "internalType": "address",
          "name": "to",
          "type": "address"
        },
        {
          "internalType": "uint256",
          "name": "tokenId",
          "type": "uint256"
        }
      ],
      "name": "safeTransferFrom",
      "outputs": [],
      "stateMutability": "nonpayable",
      "type": "function"
    },
    {
      "inputs": [
        {
          "internalType": "address",
          "name": "from",
          "type": "address"
        },
        {
          "internalType": "address",
          "name": "to",
          "type": "address"
        },
        {
          "internalType": "uint256",
          "name": "tokenId",
          "type": "uint256"
        },
        {
          "internalType": "bytes",
          "name": "data",
          "type": "bytes"
        }
      ],
      "name": "safeTransferFrom",
      "outputs": [],
      "stateMutability": "nonpayable",
      "type": "function"
    },
    {
      "inputs": [
        {
          "internalType": "address",
          "name": "operator",
          "type": "address"
        },
        {
          "internalType": "bool",
          "name": "approved",
          "type": "bool"
        }
      ],
      "name": "setApprovalForAll",
      "outputs": [],
      "stateMutability": "nonpayable",
      "type": "function"
    },
    {
      "inputs": [
        {
          "internalType": "bytes4",
          "name": "interfaceId",
          "type": "bytes4"
        }
      ],
      "name": "supportsInterface",
      "outputs": [
        {
          "internalType": "bool",
          "name": "",
          "type": "bool"
        }
      ],
      "stateMutability": "view",
      "type": "function"
    },
    {
      "inputs": [],
      "name": "symbol",
      "outputs": [
        {
          "internalType": "string",
          "name": "",
          "type": "string"
        }
      ],
      "stateMutability": "view",
      "type": "function"
    },
    {
      "inputs": [
        {
          "internalType": "uint256",
          "name": "",
          "type": "uint256"
        },
        {
          "internalType": "uint256",
          "name": "",
          "type": "uint256"
        }
      ],
      "name": "ticketPurchases",
      "outputs": [
        {
          "internalType": "uint256",
          "name": "ticketsBought",
          "type": "uint256"
        },
        {
          "internalType": "uint256",
          "name": "ticketsToResell",
          "type": "uint256"
        },
        {
          "internalType": "uint256",
          "name": "totalPrice",
          "type": "uint256"
        },
        {
          "internalType": "uint256",
          "name": "ticketId",
          "type": "uint256"
        },
        {
          "internalType": "uint256",
          "name": "purchaseId",
          "type": "uint256"
        },
        {
          "internalType": "uint256",
          "name": "purchaseTimestamp",
          "type": "uint256"
        },
        {
          "internalType": "address",
          "name": "buyer",
          "type": "address"
        }
      ],
      "stateMutability": "view",
      "type": "function"
    },
    {
      "inputs": [
        {
          "internalType": "uint256",
          "name": "",
          "type": "uint256"
        }
      ],
      "name": "tickets",
      "outputs": [
        {
          "internalType": "uint256",
          "name": "tokenId",
          "type": "uint256"
        },
        {
          "internalType": "uint256",
          "name": "totalTickets",
          "type": "uint256"
        },
        {
          "internalType": "uint256",
          "name": "ticketsSold",
          "type": "uint256"
        },
        {
          "internalType": "uint256",
          "name": "ticketPrice",
          "type": "uint256"
        },
        {
          "internalType": "uint256",
          "name": "ticketStartDate",
          "type": "uint256"
        },
        {
          "internalType": "uint256",
          "name": "ticketEndDate",
          "type": "uint256"
        },
        {
          "internalType": "uint256",
          "name": "ticketHoldDate",
          "type": "uint256"
        },
        {
          "internalType": "address",
          "name": "creator",
          "type": "address"
        },
        {
          "internalType": "bool",
          "name": "ticketSold",
          "type": "bool"
        },
        {
          "internalType": "bool",
          "name": "isResellable",
          "type": "bool"
        }
      ],
      "stateMutability": "view",
      "type": "function"
    },
    {
      "inputs": [
        {
          "internalType": "uint256",
          "name": "tokenId",
          "type": "uint256"
        }
      ],
      "name": "tokenURI",
      "outputs": [
        {
          "internalType": "string",
          "name": "",
          "type": "string"
        }
      ],
      "stateMutability": "view",
      "type": "function"
    },
    {
      "inputs": [
        {
          "internalType": "address",
          "name": "from",
          "type": "address"
        },
        {
          "internalType": "address",
          "name": "to",
          "type": "address"
        },
        {
          "internalType": "uint256",
          "name": "tokenId",
          "type": "uint256"
        }
      ],
      "name": "transferFrom",
      "outputs": [],
      "stateMutability": "nonpayable",
      "type": "function"
    },
    {
      "inputs": [
        {
          "internalType": "address",
          "name": "newOwner",
          "type": "address"
        }
      ],
      "name": "transferOwnership",
      "outputs": [],
      "stateMutability": "nonpayable",
      "type": "function"
    },
    {
      "inputs": [
        {
          "internalType": "uint256",
          "name": "_creationFeePercentage",
          "type": "uint256"
        }
      ],
      "name": "updateCreationFeePercentage",
      "outputs": [],
      "stateMutability": "nonpayable",
      "type": "function"
    },
    {
      "inputs": [
        {
          "internalType": "uint256",
          "name": "_purchaseFeePercentage",
          "type": "uint256"
        }
      ],
      "name": "updatePurchaseFeePercentage",
      "outputs": [],
      "stateMutability": "nonpayable",
      "type": "function"
    },
    {
      "inputs": [
        {
          "internalType": "address",
          "name": "",
          "type": "address"
        },
        {
          "internalType": "uint256",
          "name": "",
          "type": "uint256"
        }
      ],
      "name": "userTickets",
      "outputs": [
        {
          "internalType": "uint256",
          "name": "",
          "type": "uint256"
        }
      ],
      "stateMutability": "view",
      "type": "function"
    }
  ],
  "bytecode": "0x60806040523480156200001157600080fd5b506040516200573638038062005736833981810160405281019062000037919062000215565b6040518060400160405280600681526020017f5469636b657400000000000000000000000000000000000000000000000000008152506040518060400160405280600681526020017f5449434b455400000000000000000000000000000000000000000000000000008152508160009081620000b49190620004e1565b508060019081620000c69190620004e1565b505050620000e9620000dd6200010760201b60201c565b6200010f60201b60201c565b8260098190555081600a8190555080600b81905550505050620005c8565b600033905090565b6000600760009054906101000a900473ffffffffffffffffffffffffffffffffffffffff16905081600760006101000a81548173ffffffffffffffffffffffffffffffffffffffff021916908373ffffffffffffffffffffffffffffffffffffffff1602179055508173ffffffffffffffffffffffffffffffffffffffff168173ffffffffffffffffffffffffffffffffffffffff167f8be0079c531659141344cd1fd0a4f28419497f9722a3daafe3b4186f6b6457e060405160405180910390a35050565b600080fd5b6000819050919050565b620001ef81620001da565b8114620001fb57600080fd5b50565b6000815190506200020f81620001e4565b92915050565b600080600060608486031215620002315762000230620001d5565b5b60006200024186828701620001fe565b93505060206200025486828701620001fe565b92505060406200026786828701620001fe565b9150509250925092565b600081519050919050565b7f4e487b7100000000000000000000000000000000000000000000000000000000600052604160045260246000fd5b7f4e487b7100000000000000000000000000000000000000000000000000000000600052602260045260246000fd5b60006002820490506001821680620002f357607f821691505b602082108103620003095762000308620002ab565b5b50919050565b60008190508160005260206000209050919050565b60006020601f8301049050919050565b600082821b905092915050565b600060088302620003737fffffffffffffffffffffffffffffffffffffffffffffffffffffffffffffffff8262000334565b6200037f868362000334565b95508019841693508086168417925050509392505050565b6000819050919050565b6000620003c2620003bc620003b684620001da565b62000397565b620001da565b9050919050565b6000819050919050565b620003de83620003a1565b620003f6620003ed82620003c9565b84845462000341565b825550505050565b600090565b6200040d620003fe565b6200041a818484620003d3565b505050565b5b8181101562000442576200043660008262000403565b60018101905062000420565b5050565b601f82111562000491576200045b816200030f565b620004668462000324565b8101602085101562000476578190505b6200048e620004858562000324565b8301826200041f565b50505b505050565b600082821c905092915050565b6000620004b66000198460080262000496565b1980831691505092915050565b6000620004d18383620004a3565b9150826002028217905092915050565b620004ec8262000271565b67ffffffffffffffff8111156200050857620005076200027c565b5b620005148254620002da565b6200052182828562000446565b600060209050601f83116001811462000559576000841562000544578287015190505b620005508582620004c3565b865550620005c0565b601f19841662000569866200030f565b60005b8281101562000593578489015182556001820191506020850194506020810190506200056c565b86831015620005b35784890151620005af601f891682620004a3565b8355505b6001600288020188555050505b505050505050565b61515e80620005d86000396000f3fe6080604052600436106101ee5760003560e01c8063715018a61161010d578063b88d4fde116100a0578063d615d1211161006f578063d615d12114610728578063d91043f214610744578063e985e9c51461076f578063f2fde38b146107ac578063ff99a063146107d5576101ee565b8063b88d4fde14610669578063bdbbb0cb14610692578063c87b56dd146106ae578063cf260baf146106eb576101ee565b8063a22cb465116100dc578063a22cb465146105a9578063a4646ba7146105d2578063b57b0de714610615578063b5e1a3c01461063e576101ee565b8063715018a6146105115780638412153f146105285780638da5cb5b1461055357806395d89b411461057e576101ee565b8063348e99131161018557806350b447121161015457806350b4471214610414578063588750491461045a5780636352211e1461049757806370a08231146104d4576101ee565b8063348e99131461036c5780633df8cd721461039557806342842e0e146103c0578063461c3e21146103e9576101ee565b8063095ea7b3116101c1578063095ea7b3146102d557806323b872dd146102fe57806329520cae146103275780632decc62b14610350576101ee565b806301ffc9a7146101f35780630484a22f1461023057806306fdde031461026d578063081812fc14610298575b600080fd5b3480156101ff57600080fd5b5061021a6004803603810190610215919061337d565b610812565b60405161022791906133c5565b60405180910390f35b34801561023c57600080fd5b506102576004803603810190610252919061343e565b610873565b6040516102649190613533565b60405180910390f35b34801561027957600080fd5b5061028261090a565b60405161028f91906135e5565b60405180910390f35b3480156102a457600080fd5b506102bf60048036038101906102ba9190613633565b61099c565b6040516102cc919061366f565b60405180910390f35b3480156102e157600080fd5b506102fc60048036038101906102f7919061368a565b6109e2565b005b34801561030a57600080fd5b50610325600480360381019061032091906136ca565b610af9565b005b34801561033357600080fd5b5061034e60048036038101906103499190613633565b610b59565b005b61036a60048036038101906103659190613782565b610b6b565b005b34801561037857600080fd5b50610393600480360381019061038e919061380a565b610e8e565b005b3480156103a157600080fd5b506103aa61129a565b6040516103b79190613859565b60405180910390f35b3480156103cc57600080fd5b506103e760048036038101906103e291906136ca565b6112a0565b005b3480156103f557600080fd5b506103fe6112c0565b60405161040b9190613859565b60405180910390f35b34801561042057600080fd5b5061043b60048036038101906104369190613633565b6112ca565b6040516104519a99989796959493929190613874565b60405180910390f35b34801561046657600080fd5b50610481600480360381019061047c9190613633565b611358565b60405161048e9190613a5c565b60405180910390f35b3480156104a357600080fd5b506104be60048036038101906104b99190613633565b61145c565b6040516104cb919061366f565b60405180910390f35b3480156104e057600080fd5b506104fb60048036038101906104f6919061343e565b6114e2565b6040516105089190613859565b60405180910390f35b34801561051d57600080fd5b50610526611599565b005b34801561053457600080fd5b5061053d6115ad565b60405161054a9190613859565b60405180910390f35b34801561055f57600080fd5b506105686115b3565b604051610575919061366f565b60405180910390f35b34801561058a57600080fd5b506105936115dd565b6040516105a091906135e5565b60405180910390f35b3480156105b557600080fd5b506105d060048036038101906105cb9190613aaa565b61166f565b005b3480156105de57600080fd5b506105f960048036038101906105f4919061380a565b611685565b60405161060c9796959493929190613aea565b60405180910390f35b34801561062157600080fd5b5061063c60048036038101906106379190613633565b611704565b005b34801561064a57600080fd5b50610653611716565b6040516106609190613859565b60405180910390f35b34801561067557600080fd5b50610690600480360381019061068b9190613c89565b611720565b005b6106ac60048036038101906106a7919061380a565b611782565b005b3480156106ba57600080fd5b506106d560048036038101906106d09190613633565b611bcd565b6040516106e291906135e5565b60405180910390f35b3480156106f757600080fd5b50610712600480360381019061070d919061368a565b611cdf565b60405161071f9190613859565b60405180910390f35b610742600480360381019061073d919061380a565b611d10565b005b34801561075057600080fd5b50610759611f63565b6040516107669190613859565b60405180910390f35b34801561077b57600080fd5b5061079660048036038101906107919190613d0c565b611f69565b6040516107a391906133c5565b60405180910390f35b3480156107b857600080fd5b506107d360048036038101906107ce919061343e565b611ffd565b005b3480156107e157600080fd5b506107fc60048036038101906107f79190613633565b612080565b6040516108099190613e27565b60405180910390f35b6000634906490660e01b7bffffffffffffffffffffffffffffffffffffffffffffffffffffffff1916827bffffffffffffffffffffffffffffffffffffffffffffffffffffffff1916148061086c575061086b82612180565b5b9050919050565b6060600d60008373ffffffffffffffffffffffffffffffffffffffff1673ffffffffffffffffffffffffffffffffffffffff1681526020019081526020016000208054806020026020016040519081016040528092919081815260200182805480156108fe57602002820191906000526020600020905b8154815260200190600101908083116108ea575b50505050509050919050565b60606000805461091990613e72565b80601f016020809104026020016040519081016040528092919081815260200182805461094590613e72565b80156109925780601f1061096757610100808354040283529160200191610992565b820191906000526020600020905b81548152906001019060200180831161097557829003601f168201915b5050505050905090565b60006109a782612262565b6004600083815260200190815260200160002060009054906101000a900473ffffffffffffffffffffffffffffffffffffffff169050919050565b60006109ed8261145c565b90508073ffffffffffffffffffffffffffffffffffffffff168373ffffffffffffffffffffffffffffffffffffffff1603610a5d576040517f08c379a0000000000000000000000000000000000000000000000000000000008152600401610a5490613f15565b60405180910390fd5b8073ffffffffffffffffffffffffffffffffffffffff16610a7c6122ad565b73ffffffffffffffffffffffffffffffffffffffff161480610aab5750610aaa81610aa56122ad565b611f69565b5b610aea576040517f08c379a0000000000000000000000000000000000000000000000000000000008152600401610ae190613fa7565b60405180910390fd5b610af483836122b5565b505050565b610b0a610b046122ad565b8261236e565b610b49576040517f08c379a0000000000000000000000000000000000000000000000000000000008152600401610b4090614039565b60405180910390fd5b610b54838383612403565b505050565b610b616126fc565b80600a8190555050565b60008311610bae576040517f08c379a0000000000000000000000000000000000000000000000000000000008152600401610ba5906140cb565b60405180910390fd5b60008211610bf1576040517f08c379a0000000000000000000000000000000000000000000000000000000008152600401610be89061415d565b60405180910390fd5b428111610c33576040517f08c379a0000000000000000000000000000000000000000000000000000000008152600401610c2a906141ef565b60405180910390fd5b6000610c3f600861277a565b9050610c4b6008612788565b610c55338261279e565b610ca38187878080601f016020809104026020016040519081016040528093929190818152602001838380828437600081840152601f19601f820116905080830192505050505050506127bc565b600042905060405180610140016040528083815260200186815260200160008152602001858152602001828152602001848152602001600081526020013373ffffffffffffffffffffffffffffffffffffffff16815260200160001515815260200160001515815250600c6000848152602001908152602001600020600082015181600001556020820151816001015560408201518160020155606082015181600301556080820151816004015560a0820151816005015560c0820151816006015560e08201518160070160006101000a81548173ffffffffffffffffffffffffffffffffffffffff021916908373ffffffffffffffffffffffffffffffffffffffff1602179055506101008201518160070160146101000a81548160ff0219169083151502179055506101208201518160070160156101000a81548160ff02191690831515021790555090505060006009549050610e006115b3565b73ffffffffffffffffffffffffffffffffffffffff166108fc829081150290604051600060405180830381858888f19350505050158015610e45573d6000803e3d6000fd5b50827feea3bb912a3441ad5433c22840a518110f72b0e83e07c3c86a790f04cb4ee99487878588604051610e7c949392919061420f565b60405180910390a25050505050505050565b6000600c6000848152602001908152602001600020905060008211610ee8576040517f08c379a0000000000000000000000000000000000000000000000000000000008152600401610edf906142a0565b60405180910390fd5b8060020154821115610f2f576040517f08c379a0000000000000000000000000000000000000000000000000000000008152600401610f269061430c565b60405180910390fd5b806005015481600601541015610f7a576040517f08c379a0000000000000000000000000000000000000000000000000000000008152600401610f7190614378565b60405180910390fd5b60008060005b600e6000878152602001908152602001600020805490508110156110bd573373ffffffffffffffffffffffffffffffffffffffff16600e60008881526020019081526020016000208281548110610fda57610fd9614398565b5b906000526020600020906007020160060160009054906101000a900473ffffffffffffffffffffffffffffffffffffffff1673ffffffffffffffffffffffffffffffffffffffff16036110b057600e6000878152602001908152602001600020818154811061104c5761104b614398565b5b9060005260206000209060070201600001548361106991906143f6565b9250600e600087815260200190815260200160002081815481106110905761108f614398565b5b906000526020600020906007020160010154826110ad91906143f6565b91505b8080600101915050610f80565b5083821015611101576040517f08c379a00000000000000000000000000000000000000000000000000000000081526004016110f890614476565b60405180910390fd5b81848261110e91906143f6565b111561114f576040517f08c379a000000000000000000000000000000000000000000000000000000000815260040161114690614508565b60405180910390fd5b60005b600e600087815260200190815260200160002080549050811015611258573373ffffffffffffffffffffffffffffffffffffffff16600e600088815260200190815260200160002082815481106111ac576111ab614398565b5b906000526020600020906007020160060160009054906101000a900473ffffffffffffffffffffffffffffffffffffffff1673ffffffffffffffffffffffffffffffffffffffff160361124b5784600e6000888152602001908152602001600020828154811061121f5761121e614398565b5b9060005260206000209060070201600101600082825461123f91906143f6565b92505081905550611258565b8080600101915050611152565b50847ff5faf79426a1fb4bc0362d335bf6e794d532c7c33fed7cdf921a59bc3b6dbffe338660405161128b929190614528565b60405180910390a25050505050565b600a5481565b6112bb83838360405180602001604052806000815250611720565b505050565b6000600a54905090565b600c6020528060005260406000206000915090508060000154908060010154908060020154908060030154908060040154908060050154908060060154908060070160009054906101000a900473ffffffffffffffffffffffffffffffffffffffff16908060070160149054906101000a900460ff16908060070160159054906101000a900460ff1690508a565b6060600e6000838152602001908152602001600020805480602002602001604051908101604052809291908181526020016000905b8282101561145157838290600052602060002090600702016040518060e00160405290816000820154815260200160018201548152602001600282015481526020016003820154815260200160048201548152602001600582015481526020016006820160009054906101000a900473ffffffffffffffffffffffffffffffffffffffff1673ffffffffffffffffffffffffffffffffffffffff1673ffffffffffffffffffffffffffffffffffffffff16815250508152602001906001019061138d565b505050509050919050565b60008061146883612860565b9050600073ffffffffffffffffffffffffffffffffffffffff168173ffffffffffffffffffffffffffffffffffffffff16036114d9576040517f08c379a00000000000000000000000000000000000000000000000000000000081526004016114d09061459d565b60405180910390fd5b80915050919050565b60008073ffffffffffffffffffffffffffffffffffffffff168273ffffffffffffffffffffffffffffffffffffffff1603611552576040517f08c379a00000000000000000000000000000000000000000000000000000000081526004016115499061462f565b60405180910390fd5b600360008373ffffffffffffffffffffffffffffffffffffffff1673ffffffffffffffffffffffffffffffffffffffff168152602001908152602001600020549050919050565b6115a16126fc565b6115ab600061289d565b565b600b5481565b6000600760009054906101000a900473ffffffffffffffffffffffffffffffffffffffff16905090565b6060600180546115ec90613e72565b80601f016020809104026020016040519081016040528092919081815260200182805461161890613e72565b80156116655780601f1061163a57610100808354040283529160200191611665565b820191906000526020600020905b81548152906001019060200180831161164857829003601f168201915b5050505050905090565b61168161167a6122ad565b8383612963565b5050565b600e60205281600052604060002081815481106116a157600080fd5b9060005260206000209060070201600091509150508060000154908060010154908060020154908060030154908060040154908060050154908060060160009054906101000a900473ffffffffffffffffffffffffffffffffffffffff16905087565b61170c6126fc565b8060098190555050565b6000600954905090565b61173161172b6122ad565b8361236e565b611770576040517f08c379a000000000000000000000000000000000000000000000000000000000815260040161176790614039565b60405180910390fd5b61177c84848484612acf565b50505050565b6000600c600084815260200190815260200160002090508060070160149054906101000a900460ff16156117eb576040517f08c379a00000000000000000000000000000000000000000000000000000000081526004016117e29061469b565b60405180910390fd5b600382106117f857600080fd5b60008211801561181b57508060020154816001015461181791906146bb565b8211155b61185a576040517f08c379a0000000000000000000000000000000000000000000000000000000008152600401611851906142a0565b60405180910390fd5b600082826003015461186c91906146ef565b90506000600a5490506000818361188391906143f6565b90508034146118c7576040517f08c379a00000000000000000000000000000000000000000000000000000000081526004016118be9061477d565b60405180910390fd5b8360070160009054906101000a900473ffffffffffffffffffffffffffffffffffffffff1673ffffffffffffffffffffffffffffffffffffffff166108fc849081150290604051600060405180830381858888f19350505050158015611931573d6000803e3d6000fd5b5061193a6115b3565b73ffffffffffffffffffffffffffffffffffffffff166108fc839081150290604051600060405180830381858888f1935050505015801561197f573d6000803e3d6000fd5b5060005b85811015611b97576000611997600861277a565b90506119a36008612788565b6119ad338261279e565b6119bf816119ba8a611bcd565b6127bc565b600d60003373ffffffffffffffffffffffffffffffffffffffff1673ffffffffffffffffffffffffffffffffffffffff168152602001908152602001600020819080600181540180825580915050600190039060005260206000200160009091909190915055600e60008281526020019081526020016000206040518060e001604052806001815260200160018152602001886003015481526020018a81526020018381526020014281526020013373ffffffffffffffffffffffffffffffffffffffff168152509080600181540180825580915050600190039060005260206000209060070201600090919091909150600082015181600001556020820151816001015560408201518160020155606082015181600301556080820151816004015560a0820151816005015560c08201518160060160006101000a81548173ffffffffffffffffffffffffffffffffffffffff021916908373ffffffffffffffffffffffffffffffffffffffff1602179055505050856002016000815480929190611b4a9061479d565b9190505550807fdbaaf4c87ce30816c961a81d110622a3227ede77953d4383d514ff88ab2e0fd33389604051611b81929190614528565b60405180910390a2508080600101915050611983565b508360010154846002015403611bc55760018460070160146101000a81548160ff0219169083151502179055505b505050505050565b6060611bd882612262565b6000600660008481526020019081526020016000208054611bf890613e72565b80601f0160208091040260200160405190810160405280929190818152602001828054611c2490613e72565b8015611c715780601f10611c4657610100808354040283529160200191611c71565b820191906000526020600020905b815481529060010190602001808311611c5457829003601f168201915b505050505090506000611c82612b2b565b90506000815103611c97578192505050611cda565b600082511115611ccc578082604051602001611cb4929190614821565b60405160208183030381529060405292505050611cda565b611cd584612b42565b925050505b919050565b600d6020528160005260406000208181548110611cfb57600080fd5b90600052602060002001600091509150505481565b6001600c6000848152602001908152602001600020600201541015611d6a576040517f08c379a0000000000000000000000000000000000000000000000000000000008152600401611d61906148b7565b60405180910390fd5b6000600b54600c600085815260200190815260200160002060030154611d9091906146ef565b600c600085815260200190815260200160002060030154611db191906143f6565b90503373ffffffffffffffffffffffffffffffffffffffff166108fc829081150290604051600060405180830381858888f19350505050158015611df9573d6000803e3d6000fd5b5060005b600e600085815260200190815260200160002080549050811015611f5d5782600e60008681526020019081526020016000208281548110611e4157611e40614398565b5b90600052602060002090600702016003015403611f5057611eb9600e60008681526020019081526020016000208281548110611e8057611e7f614398565b5b906000526020600020906007020160060160009054906101000a900473ffffffffffffffffffffffffffffffffffffffff163385612403565b837fd59a36d8310ffb140214be490baf3fe8961f859a17199ec1bf9015c8b7340011600e60008781526020019081526020016000208381548110611f0057611eff614398565b5b906000526020600020906007020160060160009054906101000a900473ffffffffffffffffffffffffffffffffffffffff163386604051611f43939291906148d7565b60405180910390a2611f5d565b8080600101915050611dfd565b50505050565b60095481565b6000600560008473ffffffffffffffffffffffffffffffffffffffff1673ffffffffffffffffffffffffffffffffffffffff16815260200190815260200160002060008373ffffffffffffffffffffffffffffffffffffffff1673ffffffffffffffffffffffffffffffffffffffff16815260200190815260200160002060009054906101000a900460ff16905092915050565b6120056126fc565b600073ffffffffffffffffffffffffffffffffffffffff168173ffffffffffffffffffffffffffffffffffffffff1603612074576040517f08c379a000000000000000000000000000000000000000000000000000000000815260040161206b90614980565b60405180910390fd5b61207d8161289d565b50565b6120886132a4565b600c600083815260200190815260200160002060405180610140016040529081600082015481526020016001820154815260200160028201548152602001600382015481526020016004820154815260200160058201548152602001600682015481526020016007820160009054906101000a900473ffffffffffffffffffffffffffffffffffffffff1673ffffffffffffffffffffffffffffffffffffffff1673ffffffffffffffffffffffffffffffffffffffff1681526020016007820160149054906101000a900460ff161515151581526020016007820160159054906101000a900460ff1615151515815250509050919050565b60007f80ac58cd000000000000000000000000000000000000000000000000000000007bffffffffffffffffffffffffffffffffffffffffffffffffffffffff1916827bffffffffffffffffffffffffffffffffffffffffffffffffffffffff1916148061224b57507f5b5e139f000000000000000000000000000000000000000000000000000000007bffffffffffffffffffffffffffffffffffffffffffffffffffffffff1916827bffffffffffffffffffffffffffffffffffffffffffffffffffffffff1916145b8061225b575061225a82612baa565b5b9050919050565b61226b81612c14565b6122aa576040517f08c379a00000000000000000000000000000000000000000000000000000000081526004016122a19061459d565b60405180910390fd5b50565b600033905090565b816004600083815260200190815260200160002060006101000a81548173ffffffffffffffffffffffffffffffffffffffff021916908373ffffffffffffffffffffffffffffffffffffffff160217905550808273ffffffffffffffffffffffffffffffffffffffff166123288361145c565b73ffffffffffffffffffffffffffffffffffffffff167f8c5be1e5ebec7d5bd14f71427d1e84f3dd0314c0f7b2291e5b200ac8c7c3b92560405160405180910390a45050565b60008061237a8361145c565b90508073ffffffffffffffffffffffffffffffffffffffff168473ffffffffffffffffffffffffffffffffffffffff1614806123bc57506123bb8185611f69565b5b806123fa57508373ffffffffffffffffffffffffffffffffffffffff166123e28461099c565b73ffffffffffffffffffffffffffffffffffffffff16145b91505092915050565b8273ffffffffffffffffffffffffffffffffffffffff166124238261145c565b73ffffffffffffffffffffffffffffffffffffffff1614612479576040517f08c379a000000000000000000000000000000000000000000000000000000000815260040161247090614a12565b60405180910390fd5b600073ffffffffffffffffffffffffffffffffffffffff168273ffffffffffffffffffffffffffffffffffffffff16036124e8576040517f08c379a00000000000000000000000000000000000000000000000000000000081526004016124df90614aa4565b60405180910390fd5b6124f58383836001612c55565b8273ffffffffffffffffffffffffffffffffffffffff166125158261145c565b73ffffffffffffffffffffffffffffffffffffffff161461256b576040517f08c379a000000000000000000000000000000000000000000000000000000000815260040161256290614a12565b60405180910390fd5b6004600082815260200190815260200160002060006101000a81549073ffffffffffffffffffffffffffffffffffffffff02191690556001600360008573ffffffffffffffffffffffffffffffffffffffff1673ffffffffffffffffffffffffffffffffffffffff168152602001908152602001600020600082825403925050819055506001600360008473ffffffffffffffffffffffffffffffffffffffff1673ffffffffffffffffffffffffffffffffffffffff16815260200190815260200160002060008282540192505081905550816002600083815260200190815260200160002060006101000a81548173ffffffffffffffffffffffffffffffffffffffff021916908373ffffffffffffffffffffffffffffffffffffffff160217905550808273ffffffffffffffffffffffffffffffffffffffff168473ffffffffffffffffffffffffffffffffffffffff167fddf252ad1be2c89b69c2b068fc378daa952ba7f163c4a11628f55a4df523b3ef60405160405180910390a46126f78383836001612c5b565b505050565b6127046122ad565b73ffffffffffffffffffffffffffffffffffffffff166127226115b3565b73ffffffffffffffffffffffffffffffffffffffff1614612778576040517f08c379a000000000000000000000000000000000000000000000000000000000815260040161276f90614b10565b60405180910390fd5b565b600081600001549050919050565b6001816000016000828254019250508190555050565b6127b8828260405180602001604052806000815250612c61565b5050565b6127c582612c14565b612804576040517f08c379a00000000000000000000000000000000000000000000000000000000081526004016127fb90614ba2565b60405180910390fd5b806006600084815260200190815260200160002090816128249190614d6e565b507ff8e1a15aba9398e019f0b49df1a4fde98ee17ae345cb5f6b5e2c27f5033e8ce7826040516128549190613859565b60405180910390a15050565b60006002600083815260200190815260200160002060009054906101000a900473ffffffffffffffffffffffffffffffffffffffff169050919050565b6000600760009054906101000a900473ffffffffffffffffffffffffffffffffffffffff16905081600760006101000a81548173ffffffffffffffffffffffffffffffffffffffff021916908373ffffffffffffffffffffffffffffffffffffffff1602179055508173ffffffffffffffffffffffffffffffffffffffff168173ffffffffffffffffffffffffffffffffffffffff167f8be0079c531659141344cd1fd0a4f28419497f9722a3daafe3b4186f6b6457e060405160405180910390a35050565b8173ffffffffffffffffffffffffffffffffffffffff168373ffffffffffffffffffffffffffffffffffffffff16036129d1576040517f08c379a00000000000000000000000000000000000000000000000000000000081526004016129c890614e8c565b60405180910390fd5b80600560008573ffffffffffffffffffffffffffffffffffffffff1673ffffffffffffffffffffffffffffffffffffffff16815260200190815260200160002060008473ffffffffffffffffffffffffffffffffffffffff1673ffffffffffffffffffffffffffffffffffffffff16815260200190815260200160002060006101000a81548160ff0219169083151502179055508173ffffffffffffffffffffffffffffffffffffffff168373ffffffffffffffffffffffffffffffffffffffff167f17307eab39ab6107e8899845ad3d59bd9653f200f220920489ca2b5937696c3183604051612ac291906133c5565b60405180910390a3505050565b612ada848484612403565b612ae684848484612cbc565b612b25576040517f08c379a0000000000000000000000000000000000000000000000000000000008152600401612b1c90614f1e565b60405180910390fd5b50505050565b606060405180602001604052806000815250905090565b6060612b4d82612262565b6000612b57612b2b565b90506000815111612b775760405180602001604052806000815250612ba2565b80612b8184612e43565b604051602001612b92929190614821565b6040516020818303038152906040525b915050919050565b60007f01ffc9a7000000000000000000000000000000000000000000000000000000007bffffffffffffffffffffffffffffffffffffffffffffffffffffffff1916827bffffffffffffffffffffffffffffffffffffffffffffffffffffffff1916149050919050565b60008073ffffffffffffffffffffffffffffffffffffffff16612c3683612860565b73ffffffffffffffffffffffffffffffffffffffff1614159050919050565b50505050565b50505050565b612c6b8383612f11565b612c786000848484612cbc565b612cb7576040517f08c379a0000000000000000000000000000000000000000000000000000000008152600401612cae90614f1e565b60405180910390fd5b505050565b6000612cdd8473ffffffffffffffffffffffffffffffffffffffff1661312e565b15612e36578373ffffffffffffffffffffffffffffffffffffffff1663150b7a02612d066122ad565b8786866040518563ffffffff1660e01b8152600401612d289493929190614f93565b6020604051808303816000875af1925050508015612d6457506040513d601f19601f82011682018060405250810190612d619190614ff4565b60015b612de6573d8060008114612d94576040519150601f19603f3d011682016040523d82523d6000602084013e612d99565b606091505b506000815103612dde576040517f08c379a0000000000000000000000000000000000000000000000000000000008152600401612dd590614f1e565b60405180910390fd5b805181602001fd5b63150b7a0260e01b7bffffffffffffffffffffffffffffffffffffffffffffffffffffffff1916817bffffffffffffffffffffffffffffffffffffffffffffffffffffffff191614915050612e3b565b600190505b949350505050565b606060006001612e5284613151565b01905060008167ffffffffffffffff811115612e7157612e70613b5e565b5b6040519080825280601f01601f191660200182016040528015612ea35781602001600182028036833780820191505090505b509050600082602001820190505b600115612f06578080600190039150507f3031323334353637383961626364656600000000000000000000000000000000600a86061a8153600a8581612efa57612ef9615021565b5b04945060008503612eb1575b819350505050919050565b600073ffffffffffffffffffffffffffffffffffffffff168273ffffffffffffffffffffffffffffffffffffffff1603612f80576040517f08c379a0000000000000000000000000000000000000000000000000000000008152600401612f779061509c565b60405180910390fd5b612f8981612c14565b15612fc9576040517f08c379a0000000000000000000000000000000000000000000000000000000008152600401612fc090615108565b60405180910390fd5b612fd7600083836001612c55565b612fe081612c14565b15613020576040517f08c379a000000000000000000000000000000000000000000000000000000000815260040161301790615108565b60405180910390fd5b6001600360008473ffffffffffffffffffffffffffffffffffffffff1673ffffffffffffffffffffffffffffffffffffffff16815260200190815260200160002060008282540192505081905550816002600083815260200190815260200160002060006101000a81548173ffffffffffffffffffffffffffffffffffffffff021916908373ffffffffffffffffffffffffffffffffffffffff160217905550808273ffffffffffffffffffffffffffffffffffffffff16600073ffffffffffffffffffffffffffffffffffffffff167fddf252ad1be2c89b69c2b068fc378daa952ba7f163c4a11628f55a4df523b3ef60405160405180910390a461312a600083836001612c5b565b5050565b6000808273ffffffffffffffffffffffffffffffffffffffff163b119050919050565b600080600090507a184f03e93ff9f4daa797ed6e38ed64bf6a1f01000000000000000083106131af577a184f03e93ff9f4daa797ed6e38ed64bf6a1f01000000000000000083816131a5576131a4615021565b5b0492506040810190505b6d04ee2d6d415b85acef810000000083106131ec576d04ee2d6d415b85acef810000000083816131e2576131e1615021565b5b0492506020810190505b662386f26fc10000831061321b57662386f26fc10000838161321157613210615021565b5b0492506010810190505b6305f5e1008310613244576305f5e100838161323a57613239615021565b5b0492506008810190505b612710831061326957612710838161325f5761325e615021565b5b0492506004810190505b6064831061328c576064838161328257613281615021565b5b0492506002810190505b600a831061329b576001810190505b80915050919050565b60405180610140016040528060008152602001600081526020016000815260200160008152602001600081526020016000815260200160008152602001600073ffffffffffffffffffffffffffffffffffffffff1681526020016000151581526020016000151581525090565b6000604051905090565b600080fd5b600080fd5b60007fffffffff0000000000000000000000000000000000000000000000000000000082169050919050565b61335a81613325565b811461336557600080fd5b50565b60008135905061337781613351565b92915050565b6000602082840312156133935761339261331b565b5b60006133a184828501613368565b91505092915050565b60008115159050919050565b6133bf816133aa565b82525050565b60006020820190506133da60008301846133b6565b92915050565b600073ffffffffffffffffffffffffffffffffffffffff82169050919050565b600061340b826133e0565b9050919050565b61341b81613400565b811461342657600080fd5b50565b60008135905061343881613412565b92915050565b6000602082840312156134545761345361331b565b5b600061346284828501613429565b91505092915050565b600081519050919050565b600082825260208201905092915050565b6000819050602082019050919050565b6000819050919050565b6134aa81613497565b82525050565b60006134bc83836134a1565b60208301905092915050565b6000602082019050919050565b60006134e08261346b565b6134ea8185613476565b93506134f583613487565b8060005b8381101561352657815161350d88826134b0565b9750613518836134c8565b9250506001810190506134f9565b5085935050505092915050565b6000602082019050818103600083015261354d81846134d5565b905092915050565b600081519050919050565b600082825260208201905092915050565b60005b8381101561358f578082015181840152602081019050613574565b60008484015250505050565b6000601f19601f8301169050919050565b60006135b782613555565b6135c18185613560565b93506135d1818560208601613571565b6135da8161359b565b840191505092915050565b600060208201905081810360008301526135ff81846135ac565b905092915050565b61361081613497565b811461361b57600080fd5b50565b60008135905061362d81613607565b92915050565b6000602082840312156136495761364861331b565b5b60006136578482850161361e565b91505092915050565b61366981613400565b82525050565b60006020820190506136846000830184613660565b92915050565b600080604083850312156136a1576136a061331b565b5b60006136af85828601613429565b92505060206136c08582860161361e565b9150509250929050565b6000806000606084860312156136e3576136e261331b565b5b60006136f186828701613429565b935050602061370286828701613429565b92505060406137138682870161361e565b9150509250925092565b600080fd5b600080fd5b600080fd5b60008083601f8401126137425761374161371d565b5b8235905067ffffffffffffffff81111561375f5761375e613722565b5b60208301915083600182028301111561377b5761377a613727565b5b9250929050565b60008060008060006080868803121561379e5761379d61331b565b5b600086013567ffffffffffffffff8111156137bc576137bb613320565b5b6137c88882890161372c565b955095505060206137db8882890161361e565b93505060406137ec8882890161361e565b92505060606137fd8882890161361e565b9150509295509295909350565b600080604083850312156138215761382061331b565b5b600061382f8582860161361e565b92505060206138408582860161361e565b9150509250929050565b61385381613497565b82525050565b600060208201905061386e600083018461384a565b92915050565b60006101408201905061388a600083018d61384a565b613897602083018c61384a565b6138a4604083018b61384a565b6138b1606083018a61384a565b6138be608083018961384a565b6138cb60a083018861384a565b6138d860c083018761384a565b6138e560e0830186613660565b6138f36101008301856133b6565b6139016101208301846133b6565b9b9a5050505050505050505050565b600081519050919050565b600082825260208201905092915050565b6000819050602082019050919050565b61394581613400565b82525050565b60e08201600082015161396160008501826134a1565b50602082015161397460208501826134a1565b50604082015161398760408501826134a1565b50606082015161399a60608501826134a1565b5060808201516139ad60808501826134a1565b5060a08201516139c060a08501826134a1565b5060c08201516139d360c085018261393c565b50505050565b60006139e5838361394b565b60e08301905092915050565b6000602082019050919050565b6000613a0982613910565b613a13818561391b565b9350613a1e8361392c565b8060005b83811015613a4f578151613a3688826139d9565b9750613a41836139f1565b925050600181019050613a22565b5085935050505092915050565b60006020820190508181036000830152613a7681846139fe565b905092915050565b613a87816133aa565b8114613a9257600080fd5b50565b600081359050613aa481613a7e565b92915050565b60008060408385031215613ac157613ac061331b565b5b6000613acf85828601613429565b9250506020613ae085828601613a95565b9150509250929050565b600060e082019050613aff600083018a61384a565b613b0c602083018961384a565b613b19604083018861384a565b613b26606083018761384a565b613b33608083018661384a565b613b4060a083018561384a565b613b4d60c0830184613660565b98975050505050505050565b600080fd5b7f4e487b7100000000000000000000000000000000000000000000000000000000600052604160045260246000fd5b613b968261359b565b810181811067ffffffffffffffff82111715613bb557613bb4613b5e565b5b80604052505050565b6000613bc8613311565b9050613bd48282613b8d565b919050565b600067ffffffffffffffff821115613bf457613bf3613b5e565b5b613bfd8261359b565b9050602081019050919050565b82818337600083830152505050565b6000613c2c613c2784613bd9565b613bbe565b905082815260208101848484011115613c4857613c47613b59565b5b613c53848285613c0a565b509392505050565b600082601f830112613c7057613c6f61371d565b5b8135613c80848260208601613c19565b91505092915050565b60008060008060808587031215613ca357613ca261331b565b5b6000613cb187828801613429565b9450506020613cc287828801613429565b9350506040613cd38782880161361e565b925050606085013567ffffffffffffffff811115613cf457613cf3613320565b5b613d0087828801613c5b565b91505092959194509250565b60008060408385031215613d2357613d2261331b565b5b6000613d3185828601613429565b9250506020613d4285828601613429565b9150509250929050565b613d55816133aa565b82525050565b61014082016000820151613d7260008501826134a1565b506020820151613d8560208501826134a1565b506040820151613d9860408501826134a1565b506060820151613dab60608501826134a1565b506080820151613dbe60808501826134a1565b5060a0820151613dd160a08501826134a1565b5060c0820151613de460c08501826134a1565b5060e0820151613df760e085018261393c565b50610100820151613e0c610100850182613d4c565b50610120820151613e21610120850182613d4c565b50505050565b600061014082019050613e3d6000830184613d5b565b92915050565b7f4e487b7100000000000000000000000000000000000000000000000000000000600052602260045260246000fd5b60006002820490506001821680613e8a57607f821691505b602082108103613e9d57613e9c613e43565b5b50919050565b7f4552433732313a20617070726f76616c20746f2063757272656e74206f776e6560008201527f7200000000000000000000000000000000000000000000000000000000000000602082015250565b6000613eff602183613560565b9150613f0a82613ea3565b604082019050919050565b60006020820190508181036000830152613f2e81613ef2565b9050919050565b7f4552433732313a20617070726f76652063616c6c6572206973206e6f7420746f60008201527f6b656e206f776e6572206f7220617070726f76656420666f7220616c6c000000602082015250565b6000613f91603d83613560565b9150613f9c82613f35565b604082019050919050565b60006020820190508181036000830152613fc081613f84565b9050919050565b7f4552433732313a2063616c6c6572206973206e6f7420746f6b656e206f776e6560008201527f72206f7220617070726f76656400000000000000000000000000000000000000602082015250565b6000614023602d83613560565b915061402e82613fc7565b604082019050919050565b6000602082019050818103600083015261405281614016565b9050919050565b7f546f74616c207469636b657473206d757374206265206772656174657220746860008201527f616e203000000000000000000000000000000000000000000000000000000000602082015250565b60006140b5602483613560565b91506140c082614059565b604082019050919050565b600060208201905081810360008301526140e4816140a8565b9050919050565b7f5469636b6574207072696365206d75737420626520677265617465722074686160008201527f6e20300000000000000000000000000000000000000000000000000000000000602082015250565b6000614147602383613560565b9150614152826140eb565b604082019050919050565b600060208201905081810360008301526141768161413a565b9050919050565b7f5469636b657420656e642064617465206d75737420626520696e20746865206660008201527f7574757265000000000000000000000000000000000000000000000000000000602082015250565b60006141d9602583613560565b91506141e48261417d565b604082019050919050565b60006020820190508181036000830152614208816141cc565b9050919050565b6000608082019050614224600083018761384a565b614231602083018661384a565b61423e604083018561384a565b61424b606083018461384a565b95945050505050565b7f496e76616c6964206e756d626572206f66207469636b65747300000000000000600082015250565b600061428a601983613560565b915061429582614254565b602082019050919050565b600060208201905081810360008301526142b98161427d565b9050919050565b7f4e6f7420656e6f756768207469636b65747320736f6c64000000000000000000600082015250565b60006142f6601783613560565b9150614301826142c0565b602082019050919050565b60006020820190508181036000830152614325816142e9565b9050919050565b7f5469636b65742063616e6e6f74206265207265736f6c64207965740000000000600082015250565b6000614362601b83613560565b915061436d8261432c565b602082019050919050565b6000602082019050818103600083015261439181614355565b9050919050565b7f4e487b7100000000000000000000000000000000000000000000000000000000600052603260045260246000fd5b7f4e487b7100000000000000000000000000000000000000000000000000000000600052601160045260246000fd5b600061440182613497565b915061440c83613497565b9250828201905080821115614424576144236143c7565b5b92915050565b7f4e6f7420656e6f756768207469636b657473206f776e65640000000000000000600082015250565b6000614460601883613560565b915061446b8261442a565b602082019050919050565b6000602082019050818103600083015261448f81614453565b9050919050565b7f43616e6e6f7420726573656c6c206d6f7265207469636b657473207468616e2060008201527f6f776e6564000000000000000000000000000000000000000000000000000000602082015250565b60006144f2602583613560565b91506144fd82614496565b604082019050919050565b60006020820190508181036000830152614521816144e5565b9050919050565b600060408201905061453d6000830185613660565b61454a602083018461384a565b9392505050565b7f4552433732313a20696e76616c696420746f6b656e2049440000000000000000600082015250565b6000614587601883613560565b915061459282614551565b602082019050919050565b600060208201905081810360008301526145b68161457a565b9050919050565b7f4552433732313a2061646472657373207a65726f206973206e6f74206120766160008201527f6c6964206f776e65720000000000000000000000000000000000000000000000602082015250565b6000614619602983613560565b9150614624826145bd565b604082019050919050565b600060208201905081810360008301526146488161460c565b9050919050565b7f5469636b65742068617320616c7265616479206265656e20736f6c6400000000600082015250565b6000614685601c83613560565b91506146908261464f565b602082019050919050565b600060208201905081810360008301526146b481614678565b9050919050565b60006146c682613497565b91506146d183613497565b92508282039050818111156146e9576146e86143c7565b5b92915050565b60006146fa82613497565b915061470583613497565b925082820261471381613497565b9150828204841483151761472a576147296143c7565b5b5092915050565b7f496e636f727265637420616d6f756e742073656e740000000000000000000000600082015250565b6000614767601583613560565b915061477282614731565b602082019050919050565b600060208201905081810360008301526147968161475a565b9050919050565b60006147a882613497565b91507fffffffffffffffffffffffffffffffffffffffffffffffffffffffffffffffff82036147da576147d96143c7565b5b600182019050919050565b600081905092915050565b60006147fb82613555565b61480581856147e5565b9350614815818560208601613571565b80840191505092915050565b600061482d82856147f0565b915061483982846147f0565b91508190509392505050565b7f4e6f7420656e6f756768207469636b65747320617661696c61626c6520666f7260008201527f20726573616c6500000000000000000000000000000000000000000000000000602082015250565b60006148a1602783613560565b91506148ac82614845565b604082019050919050565b600060208201905081810360008301526148d081614894565b9050919050565b60006060820190506148ec6000830186613660565b6148f96020830185613660565b614906604083018461384a565b949350505050565b7f4f776e61626c653a206e6577206f776e657220697320746865207a65726f206160008201527f6464726573730000000000000000000000000000000000000000000000000000602082015250565b600061496a602683613560565b91506149758261490e565b604082019050919050565b600060208201905081810360008301526149998161495d565b9050919050565b7f4552433732313a207472616e736665722066726f6d20696e636f72726563742060008201527f6f776e6572000000000000000000000000000000000000000000000000000000602082015250565b60006149fc602583613560565b9150614a07826149a0565b604082019050919050565b60006020820190508181036000830152614a2b816149ef565b9050919050565b7f4552433732313a207472616e7366657220746f20746865207a65726f2061646460008201527f7265737300000000000000000000000000000000000000000000000000000000602082015250565b6000614a8e602483613560565b9150614a9982614a32565b604082019050919050565b60006020820190508181036000830152614abd81614a81565b9050919050565b7f4f776e61626c653a2063616c6c6572206973206e6f7420746865206f776e6572600082015250565b6000614afa602083613560565b9150614b0582614ac4565b602082019050919050565b60006020820190508181036000830152614b2981614aed565b9050919050565b7f45524337323155524953746f726167653a2055524920736574206f66206e6f6e60008201527f6578697374656e7420746f6b656e000000000000000000000000000000000000602082015250565b6000614b8c602e83613560565b9150614b9782614b30565b604082019050919050565b60006020820190508181036000830152614bbb81614b7f565b9050919050565b60008190508160005260206000209050919050565b60006020601f8301049050919050565b600082821b905092915050565b600060088302614c247fffffffffffffffffffffffffffffffffffffffffffffffffffffffffffffffff82614be7565b614c2e8683614be7565b95508019841693508086168417925050509392505050565b6000819050919050565b6000614c6b614c66614c6184613497565b614c46565b613497565b9050919050565b6000819050919050565b614c8583614c50565b614c99614c9182614c72565b848454614bf4565b825550505050565b600090565b614cae614ca1565b614cb9818484614c7c565b505050565b5b81811015614cdd57614cd2600082614ca6565b600181019050614cbf565b5050565b601f821115614d2257614cf381614bc2565b614cfc84614bd7565b81016020851015614d0b578190505b614d1f614d1785614bd7565b830182614cbe565b50505b505050565b600082821c905092915050565b6000614d4560001984600802614d27565b1980831691505092915050565b6000614d5e8383614d34565b9150826002028217905092915050565b614d7782613555565b67ffffffffffffffff811115614d9057614d8f613b5e565b5b614d9a8254613e72565b614da5828285614ce1565b600060209050601f831160018114614dd85760008415614dc6578287015190505b614dd08582614d52565b865550614e38565b601f198416614de686614bc2565b60005b82811015614e0e57848901518255600182019150602085019450602081019050614de9565b86831015614e2b5784890151614e27601f891682614d34565b8355505b6001600288020188555050505b505050505050565b7f4552433732313a20617070726f766520746f2063616c6c657200000000000000600082015250565b6000614e76601983613560565b9150614e8182614e40565b602082019050919050565b60006020820190508181036000830152614ea581614e69565b9050919050565b7f4552433732313a207472616e7366657220746f206e6f6e20455243373231526560008201527f63656976657220696d706c656d656e7465720000000000000000000000000000602082015250565b6000614f08603283613560565b9150614f1382614eac565b604082019050919050565b60006020820190508181036000830152614f3781614efb565b9050919050565b600081519050919050565b600082825260208201905092915050565b6000614f6582614f3e565b614f6f8185614f49565b9350614f7f818560208601613571565b614f888161359b565b840191505092915050565b6000608082019050614fa86000830187613660565b614fb56020830186613660565b614fc2604083018561384a565b8181036060830152614fd48184614f5a565b905095945050505050565b600081519050614fee81613351565b92915050565b60006020828403121561500a5761500961331b565b5b600061501884828501614fdf565b91505092915050565b7f4e487b7100000000000000000000000000000000000000000000000000000000600052601260045260246000fd5b7f4552433732313a206d696e7420746f20746865207a65726f2061646472657373600082015250565b6000615086602083613560565b915061509182615050565b602082019050919050565b600060208201905081810360008301526150b581615079565b9050919050565b7f4552433732313a20746f6b656e20616c7265616479206d696e74656400000000600082015250565b60006150f2601c83613560565b91506150fd826150bc565b602082019050919050565b60006020820190508181036000830152615121816150e5565b905091905056fea264697066735822122031cbdb551834f2ed07ec2280de033430f98e803de05df638fa0f4928bba25eb864736f6c63430008180033",
  "linkReferences": {},
  "deployedLinkReferences": {}
}