{
  "_format": "hh-sol-artifact-1",
  "contractName": "Ticket",
  "sourceName": "contracts/Lock.sol",
  "abi": [
    {
      "inputs": [
        {
          "internalType": "uint256",
          "name": "_creationFeePercentage",
          "type": "uint256"
        },
        {
          "internalType": "uint256",
          "name": "_purchaseFeePercentage",
          "type": "uint256"
        },
        {
          "internalType": "uint256",
          "name": "_resellingFeePercentage",
          "type": "uint256"
        }
      ],
      "stateMutability": "nonpayable",
      "type": "constructor"
    },
    {
      "anonymous": false,
      "inputs": [
        {
          "indexed": true,
          "internalType": "address",
          "name": "owner",
          "type": "address"
        },
        {
          "indexed": true,
          "internalType": "address",
          "name": "approved",
          "type": "address"
        },
        {
          "indexed": true,
          "internalType": "uint256",
          "name": "tokenId",
          "type": "uint256"
        }
      ],
      "name": "Approval",
      "type": "event"
    },
    {
      "anonymous": false,
      "inputs": [
        {
          "indexed": true,
          "internalType": "address",
          "name": "owner",
          "type": "address"
        },
        {
          "indexed": true,
          "internalType": "address",
          "name": "operator",
          "type": "address"
        },
        {
          "indexed": false,
          "internalType": "bool",
          "name": "approved",
          "type": "bool"
        }
      ],
      "name": "ApprovalForAll",
      "type": "event"
    },
    {
      "anonymous": false,
      "inputs": [
        {
          "indexed": false,
          "internalType": "uint256",
          "name": "_fromTokenId",
          "type": "uint256"
        },
        {
          "indexed": false,
          "internalType": "uint256",
          "name": "_toTokenId",
          "type": "uint256"
        }
      ],
      "name": "BatchMetadataUpdate",
      "type": "event"
    },
    {
      "anonymous": false,
      "inputs": [
        {
          "indexed": false,
          "internalType": "uint256",
          "name": "_tokenId",
          "type": "uint256"
        }
      ],
      "name": "MetadataUpdate",
      "type": "event"
    },
    {
      "anonymous": false,
      "inputs": [
        {
          "indexed": true,
          "internalType": "address",
          "name": "previousOwner",
          "type": "address"
        },
        {
          "indexed": true,
          "internalType": "address",
          "name": "newOwner",
          "type": "address"
        }
      ],
      "name": "OwnershipTransferred",
      "type": "event"
    },
    {
      "anonymous": false,
      "inputs": [
        {
          "indexed": true,
          "internalType": "uint256",
          "name": "tokenId",
          "type": "uint256"
        },
        {
          "indexed": false,
          "internalType": "uint256",
          "name": "totalTickets",
          "type": "uint256"
        },
        {
          "indexed": false,
          "internalType": "uint256",
          "name": "ticketPrice",
          "type": "uint256"
        },
        {
          "indexed": false,
          "internalType": "uint256",
          "name": "ticketStartDate",
          "type": "uint256"
        },
        {
          "indexed": false,
          "internalType": "uint256",
          "name": "ticketEndDate",
          "type": "uint256"
        }
      ],
      "name": "TicketCreated",
      "type": "event"
    },
    {
      "anonymous": false,
      "inputs": [
        {
          "indexed": true,
          "internalType": "uint256",
          "name": "tokenId",
          "type": "uint256"
        },
        {
          "indexed": false,
          "internalType": "address",
          "name": "buyer",
          "type": "address"
        },
        {
          "indexed": false,
          "internalType": "uint256",
          "name": "ticketsBought",
          "type": "uint256"
        }
      ],
      "name": "TicketPurchased",
      "type": "event"
    },
    {
      "anonymous": false,
      "inputs": [
        {
          "indexed": true,
          "internalType": "uint256",
          "name": "tokenId",
          "type": "uint256"
        },
        {
          "indexed": false,
          "internalType": "address",
          "name": "reseller",
          "type": "address"
        },
        {
          "indexed": false,
          "internalType": "uint256",
          "name": "ticketsBought",
          "type": "uint256"
        }
      ],
      "name": "TicketResell",
      "type": "event"
    },
    {
      "anonymous": false,
      "inputs": [
        {
          "indexed": true,
          "internalType": "uint256",
          "name": "tokenId",
          "type": "uint256"
        },
        {
          "indexed": false,
          "internalType": "address",
          "name": "reseller",
          "type": "address"
        },
        {
          "indexed": false,
          "internalType": "address",
          "name": "rebuyer",
          "type": "address"
        },
        {
          "indexed": false,
          "internalType": "uint256",
          "name": "ticketsBought",
          "type": "uint256"
        }
      ],
      "name": "TicketResold",
      "type": "event"
    },
    {
      "anonymous": false,
      "inputs": [
        {
          "indexed": true,
          "internalType": "address",
          "name": "from",
          "type": "address"
        },
        {
          "indexed": true,
          "internalType": "address",
          "name": "to",
          "type": "address"
        },
        {
          "indexed": true,
          "internalType": "uint256",
          "name": "tokenId",
          "type": "uint256"
        }
      ],
      "name": "Transfer",
      "type": "event"
    },
    {
      "inputs": [
        {
          "internalType": "address",
          "name": "to",
          "type": "address"
        },
        {
          "internalType": "uint256",
          "name": "tokenId",
          "type": "uint256"
        }
      ],
      "name": "approve",
      "outputs": [],
      "stateMutability": "nonpayable",
      "type": "function"
    },
    {
      "inputs": [
        {
          "internalType": "address",
          "name": "owner",
          "type": "address"
        }
      ],
      "name": "balanceOf",
      "outputs": [
        {
          "internalType": "uint256",
          "name": "",
          "type": "uint256"
        }
      ],
      "stateMutability": "view",
      "type": "function"
    },
    {
      "inputs": [
        {
          "internalType": "uint256",
          "name": "tokenID",
          "type": "uint256"
        }
      ],
      "name": "burn",
      "outputs": [],
      "stateMutability": "nonpayable",
      "type": "function"
    },
    {
      "inputs": [
        {
          "internalType": "string",
          "name": "tokenURI",
          "type": "string"
        },
        {
          "internalType": "uint256",
          "name": "_totalTickets",
          "type": "uint256"
        },
        {
          "internalType": "uint256",
          "name": "_ticketPrice",
          "type": "uint256"
        },
        {
          "internalType": "uint256",
          "name": "_ticketEndDate",
          "type": "uint256"
        }
      ],
      "name": "createTicket",
      "outputs": [],
      "stateMutability": "payable",
      "type": "function"
    },
    {
      "inputs": [],
      "name": "creationFeePercentage",
      "outputs": [
        {
          "internalType": "uint256",
          "name": "",
          "type": "uint256"
        }
      ],
      "stateMutability": "view",
      "type": "function"
    },
    {
      "inputs": [],
      "name": "getAllTickets",
      "outputs": [
        {
          "components": [
            {
              "internalType": "uint256",
              "name": "tokenId",
              "type": "uint256"
            },
            {
              "internalType": "uint256",
              "name": "totalTickets",
              "type": "uint256"
            },
            {
              "internalType": "uint256",
              "name": "ticketsSold",
              "type": "uint256"
            },
            {
              "internalType": "uint256",
              "name": "ticketPrice",
              "type": "uint256"
            },
            {
              "internalType": "uint256",
              "name": "ticketStartDate",
              "type": "uint256"
            },
            {
              "internalType": "uint256",
              "name": "ticketEndDate",
              "type": "uint256"
            },
            {
              "internalType": "uint256",
              "name": "ticketHoldDate",
              "type": "uint256"
            },
            {
              "internalType": "address",
              "name": "creator",
              "type": "address"
            },
            {
              "internalType": "bool",
              "name": "ticketSold",
              "type": "bool"
            },
            {
              "internalType": "bool",
              "name": "isResellable",
              "type": "bool"
            }
          ],
          "internalType": "struct Ticket.TicketInfo[]",
          "name": "",
          "type": "tuple[]"
        }
      ],
      "stateMutability": "view",
      "type": "function"
    },
    {
      "inputs": [
        {
          "internalType": "uint256",
          "name": "tokenId",
          "type": "uint256"
        }
      ],
      "name": "getApproved",
      "outputs": [
        {
          "internalType": "address",
          "name": "",
          "type": "address"
        }
      ],
      "stateMutability": "view",
      "type": "function"
    },
    {
      "inputs": [],
      "name": "getCreationFeePercentage",
      "outputs": [
        {
          "internalType": "uint256",
          "name": "",
          "type": "uint256"
        }
      ],
      "stateMutability": "view",
      "type": "function"
    },
    {
      "inputs": [],
      "name": "getPurchaseFeePercentage",
      "outputs": [
        {
          "internalType": "uint256",
          "name": "",
          "type": "uint256"
        }
      ],
      "stateMutability": "view",
      "type": "function"
    },
    {
      "inputs": [
        {
          "internalType": "uint256",
          "name": "tokenID",
          "type": "uint256"
        }
      ],
      "name": "getPurchaseInfo",
      "outputs": [
        {
          "components": [
            {
              "internalType": "uint256",
              "name": "ticketsBought",
              "type": "uint256"
            },
            {
              "internalType": "uint256",
              "name": "ticketsToResell",
              "type": "uint256"
            },
            {
              "internalType": "uint256",
              "name": "totalPrice",
              "type": "uint256"
            },
            {
              "internalType": "uint256",
              "name": "ticketId",
              "type": "uint256"
            },
            {
              "internalType": "uint256",
              "name": "purchaseId",
              "type": "uint256"
            },
            {
              "internalType": "uint256",
              "name": "purchaseTimestamp",
              "type": "uint256"
            },
            {
              "internalType": "address",
              "name": "buyer",
              "type": "address"
            }
          ],
          "internalType": "struct Ticket.PurchaseInfo[]",
          "name": "",
          "type": "tuple[]"
        }
      ],
      "stateMutability": "view",
      "type": "function"
    },
    {
      "inputs": [
        {
          "internalType": "uint256",
          "name": "tokenID",
          "type": "uint256"
        }
      ],
      "name": "getTicketInfo",
      "outputs": [
        {
          "components": [
            {
              "internalType": "uint256",
              "name": "tokenId",
              "type": "uint256"
            },
            {
              "internalType": "uint256",
              "name": "totalTickets",
              "type": "uint256"
            },
            {
              "internalType": "uint256",
              "name": "ticketsSold",
              "type": "uint256"
            },
            {
              "internalType": "uint256",
              "name": "ticketPrice",
              "type": "uint256"
            },
            {
              "internalType": "uint256",
              "name": "ticketStartDate",
              "type": "uint256"
            },
            {
              "internalType": "uint256",
              "name": "ticketEndDate",
              "type": "uint256"
            },
            {
              "internalType": "uint256",
              "name": "ticketHoldDate",
              "type": "uint256"
            },
            {
              "internalType": "address",
              "name": "creator",
              "type": "address"
            },
            {
              "internalType": "bool",
              "name": "ticketSold",
              "type": "bool"
            },
            {
              "internalType": "bool",
              "name": "isResellable",
              "type": "bool"
            }
          ],
          "internalType": "struct Ticket.TicketInfo",
          "name": "",
          "type": "tuple"
        }
      ],
      "stateMutability": "view",
      "type": "function"
    },
    {
      "inputs": [
        {
          "internalType": "address",
          "name": "user",
          "type": "address"
        }
      ],
      "name": "getUserTickets",
      "outputs": [
        {
          "internalType": "uint256[]",
          "name": "",
          "type": "uint256[]"
        }
      ],
      "stateMutability": "view",
      "type": "function"
    },
    {
      "inputs": [
        {
          "internalType": "address",
          "name": "owner",
          "type": "address"
        },
        {
          "internalType": "address",
          "name": "operator",
          "type": "address"
        }
      ],
      "name": "isApprovedForAll",
      "outputs": [
        {
          "internalType": "bool",
          "name": "",
          "type": "bool"
        }
      ],
      "stateMutability": "view",
      "type": "function"
    },
    {
      "inputs": [],
      "name": "name",
      "outputs": [
        {
          "internalType": "string",
          "name": "",
          "type": "string"
        }
      ],
      "stateMutability": "view",
      "type": "function"
    },
    {
      "inputs": [],
      "name": "owner",
      "outputs": [
        {
          "internalType": "address",
          "name": "",
          "type": "address"
        }
      ],
      "stateMutability": "view",
      "type": "function"
    },
    {
      "inputs": [
        {
          "internalType": "uint256",
          "name": "tokenId",
          "type": "uint256"
        }
      ],
      "name": "ownerOf",
      "outputs": [
        {
          "internalType": "address",
          "name": "",
          "type": "address"
        }
      ],
      "stateMutability": "view",
      "type": "function"
    },
    {
      "inputs": [],
      "name": "purchaseFeePercentage",
      "outputs": [
        {
          "internalType": "uint256",
          "name": "",
          "type": "uint256"
        }
      ],
      "stateMutability": "view",
      "type": "function"
    },
    {
      "inputs": [
        {
          "internalType": "uint256",
          "name": "tokenID",
          "type": "uint256"
        },
        {
          "internalType": "uint256",
          "name": "ticketsToBuy",
          "type": "uint256"
        }
      ],
      "name": "purchaseTicket",
      "outputs": [],
      "stateMutability": "payable",
      "type": "function"
    },
    {
      "inputs": [
        {
          "internalType": "uint256",
          "name": "tokenId",
          "type": "uint256"
        },
        {
          "internalType": "uint256",
          "name": "buyticketId",
          "type": "uint256"
        }
      ],
      "name": "reBuyTicket",
      "outputs": [],
      "stateMutability": "payable",
      "type": "function"
    },
    {
      "inputs": [],
      "name": "renounceOwnership",
      "outputs": [],
      "stateMutability": "nonpayable",
      "type": "function"
    },
    {
      "inputs": [
        {
          "internalType": "uint256",
          "name": "tokenId",
          "type": "uint256"
        },
        {
          "internalType": "uint256",
          "name": "ticketsToSell",
          "type": "uint256"
        }
      ],
      "name": "resellTicket",
      "outputs": [],
      "stateMutability": "nonpayable",
      "type": "function"
    },
    {
      "inputs": [],
      "name": "resellingFeePercentage",
      "outputs": [
        {
          "internalType": "uint256",
          "name": "",
          "type": "uint256"
        }
      ],
      "stateMutability": "view",
      "type": "function"
    },
    {
      "inputs": [
        {
          "internalType": "address",
          "name": "from",
          "type": "address"
        },
        {
          "internalType": "address",
          "name": "to",
          "type": "address"
        },
        {
          "internalType": "uint256",
          "name": "tokenId",
          "type": "uint256"
        }
      ],
      "name": "safeTransferFrom",
      "outputs": [],
      "stateMutability": "nonpayable",
      "type": "function"
    },
    {
      "inputs": [
        {
          "internalType": "address",
          "name": "from",
          "type": "address"
        },
        {
          "internalType": "address",
          "name": "to",
          "type": "address"
        },
        {
          "internalType": "uint256",
          "name": "tokenId",
          "type": "uint256"
        },
        {
          "internalType": "bytes",
          "name": "data",
          "type": "bytes"
        }
      ],
      "name": "safeTransferFrom",
      "outputs": [],
      "stateMutability": "nonpayable",
      "type": "function"
    },
    {
      "inputs": [
        {
          "internalType": "address",
          "name": "operator",
          "type": "address"
        },
        {
          "internalType": "bool",
          "name": "approved",
          "type": "bool"
        }
      ],
      "name": "setApprovalForAll",
      "outputs": [],
      "stateMutability": "nonpayable",
      "type": "function"
    },
    {
      "inputs": [
        {
          "internalType": "bytes4",
          "name": "interfaceId",
          "type": "bytes4"
        }
      ],
      "name": "supportsInterface",
      "outputs": [
        {
          "internalType": "bool",
          "name": "",
          "type": "bool"
        }
      ],
      "stateMutability": "view",
      "type": "function"
    },
    {
      "inputs": [],
      "name": "symbol",
      "outputs": [
        {
          "internalType": "string",
          "name": "",
          "type": "string"
        }
      ],
      "stateMutability": "view",
      "type": "function"
    },
    {
      "inputs": [
        {
          "internalType": "uint256",
          "name": "",
          "type": "uint256"
        },
        {
          "internalType": "uint256",
          "name": "",
          "type": "uint256"
        }
      ],
      "name": "ticketPurchases",
      "outputs": [
        {
          "internalType": "uint256",
          "name": "ticketsBought",
          "type": "uint256"
        },
        {
          "internalType": "uint256",
          "name": "ticketsToResell",
          "type": "uint256"
        },
        {
          "internalType": "uint256",
          "name": "totalPrice",
          "type": "uint256"
        },
        {
          "internalType": "uint256",
          "name": "ticketId",
          "type": "uint256"
        },
        {
          "internalType": "uint256",
          "name": "purchaseId",
          "type": "uint256"
        },
        {
          "internalType": "uint256",
          "name": "purchaseTimestamp",
          "type": "uint256"
        },
        {
          "internalType": "address",
          "name": "buyer",
          "type": "address"
        }
      ],
      "stateMutability": "view",
      "type": "function"
    },
    {
      "inputs": [
        {
          "internalType": "uint256",
          "name": "",
          "type": "uint256"
        }
      ],
      "name": "tickets",
      "outputs": [
        {
          "internalType": "uint256",
          "name": "tokenId",
          "type": "uint256"
        },
        {
          "internalType": "uint256",
          "name": "totalTickets",
          "type": "uint256"
        },
        {
          "internalType": "uint256",
          "name": "ticketsSold",
          "type": "uint256"
        },
        {
          "internalType": "uint256",
          "name": "ticketPrice",
          "type": "uint256"
        },
        {
          "internalType": "uint256",
          "name": "ticketStartDate",
          "type": "uint256"
        },
        {
          "internalType": "uint256",
          "name": "ticketEndDate",
          "type": "uint256"
        },
        {
          "internalType": "uint256",
          "name": "ticketHoldDate",
          "type": "uint256"
        },
        {
          "internalType": "address",
          "name": "creator",
          "type": "address"
        },
        {
          "internalType": "bool",
          "name": "ticketSold",
          "type": "bool"
        },
        {
          "internalType": "bool",
          "name": "isResellable",
          "type": "bool"
        }
      ],
      "stateMutability": "view",
      "type": "function"
    },
    {
      "inputs": [
        {
          "internalType": "uint256",
          "name": "tokenId",
          "type": "uint256"
        }
      ],
      "name": "tokenURI",
      "outputs": [
        {
          "internalType": "string",
          "name": "",
          "type": "string"
        }
      ],
      "stateMutability": "view",
      "type": "function"
    },
    {
      "inputs": [
        {
          "internalType": "address",
          "name": "from",
          "type": "address"
        },
        {
          "internalType": "address",
          "name": "to",
          "type": "address"
        },
        {
          "internalType": "uint256",
          "name": "tokenId",
          "type": "uint256"
        }
      ],
      "name": "transferFrom",
      "outputs": [],
      "stateMutability": "nonpayable",
      "type": "function"
    },
    {
      "inputs": [
        {
          "internalType": "address",
          "name": "newOwner",
          "type": "address"
        }
      ],
      "name": "transferOwnership",
      "outputs": [],
      "stateMutability": "nonpayable",
      "type": "function"
    },
    {
      "inputs": [
        {
          "internalType": "uint256",
          "name": "_creationFeePercentage",
          "type": "uint256"
        }
      ],
      "name": "updateCreationFeePercentage",
      "outputs": [],
      "stateMutability": "nonpayable",
      "type": "function"
    },
    {
      "inputs": [
        {
          "internalType": "uint256",
          "name": "_purchaseFeePercentage",
          "type": "uint256"
        }
      ],
      "name": "updatePurchaseFeePercentage",
      "outputs": [],
      "stateMutability": "nonpayable",
      "type": "function"
    },
    {
      "inputs": [
        {
          "internalType": "address",
          "name": "",
          "type": "address"
        },
        {
          "internalType": "uint256",
          "name": "",
          "type": "uint256"
        }
      ],
      "name": "userTickets",
      "outputs": [
        {
          "internalType": "uint256",
          "name": "",
          "type": "uint256"
        }
      ],
      "stateMutability": "view",
      "type": "function"
    }
  ],
  "bytecode": "0x60806040523480156200001157600080fd5b5060405162005ce838038062005ce8833981810160405281019062000037919062000215565b6040518060400160405280600681526020017f5469636b657400000000000000000000000000000000000000000000000000008152506040518060400160405280600681526020017f5449434b455400000000000000000000000000000000000000000000000000008152508160009081620000b49190620004e1565b508060019081620000c69190620004e1565b505050620000e9620000dd6200010760201b60201c565b6200010f60201b60201c565b82600a8190555081600b8190555080600c81905550505050620005c8565b600033905090565b6000600760009054906101000a900473ffffffffffffffffffffffffffffffffffffffff16905081600760006101000a81548173ffffffffffffffffffffffffffffffffffffffff021916908373ffffffffffffffffffffffffffffffffffffffff1602179055508173ffffffffffffffffffffffffffffffffffffffff168173ffffffffffffffffffffffffffffffffffffffff167f8be0079c531659141344cd1fd0a4f28419497f9722a3daafe3b4186f6b6457e060405160405180910390a35050565b600080fd5b6000819050919050565b620001ef81620001da565b8114620001fb57600080fd5b50565b6000815190506200020f81620001e4565b92915050565b600080600060608486031215620002315762000230620001d5565b5b60006200024186828701620001fe565b93505060206200025486828701620001fe565b92505060406200026786828701620001fe565b9150509250925092565b600081519050919050565b7f4e487b7100000000000000000000000000000000000000000000000000000000600052604160045260246000fd5b7f4e487b7100000000000000000000000000000000000000000000000000000000600052602260045260246000fd5b60006002820490506001821680620002f357607f821691505b602082108103620003095762000308620002ab565b5b50919050565b60008190508160005260206000209050919050565b60006020601f8301049050919050565b600082821b905092915050565b600060088302620003737fffffffffffffffffffffffffffffffffffffffffffffffffffffffffffffffff8262000334565b6200037f868362000334565b95508019841693508086168417925050509392505050565b6000819050919050565b6000620003c2620003bc620003b684620001da565b62000397565b620001da565b9050919050565b6000819050919050565b620003de83620003a1565b620003f6620003ed82620003c9565b84845462000341565b825550505050565b600090565b6200040d620003fe565b6200041a818484620003d3565b505050565b5b8181101562000442576200043660008262000403565b60018101905062000420565b5050565b601f82111562000491576200045b816200030f565b620004668462000324565b8101602085101562000476578190505b6200048e620004858562000324565b8301826200041f565b50505b505050565b600082821c905092915050565b6000620004b66000198460080262000496565b1980831691505092915050565b6000620004d18383620004a3565b9150826002028217905092915050565b620004ec8262000271565b67ffffffffffffffff8111156200050857620005076200027c565b5b620005148254620002da565b6200052182828562000446565b600060209050601f83116001811462000559576000841562000544578287015190505b620005508582620004c3565b865550620005c0565b601f19841662000569866200030f565b60005b8281101562000593578489015182556001820191506020850194506020810190506200056c565b86831015620005b35784890151620005af601f891682620004a3565b8355505b6001600288020188555050505b505050505050565b61571080620005d86000396000f3fe6080604052600436106102045760003560e01c806370a0823111610118578063b88d4fde116100a0578063d615d1211161006f578063d615d12114610792578063d91043f2146107ae578063e985e9c5146107d9578063f2fde38b14610816578063ff99a0631461083f57610204565b8063b88d4fde146106d3578063bdbbb0cb146106fc578063c87b56dd14610718578063cf260baf1461075557610204565b806395d89b41116100e757806395d89b41146105e8578063a22cb46514610613578063a4646ba71461063c578063b57b0de71461067f578063b5e1a3c0146106a857610204565b806370a082311461053e578063715018a61461057b5780638412153f146105925780638da5cb5b146105bd57610204565b80632decc62b1161019b57806342966c681161016a57806342966c681461042a578063461c3e211461045357806350b447121461047e57806358875049146104c45780636352211e1461050157610204565b80632decc62b14610391578063348e9913146103ad5780633df8cd72146103d657806342842e0e1461040157610204565b8063081812fc116101d7578063081812fc146102d9578063095ea7b31461031657806323b872dd1461033f57806329520cae1461036857610204565b806301ffc9a71461020957806303e96fe3146102465780630484a22f1461027157806306fdde03146102ae575b600080fd5b34801561021557600080fd5b50610230600480360381019061022b9190613791565b61087c565b60405161023d91906137d9565b60405180910390f35b34801561025257600080fd5b5061025b6108dd565b60405161026891906139d9565b60405180910390f35b34801561027d57600080fd5b5061029860048036038101906102939190613a27565b610a75565b6040516102a59190613b03565b60405180910390f35b3480156102ba57600080fd5b506102c3610b0c565b6040516102d09190613bb5565b60405180910390f35b3480156102e557600080fd5b5061030060048036038101906102fb9190613c03565b610b9e565b60405161030d9190613c3f565b60405180910390f35b34801561032257600080fd5b5061033d60048036038101906103389190613c5a565b610be4565b005b34801561034b57600080fd5b5061036660048036038101906103619190613c9a565b610cfb565b005b34801561037457600080fd5b5061038f600480360381019061038a9190613c03565b610d5b565b005b6103ab60048036038101906103a69190613d52565b610d6d565b005b3480156103b957600080fd5b506103d460048036038101906103cf9190613dda565b611090565b005b3480156103e257600080fd5b506103eb61149c565b6040516103f89190613e29565b60405180910390f35b34801561040d57600080fd5b5061042860048036038101906104239190613c9a565b6114a2565b005b34801561043657600080fd5b50610451600480360381019061044c9190613c03565b6114c2565b005b34801561045f57600080fd5b506104686114d6565b6040516104759190613e29565b60405180910390f35b34801561048a57600080fd5b506104a560048036038101906104a09190613c03565b6114e0565b6040516104bb9a99989796959493929190613e44565b60405180910390f35b3480156104d057600080fd5b506104eb60048036038101906104e69190613c03565b61156e565b6040516104f8919061401d565b60405180910390f35b34801561050d57600080fd5b5061052860048036038101906105239190613c03565b611672565b6040516105359190613c3f565b60405180910390f35b34801561054a57600080fd5b5061056560048036038101906105609190613a27565b6116f8565b6040516105729190613e29565b60405180910390f35b34801561058757600080fd5b506105906117af565b005b34801561059e57600080fd5b506105a76117c3565b6040516105b49190613e29565b60405180910390f35b3480156105c957600080fd5b506105d26117c9565b6040516105df9190613c3f565b60405180910390f35b3480156105f457600080fd5b506105fd6117f3565b60405161060a9190613bb5565b60405180910390f35b34801561061f57600080fd5b5061063a6004803603810190610635919061406b565b611885565b005b34801561064857600080fd5b50610663600480360381019061065e9190613dda565b61189b565b60405161067697969594939291906140ab565b60405180910390f35b34801561068b57600080fd5b506106a660048036038101906106a19190613c03565b61191a565b005b3480156106b457600080fd5b506106bd61192c565b6040516106ca9190613e29565b60405180910390f35b3480156106df57600080fd5b506106fa60048036038101906106f5919061424a565b611936565b005b61071660048036038101906107119190613dda565b611998565b005b34801561072457600080fd5b5061073f600480360381019061073a9190613c03565b611de3565b60405161074c9190613bb5565b60405180910390f35b34801561076157600080fd5b5061077c60048036038101906107779190613c5a565b611ef5565b6040516107899190613e29565b60405180910390f35b6107ac60048036038101906107a79190613dda565b611f26565b005b3480156107ba57600080fd5b506107c3612179565b6040516107d09190613e29565b60405180910390f35b3480156107e557600080fd5b5061080060048036038101906107fb91906142cd565b61217f565b60405161080d91906137d9565b60405180910390f35b34801561082257600080fd5b5061083d60048036038101906108389190613a27565b612213565b005b34801561084b57600080fd5b5061086660048036038101906108619190613c03565b612296565b60405161087391906143d9565b60405180910390f35b6000634906490660e01b7bffffffffffffffffffffffffffffffffffffffffffffffffffffffff1916827bffffffffffffffffffffffffffffffffffffffffffffffffffffffff191614806108d657506108d582612396565b5b9050919050565b606060006108eb6008612478565b905060008167ffffffffffffffff8111156109095761090861411f565b5b60405190808252806020026020018201604052801561094257816020015b61092f61365b565b8152602001906001900390816109275790505b50905060005b82811015610a6c57600d600082815260200190815260200160002060405180610140016040529081600082015481526020016001820154815260200160028201548152602001600382015481526020016004820154815260200160058201548152602001600682015481526020016007820160009054906101000a900473ffffffffffffffffffffffffffffffffffffffff1673ffffffffffffffffffffffffffffffffffffffff1673ffffffffffffffffffffffffffffffffffffffff1681526020016007820160149054906101000a900460ff161515151581526020016007820160159054906101000a900460ff161515151581525050828281518110610a5457610a536143f5565b5b60200260200101819052508080600101915050610948565b50809250505090565b6060600e60008373ffffffffffffffffffffffffffffffffffffffff1673ffffffffffffffffffffffffffffffffffffffff168152602001908152602001600020805480602002602001604051908101604052809291908181526020018280548015610b0057602002820191906000526020600020905b815481526020019060010190808311610aec575b50505050509050919050565b606060008054610b1b90614453565b80601f0160208091040260200160405190810160405280929190818152602001828054610b4790614453565b8015610b945780601f10610b6957610100808354040283529160200191610b94565b820191906000526020600020905b815481529060010190602001808311610b7757829003601f168201915b5050505050905090565b6000610ba982612486565b6004600083815260200190815260200160002060009054906101000a900473ffffffffffffffffffffffffffffffffffffffff169050919050565b6000610bef82611672565b90508073ffffffffffffffffffffffffffffffffffffffff168373ffffffffffffffffffffffffffffffffffffffff1603610c5f576040517f08c379a0000000000000000000000000000000000000000000000000000000008152600401610c56906144f6565b60405180910390fd5b8073ffffffffffffffffffffffffffffffffffffffff16610c7e6124d1565b73ffffffffffffffffffffffffffffffffffffffff161480610cad5750610cac81610ca76124d1565b61217f565b5b610cec576040517f08c379a0000000000000000000000000000000000000000000000000000000008152600401610ce390614588565b60405180910390fd5b610cf683836124d9565b505050565b610d0c610d066124d1565b82612592565b610d4b576040517f08c379a0000000000000000000000000000000000000000000000000000000008152600401610d429061461a565b60405180910390fd5b610d56838383612627565b505050565b610d63612920565b80600b8190555050565b60008311610db0576040517f08c379a0000000000000000000000000000000000000000000000000000000008152600401610da7906146ac565b60405180910390fd5b60008211610df3576040517f08c379a0000000000000000000000000000000000000000000000000000000008152600401610dea9061473e565b60405180910390fd5b428111610e35576040517f08c379a0000000000000000000000000000000000000000000000000000000008152600401610e2c906147d0565b60405180910390fd5b6000610e416008612478565b9050610e4d600861299e565b610e5733826129b4565b610ea58187878080601f016020809104026020016040519081016040528093929190818152602001838380828437600081840152601f19601f820116905080830192505050505050506129d2565b600042905060405180610140016040528083815260200186815260200160008152602001858152602001828152602001848152602001600081526020013373ffffffffffffffffffffffffffffffffffffffff16815260200160001515815260200160001515815250600d6000848152602001908152602001600020600082015181600001556020820151816001015560408201518160020155606082015181600301556080820151816004015560a0820151816005015560c0820151816006015560e08201518160070160006101000a81548173ffffffffffffffffffffffffffffffffffffffff021916908373ffffffffffffffffffffffffffffffffffffffff1602179055506101008201518160070160146101000a81548160ff0219169083151502179055506101208201518160070160156101000a81548160ff0219169083151502179055509050506000600a5490506110026117c9565b73ffffffffffffffffffffffffffffffffffffffff166108fc829081150290604051600060405180830381858888f19350505050158015611047573d6000803e3d6000fd5b50827feea3bb912a3441ad5433c22840a518110f72b0e83e07c3c86a790f04cb4ee9948787858860405161107e94939291906147f0565b60405180910390a25050505050505050565b6000600d60008481526020019081526020016000209050600082116110ea576040517f08c379a00000000000000000000000000000000000000000000000000000000081526004016110e190614881565b60405180910390fd5b8060020154821115611131576040517f08c379a0000000000000000000000000000000000000000000000000000000008152600401611128906148ed565b60405180910390fd5b80600501548160060154101561117c576040517f08c379a000000000000000000000000000000000000000000000000000000000815260040161117390614959565b60405180910390fd5b60008060005b600f6000878152602001908152602001600020805490508110156112bf573373ffffffffffffffffffffffffffffffffffffffff16600f600088815260200190815260200160002082815481106111dc576111db6143f5565b5b906000526020600020906007020160060160009054906101000a900473ffffffffffffffffffffffffffffffffffffffff1673ffffffffffffffffffffffffffffffffffffffff16036112b257600f6000878152602001908152602001600020818154811061124e5761124d6143f5565b5b9060005260206000209060070201600001548361126b91906149a8565b9250600f60008781526020019081526020016000208181548110611292576112916143f5565b5b906000526020600020906007020160010154826112af91906149a8565b91505b8080600101915050611182565b5083821015611303576040517f08c379a00000000000000000000000000000000000000000000000000000000081526004016112fa90614a28565b60405180910390fd5b81848261131091906149a8565b1115611351576040517f08c379a000000000000000000000000000000000000000000000000000000000815260040161134890614aba565b60405180910390fd5b60005b600f60008781526020019081526020016000208054905081101561145a573373ffffffffffffffffffffffffffffffffffffffff16600f600088815260200190815260200160002082815481106113ae576113ad6143f5565b5b906000526020600020906007020160060160009054906101000a900473ffffffffffffffffffffffffffffffffffffffff1673ffffffffffffffffffffffffffffffffffffffff160361144d5784600f60008881526020019081526020016000208281548110611421576114206143f5565b5b9060005260206000209060070201600101600082825461144191906149a8565b9250508190555061145a565b8080600101915050611354565b50847ff5faf79426a1fb4bc0362d335bf6e794d532c7c33fed7cdf921a59bc3b6dbffe338660405161148d929190614ada565b60405180910390a25050505050565b600b5481565b6114bd83838360405180602001604052806000815250611936565b505050565b6114ca612920565b6114d381612a76565b50565b6000600b54905090565b600d6020528060005260406000206000915090508060000154908060010154908060020154908060030154908060040154908060050154908060060154908060070160009054906101000a900473ffffffffffffffffffffffffffffffffffffffff16908060070160149054906101000a900460ff16908060070160159054906101000a900460ff1690508a565b6060600f6000838152602001908152602001600020805480602002602001604051908101604052809291908181526020016000905b8282101561166757838290600052602060002090600702016040518060e00160405290816000820154815260200160018201548152602001600282015481526020016003820154815260200160048201548152602001600582015481526020016006820160009054906101000a900473ffffffffffffffffffffffffffffffffffffffff1673ffffffffffffffffffffffffffffffffffffffff1673ffffffffffffffffffffffffffffffffffffffff1681525050815260200190600101906115a3565b505050509050919050565b60008061167e83612ac9565b9050600073ffffffffffffffffffffffffffffffffffffffff168173ffffffffffffffffffffffffffffffffffffffff16036116ef576040517f08c379a00000000000000000000000000000000000000000000000000000000081526004016116e690614b4f565b60405180910390fd5b80915050919050565b60008073ffffffffffffffffffffffffffffffffffffffff168273ffffffffffffffffffffffffffffffffffffffff1603611768576040517f08c379a000000000000000000000000000000000000000000000000000000000815260040161175f90614be1565b60405180910390fd5b600360008373ffffffffffffffffffffffffffffffffffffffff1673ffffffffffffffffffffffffffffffffffffffff168152602001908152602001600020549050919050565b6117b7612920565b6117c16000612b06565b565b600c5481565b6000600760009054906101000a900473ffffffffffffffffffffffffffffffffffffffff16905090565b60606001805461180290614453565b80601f016020809104026020016040519081016040528092919081815260200182805461182e90614453565b801561187b5780601f106118505761010080835404028352916020019161187b565b820191906000526020600020905b81548152906001019060200180831161185e57829003601f168201915b5050505050905090565b6118976118906124d1565b8383612bcc565b5050565b600f60205281600052604060002081815481106118b757600080fd5b9060005260206000209060070201600091509150508060000154908060010154908060020154908060030154908060040154908060050154908060060160009054906101000a900473ffffffffffffffffffffffffffffffffffffffff16905087565b611922612920565b80600a8190555050565b6000600a54905090565b6119476119416124d1565b83612592565b611986576040517f08c379a000000000000000000000000000000000000000000000000000000000815260040161197d9061461a565b60405180910390fd5b61199284848484612d38565b50505050565b6000600d600084815260200190815260200160002090508060070160149054906101000a900460ff1615611a01576040517f08c379a00000000000000000000000000000000000000000000000000000000081526004016119f890614c4d565b60405180910390fd5b60038210611a0e57600080fd5b600082118015611a31575080600201548160010154611a2d9190614c6d565b8211155b611a70576040517f08c379a0000000000000000000000000000000000000000000000000000000008152600401611a6790614881565b60405180910390fd5b6000828260030154611a829190614ca1565b90506000600b54905060008183611a9991906149a8565b9050803414611add576040517f08c379a0000000000000000000000000000000000000000000000000000000008152600401611ad490614d2f565b60405180910390fd5b8360070160009054906101000a900473ffffffffffffffffffffffffffffffffffffffff1673ffffffffffffffffffffffffffffffffffffffff166108fc849081150290604051600060405180830381858888f19350505050158015611b47573d6000803e3d6000fd5b50611b506117c9565b73ffffffffffffffffffffffffffffffffffffffff166108fc839081150290604051600060405180830381858888f19350505050158015611b95573d6000803e3d6000fd5b5060005b85811015611dad576000611bad6009612478565b9050611bb9600961299e565b611bc333826129b4565b611bd581611bd08a611de3565b6129d2565b600e60003373ffffffffffffffffffffffffffffffffffffffff1673ffffffffffffffffffffffffffffffffffffffff168152602001908152602001600020819080600181540180825580915050600190039060005260206000200160009091909190915055600f60008281526020019081526020016000206040518060e001604052806001815260200160018152602001886003015481526020018a81526020018381526020014281526020013373ffffffffffffffffffffffffffffffffffffffff168152509080600181540180825580915050600190039060005260206000209060070201600090919091909150600082015181600001556020820151816001015560408201518160020155606082015181600301556080820151816004015560a0820151816005015560c08201518160060160006101000a81548173ffffffffffffffffffffffffffffffffffffffff021916908373ffffffffffffffffffffffffffffffffffffffff1602179055505050856002016000815480929190611d6090614d4f565b9190505550807fdbaaf4c87ce30816c961a81d110622a3227ede77953d4383d514ff88ab2e0fd33389604051611d97929190614ada565b60405180910390a2508080600101915050611b99565b508360010154846002015403611ddb5760018460070160146101000a81548160ff0219169083151502179055505b505050505050565b6060611dee82612486565b6000600660008481526020019081526020016000208054611e0e90614453565b80601f0160208091040260200160405190810160405280929190818152602001828054611e3a90614453565b8015611e875780601f10611e5c57610100808354040283529160200191611e87565b820191906000526020600020905b815481529060010190602001808311611e6a57829003601f168201915b505050505090506000611e98612d94565b90506000815103611ead578192505050611ef0565b600082511115611ee2578082604051602001611eca929190614dd3565b60405160208183030381529060405292505050611ef0565b611eeb84612dab565b925050505b919050565b600e6020528160005260406000208181548110611f1157600080fd5b90600052602060002001600091509150505481565b6001600d6000848152602001908152602001600020600201541015611f80576040517f08c379a0000000000000000000000000000000000000000000000000000000008152600401611f7790614e69565b60405180910390fd5b6000600c54600d600085815260200190815260200160002060030154611fa69190614ca1565b600d600085815260200190815260200160002060030154611fc791906149a8565b90503373ffffffffffffffffffffffffffffffffffffffff166108fc829081150290604051600060405180830381858888f1935050505015801561200f573d6000803e3d6000fd5b5060005b600f6000858152602001908152602001600020805490508110156121735782600f60008681526020019081526020016000208281548110612057576120566143f5565b5b90600052602060002090600702016003015403612166576120cf600f60008681526020019081526020016000208281548110612096576120956143f5565b5b906000526020600020906007020160060160009054906101000a900473ffffffffffffffffffffffffffffffffffffffff163385612627565b837fd59a36d8310ffb140214be490baf3fe8961f859a17199ec1bf9015c8b7340011600f60008781526020019081526020016000208381548110612116576121156143f5565b5b906000526020600020906007020160060160009054906101000a900473ffffffffffffffffffffffffffffffffffffffff16338660405161215993929190614e89565b60405180910390a2612173565b8080600101915050612013565b50505050565b600a5481565b6000600560008473ffffffffffffffffffffffffffffffffffffffff1673ffffffffffffffffffffffffffffffffffffffff16815260200190815260200160002060008373ffffffffffffffffffffffffffffffffffffffff1673ffffffffffffffffffffffffffffffffffffffff16815260200190815260200160002060009054906101000a900460ff16905092915050565b61221b612920565b600073ffffffffffffffffffffffffffffffffffffffff168173ffffffffffffffffffffffffffffffffffffffff160361228a576040517f08c379a000000000000000000000000000000000000000000000000000000000815260040161228190614f32565b60405180910390fd5b61229381612b06565b50565b61229e61365b565b600d600083815260200190815260200160002060405180610140016040529081600082015481526020016001820154815260200160028201548152602001600382015481526020016004820154815260200160058201548152602001600682015481526020016007820160009054906101000a900473ffffffffffffffffffffffffffffffffffffffff1673ffffffffffffffffffffffffffffffffffffffff1673ffffffffffffffffffffffffffffffffffffffff1681526020016007820160149054906101000a900460ff161515151581526020016007820160159054906101000a900460ff1615151515815250509050919050565b60007f80ac58cd000000000000000000000000000000000000000000000000000000007bffffffffffffffffffffffffffffffffffffffffffffffffffffffff1916827bffffffffffffffffffffffffffffffffffffffffffffffffffffffff1916148061246157507f5b5e139f000000000000000000000000000000000000000000000000000000007bffffffffffffffffffffffffffffffffffffffffffffffffffffffff1916827bffffffffffffffffffffffffffffffffffffffffffffffffffffffff1916145b80612471575061247082612e13565b5b9050919050565b600081600001549050919050565b61248f81612e7d565b6124ce576040517f08c379a00000000000000000000000000000000000000000000000000000000081526004016124c590614b4f565b60405180910390fd5b50565b600033905090565b816004600083815260200190815260200160002060006101000a81548173ffffffffffffffffffffffffffffffffffffffff021916908373ffffffffffffffffffffffffffffffffffffffff160217905550808273ffffffffffffffffffffffffffffffffffffffff1661254c83611672565b73ffffffffffffffffffffffffffffffffffffffff167f8c5be1e5ebec7d5bd14f71427d1e84f3dd0314c0f7b2291e5b200ac8c7c3b92560405160405180910390a45050565b60008061259e83611672565b90508073ffffffffffffffffffffffffffffffffffffffff168473ffffffffffffffffffffffffffffffffffffffff1614806125e057506125df818561217f565b5b8061261e57508373ffffffffffffffffffffffffffffffffffffffff1661260684610b9e565b73ffffffffffffffffffffffffffffffffffffffff16145b91505092915050565b8273ffffffffffffffffffffffffffffffffffffffff1661264782611672565b73ffffffffffffffffffffffffffffffffffffffff161461269d576040517f08c379a000000000000000000000000000000000000000000000000000000000815260040161269490614fc4565b60405180910390fd5b600073ffffffffffffffffffffffffffffffffffffffff168273ffffffffffffffffffffffffffffffffffffffff160361270c576040517f08c379a000000000000000000000000000000000000000000000000000000000815260040161270390615056565b60405180910390fd5b6127198383836001612ebe565b8273ffffffffffffffffffffffffffffffffffffffff1661273982611672565b73ffffffffffffffffffffffffffffffffffffffff161461278f576040517f08c379a000000000000000000000000000000000000000000000000000000000815260040161278690614fc4565b60405180910390fd5b6004600082815260200190815260200160002060006101000a81549073ffffffffffffffffffffffffffffffffffffffff02191690556001600360008573ffffffffffffffffffffffffffffffffffffffff1673ffffffffffffffffffffffffffffffffffffffff168152602001908152602001600020600082825403925050819055506001600360008473ffffffffffffffffffffffffffffffffffffffff1673ffffffffffffffffffffffffffffffffffffffff16815260200190815260200160002060008282540192505081905550816002600083815260200190815260200160002060006101000a81548173ffffffffffffffffffffffffffffffffffffffff021916908373ffffffffffffffffffffffffffffffffffffffff160217905550808273ffffffffffffffffffffffffffffffffffffffff168473ffffffffffffffffffffffffffffffffffffffff167fddf252ad1be2c89b69c2b068fc378daa952ba7f163c4a11628f55a4df523b3ef60405160405180910390a461291b8383836001612ec4565b505050565b6129286124d1565b73ffffffffffffffffffffffffffffffffffffffff166129466117c9565b73ffffffffffffffffffffffffffffffffffffffff161461299c576040517f08c379a0000000000000000000000000000000000000000000000000000000008152600401612993906150c2565b60405180910390fd5b565b6001816000016000828254019250508190555050565b6129ce828260405180602001604052806000815250612eca565b5050565b6129db82612e7d565b612a1a576040517f08c379a0000000000000000000000000000000000000000000000000000000008152600401612a1190615154565b60405180910390fd5b80600660008481526020019081526020016000209081612a3a9190615320565b507ff8e1a15aba9398e019f0b49df1a4fde98ee17ae345cb5f6b5e2c27f5033e8ce782604051612a6a9190613e29565b60405180910390a15050565b612a7f81612f25565b6000600660008381526020019081526020016000208054612a9f90614453565b905014612ac657600660008281526020019081526020016000206000612ac591906136c8565b5b50565b60006002600083815260200190815260200160002060009054906101000a900473ffffffffffffffffffffffffffffffffffffffff169050919050565b6000600760009054906101000a900473ffffffffffffffffffffffffffffffffffffffff16905081600760006101000a81548173ffffffffffffffffffffffffffffffffffffffff021916908373ffffffffffffffffffffffffffffffffffffffff1602179055508173ffffffffffffffffffffffffffffffffffffffff168173ffffffffffffffffffffffffffffffffffffffff167f8be0079c531659141344cd1fd0a4f28419497f9722a3daafe3b4186f6b6457e060405160405180910390a35050565b8173ffffffffffffffffffffffffffffffffffffffff168373ffffffffffffffffffffffffffffffffffffffff1603612c3a576040517f08c379a0000000000000000000000000000000000000000000000000000000008152600401612c319061543e565b60405180910390fd5b80600560008573ffffffffffffffffffffffffffffffffffffffff1673ffffffffffffffffffffffffffffffffffffffff16815260200190815260200160002060008473ffffffffffffffffffffffffffffffffffffffff1673ffffffffffffffffffffffffffffffffffffffff16815260200190815260200160002060006101000a81548160ff0219169083151502179055508173ffffffffffffffffffffffffffffffffffffffff168373ffffffffffffffffffffffffffffffffffffffff167f17307eab39ab6107e8899845ad3d59bd9653f200f220920489ca2b5937696c3183604051612d2b91906137d9565b60405180910390a3505050565b612d43848484612627565b612d4f84848484613073565b612d8e576040517f08c379a0000000000000000000000000000000000000000000000000000000008152600401612d85906154d0565b60405180910390fd5b50505050565b606060405180602001604052806000815250905090565b6060612db682612486565b6000612dc0612d94565b90506000815111612de05760405180602001604052806000815250612e0b565b80612dea846131fa565b604051602001612dfb929190614dd3565b6040516020818303038152906040525b915050919050565b60007f01ffc9a7000000000000000000000000000000000000000000000000000000007bffffffffffffffffffffffffffffffffffffffffffffffffffffffff1916827bffffffffffffffffffffffffffffffffffffffffffffffffffffffff1916149050919050565b60008073ffffffffffffffffffffffffffffffffffffffff16612e9f83612ac9565b73ffffffffffffffffffffffffffffffffffffffff1614159050919050565b50505050565b50505050565b612ed483836132c8565b612ee16000848484613073565b612f20576040517f08c379a0000000000000000000000000000000000000000000000000000000008152600401612f17906154d0565b60405180910390fd5b505050565b6000612f3082611672565b9050612f40816000846001612ebe565b612f4982611672565b90506004600083815260200190815260200160002060006101000a81549073ffffffffffffffffffffffffffffffffffffffff02191690556001600360008373ffffffffffffffffffffffffffffffffffffffff1673ffffffffffffffffffffffffffffffffffffffff168152602001908152602001600020600082825403925050819055506002600083815260200190815260200160002060006101000a81549073ffffffffffffffffffffffffffffffffffffffff021916905581600073ffffffffffffffffffffffffffffffffffffffff168273ffffffffffffffffffffffffffffffffffffffff167fddf252ad1be2c89b69c2b068fc378daa952ba7f163c4a11628f55a4df523b3ef60405160405180910390a461306f816000846001612ec4565b5050565b60006130948473ffffffffffffffffffffffffffffffffffffffff166134e5565b156131ed578373ffffffffffffffffffffffffffffffffffffffff1663150b7a026130bd6124d1565b8786866040518563ffffffff1660e01b81526004016130df9493929190615545565b6020604051808303816000875af192505050801561311b57506040513d601f19601f8201168201806040525081019061311891906155a6565b60015b61319d573d806000811461314b576040519150601f19603f3d011682016040523d82523d6000602084013e613150565b606091505b506000815103613195576040517f08c379a000000000000000000000000000000000000000000000000000000000815260040161318c906154d0565b60405180910390fd5b805181602001fd5b63150b7a0260e01b7bffffffffffffffffffffffffffffffffffffffffffffffffffffffff1916817bffffffffffffffffffffffffffffffffffffffffffffffffffffffff1916149150506131f2565b600190505b949350505050565b60606000600161320984613508565b01905060008167ffffffffffffffff8111156132285761322761411f565b5b6040519080825280601f01601f19166020018201604052801561325a5781602001600182028036833780820191505090505b509050600082602001820190505b6001156132bd578080600190039150507f3031323334353637383961626364656600000000000000000000000000000000600a86061a8153600a85816132b1576132b06155d3565b5b04945060008503613268575b819350505050919050565b600073ffffffffffffffffffffffffffffffffffffffff168273ffffffffffffffffffffffffffffffffffffffff1603613337576040517f08c379a000000000000000000000000000000000000000000000000000000000815260040161332e9061564e565b60405180910390fd5b61334081612e7d565b15613380576040517f08c379a0000000000000000000000000000000000000000000000000000000008152600401613377906156ba565b60405180910390fd5b61338e600083836001612ebe565b61339781612e7d565b156133d7576040517f08c379a00000000000000000000000000000000000000000000000000000000081526004016133ce906156ba565b60405180910390fd5b6001600360008473ffffffffffffffffffffffffffffffffffffffff1673ffffffffffffffffffffffffffffffffffffffff16815260200190815260200160002060008282540192505081905550816002600083815260200190815260200160002060006101000a81548173ffffffffffffffffffffffffffffffffffffffff021916908373ffffffffffffffffffffffffffffffffffffffff160217905550808273ffffffffffffffffffffffffffffffffffffffff16600073ffffffffffffffffffffffffffffffffffffffff167fddf252ad1be2c89b69c2b068fc378daa952ba7f163c4a11628f55a4df523b3ef60405160405180910390a46134e1600083836001612ec4565b5050565b6000808273ffffffffffffffffffffffffffffffffffffffff163b119050919050565b600080600090507a184f03e93ff9f4daa797ed6e38ed64bf6a1f0100000000000000008310613566577a184f03e93ff9f4daa797ed6e38ed64bf6a1f010000000000000000838161355c5761355b6155d3565b5b0492506040810190505b6d04ee2d6d415b85acef810000000083106135a3576d04ee2d6d415b85acef81000000008381613599576135986155d3565b5b0492506020810190505b662386f26fc1000083106135d257662386f26fc1000083816135c8576135c76155d3565b5b0492506010810190505b6305f5e10083106135fb576305f5e10083816135f1576135f06155d3565b5b0492506008810190505b6127108310613620576127108381613616576136156155d3565b5b0492506004810190505b606483106136435760648381613639576136386155d3565b5b0492506002810190505b600a8310613652576001810190505b80915050919050565b60405180610140016040528060008152602001600081526020016000815260200160008152602001600081526020016000815260200160008152602001600073ffffffffffffffffffffffffffffffffffffffff1681526020016000151581526020016000151581525090565b5080546136d490614453565b6000825580601f106136e65750613705565b601f0160209004906000526020600020908101906137049190613708565b5b50565b5b80821115613721576000816000905550600101613709565b5090565b6000604051905090565b600080fd5b600080fd5b60007fffffffff0000000000000000000000000000000000000000000000000000000082169050919050565b61376e81613739565b811461377957600080fd5b50565b60008135905061378b81613765565b92915050565b6000602082840312156137a7576137a661372f565b5b60006137b58482850161377c565b91505092915050565b60008115159050919050565b6137d3816137be565b82525050565b60006020820190506137ee60008301846137ca565b92915050565b600081519050919050565b600082825260208201905092915050565b6000819050602082019050919050565b6000819050919050565b61383381613820565b82525050565b600073ffffffffffffffffffffffffffffffffffffffff82169050919050565b600061386482613839565b9050919050565b61387481613859565b82525050565b613883816137be565b82525050565b610140820160008201516138a0600085018261382a565b5060208201516138b3602085018261382a565b5060408201516138c6604085018261382a565b5060608201516138d9606085018261382a565b5060808201516138ec608085018261382a565b5060a08201516138ff60a085018261382a565b5060c082015161391260c085018261382a565b5060e082015161392560e085018261386b565b5061010082015161393a61010085018261387a565b5061012082015161394f61012085018261387a565b50505050565b60006139618383613889565b6101408301905092915050565b6000602082019050919050565b6000613986826137f4565b61399081856137ff565b935061399b83613810565b8060005b838110156139cc5781516139b38882613955565b97506139be8361396e565b92505060018101905061399f565b5085935050505092915050565b600060208201905081810360008301526139f3818461397b565b905092915050565b613a0481613859565b8114613a0f57600080fd5b50565b600081359050613a21816139fb565b92915050565b600060208284031215613a3d57613a3c61372f565b5b6000613a4b84828501613a12565b91505092915050565b600081519050919050565b600082825260208201905092915050565b6000819050602082019050919050565b6000613a8c838361382a565b60208301905092915050565b6000602082019050919050565b6000613ab082613a54565b613aba8185613a5f565b9350613ac583613a70565b8060005b83811015613af6578151613add8882613a80565b9750613ae883613a98565b925050600181019050613ac9565b5085935050505092915050565b60006020820190508181036000830152613b1d8184613aa5565b905092915050565b600081519050919050565b600082825260208201905092915050565b60005b83811015613b5f578082015181840152602081019050613b44565b60008484015250505050565b6000601f19601f8301169050919050565b6000613b8782613b25565b613b918185613b30565b9350613ba1818560208601613b41565b613baa81613b6b565b840191505092915050565b60006020820190508181036000830152613bcf8184613b7c565b905092915050565b613be081613820565b8114613beb57600080fd5b50565b600081359050613bfd81613bd7565b92915050565b600060208284031215613c1957613c1861372f565b5b6000613c2784828501613bee565b91505092915050565b613c3981613859565b82525050565b6000602082019050613c546000830184613c30565b92915050565b60008060408385031215613c7157613c7061372f565b5b6000613c7f85828601613a12565b9250506020613c9085828601613bee565b9150509250929050565b600080600060608486031215613cb357613cb261372f565b5b6000613cc186828701613a12565b9350506020613cd286828701613a12565b9250506040613ce386828701613bee565b9150509250925092565b600080fd5b600080fd5b600080fd5b60008083601f840112613d1257613d11613ced565b5b8235905067ffffffffffffffff811115613d2f57613d2e613cf2565b5b602083019150836001820283011115613d4b57613d4a613cf7565b5b9250929050565b600080600080600060808688031215613d6e57613d6d61372f565b5b600086013567ffffffffffffffff811115613d8c57613d8b613734565b5b613d9888828901613cfc565b95509550506020613dab88828901613bee565b9350506040613dbc88828901613bee565b9250506060613dcd88828901613bee565b9150509295509295909350565b60008060408385031215613df157613df061372f565b5b6000613dff85828601613bee565b9250506020613e1085828601613bee565b9150509250929050565b613e2381613820565b82525050565b6000602082019050613e3e6000830184613e1a565b92915050565b600061014082019050613e5a600083018d613e1a565b613e67602083018c613e1a565b613e74604083018b613e1a565b613e81606083018a613e1a565b613e8e6080830189613e1a565b613e9b60a0830188613e1a565b613ea860c0830187613e1a565b613eb560e0830186613c30565b613ec36101008301856137ca565b613ed16101208301846137ca565b9b9a5050505050505050505050565b600081519050919050565b600082825260208201905092915050565b6000819050602082019050919050565b60e082016000820151613f22600085018261382a565b506020820151613f35602085018261382a565b506040820151613f48604085018261382a565b506060820151613f5b606085018261382a565b506080820151613f6e608085018261382a565b5060a0820151613f8160a085018261382a565b5060c0820151613f9460c085018261386b565b50505050565b6000613fa68383613f0c565b60e08301905092915050565b6000602082019050919050565b6000613fca82613ee0565b613fd48185613eeb565b9350613fdf83613efc565b8060005b83811015614010578151613ff78882613f9a565b975061400283613fb2565b925050600181019050613fe3565b5085935050505092915050565b600060208201905081810360008301526140378184613fbf565b905092915050565b614048816137be565b811461405357600080fd5b50565b6000813590506140658161403f565b92915050565b600080604083850312156140825761408161372f565b5b600061409085828601613a12565b92505060206140a185828601614056565b9150509250929050565b600060e0820190506140c0600083018a613e1a565b6140cd6020830189613e1a565b6140da6040830188613e1a565b6140e76060830187613e1a565b6140f46080830186613e1a565b61410160a0830185613e1a565b61410e60c0830184613c30565b98975050505050505050565b600080fd5b7f4e487b7100000000000000000000000000000000000000000000000000000000600052604160045260246000fd5b61415782613b6b565b810181811067ffffffffffffffff821117156141765761417561411f565b5b80604052505050565b6000614189613725565b9050614195828261414e565b919050565b600067ffffffffffffffff8211156141b5576141b461411f565b5b6141be82613b6b565b9050602081019050919050565b82818337600083830152505050565b60006141ed6141e88461419a565b61417f565b9050828152602081018484840111156142095761420861411a565b5b6142148482856141cb565b509392505050565b600082601f83011261423157614230613ced565b5b81356142418482602086016141da565b91505092915050565b600080600080608085870312156142645761426361372f565b5b600061427287828801613a12565b945050602061428387828801613a12565b935050604061429487828801613bee565b925050606085013567ffffffffffffffff8111156142b5576142b4613734565b5b6142c18782880161421c565b91505092959194509250565b600080604083850312156142e4576142e361372f565b5b60006142f285828601613a12565b925050602061430385828601613a12565b9150509250929050565b61014082016000820151614324600085018261382a565b506020820151614337602085018261382a565b50604082015161434a604085018261382a565b50606082015161435d606085018261382a565b506080820151614370608085018261382a565b5060a082015161438360a085018261382a565b5060c082015161439660c085018261382a565b5060e08201516143a960e085018261386b565b506101008201516143be61010085018261387a565b506101208201516143d361012085018261387a565b50505050565b6000610140820190506143ef600083018461430d565b92915050565b7f4e487b7100000000000000000000000000000000000000000000000000000000600052603260045260246000fd5b7f4e487b7100000000000000000000000000000000000000000000000000000000600052602260045260246000fd5b6000600282049050600182168061446b57607f821691505b60208210810361447e5761447d614424565b5b50919050565b7f4552433732313a20617070726f76616c20746f2063757272656e74206f776e6560008201527f7200000000000000000000000000000000000000000000000000000000000000602082015250565b60006144e0602183613b30565b91506144eb82614484565b604082019050919050565b6000602082019050818103600083015261450f816144d3565b9050919050565b7f4552433732313a20617070726f76652063616c6c6572206973206e6f7420746f60008201527f6b656e206f776e6572206f7220617070726f76656420666f7220616c6c000000602082015250565b6000614572603d83613b30565b915061457d82614516565b604082019050919050565b600060208201905081810360008301526145a181614565565b9050919050565b7f4552433732313a2063616c6c6572206973206e6f7420746f6b656e206f776e6560008201527f72206f7220617070726f76656400000000000000000000000000000000000000602082015250565b6000614604602d83613b30565b915061460f826145a8565b604082019050919050565b60006020820190508181036000830152614633816145f7565b9050919050565b7f546f74616c207469636b657473206d757374206265206772656174657220746860008201527f616e203000000000000000000000000000000000000000000000000000000000602082015250565b6000614696602483613b30565b91506146a18261463a565b604082019050919050565b600060208201905081810360008301526146c581614689565b9050919050565b7f5469636b6574207072696365206d75737420626520677265617465722074686160008201527f6e20300000000000000000000000000000000000000000000000000000000000602082015250565b6000614728602383613b30565b9150614733826146cc565b604082019050919050565b600060208201905081810360008301526147578161471b565b9050919050565b7f5469636b657420656e642064617465206d75737420626520696e20746865206660008201527f7574757265000000000000000000000000000000000000000000000000000000602082015250565b60006147ba602583613b30565b91506147c58261475e565b604082019050919050565b600060208201905081810360008301526147e9816147ad565b9050919050565b60006080820190506148056000830187613e1a565b6148126020830186613e1a565b61481f6040830185613e1a565b61482c6060830184613e1a565b95945050505050565b7f496e76616c6964206e756d626572206f66207469636b65747300000000000000600082015250565b600061486b601983613b30565b915061487682614835565b602082019050919050565b6000602082019050818103600083015261489a8161485e565b9050919050565b7f4e6f7420656e6f756768207469636b65747320736f6c64000000000000000000600082015250565b60006148d7601783613b30565b91506148e2826148a1565b602082019050919050565b60006020820190508181036000830152614906816148ca565b9050919050565b7f5469636b65742063616e6e6f74206265207265736f6c64207965740000000000600082015250565b6000614943601b83613b30565b915061494e8261490d565b602082019050919050565b6000602082019050818103600083015261497281614936565b9050919050565b7f4e487b7100000000000000000000000000000000000000000000000000000000600052601160045260246000fd5b60006149b382613820565b91506149be83613820565b92508282019050808211156149d6576149d5614979565b5b92915050565b7f4e6f7420656e6f756768207469636b657473206f776e65640000000000000000600082015250565b6000614a12601883613b30565b9150614a1d826149dc565b602082019050919050565b60006020820190508181036000830152614a4181614a05565b9050919050565b7f43616e6e6f7420726573656c6c206d6f7265207469636b657473207468616e2060008201527f6f776e6564000000000000000000000000000000000000000000000000000000602082015250565b6000614aa4602583613b30565b9150614aaf82614a48565b604082019050919050565b60006020820190508181036000830152614ad381614a97565b9050919050565b6000604082019050614aef6000830185613c30565b614afc6020830184613e1a565b9392505050565b7f4552433732313a20696e76616c696420746f6b656e2049440000000000000000600082015250565b6000614b39601883613b30565b9150614b4482614b03565b602082019050919050565b60006020820190508181036000830152614b6881614b2c565b9050919050565b7f4552433732313a2061646472657373207a65726f206973206e6f74206120766160008201527f6c6964206f776e65720000000000000000000000000000000000000000000000602082015250565b6000614bcb602983613b30565b9150614bd682614b6f565b604082019050919050565b60006020820190508181036000830152614bfa81614bbe565b9050919050565b7f5469636b65742068617320616c7265616479206265656e20736f6c6400000000600082015250565b6000614c37601c83613b30565b9150614c4282614c01565b602082019050919050565b60006020820190508181036000830152614c6681614c2a565b9050919050565b6000614c7882613820565b9150614c8383613820565b9250828203905081811115614c9b57614c9a614979565b5b92915050565b6000614cac82613820565b9150614cb783613820565b9250828202614cc581613820565b91508282048414831517614cdc57614cdb614979565b5b5092915050565b7f496e636f727265637420616d6f756e742073656e740000000000000000000000600082015250565b6000614d19601583613b30565b9150614d2482614ce3565b602082019050919050565b60006020820190508181036000830152614d4881614d0c565b9050919050565b6000614d5a82613820565b91507fffffffffffffffffffffffffffffffffffffffffffffffffffffffffffffffff8203614d8c57614d8b614979565b5b600182019050919050565b600081905092915050565b6000614dad82613b25565b614db78185614d97565b9350614dc7818560208601613b41565b80840191505092915050565b6000614ddf8285614da2565b9150614deb8284614da2565b91508190509392505050565b7f4e6f7420656e6f756768207469636b65747320617661696c61626c6520666f7260008201527f20726573616c6500000000000000000000000000000000000000000000000000602082015250565b6000614e53602783613b30565b9150614e5e82614df7565b604082019050919050565b60006020820190508181036000830152614e8281614e46565b9050919050565b6000606082019050614e9e6000830186613c30565b614eab6020830185613c30565b614eb86040830184613e1a565b949350505050565b7f4f776e61626c653a206e6577206f776e657220697320746865207a65726f206160008201527f6464726573730000000000000000000000000000000000000000000000000000602082015250565b6000614f1c602683613b30565b9150614f2782614ec0565b604082019050919050565b60006020820190508181036000830152614f4b81614f0f565b9050919050565b7f4552433732313a207472616e736665722066726f6d20696e636f72726563742060008201527f6f776e6572000000000000000000000000000000000000000000000000000000602082015250565b6000614fae602583613b30565b9150614fb982614f52565b604082019050919050565b60006020820190508181036000830152614fdd81614fa1565b9050919050565b7f4552433732313a207472616e7366657220746f20746865207a65726f2061646460008201527f7265737300000000000000000000000000000000000000000000000000000000602082015250565b6000615040602483613b30565b915061504b82614fe4565b604082019050919050565b6000602082019050818103600083015261506f81615033565b9050919050565b7f4f776e61626c653a2063616c6c6572206973206e6f7420746865206f776e6572600082015250565b60006150ac602083613b30565b91506150b782615076565b602082019050919050565b600060208201905081810360008301526150db8161509f565b9050919050565b7f45524337323155524953746f726167653a2055524920736574206f66206e6f6e60008201527f6578697374656e7420746f6b656e000000000000000000000000000000000000602082015250565b600061513e602e83613b30565b9150615149826150e2565b604082019050919050565b6000602082019050818103600083015261516d81615131565b9050919050565b60008190508160005260206000209050919050565b60006020601f8301049050919050565b600082821b905092915050565b6000600883026151d67fffffffffffffffffffffffffffffffffffffffffffffffffffffffffffffffff82615199565b6151e08683615199565b95508019841693508086168417925050509392505050565b6000819050919050565b600061521d61521861521384613820565b6151f8565b613820565b9050919050565b6000819050919050565b61523783615202565b61524b61524382615224565b8484546151a6565b825550505050565b600090565b615260615253565b61526b81848461522e565b505050565b5b8181101561528f57615284600082615258565b600181019050615271565b5050565b601f8211156152d4576152a581615174565b6152ae84615189565b810160208510156152bd578190505b6152d16152c985615189565b830182615270565b50505b505050565b600082821c905092915050565b60006152f7600019846008026152d9565b1980831691505092915050565b600061531083836152e6565b9150826002028217905092915050565b61532982613b25565b67ffffffffffffffff8111156153425761534161411f565b5b61534c8254614453565b615357828285615293565b600060209050601f83116001811461538a5760008415615378578287015190505b6153828582615304565b8655506153ea565b601f19841661539886615174565b60005b828110156153c05784890151825560018201915060208501945060208101905061539b565b868310156153dd57848901516153d9601f8916826152e6565b8355505b6001600288020188555050505b505050505050565b7f4552433732313a20617070726f766520746f2063616c6c657200000000000000600082015250565b6000615428601983613b30565b9150615433826153f2565b602082019050919050565b600060208201905081810360008301526154578161541b565b9050919050565b7f4552433732313a207472616e7366657220746f206e6f6e20455243373231526560008201527f63656976657220696d706c656d656e7465720000000000000000000000000000602082015250565b60006154ba603283613b30565b91506154c58261545e565b604082019050919050565b600060208201905081810360008301526154e9816154ad565b9050919050565b600081519050919050565b600082825260208201905092915050565b6000615517826154f0565b61552181856154fb565b9350615531818560208601613b41565b61553a81613b6b565b840191505092915050565b600060808201905061555a6000830187613c30565b6155676020830186613c30565b6155746040830185613e1a565b8181036060830152615586818461550c565b905095945050505050565b6000815190506155a081613765565b92915050565b6000602082840312156155bc576155bb61372f565b5b60006155ca84828501615591565b91505092915050565b7f4e487b7100000000000000000000000000000000000000000000000000000000600052601260045260246000fd5b7f4552433732313a206d696e7420746f20746865207a65726f2061646472657373600082015250565b6000615638602083613b30565b915061564382615602565b602082019050919050565b600060208201905081810360008301526156678161562b565b9050919050565b7f4552433732313a20746f6b656e20616c7265616479206d696e74656400000000600082015250565b60006156a4601c83613b30565b91506156af8261566e565b602082019050919050565b600060208201905081810360008301526156d381615697565b905091905056fea264697066735822122095f2309e9443f7ba6a0e7a754d4a4bd1461109fa1cb676521c46dc645bc525a664736f6c63430008180033",
  "linkReferences": {},
  "deployedLinkReferences": {}
}